{
  "contractName": "NomiswapStableFactory",
  "abi": [
    {
      "inputs": [
        {
          "internalType": "address",
          "name": "_feeToSetter",
          "type": "address"
        }
      ],
      "stateMutability": "nonpayable",
      "type": "constructor"
    },
    {
      "anonymous": false,
      "inputs": [
        {
          "indexed": true,
          "internalType": "address",
          "name": "token0",
          "type": "address"
        },
        {
          "indexed": true,
          "internalType": "address",
          "name": "token1",
          "type": "address"
        },
        {
          "indexed": false,
          "internalType": "address",
          "name": "pair",
          "type": "address"
        },
        {
          "indexed": false,
          "internalType": "uint256",
          "name": "",
          "type": "uint256"
        }
      ],
      "name": "PairCreated",
      "type": "event"
    },
    {
      "inputs": [],
      "name": "INIT_CODE_HASH",
      "outputs": [
        {
          "internalType": "bytes32",
          "name": "",
          "type": "bytes32"
        }
      ],
      "stateMutability": "view",
      "type": "function"
    },
    {
      "inputs": [
        {
          "internalType": "uint256",
          "name": "",
          "type": "uint256"
        }
      ],
      "name": "allPairs",
      "outputs": [
        {
          "internalType": "address",
          "name": "",
          "type": "address"
        }
      ],
      "stateMutability": "view",
      "type": "function"
    },
    {
      "inputs": [],
      "name": "feeTo",
      "outputs": [
        {
          "internalType": "address",
          "name": "",
          "type": "address"
        }
      ],
      "stateMutability": "view",
      "type": "function"
    },
    {
      "inputs": [],
      "name": "feeToSetter",
      "outputs": [
        {
          "internalType": "address",
          "name": "",
          "type": "address"
        }
      ],
      "stateMutability": "view",
      "type": "function"
    },
    {
      "inputs": [
        {
          "internalType": "address",
          "name": "",
          "type": "address"
        },
        {
          "internalType": "address",
          "name": "",
          "type": "address"
        }
      ],
      "name": "getPair",
      "outputs": [
        {
          "internalType": "address",
          "name": "",
          "type": "address"
        }
      ],
      "stateMutability": "view",
      "type": "function"
    },
    {
      "inputs": [],
      "name": "version",
      "outputs": [
        {
          "internalType": "string",
          "name": "",
          "type": "string"
        }
      ],
      "stateMutability": "view",
      "type": "function"
    },
    {
      "inputs": [],
      "name": "allPairsLength",
      "outputs": [
        {
          "internalType": "uint256",
          "name": "",
          "type": "uint256"
        }
      ],
      "stateMutability": "view",
      "type": "function"
    },
    {
      "inputs": [
        {
          "internalType": "address",
          "name": "tokenA",
          "type": "address"
        },
        {
          "internalType": "address",
          "name": "tokenB",
          "type": "address"
        }
      ],
      "name": "createPair",
      "outputs": [
        {
          "internalType": "address",
          "name": "pair",
          "type": "address"
        }
      ],
      "stateMutability": "nonpayable",
      "type": "function"
    },
    {
      "inputs": [
        {
          "internalType": "address",
          "name": "_feeTo",
          "type": "address"
        }
      ],
      "name": "setFeeTo",
      "outputs": [],
      "stateMutability": "nonpayable",
      "type": "function"
    },
    {
      "inputs": [
        {
          "internalType": "address",
          "name": "_feeToSetter",
          "type": "address"
        }
      ],
      "name": "setFeeToSetter",
      "outputs": [],
      "stateMutability": "nonpayable",
      "type": "function"
    },
    {
      "inputs": [
        {
          "internalType": "address",
          "name": "_pair",
          "type": "address"
        },
        {
          "internalType": "uint128",
          "name": "_devFee",
          "type": "uint128"
        }
      ],
      "name": "setDevFee",
      "outputs": [],
      "stateMutability": "nonpayable",
      "type": "function"
    },
    {
      "inputs": [
        {
          "internalType": "address",
          "name": "_pair",
          "type": "address"
        },
        {
          "internalType": "uint32",
          "name": "_swapFee",
          "type": "uint32"
        }
      ],
      "name": "setSwapFee",
      "outputs": [],
      "stateMutability": "nonpayable",
      "type": "function"
    },
    {
      "inputs": [
        {
          "internalType": "address",
          "name": "_pair",
          "type": "address"
        },
        {
          "internalType": "uint32",
          "name": "_futureA",
          "type": "uint32"
        },
        {
          "internalType": "uint40",
          "name": "_futureTime",
          "type": "uint40"
        }
      ],
      "name": "rampA",
      "outputs": [],
      "stateMutability": "nonpayable",
      "type": "function"
    },
    {
      "inputs": [
        {
          "internalType": "address",
          "name": "_pair",
          "type": "address"
        }
      ],
      "name": "stopRampA",
      "outputs": [],
      "stateMutability": "nonpayable",
      "type": "function"
    }
  ],
  "bytecode": "0x6080604081905261001060a061009d565b601f1982820381018352601f90910116604081905261003291906020016100ab565b6040516020818303038152906040528051906020012060025534801561005757600080fd5b506040516200ad463803806200ad46833981016040819052610078916100e6565b600180546001600160a01b0319166001600160a01b0392909216919091179055610116565b614d9d8062005fa983390190565b6000825160005b818110156100cc57602081860181015185830152016100b2565b818111156100db576000828501525b509190910192915050565b6000602082840312156100f857600080fd5b81516001600160a01b038116811461010f57600080fd5b9392505050565b615e8380620001266000396000f3fe60806040523480156200001157600080fd5b5060043610620000fd5760003560e01c80636864a4b31162000097578063bcec1e4d116200006e578063bcec1e4d1462000251578063c9c653961462000268578063e6a43905146200027f578063f46901ed14620002c357600080fd5b80636864a4b3146200020c5780639e68ceb81462000223578063a2e74af6146200023a57600080fd5b8063257671f511620000d8578063257671f5146200018557806352b5c71e146200019e57806354fd4d5014620001b7578063574f2ba3146200020357600080fd5b8063017e7e581462000102578063094b7415146200014d5780631e3dd18b146200016e575b600080fd5b600054620001239073ffffffffffffffffffffffffffffffffffffffff1681565b60405173ffffffffffffffffffffffffffffffffffffffff90911681526020015b60405180910390f35b600154620001239073ffffffffffffffffffffffffffffffffffffffff1681565b620001236200017f36600462000e6b565b620002da565b6200018f60025481565b60405190815260200162000144565b620001b5620001af36600462000eaf565b62000312565b005b620001f46040518060400160405280601b81526020017f4e6f6d6973776170537461626c65466163746f727920322e302e30000000000081525081565b60405162000144919062000f32565b6004546200018f565b620001b56200021d36600462000f85565b620004af565b620001b56200023436600462000fbf565b62000597565b620001b56200024b36600462000f85565b62000673565b620001b56200026236600462000ff7565b6200073d565b62000123620002793660046200104e565b62000859565b62000123620002903660046200104e565b600360209081526000928352604080842090915290825290205473ffffffffffffffffffffffffffffffffffffffff1681565b620001b5620002d436600462000f85565b62000d93565b60048181548110620002eb57600080fd5b60009182526020909120015473ffffffffffffffffffffffffffffffffffffffff16905081565b60015473ffffffffffffffffffffffffffffffffffffffff16331462000399576040517f08c379a000000000000000000000000000000000000000000000000000000000815260206004820152601360248201527f4e6f6d69737761703a20464f5242494444454e0000000000000000000000000060448201526064015b60405180910390fd5b6000816fffffffffffffffffffffffffffffffff161162000417576040517f08c379a000000000000000000000000000000000000000000000000000000000815260206004820152601760248201527f4e6f6d69737761703a20464f5242494444454e5f464545000000000000000000604482015260640162000390565b6040517f111f8ef30000000000000000000000000000000000000000000000000000000081526fffffffffffffffffffffffffffffffff8216600482015273ffffffffffffffffffffffffffffffffffffffff83169063111f8ef3906024015b600060405180830381600087803b1580156200049257600080fd5b505af1158015620004a7573d6000803e3d6000fd5b505050505050565b60015473ffffffffffffffffffffffffffffffffffffffff16331462000532576040517f08c379a000000000000000000000000000000000000000000000000000000000815260206004820152601360248201527f4e6f6d69737761703a20464f5242494444454e00000000000000000000000000604482015260640162000390565b8073ffffffffffffffffffffffffffffffffffffffff1663c4db7fa06040518163ffffffff1660e01b8152600401600060405180830381600087803b1580156200057b57600080fd5b505af115801562000590573d6000803e3d6000fd5b5050505050565b60015473ffffffffffffffffffffffffffffffffffffffff1633146200061a576040517f08c379a000000000000000000000000000000000000000000000000000000000815260206004820152601360248201527f4e6f6d69737761703a20464f5242494444454e00000000000000000000000000604482015260640162000390565b6040517fd6d788c300000000000000000000000000000000000000000000000000000000815263ffffffff8216600482015273ffffffffffffffffffffffffffffffffffffffff83169063d6d788c39060240162000477565b60015473ffffffffffffffffffffffffffffffffffffffff163314620006f6576040517f08c379a000000000000000000000000000000000000000000000000000000000815260206004820152601360248201527f4e6f6d69737761703a20464f5242494444454e00000000000000000000000000604482015260640162000390565b600180547fffffffffffffffffffffffff00000000000000000000000000000000000000001673ffffffffffffffffffffffffffffffffffffffff92909216919091179055565b60015473ffffffffffffffffffffffffffffffffffffffff163314620007c0576040517f08c379a000000000000000000000000000000000000000000000000000000000815260206004820152601360248201527f4e6f6d69737761703a20464f5242494444454e00000000000000000000000000604482015260640162000390565b6040517f73c48bb500000000000000000000000000000000000000000000000000000000815263ffffffff8316600482015264ffffffffff8216602482015273ffffffffffffffffffffffffffffffffffffffff8416906373c48bb590604401600060405180830381600087803b1580156200083b57600080fd5b505af115801562000850573d6000803e3d6000fd5b50505050505050565b60015460009073ffffffffffffffffffffffffffffffffffffffff163314620008df576040517f08c379a000000000000000000000000000000000000000000000000000000000815260206004820152601360248201527f4e6f6d69737761703a20464f5242494444454e00000000000000000000000000604482015260640162000390565b8173ffffffffffffffffffffffffffffffffffffffff168373ffffffffffffffffffffffffffffffffffffffff160362000976576040517f08c379a000000000000000000000000000000000000000000000000000000000815260206004820152601d60248201527f4e6f6d69737761703a204944454e544943414c5f414444524553534553000000604482015260640162000390565b6000808373ffffffffffffffffffffffffffffffffffffffff168573ffffffffffffffffffffffffffffffffffffffff1610620009b5578385620009b8565b84845b909250905073ffffffffffffffffffffffffffffffffffffffff821662000a3c576040517f08c379a000000000000000000000000000000000000000000000000000000000815260206004820152601660248201527f4e6f6d69737761703a205a45524f5f4144445245535300000000000000000000604482015260640162000390565b73ffffffffffffffffffffffffffffffffffffffff82811660009081526003602090815260408083208585168452909152902054161562000ada576040517f08c379a000000000000000000000000000000000000000000000000000000000815260206004820152601560248201527f4e6f6d69737761703a20504149525f4558495354530000000000000000000000604482015260640162000390565b60006040518060200162000aee9062000e5d565b7fffffffffffffffffffffffffffffffffffffffffffffffffffffffffffffffe082820381018352601f90910116604081815273ffffffffffffffffffffffffffffffffffffffff80871660208401528516908201529091506000908290606001604080517fffffffffffffffffffffffffffffffffffffffffffffffffffffffffffffffe08184030181529082905262000b8d92916020016200107d565b604080517fffffffffffffffffffffffffffffffffffffffffffffffffffffffffffffffe0818403018152908290527fffffffffffffffffffffffffffffffffffffffff000000000000000000000000606087811b8216602085015286901b1660348301529150600090604801604051602081830303815290604052805190602001209050808251602084016000f5955073ffffffffffffffffffffffffffffffffffffffff861662000c9d576040517f08c379a000000000000000000000000000000000000000000000000000000000815260206004820152601a60248201527f4e6f6d69737761703a20504149525f4e4f545f43524541544544000000000000604482015260640162000390565b73ffffffffffffffffffffffffffffffffffffffff85811660008181526003602081815260408084208a87168086529083528185208054978e167fffffffffffffffffffffffff000000000000000000000000000000000000000098891681179091559383528185208686528352818520805488168517905560048054600181018255958190527f8a35acfbc15ff81a39ae7d344fd709f28e8600b4aa8c65c6b64bfe7fe36bd19b9095018054909716841790965592548351928352908201527f0d3648bd0f6ba80134a33ba9275ac585d9d315f0ad8355cddefde31afa28d0e9910160405180910390a3505050505092915050565b60015473ffffffffffffffffffffffffffffffffffffffff16331462000e16576040517f08c379a000000000000000000000000000000000000000000000000000000000815260206004820152601360248201527f4e6f6d69737761703a20464f5242494444454e00000000000000000000000000604482015260640162000390565b600080547fffffffffffffffffffffffff00000000000000000000000000000000000000001673ffffffffffffffffffffffffffffffffffffffff92909216919091179055565b614d9d80620010b183390190565b60006020828403121562000e7e57600080fd5b5035919050565b803573ffffffffffffffffffffffffffffffffffffffff8116811462000eaa57600080fd5b919050565b6000806040838503121562000ec357600080fd5b62000ece8362000e85565b915060208301356fffffffffffffffffffffffffffffffff8116811462000ef457600080fd5b809150509250929050565b60005b8381101562000f1c57818101518382015260200162000f02565b8381111562000f2c576000848401525b50505050565b602081526000825180602084015262000f5381604085016020870162000eff565b601f017fffffffffffffffffffffffffffffffffffffffffffffffffffffffffffffffe0169190910160400192915050565b60006020828403121562000f9857600080fd5b62000fa38262000e85565b9392505050565b803563ffffffff8116811462000eaa57600080fd5b6000806040838503121562000fd357600080fd5b62000fde8362000e85565b915062000fee6020840162000faa565b90509250929050565b6000806000606084860312156200100d57600080fd5b620010188462000e85565b9250620010286020850162000faa565b9150604084013564ffffffffff811681146200104357600080fd5b809150509250925092565b600080604083850312156200106257600080fd5b6200106d8362000e85565b915062000fee6020840162000e85565b600083516200109181846020880162000eff565b835190830190620010a781836020880162000eff565b0194935050505056fe610140604052600680546001600160801b031916600117905560076200002b600160701b6003620003f6565b62000037919062000418565b600680546001600160801b03928316600160801b0292169190911790556200006260646055620003f6565b600780546001600160401b03191663ffffffff92909216918217640100000000929092029190911763ffffffff60901b19166208312760931b179055348015620000ab57600080fd5b5060405162004d9d38038062004d9d833981016040819052620000ce9162000458565b604080518082018252601381527f4e6f6d697377617020737461626c65204c5073000000000000000000000000006020918201528151808301835260018152603160f81b9082015281517f8b73c3c69bb8fe3d512ecc4cf759cc79239f7b179b0ffacaa9a75d522b39400f918101919091527f22155260db1abf6474eb894108f4b66f54f6b4a9c481b6e3e789468ed505cc97918101919091527fc89efdaa54c0f20c7adf612882df0950f5a951637e0307cdcb4c672f298b8bc6606082015246608082018190523060a0830152339160c00160408051808303601f190181528282528051602091820120608052600160049081556001600160a01b0395861660a0526007805464ffffffffff60681b19166d01000000000000000000000000004264ffffffffff160217905587861660c081905295871660e05263313ce56760e01b84529151600095945063313ce5679383810193908290030181865afa1580156200023f573d6000803e3d6000fd5b505050506040513d601f19601f8201168201806040525081019062000265919062000490565b905060128160ff161115620002be5760405162461bcd60e51b8152602060048201526025602482015260008051602062004d7d8339815191526044820152643a37b5b2b760d91b60648201526084015b60405180910390fd5b620002cb816012620004bc565b620002d890600a62000622565b6001600160801b0316610100816001600160801b0316815250506000826001600160a01b031663313ce5676040518163ffffffff1660e01b8152600401602060405180830381865afa15801562000333573d6000803e3d6000fd5b505050506040513d601f19601f8201168201806040525081019062000359919062000490565b905060128160ff161115620003ae5760405162461bcd60e51b8152602060048201526025602482015260008051602062004d7d8339815191526044820152643a37b5b2b760d91b6064820152608401620002b5565b620003bb816012620004bc565b620003c890600a62000622565b6001600160801b031661012052506200063c92505050565b634e487b7160e01b600052601160045260246000fd5b6000816000190483118215151615620004135762000413620003e0565b500290565b6000826200043657634e487b7160e01b600052601260045260246000fd5b500490565b80516001600160a01b03811681146200045357600080fd5b919050565b600080604083850312156200046c57600080fd5b62000477836200043b565b915062000487602084016200043b565b90509250929050565b600060208284031215620004a357600080fd5b815160ff81168114620004b557600080fd5b9392505050565b600060ff821660ff841680821015620004d957620004d9620003e0565b90039392505050565b600181815b8085111562000529576001600160801b038290048211156200050d576200050d620003e0565b808516156200051b57918102915b93841c9390800290620004e7565b509250929050565b60008262000542575060016200061c565b8162000551575060006200061c565b81600181146200056a57600281146200057557620005b0565b60019150506200061c565b60ff841115620005895762000589620003e0565b6001841b91506001600160801b03821115620005a957620005a9620003e0565b506200061c565b5060208310610133831016604e8410600b8410161715620005ef575081810a6001600160801b03811115620005e957620005e9620003e0565b6200061c565b620005fb8383620004e2565b6001600160801b03819004821115620006185762000618620003e0565b0290505b92915050565b6000620004b560ff84166001600160801b03841662000531565b60805160a05160c05160e051610100516101205161461f6200075e6000396000818161049001528181610d7d015281816113710152818161299e015261355d01526000818161063701528181610d590152818161134d0152818161297a015261351d0152600081816106bd0152818161096a015281816114a4015281816117a301528181611e920152818161232f015281816125a901528181612ae1015261329c01526000818161038c01528181610949015281816113ca015281816116ef01528181611e700152818161227e0152818161258701528181612a4901526131ee0152600081816106790152818161106801528181611a6b0152818161276901528181612fd9015261393b0152600081816104560152612d4e015261461f6000f3fe608060405234801561001057600080fd5b50600436106102925760003560e01c80637ecebe0011610160578063bc25cf77116100d8578063d46300fd1161008c578063d6d788c311610071578063d6d788c3146106fa578063dd62ed3e1461070d578063fff6cae91461073857600080fd5b8063d46300fd146106df578063d505accf146106e757600080fd5b8063c4db7fa0116100bd578063c4db7fa01461069d578063ca706bcf146106a5578063d21220a7146106b857600080fd5b8063bc25cf7714610664578063c45a01551461067757600080fd5b8063a457c2d71161012f578063ba9a7a5611610114578063ba9a7a5614610629578063baa8c7cb14610632578063bc063e1a1461065957600080fd5b8063a457c2d714610603578063a9059cbb1461061657600080fd5b80637ecebe001461059757806389afcb44146105b757806395d89b41146105df578063a0be06f9146105e757600080fd5b8063313ce5671161020e578063632db21c116101c25780636a627842116101a75780636a6278421461055157806370a082311461056457806373c48bb51461058457600080fd5b8063632db21c1461050e5780636827e7641461052157600080fd5b806339509351116101f357806339509351146104785780634e25dc471461048b57806354cf2aeb146104d357600080fd5b8063313ce567146104375780633644e5151461045157600080fd5b80630dfe16811161026557806318160ddd1161024a57806318160ddd146103e657806323b872dd146103fd57806330adf81f1461041057600080fd5b80630dfe168114610387578063111f8ef3146103d357600080fd5b8063022c0d9f1461029757806306fdde03146102ac5780630902f1ac146102fe578063095ea7b314610364575b600080fd5b6102aa6102a5366004613f4d565b610740565b005b6102e86040518060400160405280601381526020017f4e6f6d697377617020737461626c65204c50730000000000000000000000000081525081565b6040516102f59190614013565b60405180910390f35b600554604080516dffffffffffffffffffffffffffff80841682526e01000000000000000000000000000084041660208201527c010000000000000000000000000000000000000000000000000000000090920463ffffffff16908201526060016102f5565b610377610372366004614064565b611039565b60405190151581526020016102f5565b6103ae7f000000000000000000000000000000000000000000000000000000000000000081565b60405173ffffffffffffffffffffffffffffffffffffffff90911681526020016102f5565b6102aa6103e1366004614090565b611050565b6103ef60005481565b6040519081526020016102f5565b61037761040b3660046140c2565b6111a0565b6103ef7f6e71edae12b1b97f4d1f60370fef10105fa2faae0126114a169c64845d6126c981565b61043f601281565b60405160ff90911681526020016102f5565b6103ef7f000000000000000000000000000000000000000000000000000000000000000081565b610377610486366004614064565b61127b565b6104b27f000000000000000000000000000000000000000000000000000000000000000081565b6040516fffffffffffffffffffffffffffffffff90911681526020016102f5565b6007546104f9907201000000000000000000000000000000000000900463ffffffff1681565b60405163ffffffff90911681526020016102f5565b6103ef61051c366004614064565b6112c4565b6006546104b29070010000000000000000000000000000000090046fffffffffffffffffffffffffffffffff1681565b6103ef61055f366004614103565b6115d4565b6103ef610572366004614103565b60016020526000908152604090205481565b6102aa610592366004614139565b6119e2565b6103ef6105a5366004614103565b60036020526000908152604090205481565b6105ca6105c5366004614103565b611dca565b604080519283526020830191909152016102f5565b6102e8612244565b6006546104b2906fffffffffffffffffffffffffffffffff1681565b610377610611366004614064565b612404565b610377610624366004614064565b6124d4565b6103ef6103e881565b6104b27f000000000000000000000000000000000000000000000000000000000000000081565b6103ef63ffffffff81565b6102aa610672366004614103565b6124e1565b7f00000000000000000000000000000000000000000000000000000000000000006103ae565b6102aa6126e0565b6103ef6106b3366004614064565b6128ed565b6103ae7f000000000000000000000000000000000000000000000000000000000000000081565b6103ef612bdf565b6102aa6106f536600461417a565b612cbb565b6102aa6107083660046141f1565b612fc1565b6103ef61071b36600461420c565b600260209081526000928352604080842090915290825290205481565b6102aa613147565b6002600454036107b1576040517f08c379a000000000000000000000000000000000000000000000000000000000815260206004820152601f60248201527f5265656e7472616e637947756172643a207265656e7472616e742063616c6c0060448201526064015b60405180910390fd5b6002600455841515806107c45750600084115b61084f576040517f08c379a0000000000000000000000000000000000000000000000000000000008152602060048201526024808201527f4e6f6d69737761703a20494e53554646494349454e545f4f55545055545f414d60448201527f4f554e540000000000000000000000000000000000000000000000000000000060648201526084016107a8565b6000806108ab6005546dffffffffffffffffffffffffffff808216926e01000000000000000000000000000083049091169163ffffffff7c01000000000000000000000000000000000000000000000000000000009091041690565b506dffffffffffffffffffffffffffff1691506dffffffffffffffffffffffffffff16915081871080156108de57508086105b610944576040517f08c379a000000000000000000000000000000000000000000000000000000000815260206004820181905260248201527f4e6f6d69737761703a20494e53554646494349454e545f4c495155494449545960448201526064016107a8565b6000807f00000000000000000000000000000000000000000000000000000000000000007f000000000000000000000000000000000000000000000000000000000000000073ffffffffffffffffffffffffffffffffffffffff898116908316148015906109de57508073ffffffffffffffffffffffffffffffffffffffff168973ffffffffffffffffffffffffffffffffffffffff1614155b610a44576040517f08c379a000000000000000000000000000000000000000000000000000000000815260206004820152601460248201527f4e6f6d69737761703a20494e56414c49445f544f00000000000000000000000060448201526064016107a8565b8a15610a5557610a55828a8d613328565b8915610a6657610a66818a8c613328565b8615610af9576040517f2210968200000000000000000000000000000000000000000000000000000000815273ffffffffffffffffffffffffffffffffffffffff8a1690632210968290610ac69033908f908f908e908e9060040161423a565b600060405180830381600087803b158015610ae057600080fd5b505af1158015610af4573d6000803e3d6000fd5b505050505b6040517f70a0823100000000000000000000000000000000000000000000000000000000815230600482015273ffffffffffffffffffffffffffffffffffffffff8316906370a0823190602401602060405180830381865afa158015610b63573d6000803e3d6000fd5b505050506040513d601f19601f82011682018060405250810190610b8791906142b2565b6040517f70a0823100000000000000000000000000000000000000000000000000000000815230600482015290945073ffffffffffffffffffffffffffffffffffffffff8216906370a0823190602401602060405180830381865afa158015610bf4573d6000803e3d6000fd5b505050506040513d601f19601f82011682018060405250810190610c1891906142b2565b9250505060008985610c2a91906142fa565b8311610c37576000610c4b565b610c418a866142fa565b610c4b90846142fa565b90506000610c598a866142fa565b8311610c66576000610c7a565b610c708a866142fa565b610c7a90846142fa565b90506000821180610c8b5750600081115b610d17576040517f08c379a000000000000000000000000000000000000000000000000000000000815260206004820152602360248201527f4e6f6d69737761703a20494e53554646494349454e545f494e5055545f414d4f60448201527f554e54000000000000000000000000000000000000000000000000000000000060648201526084016107a8565b6000610d21612bdf565b60075490915063ffffffff72010000000000000000000000000000000000009091048116906fffffffffffffffffffffffffffffffff7f00000000000000000000000000000000000000000000000000000000000000008116917f00000000000000000000000000000000000000000000000000000000000000009091169060009083610dae868a614311565b610dbc63ffffffff8d614311565b610dc691906142fa565b610dd09190614311565b610dda919061437d565b9050600063ffffffff83610dee878a614311565b610dfc63ffffffff8d614311565b610e0691906142fa565b610e109190614311565b610e1a919061437d565b90506000610e298383896133ba565b90506000610e37868f614311565b90506000610e45868f614311565b90506000610e5483838c6133ba565b905080841015610ec0576040517f08c379a000000000000000000000000000000000000000000000000000000000815260206004820152600b60248201527f4e6f6d69737761703a204400000000000000000000000000000000000000000060448201526064016107a8565b6000610ecd8f8f8d613504565b90506000610edb83836142fa565b600054610ee89190614311565b60065490915060009084906e01000000000000000000000000000090610f349070010000000000000000000000000000000090046fffffffffffffffffffffffffffffffff1686614311565b610f3e919061437d565b610f489190614391565b9050610f54818361437d565b60068054600090610f789084906fffffffffffffffffffffffffffffffff166143a9565b92506101000a8154816fffffffffffffffffffffffffffffffff02191690836fffffffffffffffffffffffffffffffff16021790555050505050505050505050505050610fc5848461359a565b60408051838152602081018390529081018c9052606081018b905273ffffffffffffffffffffffffffffffffffffffff8a169033907fd78ad95fa46c994b6551d0da85fc275fe613ce37657fb8d5e3d130840159d8229060800160405180910390a350506001600455505050505050505050565b600061104633848461372d565b5060015b92915050565b3373ffffffffffffffffffffffffffffffffffffffff7f000000000000000000000000000000000000000000000000000000000000000016146110ef576040517f08c379a000000000000000000000000000000000000000000000000000000000815260206004820152601360248201527f4e6f6d69737761703a20464f5242494444454e0000000000000000000000000060448201526064016107a8565b806fffffffffffffffffffffffffffffffff1660000361116b576040517f08c379a000000000000000000000000000000000000000000000000000000000815260206004820152601d60248201527f4e6f6d6973776170537461626c65506169723a2064657620666565203000000060448201526064016107a8565b600680546fffffffffffffffffffffffffffffffff928316700100000000000000000000000000000000029216919091179055565b73ffffffffffffffffffffffffffffffffffffffff831660009081526002602090815260408083203384529091528120547fffffffffffffffffffffffffffffffffffffffffffffffffffffffffffffffff146112655773ffffffffffffffffffffffffffffffffffffffff841660009081526002602090815260408083203384529091529020546112339083906142fa565b73ffffffffffffffffffffffffffffffffffffffff851660009081526002602090815260408083203384529091529020555b61127084848461379c565b5060015b9392505050565b33600081815260026020908152604080832073ffffffffffffffffffffffffffffffffffffffff8716845290915281205490916110469185906112bf908690614391565b61372d565b60008060006113226005546dffffffffffffffffffffffffffff808216926e01000000000000000000000000000083049091169163ffffffff7c01000000000000000000000000000000000000000000000000000000009091041690565b506dffffffffffffffffffffffffffff91821693501690506fffffffffffffffffffffffffffffffff7f00000000000000000000000000000000000000000000000000000000000000008116907f000000000000000000000000000000000000000000000000000000000000000016600061139d8386614311565b905060006113ab8386614311565b905060006113b7612bdf565b905060006113c68484846133ba565b90507f000000000000000000000000000000000000000000000000000000000000000073ffffffffffffffffffffffffffffffffffffffff168b73ffffffffffffffffffffffffffffffffffffffff16036114a2576000611427868c614311565b61143190856142fa565b9050600061144082848661386b565b905060006114588961145289856142fa565b90613914565b6007549091506114989061148a9063ffffffff72010000000000000000000000000000000000009091048116906142fa565b61145263ffffffff84614311565b9b505050506115c6565b7f000000000000000000000000000000000000000000000000000000000000000073ffffffffffffffffffffffffffffffffffffffff168b73ffffffffffffffffffffffffffffffffffffffff1614611557576040517f08c379a000000000000000000000000000000000000000000000000000000000815260206004820152601360248201527f494e56414c49445f494e5055545f544f4b454e0000000000000000000000000060448201526064016107a8565b6000611563878c614311565b61156d90866142fa565b9050600061157c82848661386b565b9050600061158e8861145288856142fa565b6007549091506115c09061148a9063ffffffff72010000000000000000000000000000000000009091048116906142fa565b9b505050505b505050505050505092915050565b6000600260045403611642576040517f08c379a000000000000000000000000000000000000000000000000000000000815260206004820152601f60248201527f5265656e7472616e637947756172643a207265656e7472616e742063616c6c0060448201526064016107a8565b60026004556000806116a36005546dffffffffffffffffffffffffffff808216926e01000000000000000000000000000083049091169163ffffffff7c01000000000000000000000000000000000000000000000000000000009091041690565b506040517f70a08231000000000000000000000000000000000000000000000000000000008152306004820152919350915060009073ffffffffffffffffffffffffffffffffffffffff7f000000000000000000000000000000000000000000000000000000000000000016906370a0823190602401602060405180830381865afa158015611736573d6000803e3d6000fd5b505050506040513d601f19601f8201168201806040525081019061175a91906142b2565b6040517f70a0823100000000000000000000000000000000000000000000000000000000815230600482015290915060009073ffffffffffffffffffffffffffffffffffffffff7f000000000000000000000000000000000000000000000000000000000000000016906370a0823190602401602060405180830381865afa1580156117ea573d6000803e3d6000fd5b505050506040513d601f19601f8201168201806040525081019061180e91906142b2565b9050611818613937565b60008054906118376dffffffffffffffffffffffffffff8716856142fa565b905060006118556dffffffffffffffffffffffffffff8716856142fa565b90508260000361189c576000611869612bdf565b90506000611878878784613504565b90506118866103e8826142fa565b995061189560006103e8613a86565b50506118f1565b6118ee6dffffffffffffffffffffffffffff88166118ba8585614311565b6118c4919061437d565b6dffffffffffffffffffffffffffff88166118df8685614311565b6118e9919061437d565b613b31565b97505b60008811611981576040517f08c379a000000000000000000000000000000000000000000000000000000000815260206004820152602760248201527f4e6f6d69737761703a20494e53554646494349454e545f4c495155494449545960448201527f5f4d494e5445440000000000000000000000000000000000000000000000000060648201526084016107a8565b61198b8989613a86565b611995858561359a565b604080518381526020810183905233917f4c209b5fc8ad50758f13e2e1088ba56a560dff690a1c6fef26394f4c03821c4f910160405180910390a250506001600455509395945050505050565b600260045403611a4e576040517f08c379a000000000000000000000000000000000000000000000000000000000815260206004820152601f60248201527f5265656e7472616e637947756172643a207265656e7472616e742063616c6c0060448201526064016107a8565b60026004553373ffffffffffffffffffffffffffffffffffffffff7f00000000000000000000000000000000000000000000000000000000000000001614611af2576040517f08c379a000000000000000000000000000000000000000000000000000000000815260206004820152601360248201527f4e6f6d69737761703a20464f5242494444454e0000000000000000000000000060448201526064016107a8565b600754611b1690620151809068010000000000000000900464ffffffffff16614391565b421015611b7f576040517f08c379a000000000000000000000000000000000000000000000000000000000815260206004820181905260248201527f4e6f6d6973776170537461626c65506169723a20494e56414c49445f54494d4560448201526064016107a8565b611b8c6201518042614391565b8164ffffffffff161015611c22576040517f08c379a000000000000000000000000000000000000000000000000000000000815260206004820152602760248201527f4e6f6d6973776170537461626c65506169723a20494e56414c49445f4655545560448201527f52455f54494d450000000000000000000000000000000000000000000000000060648201526084016107a8565b6000611c2c612bdf565b905060008363ffffffff16118015611c565750611c4d6064620f4240614311565b8363ffffffff16105b611c5f57600080fd5b8063ffffffff168363ffffffff161015611c9d578063ffffffff1660648463ffffffff16611c8d9190614311565b1015611c9857600080fd5b611cc0565b611cae606463ffffffff8316614311565b8363ffffffff161115611cc057600080fd5b6007805463ffffffff8381167fffffffffffffffffffffffffffffffffffffffffffffffff00000000000000009092168217640100000000918716918202177fffffffffffffffffffffffffffff00000000000000000000ffffffffffffffff16680100000000000000004264ffffffffff818116929092027fffffffffffffffffffffffffffff0000000000ffffffffffffffffffffffffff16929092176d0100000000000000000000000000918816918202179094556040805193845260208401929092529082015260608101919091527fa2b71ec6df949300b59aab36b55e189697b750119dd349fcfa8c0f779e83c2549060800160405180910390a15050600160045550565b600080600260045403611e39576040517f08c379a000000000000000000000000000000000000000000000000000000000815260206004820152601f60248201527f5265656e7472616e637947756172643a207265656e7472616e742063616c6c0060448201526064016107a8565b600260049081556040517f70a0823100000000000000000000000000000000000000000000000000000000815230918101919091527f0000000000000000000000000000000000000000000000000000000000000000907f00000000000000000000000000000000000000000000000000000000000000009060009073ffffffffffffffffffffffffffffffffffffffff8416906370a0823190602401602060405180830381865afa158015611ef3573d6000803e3d6000fd5b505050506040513d601f19601f82011682018060405250810190611f1791906142b2565b6040517f70a0823100000000000000000000000000000000000000000000000000000000815230600482015290915060009073ffffffffffffffffffffffffffffffffffffffff8416906370a0823190602401602060405180830381865afa158015611f87573d6000803e3d6000fd5b505050506040513d601f19601f82011682018060405250810190611fab91906142b2565b30600090815260016020526040902054909150611fc6613937565b60005480611fd48584614311565b611fde919061437d565b975080611feb8484614311565b611ff5919061437d565b96506000881180156120075750600087115b612093576040517f08c379a000000000000000000000000000000000000000000000000000000000815260206004820152602760248201527f4e6f6d69737761703a20494e53554646494349454e545f4c495155494449545960448201527f5f4255524e45440000000000000000000000000000000000000000000000000060648201526084016107a8565b61209d3083613b47565b6120a8868a8a613328565b6120b3858a89613328565b6040517f70a0823100000000000000000000000000000000000000000000000000000000815230600482015273ffffffffffffffffffffffffffffffffffffffff8716906370a0823190602401602060405180830381865afa15801561211d573d6000803e3d6000fd5b505050506040513d601f19601f8201168201806040525081019061214191906142b2565b6040517f70a0823100000000000000000000000000000000000000000000000000000000815230600482015290945073ffffffffffffffffffffffffffffffffffffffff8616906370a0823190602401602060405180830381865afa1580156121ae573d6000803e3d6000fd5b505050506040513d601f19601f820116820180604052508101906121d291906142b2565b92506121de848461359a565b604080518981526020810189905273ffffffffffffffffffffffffffffffffffffffff8b169133917fdccd412f0b1252819cb1fd330b93224ca42612892bb3f4f789976e6d81936496910160405180910390a35050505050506001600481905550915091565b60606040518060400160405280600781526020017f4e4d582d534c50000000000000000000000000000000000000000000000000008152507f000000000000000000000000000000000000000000000000000000000000000073ffffffffffffffffffffffffffffffffffffffff166395d89b416040518163ffffffff1660e01b8152600401600060405180830381865afa1580156122e7573d6000803e3d6000fd5b505050506040513d6000823e601f3d9081017fffffffffffffffffffffffffffffffffffffffffffffffffffffffffffffffe016820160405261232d919081019061440c565b7f000000000000000000000000000000000000000000000000000000000000000073ffffffffffffffffffffffffffffffffffffffff166395d89b416040518163ffffffff1660e01b8152600401600060405180830381865afa158015612398573d6000803e3d6000fd5b505050506040513d6000823e601f3d9081017fffffffffffffffffffffffffffffffffffffffffffffffffffffffffffffffe01682016040526123de919081019061440c565b6040516020016123f0939291906144cc565b604051602081830303815290604052905090565b33600090815260026020908152604080832073ffffffffffffffffffffffffffffffffffffffff86168452909152812054828110156124c5576040517f08c379a000000000000000000000000000000000000000000000000000000000815260206004820152603360248201527f4e6f6d6973776170537461626c6545524332303a20646563726561736564206160448201527f6c6c6f77616e63652062656c6f77207a65726f0000000000000000000000000060648201526084016107a8565b61127033856112bf86856142fa565b600061104633848461379c565b60026004540361254d576040517f08c379a000000000000000000000000000000000000000000000000000000000815260206004820152601f60248201527f5265656e7472616e637947756172643a207265656e7472616e742063616c6c0060448201526064016107a8565b600260049081556005546040517f70a0823100000000000000000000000000000000000000000000000000000000815230928101929092527f0000000000000000000000000000000000000000000000000000000000000000917f00000000000000000000000000000000000000000000000000000000000000009161265691849186916dffffffffffffffffffffffffffff9091169073ffffffffffffffffffffffffffffffffffffffff8416906370a08231906024015b602060405180830381865afa158015612623573d6000803e3d6000fd5b505050506040513d601f19601f8201168201806040525081019061264791906142b2565b61265191906142fa565b613328565b6005546040517f70a082310000000000000000000000000000000000000000000000000000000081523060048201526126d691839186916e01000000000000000000000000000090046dffffffffffffffffffffffffffff169073ffffffffffffffffffffffffffffffffffffffff8416906370a0823190602401612606565b5050600160045550565b60026004540361274c576040517f08c379a000000000000000000000000000000000000000000000000000000000815260206004820152601f60248201527f5265656e7472616e637947756172643a207265656e7472616e742063616c6c0060448201526064016107a8565b60026004553373ffffffffffffffffffffffffffffffffffffffff7f000000000000000000000000000000000000000000000000000000000000000016146127f0576040517f08c379a000000000000000000000000000000000000000000000000000000000815260206004820152601360248201527f4e6f6d69737761703a20464f5242494444454e0000000000000000000000000060448201526064016107a8565b60006127fa612bdf565b600780547fffffffffffffffffffffffffffffffffffffffffffffffff00000000000000001663ffffffff83169081176401000000008202177fffffffffffffffffffffffffffff00000000000000000000ffffffffffffffff16680100000000000000004264ffffffffff81169182027fffffffffffffffffffffffffffff0000000000ffffffffffffffffffffffffff16929092176d010000000000000000000000000091909102179092556040805191825260208201929092529192507f46e22fb3709ad289f62ce63d469248536dbc78d82b84a3d7e74ad606dc201938910160405180910390a1506001600455565b600080600061294b6005546dffffffffffffffffffffffffffff808216926e01000000000000000000000000000083049091169163ffffffff7c01000000000000000000000000000000000000000000000000000000009091041690565b506007546dffffffffffffffffffffffffffff9283169450911691506fffffffffffffffffffffffffffffffff7f00000000000000000000000000000000000000000000000000000000000000008116917f00000000000000000000000000000000000000000000000000000000000000009091169060009063ffffffff906129ec9072010000000000000000000000000000000000009004821689614311565b6129fa63ffffffff8a614311565b612a0491906142fa565b612a0e919061437d565b90506000612a1c8487614311565b90506000612a2a8487614311565b90506000612a36612bdf565b90506000612a458484846133ba565b90507f000000000000000000000000000000000000000000000000000000000000000073ffffffffffffffffffffffffffffffffffffffff168c73ffffffffffffffffffffffffffffffffffffffff1603612adf576000612aa68887614311565b612ab09086614391565b90506000612abf82848661386b565b905087612acc82876142fa565b612ad6919061437d565b9b505050612bd0565b7f000000000000000000000000000000000000000000000000000000000000000073ffffffffffffffffffffffffffffffffffffffff168c73ffffffffffffffffffffffffffffffffffffffff1614612b94576040517f08c379a000000000000000000000000000000000000000000000000000000000815260206004820152601360248201527f494e56414c49445f494e5055545f544f4b454e0000000000000000000000000060448201526064016107a8565b6000612ba08787614311565b612baa9085614391565b90506000612bb982848661386b565b905088612bc682886142fa565b6115c0919061437d565b50505050505050505092915050565b6007546000906d0100000000000000000000000000810464ffffffffff1690640100000000900463ffffffff164282111561104a5760075463ffffffff81169068010000000000000000900464ffffffffff1681831115612c7f57612c4481856142fa565b612c4e83856142fa565b612c5883426142fa565b612c629190614311565b612c6c919061437d565b612c769083614391565b94505050505090565b612c8981856142fa565b612c9384846142fa565b612c9d83426142fa565b612ca79190614311565b612cb1919061437d565b612c7690836142fa565b42841015612d25576040517f08c379a000000000000000000000000000000000000000000000000000000000815260206004820152601160248201527f4e6f6d69737761703a204558504952454400000000000000000000000000000060448201526064016107a8565b73ffffffffffffffffffffffffffffffffffffffff8716600090815260036020526040812080547f0000000000000000000000000000000000000000000000000000000000000000917f6e71edae12b1b97f4d1f60370fef10105fa2faae0126114a169c64845d6126c9918b918b918b9187612da083614542565b9091555060408051602081019690965273ffffffffffffffffffffffffffffffffffffffff94851690860152929091166060840152608083015260a082015260c0810187905260e00160405160208183030381529060405280519060200120604051602001612e419291907f190100000000000000000000000000000000000000000000000000000000000081526002810192909252602282015260420190565b604080517fffffffffffffffffffffffffffffffffffffffffffffffffffffffffffffffe08184030181528282528051602091820120600080855291840180845281905260ff88169284019290925260608301869052608083018590529092509060019060a0016020604051602081039080840390855afa158015612eca573d6000803e3d6000fd5b50506040517fffffffffffffffffffffffffffffffffffffffffffffffffffffffffffffffe0015191505073ffffffffffffffffffffffffffffffffffffffff811615801590612f4557508873ffffffffffffffffffffffffffffffffffffffff168173ffffffffffffffffffffffffffffffffffffffff16145b612fab576040517f08c379a000000000000000000000000000000000000000000000000000000000815260206004820152601b60248201527f4e6f6d69737761703a20494e56414c49445f5349474e4154555245000000000060448201526064016107a8565b612fb689898961372d565b505050505050505050565b3373ffffffffffffffffffffffffffffffffffffffff7f00000000000000000000000000000000000000000000000000000000000000001614613060576040517f08c379a000000000000000000000000000000000000000000000000000000000815260206004820152601360248201527f4e6f6d69737761703a20464f5242494444454e0000000000000000000000000060448201526064016107a8565b63ffffffff8163ffffffff1611156130fa576040517f08c379a000000000000000000000000000000000000000000000000000000000815260206004820152602160248201527f4e6f6d6973776170537461626c65506169723a20464f5242494444454e5f464560448201527f450000000000000000000000000000000000000000000000000000000000000060648201526084016107a8565b6007805463ffffffff9092167201000000000000000000000000000000000000027fffffffffffffffffffff00000000ffffffffffffffffffffffffffffffffffff909216919091179055565b6002600454036131b3576040517f08c379a000000000000000000000000000000000000000000000000000000000815260206004820152601f60248201527f5265656e7472616e637947756172643a207265656e7472616e742063616c6c0060448201526064016107a8565b600260049081556040517f70a082310000000000000000000000000000000000000000000000000000000081523091810191909152613321907f000000000000000000000000000000000000000000000000000000000000000073ffffffffffffffffffffffffffffffffffffffff16906370a0823190602401602060405180830381865afa15801561324a573d6000803e3d6000fd5b505050506040513d601f19601f8201168201806040525081019061326e91906142b2565b6040517f70a082310000000000000000000000000000000000000000000000000000000081523060048201527f000000000000000000000000000000000000000000000000000000000000000073ffffffffffffffffffffffffffffffffffffffff16906370a0823190602401602060405180830381865afa1580156132f8573d6000803e3d6000fd5b505050506040513d601f19601f8201168201806040525081019061331c91906142b2565b61359a565b6001600455565b6040805173ffffffffffffffffffffffffffffffffffffffff8416602482015260448082018490528251808303909101815260649091019091526020810180517bffffffffffffffffffffffffffffffffffffffffffffffffffffffff167fa9059cbb000000000000000000000000000000000000000000000000000000001790526133b5908490613bfa565b505050565b6000808385106133ca57836133cc565b845b905060008486106133dd57856133df565b845b905060006133ed8284614391565b9050806000036134035760009350505050611274565b6000613410866010614311565b905060008361341f8484614311565b6134299190614311565b905060008461343a60646004614311565b61344490856142fa565b61344e9190614311565b9050600084975060005b6101008110156134f55788915060008883613474816064614311565b61347e9190614311565b613488919061437d565b905083613496826003614311565b6134a09190614391565b85826134ad8d6002614311565b6134b79190614311565b6134c19190614391565b6134cb919061437d565b99506134d78a84613d06565b156134e257506134f5565b50806134ed81614542565b915050613458565b50505050505050509392505050565b6000806135436fffffffffffffffffffffffffffffffff7f00000000000000000000000000000000000000000000000000000000000000001686614311565b905060006135836fffffffffffffffffffffffffffffffff7f00000000000000000000000000000000000000000000000000000000000000001686614311565b90506135908282866133ba565b9695505050505050565b6dffffffffffffffffffffffffffff82118015906135c657506dffffffffffffffffffffffffffff8111155b61362c576040517f08c379a000000000000000000000000000000000000000000000000000000000815260206004820152601260248201527f4e6f6d69737761703a204f564552464c4f57000000000000000000000000000060448201526064016107a8565b600061363d6401000000004261457a565b6005805463ffffffff83167c0100000000000000000000000000000000000000000000000000000000027bffffffffffffffffffffffffffffffffffffffffffffffffffffffff6dffffffffffffffffffffffffffff8781166e0100000000000000000000000000009081027fffffffff000000000000000000000000000000000000000000000000000000009095168a83161794909417918216831794859055604080519382169282169290921783529290930490911660208201529192507f1c411e9a96e071241c2f21f7726b17ae89e3cab4c78be50e062b03a9fffbbad1910160405180910390a1505050565b73ffffffffffffffffffffffffffffffffffffffff83811660008181526002602090815260408083209487168084529482529182902085905590518481527f8c5be1e5ebec7d5bd14f71427d1e84f3dd0314c0f7b2291e5b200ac8c7c3b92591015b60405180910390a3505050565b73ffffffffffffffffffffffffffffffffffffffff83166000908152600160205260409020546137cd9082906142fa565b73ffffffffffffffffffffffffffffffffffffffff808516600090815260016020526040808220939093559084168152205461380a908290614391565b73ffffffffffffffffffffffffffffffffffffffff80841660008181526001602052604090819020939093559151908516907fddf252ad1be2c89b69c2b068fc378daa952ba7f163c4a11628f55a4df523b3ef9061378f9085815260200190565b8160008061387a846004614311565b90506000600486888161388e816064614311565b6138989190614311565b6138a2919061437d565b6138ac9190614311565b6138b6919061437d565b90508587038202606487020160005b610100811015613908578594508385026138e88187028501600283028501613914565b96506138f48787613d06565b156138ff5750613908565b506001016138c5565b50505050509392505050565b60008160016139238286614391565b61392d91906142fa565b611274919061437d565b60007f000000000000000000000000000000000000000000000000000000000000000073ffffffffffffffffffffffffffffffffffffffff1663017e7e586040518163ffffffff1660e01b8152600401602060405180830381865afa1580156139a4573d6000803e3d6000fd5b505050506040513d601f19601f820116820180604052508101906139c8919061458e565b60065490915073ffffffffffffffffffffffffffffffffffffffff8216158015916fffffffffffffffffffffffffffffffff1690613a4d5760018111156133b557613a1d83613a186001846142fa565b613a86565b600680547fffffffffffffffffffffffffffffffff00000000000000000000000000000000166001179055505050565b60018111156133b557600680547fffffffffffffffffffffffffffffffff00000000000000000000000000000000166001179055505050565b80600054613a949190614391565b600090815573ffffffffffffffffffffffffffffffffffffffff8316815260016020526040902054613ac7908290614391565b73ffffffffffffffffffffffffffffffffffffffff83166000818152600160205260408082209390935591519091907fddf252ad1be2c89b69c2b068fc378daa952ba7f163c4a11628f55a4df523b3ef90613b259085815260200190565b60405180910390a35050565b6000818310613b405781611274565b5090919050565b73ffffffffffffffffffffffffffffffffffffffff8216600090815260016020526040902054613b789082906142fa565b73ffffffffffffffffffffffffffffffffffffffff831660009081526001602052604081209190915554613bad9082906142fa565b600090815560405182815273ffffffffffffffffffffffffffffffffffffffff8416907fddf252ad1be2c89b69c2b068fc378daa952ba7f163c4a11628f55a4df523b3ef90602001613b25565b6000613c5c826040518060400160405280602081526020017f5361666545524332303a206c6f772d6c6576656c2063616c6c206661696c65648152508573ffffffffffffffffffffffffffffffffffffffff16613d289092919063ffffffff16565b8051909150156133b55780806020019051810190613c7a91906145ab565b6133b5576040517f08c379a000000000000000000000000000000000000000000000000000000000815260206004820152602a60248201527f5361666545524332303a204552433230206f7065726174696f6e20646964206e60448201527f6f7420737563636565640000000000000000000000000000000000000000000060648201526084016107a8565b600081831115613d1d57506001818303111561104a565b506001919003111590565b6060613d378484600085613d3f565b949350505050565b606082471015613dd1576040517f08c379a000000000000000000000000000000000000000000000000000000000815260206004820152602660248201527f416464726573733a20696e73756666696369656e742062616c616e636520666f60448201527f722063616c6c000000000000000000000000000000000000000000000000000060648201526084016107a8565b73ffffffffffffffffffffffffffffffffffffffff85163b613e4f576040517f08c379a000000000000000000000000000000000000000000000000000000000815260206004820152601d60248201527f416464726573733a2063616c6c20746f206e6f6e2d636f6e747261637400000060448201526064016107a8565b6000808673ffffffffffffffffffffffffffffffffffffffff168587604051613e7891906145cd565b60006040518083038185875af1925050503d8060008114613eb5576040519150601f19603f3d011682016040523d82523d6000602084013e613eba565b606091505b5091509150613eca828286613ed5565b979650505050505050565b60608315613ee4575081611274565b825115613ef45782518084602001fd5b816040517f08c379a00000000000000000000000000000000000000000000000000000000081526004016107a89190614013565b73ffffffffffffffffffffffffffffffffffffffff81168114613f4a57600080fd5b50565b600080600080600060808688031215613f6557600080fd5b85359450602086013593506040860135613f7e81613f28565b9250606086013567ffffffffffffffff80821115613f9b57600080fd5b818801915088601f830112613faf57600080fd5b813581811115613fbe57600080fd5b896020828501011115613fd057600080fd5b9699959850939650602001949392505050565b60005b83811015613ffe578181015183820152602001613fe6565b8381111561400d576000848401525b50505050565b6020815260008251806020840152614032816040850160208701613fe3565b601f017fffffffffffffffffffffffffffffffffffffffffffffffffffffffffffffffe0169190910160400192915050565b6000806040838503121561407757600080fd5b823561408281613f28565b946020939093013593505050565b6000602082840312156140a257600080fd5b81356fffffffffffffffffffffffffffffffff8116811461127457600080fd5b6000806000606084860312156140d757600080fd5b83356140e281613f28565b925060208401356140f281613f28565b929592945050506040919091013590565b60006020828403121561411557600080fd5b813561127481613f28565b803563ffffffff8116811461413457600080fd5b919050565b6000806040838503121561414c57600080fd5b61415583614120565b9150602083013564ffffffffff8116811461416f57600080fd5b809150509250929050565b600080600080600080600060e0888a03121561419557600080fd5b87356141a081613f28565b965060208801356141b081613f28565b95506040880135945060608801359350608088013560ff811681146141d457600080fd5b9699959850939692959460a0840135945060c09093013592915050565b60006020828403121561420357600080fd5b61127482614120565b6000806040838503121561421f57600080fd5b823561422a81613f28565b9150602083013561416f81613f28565b73ffffffffffffffffffffffffffffffffffffffff8616815284602082015283604082015260806060820152816080820152818360a0830137600081830160a090810191909152601f9092017fffffffffffffffffffffffffffffffffffffffffffffffffffffffffffffffe0160101949350505050565b6000602082840312156142c457600080fd5b5051919050565b7f4e487b7100000000000000000000000000000000000000000000000000000000600052601160045260246000fd5b60008282101561430c5761430c6142cb565b500390565b6000817fffffffffffffffffffffffffffffffffffffffffffffffffffffffffffffffff0483118215151615614349576143496142cb565b500290565b7f4e487b7100000000000000000000000000000000000000000000000000000000600052601260045260246000fd5b60008261438c5761438c61434e565b500490565b600082198211156143a4576143a46142cb565b500190565b60006fffffffffffffffffffffffffffffffff8083168185168083038211156143d4576143d46142cb565b01949350505050565b7f4e487b7100000000000000000000000000000000000000000000000000000000600052604160045260246000fd5b60006020828403121561441e57600080fd5b815167ffffffffffffffff8082111561443657600080fd5b818401915084601f83011261444a57600080fd5b81518181111561445c5761445c6143dd565b604051601f82017fffffffffffffffffffffffffffffffffffffffffffffffffffffffffffffffe0908116603f011681019083821181831017156144a2576144a26143dd565b816040528281528760208487010111156144bb57600080fd5b613eca836020830160208801613fe3565b600084516144de818460208901613fe3565b80830190507f2d00000000000000000000000000000000000000000000000000000000000000808252855161451a816001850160208a01613fe3565b60019201918201528351614535816002840160208801613fe3565b0160020195945050505050565b60007fffffffffffffffffffffffffffffffffffffffffffffffffffffffffffffffff8203614573576145736142cb565b5060010190565b6000826145895761458961434e565b500690565b6000602082840312156145a057600080fd5b815161127481613f28565b6000602082840312156145bd57600080fd5b8151801515811461127457600080fd5b600082516145df818460208701613fe3565b919091019291505056fea26469706673582212209bbcf82b22f490fb76f1177940afefdf59480b202f5e83a46a3b45ac46c2e1d664736f6c634300080f00334e6f6d6973776170537461626c65506169723a20756e737570706f7274656420a2646970667358221220b41c009caa24495a72a95f813a5d1d4736bcc9e5594c7d8298cbaa44c20cbaf464736f6c634300080f0033610140604052600680546001600160801b031916600117905560076200002b600160701b6003620003f6565b62000037919062000418565b600680546001600160801b03928316600160801b0292169190911790556200006260646055620003f6565b600780546001600160401b03191663ffffffff92909216918217640100000000929092029190911763ffffffff60901b19166208312760931b179055348015620000ab57600080fd5b5060405162004d9d38038062004d9d833981016040819052620000ce9162000458565b604080518082018252601381527f4e6f6d697377617020737461626c65204c5073000000000000000000000000006020918201528151808301835260018152603160f81b9082015281517f8b73c3c69bb8fe3d512ecc4cf759cc79239f7b179b0ffacaa9a75d522b39400f918101919091527f22155260db1abf6474eb894108f4b66f54f6b4a9c481b6e3e789468ed505cc97918101919091527fc89efdaa54c0f20c7adf612882df0950f5a951637e0307cdcb4c672f298b8bc6606082015246608082018190523060a0830152339160c00160408051808303601f190181528282528051602091820120608052600160049081556001600160a01b0395861660a0526007805464ffffffffff60681b19166d01000000000000000000000000004264ffffffffff160217905587861660c081905295871660e05263313ce56760e01b84529151600095945063313ce5679383810193908290030181865afa1580156200023f573d6000803e3d6000fd5b505050506040513d601f19601f8201168201806040525081019062000265919062000490565b905060128160ff161115620002be5760405162461bcd60e51b8152602060048201526025602482015260008051602062004d7d8339815191526044820152643a37b5b2b760d91b60648201526084015b60405180910390fd5b620002cb816012620004bc565b620002d890600a62000622565b6001600160801b0316610100816001600160801b0316815250506000826001600160a01b031663313ce5676040518163ffffffff1660e01b8152600401602060405180830381865afa15801562000333573d6000803e3d6000fd5b505050506040513d601f19601f8201168201806040525081019062000359919062000490565b905060128160ff161115620003ae5760405162461bcd60e51b8152602060048201526025602482015260008051602062004d7d8339815191526044820152643a37b5b2b760d91b6064820152608401620002b5565b620003bb816012620004bc565b620003c890600a62000622565b6001600160801b031661012052506200063c92505050565b634e487b7160e01b600052601160045260246000fd5b6000816000190483118215151615620004135762000413620003e0565b500290565b6000826200043657634e487b7160e01b600052601260045260246000fd5b500490565b80516001600160a01b03811681146200045357600080fd5b919050565b600080604083850312156200046c57600080fd5b62000477836200043b565b915062000487602084016200043b565b90509250929050565b600060208284031215620004a357600080fd5b815160ff81168114620004b557600080fd5b9392505050565b600060ff821660ff841680821015620004d957620004d9620003e0565b90039392505050565b600181815b8085111562000529576001600160801b038290048211156200050d576200050d620003e0565b808516156200051b57918102915b93841c9390800290620004e7565b509250929050565b60008262000542575060016200061c565b8162000551575060006200061c565b81600181146200056a57600281146200057557620005b0565b60019150506200061c565b60ff841115620005895762000589620003e0565b6001841b91506001600160801b03821115620005a957620005a9620003e0565b506200061c565b5060208310610133831016604e8410600b8410161715620005ef575081810a6001600160801b03811115620005e957620005e9620003e0565b6200061c565b620005fb8383620004e2565b6001600160801b03819004821115620006185762000618620003e0565b0290505b92915050565b6000620004b560ff84166001600160801b03841662000531565b60805160a05160c05160e051610100516101205161461f6200075e6000396000818161049001528181610d7d015281816113710152818161299e015261355d01526000818161063701528181610d590152818161134d0152818161297a015261351d0152600081816106bd0152818161096a015281816114a4015281816117a301528181611e920152818161232f015281816125a901528181612ae1015261329c01526000818161038c01528181610949015281816113ca015281816116ef01528181611e700152818161227e0152818161258701528181612a4901526131ee0152600081816106790152818161106801528181611a6b0152818161276901528181612fd9015261393b0152600081816104560152612d4e015261461f6000f3fe608060405234801561001057600080fd5b50600436106102925760003560e01c80637ecebe0011610160578063bc25cf77116100d8578063d46300fd1161008c578063d6d788c311610071578063d6d788c3146106fa578063dd62ed3e1461070d578063fff6cae91461073857600080fd5b8063d46300fd146106df578063d505accf146106e757600080fd5b8063c4db7fa0116100bd578063c4db7fa01461069d578063ca706bcf146106a5578063d21220a7146106b857600080fd5b8063bc25cf7714610664578063c45a01551461067757600080fd5b8063a457c2d71161012f578063ba9a7a5611610114578063ba9a7a5614610629578063baa8c7cb14610632578063bc063e1a1461065957600080fd5b8063a457c2d714610603578063a9059cbb1461061657600080fd5b80637ecebe001461059757806389afcb44146105b757806395d89b41146105df578063a0be06f9146105e757600080fd5b8063313ce5671161020e578063632db21c116101c25780636a627842116101a75780636a6278421461055157806370a082311461056457806373c48bb51461058457600080fd5b8063632db21c1461050e5780636827e7641461052157600080fd5b806339509351116101f357806339509351146104785780634e25dc471461048b57806354cf2aeb146104d357600080fd5b8063313ce567146104375780633644e5151461045157600080fd5b80630dfe16811161026557806318160ddd1161024a57806318160ddd146103e657806323b872dd146103fd57806330adf81f1461041057600080fd5b80630dfe168114610387578063111f8ef3146103d357600080fd5b8063022c0d9f1461029757806306fdde03146102ac5780630902f1ac146102fe578063095ea7b314610364575b600080fd5b6102aa6102a5366004613f4d565b610740565b005b6102e86040518060400160405280601381526020017f4e6f6d697377617020737461626c65204c50730000000000000000000000000081525081565b6040516102f59190614013565b60405180910390f35b600554604080516dffffffffffffffffffffffffffff80841682526e01000000000000000000000000000084041660208201527c010000000000000000000000000000000000000000000000000000000090920463ffffffff16908201526060016102f5565b610377610372366004614064565b611039565b60405190151581526020016102f5565b6103ae7f000000000000000000000000000000000000000000000000000000000000000081565b60405173ffffffffffffffffffffffffffffffffffffffff90911681526020016102f5565b6102aa6103e1366004614090565b611050565b6103ef60005481565b6040519081526020016102f5565b61037761040b3660046140c2565b6111a0565b6103ef7f6e71edae12b1b97f4d1f60370fef10105fa2faae0126114a169c64845d6126c981565b61043f601281565b60405160ff90911681526020016102f5565b6103ef7f000000000000000000000000000000000000000000000000000000000000000081565b610377610486366004614064565b61127b565b6104b27f000000000000000000000000000000000000000000000000000000000000000081565b6040516fffffffffffffffffffffffffffffffff90911681526020016102f5565b6007546104f9907201000000000000000000000000000000000000900463ffffffff1681565b60405163ffffffff90911681526020016102f5565b6103ef61051c366004614064565b6112c4565b6006546104b29070010000000000000000000000000000000090046fffffffffffffffffffffffffffffffff1681565b6103ef61055f366004614103565b6115d4565b6103ef610572366004614103565b60016020526000908152604090205481565b6102aa610592366004614139565b6119e2565b6103ef6105a5366004614103565b60036020526000908152604090205481565b6105ca6105c5366004614103565b611dca565b604080519283526020830191909152016102f5565b6102e8612244565b6006546104b2906fffffffffffffffffffffffffffffffff1681565b610377610611366004614064565b612404565b610377610624366004614064565b6124d4565b6103ef6103e881565b6104b27f000000000000000000000000000000000000000000000000000000000000000081565b6103ef63ffffffff81565b6102aa610672366004614103565b6124e1565b7f00000000000000000000000000000000000000000000000000000000000000006103ae565b6102aa6126e0565b6103ef6106b3366004614064565b6128ed565b6103ae7f000000000000000000000000000000000000000000000000000000000000000081565b6103ef612bdf565b6102aa6106f536600461417a565b612cbb565b6102aa6107083660046141f1565b612fc1565b6103ef61071b36600461420c565b600260209081526000928352604080842090915290825290205481565b6102aa613147565b6002600454036107b1576040517f08c379a000000000000000000000000000000000000000000000000000000000815260206004820152601f60248201527f5265656e7472616e637947756172643a207265656e7472616e742063616c6c0060448201526064015b60405180910390fd5b6002600455841515806107c45750600084115b61084f576040517f08c379a0000000000000000000000000000000000000000000000000000000008152602060048201526024808201527f4e6f6d69737761703a20494e53554646494349454e545f4f55545055545f414d60448201527f4f554e540000000000000000000000000000000000000000000000000000000060648201526084016107a8565b6000806108ab6005546dffffffffffffffffffffffffffff808216926e01000000000000000000000000000083049091169163ffffffff7c01000000000000000000000000000000000000000000000000000000009091041690565b506dffffffffffffffffffffffffffff1691506dffffffffffffffffffffffffffff16915081871080156108de57508086105b610944576040517f08c379a000000000000000000000000000000000000000000000000000000000815260206004820181905260248201527f4e6f6d69737761703a20494e53554646494349454e545f4c495155494449545960448201526064016107a8565b6000807f00000000000000000000000000000000000000000000000000000000000000007f000000000000000000000000000000000000000000000000000000000000000073ffffffffffffffffffffffffffffffffffffffff898116908316148015906109de57508073ffffffffffffffffffffffffffffffffffffffff168973ffffffffffffffffffffffffffffffffffffffff1614155b610a44576040517f08c379a000000000000000000000000000000000000000000000000000000000815260206004820152601460248201527f4e6f6d69737761703a20494e56414c49445f544f00000000000000000000000060448201526064016107a8565b8a15610a5557610a55828a8d613328565b8915610a6657610a66818a8c613328565b8615610af9576040517f2210968200000000000000000000000000000000000000000000000000000000815273ffffffffffffffffffffffffffffffffffffffff8a1690632210968290610ac69033908f908f908e908e9060040161423a565b600060405180830381600087803b158015610ae057600080fd5b505af1158015610af4573d6000803e3d6000fd5b505050505b6040517f70a0823100000000000000000000000000000000000000000000000000000000815230600482015273ffffffffffffffffffffffffffffffffffffffff8316906370a0823190602401602060405180830381865afa158015610b63573d6000803e3d6000fd5b505050506040513d601f19601f82011682018060405250810190610b8791906142b2565b6040517f70a0823100000000000000000000000000000000000000000000000000000000815230600482015290945073ffffffffffffffffffffffffffffffffffffffff8216906370a0823190602401602060405180830381865afa158015610bf4573d6000803e3d6000fd5b505050506040513d601f19601f82011682018060405250810190610c1891906142b2565b9250505060008985610c2a91906142fa565b8311610c37576000610c4b565b610c418a866142fa565b610c4b90846142fa565b90506000610c598a866142fa565b8311610c66576000610c7a565b610c708a866142fa565b610c7a90846142fa565b90506000821180610c8b5750600081115b610d17576040517f08c379a000000000000000000000000000000000000000000000000000000000815260206004820152602360248201527f4e6f6d69737761703a20494e53554646494349454e545f494e5055545f414d4f60448201527f554e54000000000000000000000000000000000000000000000000000000000060648201526084016107a8565b6000610d21612bdf565b60075490915063ffffffff72010000000000000000000000000000000000009091048116906fffffffffffffffffffffffffffffffff7f00000000000000000000000000000000000000000000000000000000000000008116917f00000000000000000000000000000000000000000000000000000000000000009091169060009083610dae868a614311565b610dbc63ffffffff8d614311565b610dc691906142fa565b610dd09190614311565b610dda919061437d565b9050600063ffffffff83610dee878a614311565b610dfc63ffffffff8d614311565b610e0691906142fa565b610e109190614311565b610e1a919061437d565b90506000610e298383896133ba565b90506000610e37868f614311565b90506000610e45868f614311565b90506000610e5483838c6133ba565b905080841015610ec0576040517f08c379a000000000000000000000000000000000000000000000000000000000815260206004820152600b60248201527f4e6f6d69737761703a204400000000000000000000000000000000000000000060448201526064016107a8565b6000610ecd8f8f8d613504565b90506000610edb83836142fa565b600054610ee89190614311565b60065490915060009084906e01000000000000000000000000000090610f349070010000000000000000000000000000000090046fffffffffffffffffffffffffffffffff1686614311565b610f3e919061437d565b610f489190614391565b9050610f54818361437d565b60068054600090610f789084906fffffffffffffffffffffffffffffffff166143a9565b92506101000a8154816fffffffffffffffffffffffffffffffff02191690836fffffffffffffffffffffffffffffffff16021790555050505050505050505050505050610fc5848461359a565b60408051838152602081018390529081018c9052606081018b905273ffffffffffffffffffffffffffffffffffffffff8a169033907fd78ad95fa46c994b6551d0da85fc275fe613ce37657fb8d5e3d130840159d8229060800160405180910390a350506001600455505050505050505050565b600061104633848461372d565b5060015b92915050565b3373ffffffffffffffffffffffffffffffffffffffff7f000000000000000000000000000000000000000000000000000000000000000016146110ef576040517f08c379a000000000000000000000000000000000000000000000000000000000815260206004820152601360248201527f4e6f6d69737761703a20464f5242494444454e0000000000000000000000000060448201526064016107a8565b806fffffffffffffffffffffffffffffffff1660000361116b576040517f08c379a000000000000000000000000000000000000000000000000000000000815260206004820152601d60248201527f4e6f6d6973776170537461626c65506169723a2064657620666565203000000060448201526064016107a8565b600680546fffffffffffffffffffffffffffffffff928316700100000000000000000000000000000000029216919091179055565b73ffffffffffffffffffffffffffffffffffffffff831660009081526002602090815260408083203384529091528120547fffffffffffffffffffffffffffffffffffffffffffffffffffffffffffffffff146112655773ffffffffffffffffffffffffffffffffffffffff841660009081526002602090815260408083203384529091529020546112339083906142fa565b73ffffffffffffffffffffffffffffffffffffffff851660009081526002602090815260408083203384529091529020555b61127084848461379c565b5060015b9392505050565b33600081815260026020908152604080832073ffffffffffffffffffffffffffffffffffffffff8716845290915281205490916110469185906112bf908690614391565b61372d565b60008060006113226005546dffffffffffffffffffffffffffff808216926e01000000000000000000000000000083049091169163ffffffff7c01000000000000000000000000000000000000000000000000000000009091041690565b506dffffffffffffffffffffffffffff91821693501690506fffffffffffffffffffffffffffffffff7f00000000000000000000000000000000000000000000000000000000000000008116907f000000000000000000000000000000000000000000000000000000000000000016600061139d8386614311565b905060006113ab8386614311565b905060006113b7612bdf565b905060006113c68484846133ba565b90507f000000000000000000000000000000000000000000000000000000000000000073ffffffffffffffffffffffffffffffffffffffff168b73ffffffffffffffffffffffffffffffffffffffff16036114a2576000611427868c614311565b61143190856142fa565b9050600061144082848661386b565b905060006114588961145289856142fa565b90613914565b6007549091506114989061148a9063ffffffff72010000000000000000000000000000000000009091048116906142fa565b61145263ffffffff84614311565b9b505050506115c6565b7f000000000000000000000000000000000000000000000000000000000000000073ffffffffffffffffffffffffffffffffffffffff168b73ffffffffffffffffffffffffffffffffffffffff1614611557576040517f08c379a000000000000000000000000000000000000000000000000000000000815260206004820152601360248201527f494e56414c49445f494e5055545f544f4b454e0000000000000000000000000060448201526064016107a8565b6000611563878c614311565b61156d90866142fa565b9050600061157c82848661386b565b9050600061158e8861145288856142fa565b6007549091506115c09061148a9063ffffffff72010000000000000000000000000000000000009091048116906142fa565b9b505050505b505050505050505092915050565b6000600260045403611642576040517f08c379a000000000000000000000000000000000000000000000000000000000815260206004820152601f60248201527f5265656e7472616e637947756172643a207265656e7472616e742063616c6c0060448201526064016107a8565b60026004556000806116a36005546dffffffffffffffffffffffffffff808216926e01000000000000000000000000000083049091169163ffffffff7c01000000000000000000000000000000000000000000000000000000009091041690565b506040517f70a08231000000000000000000000000000000000000000000000000000000008152306004820152919350915060009073ffffffffffffffffffffffffffffffffffffffff7f000000000000000000000000000000000000000000000000000000000000000016906370a0823190602401602060405180830381865afa158015611736573d6000803e3d6000fd5b505050506040513d601f19601f8201168201806040525081019061175a91906142b2565b6040517f70a0823100000000000000000000000000000000000000000000000000000000815230600482015290915060009073ffffffffffffffffffffffffffffffffffffffff7f000000000000000000000000000000000000000000000000000000000000000016906370a0823190602401602060405180830381865afa1580156117ea573d6000803e3d6000fd5b505050506040513d601f19601f8201168201806040525081019061180e91906142b2565b9050611818613937565b60008054906118376dffffffffffffffffffffffffffff8716856142fa565b905060006118556dffffffffffffffffffffffffffff8716856142fa565b90508260000361189c576000611869612bdf565b90506000611878878784613504565b90506118866103e8826142fa565b995061189560006103e8613a86565b50506118f1565b6118ee6dffffffffffffffffffffffffffff88166118ba8585614311565b6118c4919061437d565b6dffffffffffffffffffffffffffff88166118df8685614311565b6118e9919061437d565b613b31565b97505b60008811611981576040517f08c379a000000000000000000000000000000000000000000000000000000000815260206004820152602760248201527f4e6f6d69737761703a20494e53554646494349454e545f4c495155494449545960448201527f5f4d494e5445440000000000000000000000000000000000000000000000000060648201526084016107a8565b61198b8989613a86565b611995858561359a565b604080518381526020810183905233917f4c209b5fc8ad50758f13e2e1088ba56a560dff690a1c6fef26394f4c03821c4f910160405180910390a250506001600455509395945050505050565b600260045403611a4e576040517f08c379a000000000000000000000000000000000000000000000000000000000815260206004820152601f60248201527f5265656e7472616e637947756172643a207265656e7472616e742063616c6c0060448201526064016107a8565b60026004553373ffffffffffffffffffffffffffffffffffffffff7f00000000000000000000000000000000000000000000000000000000000000001614611af2576040517f08c379a000000000000000000000000000000000000000000000000000000000815260206004820152601360248201527f4e6f6d69737761703a20464f5242494444454e0000000000000000000000000060448201526064016107a8565b600754611b1690620151809068010000000000000000900464ffffffffff16614391565b421015611b7f576040517f08c379a000000000000000000000000000000000000000000000000000000000815260206004820181905260248201527f4e6f6d6973776170537461626c65506169723a20494e56414c49445f54494d4560448201526064016107a8565b611b8c6201518042614391565b8164ffffffffff161015611c22576040517f08c379a000000000000000000000000000000000000000000000000000000000815260206004820152602760248201527f4e6f6d6973776170537461626c65506169723a20494e56414c49445f4655545560448201527f52455f54494d450000000000000000000000000000000000000000000000000060648201526084016107a8565b6000611c2c612bdf565b905060008363ffffffff16118015611c565750611c4d6064620f4240614311565b8363ffffffff16105b611c5f57600080fd5b8063ffffffff168363ffffffff161015611c9d578063ffffffff1660648463ffffffff16611c8d9190614311565b1015611c9857600080fd5b611cc0565b611cae606463ffffffff8316614311565b8363ffffffff161115611cc057600080fd5b6007805463ffffffff8381167fffffffffffffffffffffffffffffffffffffffffffffffff00000000000000009092168217640100000000918716918202177fffffffffffffffffffffffffffff00000000000000000000ffffffffffffffff16680100000000000000004264ffffffffff818116929092027fffffffffffffffffffffffffffff0000000000ffffffffffffffffffffffffff16929092176d0100000000000000000000000000918816918202179094556040805193845260208401929092529082015260608101919091527fa2b71ec6df949300b59aab36b55e189697b750119dd349fcfa8c0f779e83c2549060800160405180910390a15050600160045550565b600080600260045403611e39576040517f08c379a000000000000000000000000000000000000000000000000000000000815260206004820152601f60248201527f5265656e7472616e637947756172643a207265656e7472616e742063616c6c0060448201526064016107a8565b600260049081556040517f70a0823100000000000000000000000000000000000000000000000000000000815230918101919091527f0000000000000000000000000000000000000000000000000000000000000000907f00000000000000000000000000000000000000000000000000000000000000009060009073ffffffffffffffffffffffffffffffffffffffff8416906370a0823190602401602060405180830381865afa158015611ef3573d6000803e3d6000fd5b505050506040513d601f19601f82011682018060405250810190611f1791906142b2565b6040517f70a0823100000000000000000000000000000000000000000000000000000000815230600482015290915060009073ffffffffffffffffffffffffffffffffffffffff8416906370a0823190602401602060405180830381865afa158015611f87573d6000803e3d6000fd5b505050506040513d601f19601f82011682018060405250810190611fab91906142b2565b30600090815260016020526040902054909150611fc6613937565b60005480611fd48584614311565b611fde919061437d565b975080611feb8484614311565b611ff5919061437d565b96506000881180156120075750600087115b612093576040517f08c379a000000000000000000000000000000000000000000000000000000000815260206004820152602760248201527f4e6f6d69737761703a20494e53554646494349454e545f4c495155494449545960448201527f5f4255524e45440000000000000000000000000000000000000000000000000060648201526084016107a8565b61209d3083613b47565b6120a8868a8a613328565b6120b3858a89613328565b6040517f70a0823100000000000000000000000000000000000000000000000000000000815230600482015273ffffffffffffffffffffffffffffffffffffffff8716906370a0823190602401602060405180830381865afa15801561211d573d6000803e3d6000fd5b505050506040513d601f19601f8201168201806040525081019061214191906142b2565b6040517f70a0823100000000000000000000000000000000000000000000000000000000815230600482015290945073ffffffffffffffffffffffffffffffffffffffff8616906370a0823190602401602060405180830381865afa1580156121ae573d6000803e3d6000fd5b505050506040513d601f19601f820116820180604052508101906121d291906142b2565b92506121de848461359a565b604080518981526020810189905273ffffffffffffffffffffffffffffffffffffffff8b169133917fdccd412f0b1252819cb1fd330b93224ca42612892bb3f4f789976e6d81936496910160405180910390a35050505050506001600481905550915091565b60606040518060400160405280600781526020017f4e4d582d534c50000000000000000000000000000000000000000000000000008152507f000000000000000000000000000000000000000000000000000000000000000073ffffffffffffffffffffffffffffffffffffffff166395d89b416040518163ffffffff1660e01b8152600401600060405180830381865afa1580156122e7573d6000803e3d6000fd5b505050506040513d6000823e601f3d9081017fffffffffffffffffffffffffffffffffffffffffffffffffffffffffffffffe016820160405261232d919081019061440c565b7f000000000000000000000000000000000000000000000000000000000000000073ffffffffffffffffffffffffffffffffffffffff166395d89b416040518163ffffffff1660e01b8152600401600060405180830381865afa158015612398573d6000803e3d6000fd5b505050506040513d6000823e601f3d9081017fffffffffffffffffffffffffffffffffffffffffffffffffffffffffffffffe01682016040526123de919081019061440c565b6040516020016123f0939291906144cc565b604051602081830303815290604052905090565b33600090815260026020908152604080832073ffffffffffffffffffffffffffffffffffffffff86168452909152812054828110156124c5576040517f08c379a000000000000000000000000000000000000000000000000000000000815260206004820152603360248201527f4e6f6d6973776170537461626c6545524332303a20646563726561736564206160448201527f6c6c6f77616e63652062656c6f77207a65726f0000000000000000000000000060648201526084016107a8565b61127033856112bf86856142fa565b600061104633848461379c565b60026004540361254d576040517f08c379a000000000000000000000000000000000000000000000000000000000815260206004820152601f60248201527f5265656e7472616e637947756172643a207265656e7472616e742063616c6c0060448201526064016107a8565b600260049081556005546040517f70a0823100000000000000000000000000000000000000000000000000000000815230928101929092527f0000000000000000000000000000000000000000000000000000000000000000917f00000000000000000000000000000000000000000000000000000000000000009161265691849186916dffffffffffffffffffffffffffff9091169073ffffffffffffffffffffffffffffffffffffffff8416906370a08231906024015b602060405180830381865afa158015612623573d6000803e3d6000fd5b505050506040513d601f19601f8201168201806040525081019061264791906142b2565b61265191906142fa565b613328565b6005546040517f70a082310000000000000000000000000000000000000000000000000000000081523060048201526126d691839186916e01000000000000000000000000000090046dffffffffffffffffffffffffffff169073ffffffffffffffffffffffffffffffffffffffff8416906370a0823190602401612606565b5050600160045550565b60026004540361274c576040517f08c379a000000000000000000000000000000000000000000000000000000000815260206004820152601f60248201527f5265656e7472616e637947756172643a207265656e7472616e742063616c6c0060448201526064016107a8565b60026004553373ffffffffffffffffffffffffffffffffffffffff7f000000000000000000000000000000000000000000000000000000000000000016146127f0576040517f08c379a000000000000000000000000000000000000000000000000000000000815260206004820152601360248201527f4e6f6d69737761703a20464f5242494444454e0000000000000000000000000060448201526064016107a8565b60006127fa612bdf565b600780547fffffffffffffffffffffffffffffffffffffffffffffffff00000000000000001663ffffffff83169081176401000000008202177fffffffffffffffffffffffffffff00000000000000000000ffffffffffffffff16680100000000000000004264ffffffffff81169182027fffffffffffffffffffffffffffff0000000000ffffffffffffffffffffffffff16929092176d010000000000000000000000000091909102179092556040805191825260208201929092529192507f46e22fb3709ad289f62ce63d469248536dbc78d82b84a3d7e74ad606dc201938910160405180910390a1506001600455565b600080600061294b6005546dffffffffffffffffffffffffffff808216926e01000000000000000000000000000083049091169163ffffffff7c01000000000000000000000000000000000000000000000000000000009091041690565b506007546dffffffffffffffffffffffffffff9283169450911691506fffffffffffffffffffffffffffffffff7f00000000000000000000000000000000000000000000000000000000000000008116917f00000000000000000000000000000000000000000000000000000000000000009091169060009063ffffffff906129ec9072010000000000000000000000000000000000009004821689614311565b6129fa63ffffffff8a614311565b612a0491906142fa565b612a0e919061437d565b90506000612a1c8487614311565b90506000612a2a8487614311565b90506000612a36612bdf565b90506000612a458484846133ba565b90507f000000000000000000000000000000000000000000000000000000000000000073ffffffffffffffffffffffffffffffffffffffff168c73ffffffffffffffffffffffffffffffffffffffff1603612adf576000612aa68887614311565b612ab09086614391565b90506000612abf82848661386b565b905087612acc82876142fa565b612ad6919061437d565b9b505050612bd0565b7f000000000000000000000000000000000000000000000000000000000000000073ffffffffffffffffffffffffffffffffffffffff168c73ffffffffffffffffffffffffffffffffffffffff1614612b94576040517f08c379a000000000000000000000000000000000000000000000000000000000815260206004820152601360248201527f494e56414c49445f494e5055545f544f4b454e0000000000000000000000000060448201526064016107a8565b6000612ba08787614311565b612baa9085614391565b90506000612bb982848661386b565b905088612bc682886142fa565b6115c0919061437d565b50505050505050505092915050565b6007546000906d0100000000000000000000000000810464ffffffffff1690640100000000900463ffffffff164282111561104a5760075463ffffffff81169068010000000000000000900464ffffffffff1681831115612c7f57612c4481856142fa565b612c4e83856142fa565b612c5883426142fa565b612c629190614311565b612c6c919061437d565b612c769083614391565b94505050505090565b612c8981856142fa565b612c9384846142fa565b612c9d83426142fa565b612ca79190614311565b612cb1919061437d565b612c7690836142fa565b42841015612d25576040517f08c379a000000000000000000000000000000000000000000000000000000000815260206004820152601160248201527f4e6f6d69737761703a204558504952454400000000000000000000000000000060448201526064016107a8565b73ffffffffffffffffffffffffffffffffffffffff8716600090815260036020526040812080547f0000000000000000000000000000000000000000000000000000000000000000917f6e71edae12b1b97f4d1f60370fef10105fa2faae0126114a169c64845d6126c9918b918b918b9187612da083614542565b9091555060408051602081019690965273ffffffffffffffffffffffffffffffffffffffff94851690860152929091166060840152608083015260a082015260c0810187905260e00160405160208183030381529060405280519060200120604051602001612e419291907f190100000000000000000000000000000000000000000000000000000000000081526002810192909252602282015260420190565b604080517fffffffffffffffffffffffffffffffffffffffffffffffffffffffffffffffe08184030181528282528051602091820120600080855291840180845281905260ff88169284019290925260608301869052608083018590529092509060019060a0016020604051602081039080840390855afa158015612eca573d6000803e3d6000fd5b50506040517fffffffffffffffffffffffffffffffffffffffffffffffffffffffffffffffe0015191505073ffffffffffffffffffffffffffffffffffffffff811615801590612f4557508873ffffffffffffffffffffffffffffffffffffffff168173ffffffffffffffffffffffffffffffffffffffff16145b612fab576040517f08c379a000000000000000000000000000000000000000000000000000000000815260206004820152601b60248201527f4e6f6d69737761703a20494e56414c49445f5349474e4154555245000000000060448201526064016107a8565b612fb689898961372d565b505050505050505050565b3373ffffffffffffffffffffffffffffffffffffffff7f00000000000000000000000000000000000000000000000000000000000000001614613060576040517f08c379a000000000000000000000000000000000000000000000000000000000815260206004820152601360248201527f4e6f6d69737761703a20464f5242494444454e0000000000000000000000000060448201526064016107a8565b63ffffffff8163ffffffff1611156130fa576040517f08c379a000000000000000000000000000000000000000000000000000000000815260206004820152602160248201527f4e6f6d6973776170537461626c65506169723a20464f5242494444454e5f464560448201527f450000000000000000000000000000000000000000000000000000000000000060648201526084016107a8565b6007805463ffffffff9092167201000000000000000000000000000000000000027fffffffffffffffffffff00000000ffffffffffffffffffffffffffffffffffff909216919091179055565b6002600454036131b3576040517f08c379a000000000000000000000000000000000000000000000000000000000815260206004820152601f60248201527f5265656e7472616e637947756172643a207265656e7472616e742063616c6c0060448201526064016107a8565b600260049081556040517f70a082310000000000000000000000000000000000000000000000000000000081523091810191909152613321907f000000000000000000000000000000000000000000000000000000000000000073ffffffffffffffffffffffffffffffffffffffff16906370a0823190602401602060405180830381865afa15801561324a573d6000803e3d6000fd5b505050506040513d601f19601f8201168201806040525081019061326e91906142b2565b6040517f70a082310000000000000000000000000000000000000000000000000000000081523060048201527f000000000000000000000000000000000000000000000000000000000000000073ffffffffffffffffffffffffffffffffffffffff16906370a0823190602401602060405180830381865afa1580156132f8573d6000803e3d6000fd5b505050506040513d601f19601f8201168201806040525081019061331c91906142b2565b61359a565b6001600455565b6040805173ffffffffffffffffffffffffffffffffffffffff8416602482015260448082018490528251808303909101815260649091019091526020810180517bffffffffffffffffffffffffffffffffffffffffffffffffffffffff167fa9059cbb000000000000000000000000000000000000000000000000000000001790526133b5908490613bfa565b505050565b6000808385106133ca57836133cc565b845b905060008486106133dd57856133df565b845b905060006133ed8284614391565b9050806000036134035760009350505050611274565b6000613410866010614311565b905060008361341f8484614311565b6134299190614311565b905060008461343a60646004614311565b61344490856142fa565b61344e9190614311565b9050600084975060005b6101008110156134f55788915060008883613474816064614311565b61347e9190614311565b613488919061437d565b905083613496826003614311565b6134a09190614391565b85826134ad8d6002614311565b6134b79190614311565b6134c19190614391565b6134cb919061437d565b99506134d78a84613d06565b156134e257506134f5565b50806134ed81614542565b915050613458565b50505050505050509392505050565b6000806135436fffffffffffffffffffffffffffffffff7f00000000000000000000000000000000000000000000000000000000000000001686614311565b905060006135836fffffffffffffffffffffffffffffffff7f00000000000000000000000000000000000000000000000000000000000000001686614311565b90506135908282866133ba565b9695505050505050565b6dffffffffffffffffffffffffffff82118015906135c657506dffffffffffffffffffffffffffff8111155b61362c576040517f08c379a000000000000000000000000000000000000000000000000000000000815260206004820152601260248201527f4e6f6d69737761703a204f564552464c4f57000000000000000000000000000060448201526064016107a8565b600061363d6401000000004261457a565b6005805463ffffffff83167c0100000000000000000000000000000000000000000000000000000000027bffffffffffffffffffffffffffffffffffffffffffffffffffffffff6dffffffffffffffffffffffffffff8781166e0100000000000000000000000000009081027fffffffff000000000000000000000000000000000000000000000000000000009095168a83161794909417918216831794859055604080519382169282169290921783529290930490911660208201529192507f1c411e9a96e071241c2f21f7726b17ae89e3cab4c78be50e062b03a9fffbbad1910160405180910390a1505050565b73ffffffffffffffffffffffffffffffffffffffff83811660008181526002602090815260408083209487168084529482529182902085905590518481527f8c5be1e5ebec7d5bd14f71427d1e84f3dd0314c0f7b2291e5b200ac8c7c3b92591015b60405180910390a3505050565b73ffffffffffffffffffffffffffffffffffffffff83166000908152600160205260409020546137cd9082906142fa565b73ffffffffffffffffffffffffffffffffffffffff808516600090815260016020526040808220939093559084168152205461380a908290614391565b73ffffffffffffffffffffffffffffffffffffffff80841660008181526001602052604090819020939093559151908516907fddf252ad1be2c89b69c2b068fc378daa952ba7f163c4a11628f55a4df523b3ef9061378f9085815260200190565b8160008061387a846004614311565b90506000600486888161388e816064614311565b6138989190614311565b6138a2919061437d565b6138ac9190614311565b6138b6919061437d565b90508587038202606487020160005b610100811015613908578594508385026138e88187028501600283028501613914565b96506138f48787613d06565b156138ff5750613908565b506001016138c5565b50505050509392505050565b60008160016139238286614391565b61392d91906142fa565b611274919061437d565b60007f000000000000000000000000000000000000000000000000000000000000000073ffffffffffffffffffffffffffffffffffffffff1663017e7e586040518163ffffffff1660e01b8152600401602060405180830381865afa1580156139a4573d6000803e3d6000fd5b505050506040513d601f19601f820116820180604052508101906139c8919061458e565b60065490915073ffffffffffffffffffffffffffffffffffffffff8216158015916fffffffffffffffffffffffffffffffff1690613a4d5760018111156133b557613a1d83613a186001846142fa565b613a86565b600680547fffffffffffffffffffffffffffffffff00000000000000000000000000000000166001179055505050565b60018111156133b557600680547fffffffffffffffffffffffffffffffff00000000000000000000000000000000166001179055505050565b80600054613a949190614391565b600090815573ffffffffffffffffffffffffffffffffffffffff8316815260016020526040902054613ac7908290614391565b73ffffffffffffffffffffffffffffffffffffffff83166000818152600160205260408082209390935591519091907fddf252ad1be2c89b69c2b068fc378daa952ba7f163c4a11628f55a4df523b3ef90613b259085815260200190565b60405180910390a35050565b6000818310613b405781611274565b5090919050565b73ffffffffffffffffffffffffffffffffffffffff8216600090815260016020526040902054613b789082906142fa565b73ffffffffffffffffffffffffffffffffffffffff831660009081526001602052604081209190915554613bad9082906142fa565b600090815560405182815273ffffffffffffffffffffffffffffffffffffffff8416907fddf252ad1be2c89b69c2b068fc378daa952ba7f163c4a11628f55a4df523b3ef90602001613b25565b6000613c5c826040518060400160405280602081526020017f5361666545524332303a206c6f772d6c6576656c2063616c6c206661696c65648152508573ffffffffffffffffffffffffffffffffffffffff16613d289092919063ffffffff16565b8051909150156133b55780806020019051810190613c7a91906145ab565b6133b5576040517f08c379a000000000000000000000000000000000000000000000000000000000815260206004820152602a60248201527f5361666545524332303a204552433230206f7065726174696f6e20646964206e60448201527f6f7420737563636565640000000000000000000000000000000000000000000060648201526084016107a8565b600081831115613d1d57506001818303111561104a565b506001919003111590565b6060613d378484600085613d3f565b949350505050565b606082471015613dd1576040517f08c379a000000000000000000000000000000000000000000000000000000000815260206004820152602660248201527f416464726573733a20696e73756666696369656e742062616c616e636520666f60448201527f722063616c6c000000000000000000000000000000000000000000000000000060648201526084016107a8565b73ffffffffffffffffffffffffffffffffffffffff85163b613e4f576040517f08c379a000000000000000000000000000000000000000000000000000000000815260206004820152601d60248201527f416464726573733a2063616c6c20746f206e6f6e2d636f6e747261637400000060448201526064016107a8565b6000808673ffffffffffffffffffffffffffffffffffffffff168587604051613e7891906145cd565b60006040518083038185875af1925050503d8060008114613eb5576040519150601f19603f3d011682016040523d82523d6000602084013e613eba565b606091505b5091509150613eca828286613ed5565b979650505050505050565b60608315613ee4575081611274565b825115613ef45782518084602001fd5b816040517f08c379a00000000000000000000000000000000000000000000000000000000081526004016107a89190614013565b73ffffffffffffffffffffffffffffffffffffffff81168114613f4a57600080fd5b50565b600080600080600060808688031215613f6557600080fd5b85359450602086013593506040860135613f7e81613f28565b9250606086013567ffffffffffffffff80821115613f9b57600080fd5b818801915088601f830112613faf57600080fd5b813581811115613fbe57600080fd5b896020828501011115613fd057600080fd5b9699959850939650602001949392505050565b60005b83811015613ffe578181015183820152602001613fe6565b8381111561400d576000848401525b50505050565b6020815260008251806020840152614032816040850160208701613fe3565b601f017fffffffffffffffffffffffffffffffffffffffffffffffffffffffffffffffe0169190910160400192915050565b6000806040838503121561407757600080fd5b823561408281613f28565b946020939093013593505050565b6000602082840312156140a257600080fd5b81356fffffffffffffffffffffffffffffffff8116811461127457600080fd5b6000806000606084860312156140d757600080fd5b83356140e281613f28565b925060208401356140f281613f28565b929592945050506040919091013590565b60006020828403121561411557600080fd5b813561127481613f28565b803563ffffffff8116811461413457600080fd5b919050565b6000806040838503121561414c57600080fd5b61415583614120565b9150602083013564ffffffffff8116811461416f57600080fd5b809150509250929050565b600080600080600080600060e0888a03121561419557600080fd5b87356141a081613f28565b965060208801356141b081613f28565b95506040880135945060608801359350608088013560ff811681146141d457600080fd5b9699959850939692959460a0840135945060c09093013592915050565b60006020828403121561420357600080fd5b61127482614120565b6000806040838503121561421f57600080fd5b823561422a81613f28565b9150602083013561416f81613f28565b73ffffffffffffffffffffffffffffffffffffffff8616815284602082015283604082015260806060820152816080820152818360a0830137600081830160a090810191909152601f9092017fffffffffffffffffffffffffffffffffffffffffffffffffffffffffffffffe0160101949350505050565b6000602082840312156142c457600080fd5b5051919050565b7f4e487b7100000000000000000000000000000000000000000000000000000000600052601160045260246000fd5b60008282101561430c5761430c6142cb565b500390565b6000817fffffffffffffffffffffffffffffffffffffffffffffffffffffffffffffffff0483118215151615614349576143496142cb565b500290565b7f4e487b7100000000000000000000000000000000000000000000000000000000600052601260045260246000fd5b60008261438c5761438c61434e565b500490565b600082198211156143a4576143a46142cb565b500190565b60006fffffffffffffffffffffffffffffffff8083168185168083038211156143d4576143d46142cb565b01949350505050565b7f4e487b7100000000000000000000000000000000000000000000000000000000600052604160045260246000fd5b60006020828403121561441e57600080fd5b815167ffffffffffffffff8082111561443657600080fd5b818401915084601f83011261444a57600080fd5b81518181111561445c5761445c6143dd565b604051601f82017fffffffffffffffffffffffffffffffffffffffffffffffffffffffffffffffe0908116603f011681019083821181831017156144a2576144a26143dd565b816040528281528760208487010111156144bb57600080fd5b613eca836020830160208801613fe3565b600084516144de818460208901613fe3565b80830190507f2d00000000000000000000000000000000000000000000000000000000000000808252855161451a816001850160208a01613fe3565b60019201918201528351614535816002840160208801613fe3565b0160020195945050505050565b60007fffffffffffffffffffffffffffffffffffffffffffffffffffffffffffffffff8203614573576145736142cb565b5060010190565b6000826145895761458961434e565b500690565b6000602082840312156145a057600080fd5b815161127481613f28565b6000602082840312156145bd57600080fd5b8151801515811461127457600080fd5b600082516145df818460208701613fe3565b919091019291505056fea26469706673582212209bbcf82b22f490fb76f1177940afefdf59480b202f5e83a46a3b45ac46c2e1d664736f6c634300080f00334e6f6d6973776170537461626c65506169723a20756e737570706f7274656420",
  "immutableReferences": {},
  "source": "// SPDX-License-Identifier: GPL-3.0-or-later\npragma solidity =0.8.15;\n\nimport './NomiswapStablePair.sol';\nimport './interfaces/INomiswapStableFactory.sol';\n\ncontract NomiswapStableFactory is INomiswapStableFactory {\n\n    address public feeTo;\n    address public feeToSetter;\n    bytes32 public INIT_CODE_HASH = keccak256(abi.encodePacked(type(NomiswapStablePair).creationCode));\n    string public constant version = 'NomiswapStableFactory 2.0.0';\n\n    mapping(address => mapping(address => address)) public getPair;\n    address[] public allPairs;\n\n    constructor(address _feeToSetter) {\n        feeToSetter = _feeToSetter;\n    }\n\n    function allPairsLength() external view returns (uint) {\n        return allPairs.length;\n    }\n\n    function createPair(address tokenA, address tokenB) external returns (address pair) {\n        require(msg.sender == feeToSetter, 'Nomiswap: FORBIDDEN');\n        require(tokenA != tokenB, 'Nomiswap: IDENTICAL_ADDRESSES');\n        (address token0, address token1) = tokenA < tokenB ? (tokenA, tokenB) : (tokenB, tokenA);\n        require(token0 != address(0), 'Nomiswap: ZERO_ADDRESS');\n        require(getPair[token0][token1] == address(0), 'Nomiswap: PAIR_EXISTS'); // single check is sufficient\n        bytes memory creationCode = type(NomiswapStablePair).creationCode;\n        bytes memory bytecode = abi.encodePacked(creationCode, abi.encode(token0, token1));\n        bytes32 salt = keccak256(abi.encodePacked(token0, token1));\n        assembly {\n            pair := create2(0, add(bytecode, 32), mload(bytecode), salt)\n        }\n        require(pair != address(0), \"Nomiswap: PAIR_NOT_CREATED\");\n        getPair[token0][token1] = pair;\n        getPair[token1][token0] = pair; // populate mapping in the reverse direction\n        allPairs.push(pair);\n        emit PairCreated(token0, token1, pair, allPairs.length);\n    }\n\n    function setFeeTo(address _feeTo) external {\n        require(msg.sender == feeToSetter, 'Nomiswap: FORBIDDEN');\n        feeTo = _feeTo;\n    }\n\n    function setFeeToSetter(address _feeToSetter) external {\n        require(msg.sender == feeToSetter, 'Nomiswap: FORBIDDEN');\n        feeToSetter = _feeToSetter;\n    }\n\n    function setDevFee(address _pair, uint128 _devFee) external {\n        require(msg.sender == feeToSetter, 'Nomiswap: FORBIDDEN');\n        require(_devFee > 0, 'Nomiswap: FORBIDDEN_FEE');\n        INomiswapStablePair(_pair).setDevFee(_devFee);\n    }\n\n    function setSwapFee(address _pair, uint32 _swapFee) external {\n        require(msg.sender == feeToSetter, 'Nomiswap: FORBIDDEN');\n        INomiswapStablePair(_pair).setSwapFee(_swapFee);\n    }\n\n    function rampA(address _pair, uint32 _futureA, uint40 _futureTime) external {\n        require(msg.sender == feeToSetter, 'Nomiswap: FORBIDDEN');\n        NomiswapStablePair(_pair).rampA(_futureA, _futureTime);\n    }\n\n    function stopRampA(address _pair) external {\n        require(msg.sender == feeToSetter, 'Nomiswap: FORBIDDEN');\n        NomiswapStablePair(_pair).stopRampA();\n    }\n\n}\n",
  "sourcePath": "/Users/plyuriy/projects/dex/stableswap-contracts/contracts/NomiswapStableFactory.sol",
  "compiler": {
    "name": "solc",
    "version": "0.8.15+commit.e14f2714.Emscripten.clang"
  },
  "schemaVersion": "3.4.9",
  "updatedAt": "2022-12-12T10:22:13.048Z",
  "devdoc": {
    "kind": "dev",
    "methods": {},
    "version": 1
  },
  "userdoc": {
    "kind": "user",
    "methods": {},
    "version": 1
  }
}