{
  "contractName": "NomiswapStableFactory",
  "abi": [
    {
      "inputs": [
        {
          "internalType": "address",
          "name": "_feeToSetter",
          "type": "address"
        }
      ],
      "stateMutability": "nonpayable",
      "type": "constructor"
    },
    {
      "anonymous": false,
      "inputs": [
        {
          "indexed": true,
          "internalType": "address",
          "name": "token0",
          "type": "address"
        },
        {
          "indexed": true,
          "internalType": "address",
          "name": "token1",
          "type": "address"
        },
        {
          "indexed": false,
          "internalType": "address",
          "name": "pair",
          "type": "address"
        },
        {
          "indexed": false,
          "internalType": "uint256",
          "name": "",
          "type": "uint256"
        }
      ],
      "name": "PairCreated",
      "type": "event"
    },
    {
      "inputs": [],
      "name": "INIT_CODE_HASH",
      "outputs": [
        {
          "internalType": "bytes32",
          "name": "",
          "type": "bytes32"
        }
      ],
      "stateMutability": "view",
      "type": "function"
    },
    {
      "inputs": [
        {
          "internalType": "uint256",
          "name": "",
          "type": "uint256"
        }
      ],
      "name": "allPairs",
      "outputs": [
        {
          "internalType": "address",
          "name": "",
          "type": "address"
        }
      ],
      "stateMutability": "view",
      "type": "function"
    },
    {
      "inputs": [],
      "name": "feeTo",
      "outputs": [
        {
          "internalType": "address",
          "name": "",
          "type": "address"
        }
      ],
      "stateMutability": "view",
      "type": "function"
    },
    {
      "inputs": [],
      "name": "feeToSetter",
      "outputs": [
        {
          "internalType": "address",
          "name": "",
          "type": "address"
        }
      ],
      "stateMutability": "view",
      "type": "function"
    },
    {
      "inputs": [
        {
          "internalType": "address",
          "name": "",
          "type": "address"
        },
        {
          "internalType": "address",
          "name": "",
          "type": "address"
        }
      ],
      "name": "getPair",
      "outputs": [
        {
          "internalType": "address",
          "name": "",
          "type": "address"
        }
      ],
      "stateMutability": "view",
      "type": "function"
    },
    {
      "inputs": [],
      "name": "allPairsLength",
      "outputs": [
        {
          "internalType": "uint256",
          "name": "",
          "type": "uint256"
        }
      ],
      "stateMutability": "view",
      "type": "function"
    },
    {
      "inputs": [
        {
          "internalType": "address",
          "name": "tokenA",
          "type": "address"
        },
        {
          "internalType": "address",
          "name": "tokenB",
          "type": "address"
        }
      ],
      "name": "createPair",
      "outputs": [
        {
          "internalType": "address",
          "name": "pair",
          "type": "address"
        }
      ],
      "stateMutability": "nonpayable",
      "type": "function"
    },
    {
      "inputs": [
        {
          "internalType": "address",
          "name": "_feeTo",
          "type": "address"
        }
      ],
      "name": "setFeeTo",
      "outputs": [],
      "stateMutability": "nonpayable",
      "type": "function"
    },
    {
      "inputs": [
        {
          "internalType": "address",
          "name": "_feeToSetter",
          "type": "address"
        }
      ],
      "name": "setFeeToSetter",
      "outputs": [],
      "stateMutability": "nonpayable",
      "type": "function"
    },
    {
      "inputs": [
        {
          "internalType": "address",
          "name": "_pair",
          "type": "address"
        },
        {
          "internalType": "uint128",
          "name": "_devFee",
          "type": "uint128"
        }
      ],
      "name": "setDevFee",
      "outputs": [],
      "stateMutability": "nonpayable",
      "type": "function"
    },
    {
      "inputs": [
        {
          "internalType": "address",
          "name": "_pair",
          "type": "address"
        },
        {
          "internalType": "uint32",
          "name": "_swapFee",
          "type": "uint32"
        }
      ],
      "name": "setSwapFee",
      "outputs": [],
      "stateMutability": "nonpayable",
      "type": "function"
    },
    {
      "inputs": [
        {
          "internalType": "address",
          "name": "_pair",
          "type": "address"
        },
        {
          "internalType": "uint32",
          "name": "_futureA",
          "type": "uint32"
        },
        {
          "internalType": "uint40",
          "name": "_futureTime",
          "type": "uint40"
        }
      ],
      "name": "rampA",
      "outputs": [],
      "stateMutability": "nonpayable",
      "type": "function"
    },
    {
      "inputs": [
        {
          "internalType": "address",
          "name": "_pair",
          "type": "address"
        }
      ],
      "name": "stopRampA",
      "outputs": [],
      "stateMutability": "nonpayable",
      "type": "function"
    }
  ],
  "bytecode": "0x6080604081905261001060a061009d565b601f1982820381018352601f90910116604081905261003291906020016100ab565b6040516020818303038152906040528051906020012060025534801561005757600080fd5b506040516200a3ad3803806200a3ad833981016040819052610078916100e6565b600180546001600160a01b0319166001600160a01b0392909216919091179055610116565b6149618062005a4c83390190565b6000825160005b818110156100cc57602081860181015185830152016100b2565b818111156100db576000828501525b509190910192915050565b6000602082840312156100f857600080fd5b81516001600160a01b038116811461010f57600080fd5b9392505050565b61592680620001266000396000f3fe60806040523480156200001157600080fd5b5060043610620000f15760003560e01c80636864a4b31162000097578063bcec1e4d116200006e578063bcec1e4d14620001f9578063c9c653961462000210578063e6a439051462000227578063f46901ed146200026b57600080fd5b80636864a4b314620001b45780639e68ceb814620001cb578063a2e74af614620001e257600080fd5b8063257671f511620000cc578063257671f5146200017957806352b5c71e1462000192578063574f2ba314620001ab57600080fd5b8063017e7e5814620000f6578063094b741514620001415780631e3dd18b1462000162575b600080fd5b600054620001179073ffffffffffffffffffffffffffffffffffffffff1681565b60405173ffffffffffffffffffffffffffffffffffffffff90911681526020015b60405180910390f35b600154620001179073ffffffffffffffffffffffffffffffffffffffff1681565b620001176200017336600462000e03565b62000282565b6200018360025481565b60405190815260200162000138565b620001a9620001a336600462000e47565b620002ba565b005b60045462000183565b620001a9620001c536600462000e97565b62000457565b620001a9620001dc36600462000ed1565b6200053f565b620001a9620001f336600462000e97565b6200061b565b620001a96200020a36600462000f09565b620006e5565b620001176200022136600462000f60565b62000801565b620001176200023836600462000f60565b600360209081526000928352604080842090915290825290205473ffffffffffffffffffffffffffffffffffffffff1681565b620001a96200027c36600462000e97565b62000d2b565b600481815481106200029357600080fd5b60009182526020909120015473ffffffffffffffffffffffffffffffffffffffff16905081565b60015473ffffffffffffffffffffffffffffffffffffffff16331462000341576040517f08c379a000000000000000000000000000000000000000000000000000000000815260206004820152601360248201527f4e6f6d69737761703a20464f5242494444454e0000000000000000000000000060448201526064015b60405180910390fd5b6000816fffffffffffffffffffffffffffffffff1611620003bf576040517f08c379a000000000000000000000000000000000000000000000000000000000815260206004820152601760248201527f4e6f6d69737761703a20464f5242494444454e5f464545000000000000000000604482015260640162000338565b6040517f111f8ef30000000000000000000000000000000000000000000000000000000081526fffffffffffffffffffffffffffffffff8216600482015273ffffffffffffffffffffffffffffffffffffffff83169063111f8ef3906024015b600060405180830381600087803b1580156200043a57600080fd5b505af11580156200044f573d6000803e3d6000fd5b505050505050565b60015473ffffffffffffffffffffffffffffffffffffffff163314620004da576040517f08c379a000000000000000000000000000000000000000000000000000000000815260206004820152601360248201527f4e6f6d69737761703a20464f5242494444454e00000000000000000000000000604482015260640162000338565b8073ffffffffffffffffffffffffffffffffffffffff1663c4db7fa06040518163ffffffff1660e01b8152600401600060405180830381600087803b1580156200052357600080fd5b505af115801562000538573d6000803e3d6000fd5b5050505050565b60015473ffffffffffffffffffffffffffffffffffffffff163314620005c2576040517f08c379a000000000000000000000000000000000000000000000000000000000815260206004820152601360248201527f4e6f6d69737761703a20464f5242494444454e00000000000000000000000000604482015260640162000338565b6040517fd6d788c300000000000000000000000000000000000000000000000000000000815263ffffffff8216600482015273ffffffffffffffffffffffffffffffffffffffff83169063d6d788c3906024016200041f565b60015473ffffffffffffffffffffffffffffffffffffffff1633146200069e576040517f08c379a000000000000000000000000000000000000000000000000000000000815260206004820152601360248201527f4e6f6d69737761703a20464f5242494444454e00000000000000000000000000604482015260640162000338565b600180547fffffffffffffffffffffffff00000000000000000000000000000000000000001673ffffffffffffffffffffffffffffffffffffffff92909216919091179055565b60015473ffffffffffffffffffffffffffffffffffffffff16331462000768576040517f08c379a000000000000000000000000000000000000000000000000000000000815260206004820152601360248201527f4e6f6d69737761703a20464f5242494444454e00000000000000000000000000604482015260640162000338565b6040517f73c48bb500000000000000000000000000000000000000000000000000000000815263ffffffff8316600482015264ffffffffff8216602482015273ffffffffffffffffffffffffffffffffffffffff8416906373c48bb590604401600060405180830381600087803b158015620007e357600080fd5b505af1158015620007f8573d6000803e3d6000fd5b50505050505050565b60015460009073ffffffffffffffffffffffffffffffffffffffff16331462000887576040517f08c379a000000000000000000000000000000000000000000000000000000000815260206004820152601360248201527f4e6f6d69737761703a20464f5242494444454e00000000000000000000000000604482015260640162000338565b8173ffffffffffffffffffffffffffffffffffffffff168373ffffffffffffffffffffffffffffffffffffffff16036200091e576040517f08c379a000000000000000000000000000000000000000000000000000000000815260206004820152601d60248201527f4e6f6d69737761703a204944454e544943414c5f414444524553534553000000604482015260640162000338565b6000808373ffffffffffffffffffffffffffffffffffffffff168573ffffffffffffffffffffffffffffffffffffffff16106200095d57838562000960565b84845b909250905073ffffffffffffffffffffffffffffffffffffffff8216620009e4576040517f08c379a000000000000000000000000000000000000000000000000000000000815260206004820152601660248201527f4e6f6d69737761703a205a45524f5f4144445245535300000000000000000000604482015260640162000338565b73ffffffffffffffffffffffffffffffffffffffff82811660009081526003602090815260408083208585168452909152902054161562000a82576040517f08c379a000000000000000000000000000000000000000000000000000000000815260206004820152601560248201527f4e6f6d69737761703a20504149525f4558495354530000000000000000000000604482015260640162000338565b60006040518060200162000a969062000df5565b7fffffffffffffffffffffffffffffffffffffffffffffffffffffffffffffffe082820381018352601f9091011660408190527fffffffffffffffffffffffffffffffffffffffff000000000000000000000000606086811b8216602084015285901b166034820152909150600090604801604051602081830303815290604052805190602001209050808251602084016000f5945073ffffffffffffffffffffffffffffffffffffffff851662000bab576040517f08c379a000000000000000000000000000000000000000000000000000000000815260206004820152601a60248201527f4e6f6d69737761703a20504149525f4e4f545f43524541544544000000000000604482015260640162000338565b6040517f485cc95500000000000000000000000000000000000000000000000000000000815273ffffffffffffffffffffffffffffffffffffffff8581166004830152848116602483015286169063485cc95590604401600060405180830381600087803b15801562000c1d57600080fd5b505af115801562000c32573d6000803e3d6000fd5b5050505073ffffffffffffffffffffffffffffffffffffffff84811660008181526003602081815260408084208987168086529083528185208054978d167fffffffffffffffffffffffff000000000000000000000000000000000000000098891681179091559383528185208686528352818520805488168517905560048054600181018255958190527f8a35acfbc15ff81a39ae7d344fd709f28e8600b4aa8c65c6b64bfe7fe36bd19b9095018054909716841790965592548351928352908201527f0d3648bd0f6ba80134a33ba9275ac585d9d315f0ad8355cddefde31afa28d0e9910160405180910390a35050505092915050565b60015473ffffffffffffffffffffffffffffffffffffffff16331462000dae576040517f08c379a000000000000000000000000000000000000000000000000000000000815260206004820152601360248201527f4e6f6d69737761703a20464f5242494444454e00000000000000000000000000604482015260640162000338565b600080547fffffffffffffffffffffffff00000000000000000000000000000000000000001673ffffffffffffffffffffffffffffffffffffffff92909216919091179055565b6149618062000f9083390190565b60006020828403121562000e1657600080fd5b5035919050565b803573ffffffffffffffffffffffffffffffffffffffff8116811462000e4257600080fd5b919050565b6000806040838503121562000e5b57600080fd5b62000e668362000e1d565b915060208301356fffffffffffffffffffffffffffffffff8116811462000e8c57600080fd5b809150509250929050565b60006020828403121562000eaa57600080fd5b62000eb58262000e1d565b9392505050565b803563ffffffff8116811462000e4257600080fd5b6000806040838503121562000ee557600080fd5b62000ef08362000e1d565b915062000f006020840162000ebc565b90509250929050565b60008060006060848603121562000f1f57600080fd5b62000f2a8462000e1d565b925062000f3a6020850162000ebc565b9150604084013564ffffffffff8116811462000f5557600080fd5b809150509250925092565b6000806040838503121562000f7457600080fd5b62000f7f8362000e1d565b915062000f006020840162000e1d56fe60a0604052600980546001600160801b031916600117905560076200002a600160701b600362000207565b62000036919062000235565b600980546001600160801b03928316600160801b029216919091179055620000616064605562000207565b600b805463ffffffff191663ffffffff92909216919091179055620000896064605562000207565b600b805463ffffffff60201b63ffffffff60901b01191664010000000063ffffffff939093169290920263ffffffff60901b191691909117601960921b179055348015620000d657600080fd5b50604080518082018252601381527f4e6f6d697377617020737461626c65204c5073000000000000000000000000006020918201528151808301835260018152603160f81b9082015281517f8b73c3c69bb8fe3d512ecc4cf759cc79239f7b179b0ffacaa9a75d522b39400f918101919091527f22155260db1abf6474eb894108f4b66f54f6b4a9c481b6e3e789468ed505cc97918101919091527fc89efdaa54c0f20c7adf612882df0950f5a951637e0307cdcb4c672f298b8bc6606082015246608082018190523060a0830152339160c00160408051808303601f1901815291905280516020909101206003555060016005556001600160a01b0316608052600b805464ffffffffff60681b19166d01000000000000000000000000004264ffffffffff160217905562000258565b60008160001904831182151516156200023057634e487b7160e01b600052601160045260246000fd5b500290565b6000826200025357634e487b7160e01b600052601260045260246000fd5b500490565b6080516146c36200029e600039600081816105fe01528181610f82015281816111ad01528181611bdf015281816127a301528181612f0a015261383401526146c36000f3fe608060405234801561001057600080fd5b506004361061025c5760003560e01c806373c48bb511610145578063c45a0155116100bd578063d46300fd1161008c578063d6d788c311610071578063d6d788c314610678578063dd62ed3e1461068b578063fff6cae9146106b657600080fd5b8063d46300fd1461065d578063d505accf1461066557600080fd5b8063c45a0155146105fc578063c4db7fa014610622578063ca706bcf1461062a578063d21220a71461063d57600080fd5b8063a0be06f911610114578063ba9a7a56116100f9578063ba9a7a56146105c4578063baa8c7cb146105cd578063bc25cf77146105e957600080fd5b8063a0be06f914610595578063a9059cbb146105b157600080fd5b806373c48bb5146105325780637ecebe001461054557806389afcb441461056557806395d89b411461058d57600080fd5b8063313ce567116101d857806354cf2aeb116101a75780636827e7641161018c5780636827e764146104cf5780636a627842146104ff57806370a082311461051257600080fd5b806354cf2aeb14610481578063632db21c146104bc57600080fd5b8063313ce567146103fa5780633644e51514610414578063485cc9551461041d5780634e25dc471461043057600080fd5b80630dfe16811161022f57806318160ddd1161021457806318160ddd146103a957806323b872dd146103c057806330adf81f146103d357600080fd5b80630dfe168114610351578063111f8ef31461039657600080fd5b8063022c0d9f1461026157806306fdde03146102765780630902f1ac146102c8578063095ea7b31461032e575b600080fd5b61027461026f366004613e46565b6106be565b005b6102b26040518060400160405280601381526020017f4e6f6d697377617020737461626c65204c50730000000000000000000000000081525081565b6040516102bf9190613f0c565b60405180910390f35b600854604080516dffffffffffffffffffffffffffff80841682526e01000000000000000000000000000084041660208201527c010000000000000000000000000000000000000000000000000000000090920463ffffffff16908201526060016102bf565b61034161033c366004613f5d565b610f53565b60405190151581526020016102bf565b6006546103719073ffffffffffffffffffffffffffffffffffffffff1681565b60405173ffffffffffffffffffffffffffffffffffffffff90911681526020016102bf565b6102746103a4366004613f89565b610f6a565b6103b260005481565b6040519081526020016102bf565b6103416103ce366004613fbb565b6110ba565b6103b27f6e71edae12b1b97f4d1f60370fef10105fa2faae0126114a169c64845d6126c981565b610402601281565b60405160ff90911681526020016102bf565b6103b260035481565b61027461042b366004613ffc565b611195565b600a546104609070010000000000000000000000000000000090046fffffffffffffffffffffffffffffffff1681565b6040516fffffffffffffffffffffffffffffffff90911681526020016102bf565b600b546104a7907201000000000000000000000000000000000000900463ffffffff1681565b60405163ffffffff90911681526020016102bf565b6103b26104ca366004613f5d565b61153c565b6009546104609070010000000000000000000000000000000090046fffffffffffffffffffffffffffffffff1681565b6103b261050d366004614035565b61177f565b6103b2610520366004614035565b60016020526000908152604090205481565b61027461054036600461406b565b611b56565b6103b2610553366004614035565b60046020526000908152604090205481565b610578610573366004614035565b611f4a565b604080519283526020830191909152016102bf565b6102b2612389565b600954610460906fffffffffffffffffffffffffffffffff1681565b6103416105bf366004613f5d565b61254b565b6103b26103e881565b600a54610460906fffffffffffffffffffffffffffffffff1681565b6102746105f7366004614035565b612558565b7f0000000000000000000000000000000000000000000000000000000000000000610371565b61027461271a565b6103b2610638366004613f5d565b612927565b6007546103719073ffffffffffffffffffffffffffffffffffffffff1681565b6103b2612b2b565b6102746106733660046140b0565b612c07565b610274610686366004614121565b612ef2565b6103b2610699366004613ffc565b600260209081526000928352604080842090915290825290205481565b610274613077565b60026005540361072f576040517f08c379a000000000000000000000000000000000000000000000000000000000815260206004820152601f60248201527f5265656e7472616e637947756172643a207265656e7472616e742063616c6c0060448201526064015b60405180910390fd5b6002600555841515806107425750600084115b6107cd576040517f08c379a0000000000000000000000000000000000000000000000000000000008152602060048201526024808201527f4e6f6d69737761703a20494e53554646494349454e545f4f55545055545f414d60448201527f4f554e54000000000000000000000000000000000000000000000000000000006064820152608401610726565b6000806108296008546dffffffffffffffffffffffffffff808216926e01000000000000000000000000000083049091169163ffffffff7c01000000000000000000000000000000000000000000000000000000009091041690565b506dffffffffffffffffffffffffffff1691506dffffffffffffffffffffffffffff169150818710801561085c57508086105b6108c2576040517f08c379a000000000000000000000000000000000000000000000000000000000815260206004820181905260248201527f4e6f6d69737761703a20494e53554646494349454e545f4c49515549444954596044820152606401610726565b600654600754600091829173ffffffffffffffffffffffffffffffffffffffff91821691908116908916821480159061092757508073ffffffffffffffffffffffffffffffffffffffff168973ffffffffffffffffffffffffffffffffffffffff1614155b61098d576040517f08c379a000000000000000000000000000000000000000000000000000000000815260206004820152601460248201527f4e6f6d69737761703a20494e56414c49445f544f0000000000000000000000006044820152606401610726565b8a1561099e5761099e828a8d61321a565b89156109af576109af818a8c61321a565b8615610a42576040517f2210968200000000000000000000000000000000000000000000000000000000815273ffffffffffffffffffffffffffffffffffffffff8a1690632210968290610a0f9033908f908f908e908e9060040161413c565b600060405180830381600087803b158015610a2957600080fd5b505af1158015610a3d573d6000803e3d6000fd5b505050505b6040517f70a0823100000000000000000000000000000000000000000000000000000000815230600482015273ffffffffffffffffffffffffffffffffffffffff8316906370a0823190602401602060405180830381865afa158015610aac573d6000803e3d6000fd5b505050506040513d601f19601f82011682018060405250810190610ad091906141b4565b6040517f70a0823100000000000000000000000000000000000000000000000000000000815230600482015290945073ffffffffffffffffffffffffffffffffffffffff8216906370a0823190602401602060405180830381865afa158015610b3d573d6000803e3d6000fd5b505050506040513d601f19601f82011682018060405250810190610b6191906141b4565b9250505060008985610b7391906141fc565b8311610b80576000610b94565b610b8a8a866141fc565b610b9490846141fc565b90506000610ba28a866141fc565b8311610baf576000610bc3565b610bb98a866141fc565b610bc390846141fc565b90506000821180610bd45750600081115b610c60576040517f08c379a000000000000000000000000000000000000000000000000000000000815260206004820152602360248201527f4e6f6d69737761703a20494e53554646494349454e545f494e5055545f414d4f60448201527f554e5400000000000000000000000000000000000000000000000000000000006064820152608401610726565b6000610c6a612b2b565b600b54600a549192507201000000000000000000000000000000000000900463ffffffff16906fffffffffffffffffffffffffffffffff808216917001000000000000000000000000000000009004166000620186a083610ccb868a614213565b610cd8620186a08d614213565b610ce291906141fc565b610cec9190614213565b610cf6919061427f565b90506000620186a083610d09878a614213565b610d16620186a08d614213565b610d2091906141fc565b610d2a9190614213565b610d34919061427f565b90506000610d438383896132ac565b90506000610d51868f614213565b90506000610d5f868f614213565b90506000610d6e83838c6132ac565b905080841015610dda576040517f08c379a000000000000000000000000000000000000000000000000000000000815260206004820152600b60248201527f4e6f6d69737761703a20440000000000000000000000000000000000000000006044820152606401610726565b6000610de78f8f8d6133d9565b90506000610df583836141fc565b600054610e029190614213565b60095490915060009084906e01000000000000000000000000000090610e4e9070010000000000000000000000000000000090046fffffffffffffffffffffffffffffffff1686614213565b610e58919061427f565b610e629190614293565b9050610e6e818361427f565b60098054600090610e929084906fffffffffffffffffffffffffffffffff166142ab565b92506101000a8154816fffffffffffffffffffffffffffffffff02191690836fffffffffffffffffffffffffffffffff16021790555050505050505050505050505050610edf8484613422565b60408051838152602081018390529081018c9052606081018b905273ffffffffffffffffffffffffffffffffffffffff8a169033907fd78ad95fa46c994b6551d0da85fc275fe613ce37657fb8d5e3d130840159d8229060800160405180910390a350506001600555505050505050505050565b6000610f603384846135b5565b5060015b92915050565b3373ffffffffffffffffffffffffffffffffffffffff7f00000000000000000000000000000000000000000000000000000000000000001614611009576040517f08c379a000000000000000000000000000000000000000000000000000000000815260206004820152601360248201527f4e6f6d69737761703a20464f5242494444454e000000000000000000000000006044820152606401610726565b806fffffffffffffffffffffffffffffffff16600003611085576040517f08c379a000000000000000000000000000000000000000000000000000000000815260206004820152601d60248201527f4e6f6d6973776170537461626c65506169723a206465762066656520300000006044820152606401610726565b600980546fffffffffffffffffffffffffffffffff928316700100000000000000000000000000000000029216919091179055565b73ffffffffffffffffffffffffffffffffffffffff831660009081526002602090815260408083203384529091528120547fffffffffffffffffffffffffffffffffffffffffffffffffffffffffffffffff1461117f5773ffffffffffffffffffffffffffffffffffffffff8416600090815260026020908152604080832033845290915290205461114d9083906141fc565b73ffffffffffffffffffffffffffffffffffffffff851660009081526002602090815260408083203384529091529020555b61118a848484613624565b5060015b9392505050565b3373ffffffffffffffffffffffffffffffffffffffff7f00000000000000000000000000000000000000000000000000000000000000001614611234576040517f08c379a000000000000000000000000000000000000000000000000000000000815260206004820152601360248201527f4e6f6d69737761703a20464f5242494444454e000000000000000000000000006044820152606401610726565b6006805473ffffffffffffffffffffffffffffffffffffffff8085167fffffffffffffffffffffffff000000000000000000000000000000000000000092831681179093556007805491851691909216179055604080517f313ce56700000000000000000000000000000000000000000000000000000000815290516000929163313ce5679160048083019260209291908290030181865afa1580156112de573d6000803e3d6000fd5b505050506040513d601f19601f8201168201806040525081019061130291906142df565b905060128160ff161115611398576040517f08c379a000000000000000000000000000000000000000000000000000000000815260206004820152602560248201527f4e6f6d6973776170537461626c65506169723a20756e737570706f727465642060448201527f746f6b656e0000000000000000000000000000000000000000000000000000006064820152608401610726565b6113a38160126142fc565b6113ae90600a614460565b600a60006101000a8154816fffffffffffffffffffffffffffffffff02191690836fffffffffffffffffffffffffffffffff16021790555060008273ffffffffffffffffffffffffffffffffffffffff1663313ce5676040518163ffffffff1660e01b8152600401602060405180830381865afa158015611433573d6000803e3d6000fd5b505050506040513d601f19601f8201168201806040525081019061145791906142df565b905060128160ff1611156114ed576040517f08c379a000000000000000000000000000000000000000000000000000000000815260206004820152602560248201527f4e6f6d6973776170537461626c65506169723a20756e737570706f727465642060448201527f746f6b656e0000000000000000000000000000000000000000000000000000006064820152608401610726565b6114f88160126142fc565b61150390600a614460565b600a80546fffffffffffffffffffffffffffffffff92831670010000000000000000000000000000000002921691909117905550505050565b600080600061159a6008546dffffffffffffffffffffffffffff808216926e01000000000000000000000000000083049091169163ffffffff7c01000000000000000000000000000000000000000000000000000000009091041690565b50600a546dffffffffffffffffffffffffffff9283169450911691506fffffffffffffffffffffffffffffffff8082169170010000000000000000000000000000000090041681840281840260006115f0612b2b565b905060006115ff8484846132ac565b60065490915073ffffffffffffffffffffffffffffffffffffffff908116908c160361168b57898502830360006116378284866136f3565b905060006116478783038a61380d565b600b5490915061168190620186a08084029163ffffffff720100000000000000000000000000000000000090910481169091039061380d16565b9b50505050611771565b60075473ffffffffffffffffffffffffffffffffffffffff8c811691161461170f576040517f08c379a000000000000000000000000000000000000000000000000000000000815260206004820152601360248201527f494e56414c49445f494e5055545f544f4b454e000000000000000000000000006044820152606401610726565b898602840360006117218284866136f3565b905060006117318683038961380d565b600b5490915061176b90620186a08084029163ffffffff720100000000000000000000000000000000000090910481169091039061380d16565b9b505050505b505050505050505092915050565b60006002600554036117ed576040517f08c379a000000000000000000000000000000000000000000000000000000000815260206004820152601f60248201527f5265656e7472616e637947756172643a207265656e7472616e742063616c6c006044820152606401610726565b600260055560008061184e6008546dffffffffffffffffffffffffffff808216926e01000000000000000000000000000083049091169163ffffffff7c01000000000000000000000000000000000000000000000000000000009091041690565b506006546040517f70a0823100000000000000000000000000000000000000000000000000000000815230600482015292945090925060009173ffffffffffffffffffffffffffffffffffffffff909116906370a0823190602401602060405180830381865afa1580156118c6573d6000803e3d6000fd5b505050506040513d601f19601f820116820180604052508101906118ea91906141b4565b6007546040517f70a0823100000000000000000000000000000000000000000000000000000000815230600482015291925060009173ffffffffffffffffffffffffffffffffffffffff909116906370a0823190602401602060405180830381865afa15801561195e573d6000803e3d6000fd5b505050506040513d601f19601f8201168201806040525081019061198291906141b4565b905061198c613830565b6000805490611999612b2b565b905060006119a88585846133d9565b905060006119c66dffffffffffffffffffffffffffff8916876141fc565b905060006119e46dffffffffffffffffffffffffffff8916876141fc565b905084600003611a0e576119fa6103e8846141fc565b9950611a0960006103e861397f565b611a63565b611a606dffffffffffffffffffffffffffff8a16611a2c8785614213565b611a36919061427f565b6dffffffffffffffffffffffffffff8a16611a518885614213565b611a5b919061427f565b613a2a565b99505b60008a11611af3576040517f08c379a000000000000000000000000000000000000000000000000000000000815260206004820152602760248201527f4e6f6d69737761703a20494e53554646494349454e545f4c495155494449545960448201527f5f4d494e544544000000000000000000000000000000000000000000000000006064820152608401610726565b611afd8b8b61397f565b611b078787613422565b604080518381526020810183905233917f4c209b5fc8ad50758f13e2e1088ba56a560dff690a1c6fef26394f4c03821c4f910160405180910390a2505060016005555095979650505050505050565b600260055403611bc2576040517f08c379a000000000000000000000000000000000000000000000000000000000815260206004820152601f60248201527f5265656e7472616e637947756172643a207265656e7472616e742063616c6c006044820152606401610726565b60026005553373ffffffffffffffffffffffffffffffffffffffff7f00000000000000000000000000000000000000000000000000000000000000001614611c66576040517f08c379a000000000000000000000000000000000000000000000000000000000815260206004820152601360248201527f4e6f6d69737761703a20464f5242494444454e000000000000000000000000006044820152606401610726565b600b54611c8a90620151809068010000000000000000900464ffffffffff16614293565b421015611cf3576040517f08c379a000000000000000000000000000000000000000000000000000000000815260206004820181905260248201527f4e6f6d6973776170537461626c65506169723a20494e56414c49445f54494d456044820152606401610726565b611d006201518042614293565b8164ffffffffff161015611d96576040517f08c379a000000000000000000000000000000000000000000000000000000000815260206004820152602760248201527f4e6f6d6973776170537461626c65506169723a20494e56414c49445f4655545560448201527f52455f54494d45000000000000000000000000000000000000000000000000006064820152608401610726565b6000611da0612b2b565b90506000611db5606463ffffffff8616614213565b905060008463ffffffff16118015611dd55750620f42408463ffffffff16105b611dde57600080fd5b8163ffffffff168163ffffffff161015611e1c578163ffffffff1660648263ffffffff16611e0c9190614213565b1015611e1757600080fd5b611e3f565b611e2d606463ffffffff8416614213565b8163ffffffff161115611e3f57600080fd5b600b805463ffffffff8481167fffffffffffffffffffffffffffffffffffffffffffffffff00000000000000009092168217640100000000918516918202177fffffffffffffffffffffffffffff00000000000000000000ffffffffffffffff16680100000000000000004264ffffffffff818116929092027fffffffffffffffffffffffffffff0000000000ffffffffffffffffffffffffff16929092176d0100000000000000000000000000918916918202179094556040805193845260208401929092529082015260608101919091527fa2b71ec6df949300b59aab36b55e189697b750119dd349fcfa8c0f779e83c2549060800160405180910390a1505060016005555050565b600080600260055403611fb9576040517f08c379a000000000000000000000000000000000000000000000000000000000815260206004820152601f60248201527f5265656e7472616e637947756172643a207265656e7472616e742063616c6c006044820152606401610726565b60026005556006546007546040517f70a0823100000000000000000000000000000000000000000000000000000000815230600482015273ffffffffffffffffffffffffffffffffffffffff928316929091169060009083906370a0823190602401602060405180830381865afa158015612038573d6000803e3d6000fd5b505050506040513d601f19601f8201168201806040525081019061205c91906141b4565b6040517f70a0823100000000000000000000000000000000000000000000000000000000815230600482015290915060009073ffffffffffffffffffffffffffffffffffffffff8416906370a0823190602401602060405180830381865afa1580156120cc573d6000803e3d6000fd5b505050506040513d601f19601f820116820180604052508101906120f091906141b4565b3060009081526001602052604090205490915061210b613830565b600054806121198584614213565b612123919061427f565b9750806121308484614213565b61213a919061427f565b965060008811801561214c5750600087115b6121d8576040517f08c379a000000000000000000000000000000000000000000000000000000000815260206004820152602760248201527f4e6f6d69737761703a20494e53554646494349454e545f4c495155494449545960448201527f5f4255524e4544000000000000000000000000000000000000000000000000006064820152608401610726565b6121e23083613a40565b6121ed868a8a61321a565b6121f8858a8961321a565b6040517f70a0823100000000000000000000000000000000000000000000000000000000815230600482015273ffffffffffffffffffffffffffffffffffffffff8716906370a0823190602401602060405180830381865afa158015612262573d6000803e3d6000fd5b505050506040513d601f19601f8201168201806040525081019061228691906141b4565b6040517f70a0823100000000000000000000000000000000000000000000000000000000815230600482015290945073ffffffffffffffffffffffffffffffffffffffff8616906370a0823190602401602060405180830381865afa1580156122f3573d6000803e3d6000fd5b505050506040513d601f19601f8201168201806040525081019061231791906141b4565b92506123238484613422565b604080518981526020810189905273ffffffffffffffffffffffffffffffffffffffff8b169133917fdccd412f0b1252819cb1fd330b93224ca42612892bb3f4f789976e6d81936496910160405180910390a35050505050506001600581905550915091565b604080518082018252600781527f4e4d582d534c5000000000000000000000000000000000000000000000000000602082015260065482517f95d89b41000000000000000000000000000000000000000000000000000000008152925160609373ffffffffffffffffffffffffffffffffffffffff909216916395d89b419160048083019260009291908290030181865afa15801561242c573d6000803e3d6000fd5b505050506040513d6000823e601f3d9081017fffffffffffffffffffffffffffffffffffffffffffffffffffffffffffffffe016820160405261247291908101906144b0565b600760009054906101000a900473ffffffffffffffffffffffffffffffffffffffff1673ffffffffffffffffffffffffffffffffffffffff166395d89b416040518163ffffffff1660e01b8152600401600060405180830381865afa1580156124df573d6000803e3d6000fd5b505050506040513d6000823e601f3d9081017fffffffffffffffffffffffffffffffffffffffffffffffffffffffffffffffe016820160405261252591908101906144b0565b60405160200161253793929190614570565b604051602081830303815290604052905090565b6000610f60338484613624565b6002600554036125c4576040517f08c379a000000000000000000000000000000000000000000000000000000000815260206004820152601f60248201527f5265656e7472616e637947756172643a207265656e7472616e742063616c6c006044820152606401610726565b60026005556006546007546008546040517f70a0823100000000000000000000000000000000000000000000000000000000815230600482015273ffffffffffffffffffffffffffffffffffffffff938416939092169161269091849186916dffffffffffffffffffffffffffff169083906370a08231906024015b602060405180830381865afa15801561265d573d6000803e3d6000fd5b505050506040513d601f19601f8201168201806040525081019061268191906141b4565b61268b91906141fc565b61321a565b6008546040517f70a0823100000000000000000000000000000000000000000000000000000000815230600482015261271091839186916e01000000000000000000000000000090046dffffffffffffffffffffffffffff169073ffffffffffffffffffffffffffffffffffffffff8416906370a0823190602401612640565b5050600160055550565b600260055403612786576040517f08c379a000000000000000000000000000000000000000000000000000000000815260206004820152601f60248201527f5265656e7472616e637947756172643a207265656e7472616e742063616c6c006044820152606401610726565b60026005553373ffffffffffffffffffffffffffffffffffffffff7f0000000000000000000000000000000000000000000000000000000000000000161461282a576040517f08c379a000000000000000000000000000000000000000000000000000000000815260206004820152601360248201527f4e6f6d69737761703a20464f5242494444454e000000000000000000000000006044820152606401610726565b6000612834612b2b565b600b80547fffffffffffffffffffffffffffffffffffffffffffffffff00000000000000001663ffffffff83169081176401000000008202177fffffffffffffffffffffffffffff00000000000000000000ffffffffffffffff16680100000000000000004264ffffffffff81169182027fffffffffffffffffffffffffffff0000000000ffffffffffffffffffffffffff16929092176d010000000000000000000000000091909102179092556040805191825260208201929092529192507f46e22fb3709ad289f62ce63d469248536dbc78d82b84a3d7e74ad606dc201938910160405180910390a1506001600555565b60008060006129856008546dffffffffffffffffffffffffffff808216926e01000000000000000000000000000083049091169163ffffffff7c01000000000000000000000000000000000000000000000000000000009091041690565b50600a54600b546dffffffffffffffffffffffffffff93841695509190921692506fffffffffffffffffffffffffffffffff8083169270010000000000000000000000000000000090041690620186a0720100000000000000000000000000000000000090910463ffffffff16870287820203048285028285026000612a09612b2b565b90506000612a188484846132ac565b60065490915073ffffffffffffffffffffffffffffffffffffffff908116908d1603612a6d5784870284016000612a508284866136f3565b90508781860381612a6357612a63614250565b049b505050612b1c565b60075473ffffffffffffffffffffffffffffffffffffffff8d8116911614612af1576040517f08c379a000000000000000000000000000000000000000000000000000000000815260206004820152601360248201527f494e56414c49445f494e5055545f544f4b454e000000000000000000000000006044820152606401610726565b84860283016000612b038284866136f3565b90508881870381612b1657612b16614250565b049b5050505b50505050505050505092915050565b600b546000906d0100000000000000000000000000810464ffffffffff1690640100000000900463ffffffff1642821115610f6457600b5463ffffffff81169068010000000000000000900464ffffffffff1681831115612bcb57612b9081856141fc565b612b9a83856141fc565b612ba483426141fc565b612bae9190614213565b612bb8919061427f565b612bc29083614293565b94505050505090565b612bd581856141fc565b612bdf84846141fc565b612be983426141fc565b612bf39190614213565b612bfd919061427f565b612bc290836141fc565b42841015612c71576040517f08c379a000000000000000000000000000000000000000000000000000000000815260206004820152601160248201527f4e6f6d69737761703a20455850495245440000000000000000000000000000006044820152606401610726565b60035473ffffffffffffffffffffffffffffffffffffffff8816600090815260046020526040812080549192917f6e71edae12b1b97f4d1f60370fef10105fa2faae0126114a169c64845d6126c9918b918b918b919087612cd1836145e6565b9091555060408051602081019690965273ffffffffffffffffffffffffffffffffffffffff94851690860152929091166060840152608083015260a082015260c0810187905260e00160405160208183030381529060405280519060200120604051602001612d729291907f190100000000000000000000000000000000000000000000000000000000000081526002810192909252602282015260420190565b604080517fffffffffffffffffffffffffffffffffffffffffffffffffffffffffffffffe08184030181528282528051602091820120600080855291840180845281905260ff88169284019290925260608301869052608083018590529092509060019060a0016020604051602081039080840390855afa158015612dfb573d6000803e3d6000fd5b50506040517fffffffffffffffffffffffffffffffffffffffffffffffffffffffffffffffe0015191505073ffffffffffffffffffffffffffffffffffffffff811615801590612e7657508873ffffffffffffffffffffffffffffffffffffffff168173ffffffffffffffffffffffffffffffffffffffff16145b612edc576040517f08c379a000000000000000000000000000000000000000000000000000000000815260206004820152601b60248201527f4e6f6d69737761703a20494e56414c49445f5349474e415455524500000000006044820152606401610726565b612ee78989896135b5565b505050505050505050565b3373ffffffffffffffffffffffffffffffffffffffff7f00000000000000000000000000000000000000000000000000000000000000001614612f91576040517f08c379a000000000000000000000000000000000000000000000000000000000815260206004820152601360248201527f4e6f6d69737761703a20464f5242494444454e000000000000000000000000006044820152606401610726565b620186a08163ffffffff16111561302a576040517f08c379a000000000000000000000000000000000000000000000000000000000815260206004820152602160248201527f4e6f6d6973776170537461626c65506169723a20464f5242494444454e5f464560448201527f45000000000000000000000000000000000000000000000000000000000000006064820152608401610726565b600b805463ffffffff9092167201000000000000000000000000000000000000027fffffffffffffffffffff00000000ffffffffffffffffffffffffffffffffffff909216919091179055565b6002600554036130e3576040517f08c379a000000000000000000000000000000000000000000000000000000000815260206004820152601f60248201527f5265656e7472616e637947756172643a207265656e7472616e742063616c6c006044820152606401610726565b60026005556006546040517f70a082310000000000000000000000000000000000000000000000000000000081523060048201526132139173ffffffffffffffffffffffffffffffffffffffff16906370a0823190602401602060405180830381865afa158015613158573d6000803e3d6000fd5b505050506040513d601f19601f8201168201806040525081019061317c91906141b4565b6007546040517f70a0823100000000000000000000000000000000000000000000000000000000815230600482015273ffffffffffffffffffffffffffffffffffffffff909116906370a0823190602401602060405180830381865afa1580156131ea573d6000803e3d6000fd5b505050506040513d601f19601f8201168201806040525081019061320e91906141b4565b613422565b6001600555565b6040805173ffffffffffffffffffffffffffffffffffffffff8416602482015260448082018490528251808303909101815260649091019091526020810180517bffffffffffffffffffffffffffffffffffffffffffffffffffffffff167fa9059cbb000000000000000000000000000000000000000000000000000000001790526132a7908490613af3565b505050565b6000806132b98486614293565b905060006132c8846004614213565b9050816000036132dd5760009250505061118e565b600082815b6101008110156133cd576000600489848c6132fd8280614213565b613307919061427f565b6133119190614213565b61331b919061427f565b613325919061427f565b90508293508060036133379190614213565b83600161334560648961427f565b61334f91906141fc565b6133599190614213565b6133639190614293565b8361336f836002614213565b606461337b8a8a614213565b613385919061427f565b61338f9190614293565b6133999190614213565b6133a3919061427f565b92506133af8385613bff565b156133ba57506133cd565b50806133c5816145e6565b9150506132e2565b50979650505050505050565b600a546000906fffffffffffffffffffffffffffffffff80821686029170010000000000000000000000000000000090041684026134188282866132ac565b9695505050505050565b6dffffffffffffffffffffffffffff821180159061344e57506dffffffffffffffffffffffffffff8111155b6134b4576040517f08c379a000000000000000000000000000000000000000000000000000000000815260206004820152601260248201527f4e6f6d69737761703a204f564552464c4f5700000000000000000000000000006044820152606401610726565b60006134c56401000000004261461e565b6008805463ffffffff83167c0100000000000000000000000000000000000000000000000000000000027bffffffffffffffffffffffffffffffffffffffffffffffffffffffff6dffffffffffffffffffffffffffff8781166e0100000000000000000000000000009081027fffffffff000000000000000000000000000000000000000000000000000000009095168a83161794909417918216831794859055604080519382169282169290921783529290930490911660208201529192507f1c411e9a96e071241c2f21f7726b17ae89e3cab4c78be50e062b03a9fffbbad1910160405180910390a1505050565b73ffffffffffffffffffffffffffffffffffffffff83811660008181526002602090815260408083209487168084529482529182902085905590518481527f8c5be1e5ebec7d5bd14f71427d1e84f3dd0314c0f7b2291e5b200ac8c7c3b92591015b60405180910390a3505050565b73ffffffffffffffffffffffffffffffffffffffff83166000908152600160205260409020546136559082906141fc565b73ffffffffffffffffffffffffffffffffffffffff8085166000908152600160205260408082209390935590841681522054613692908290614293565b73ffffffffffffffffffffffffffffffffffffffff80841660008181526001602052604090819020939093559151908516907fddf252ad1be2c89b69c2b068fc378daa952ba7f163c4a11628f55a4df523b3ef906136179085815260200190565b600080613701836004614213565b90506000613710866002614213565b61371a8680614213565b613724919061427f565b90506064613733836002614213565b61373d919061427f565b6137478683614213565b613751919061427f565b9050600082613761606488614213565b61376b919061427f565b6137759088614293565b9050600086945060005b610100811015613801578591506000846137998480614213565b6137a39190614293565b9050600089856137b48a6002614213565b6137be9190614293565b6137c891906141fc565b90506137d4828261380d565b97506137e08885613bff565b156137ec575050613801565b505080806137f9906145e6565b91505061377f565b50505050509392505050565b600081600161381c8286614293565b61382691906141fc565b61118e919061427f565b60007f000000000000000000000000000000000000000000000000000000000000000073ffffffffffffffffffffffffffffffffffffffff1663017e7e586040518163ffffffff1660e01b8152600401602060405180830381865afa15801561389d573d6000803e3d6000fd5b505050506040513d601f19601f820116820180604052508101906138c19190614632565b60095490915073ffffffffffffffffffffffffffffffffffffffff8216158015916fffffffffffffffffffffffffffffffff16906139465760018111156132a757613916836139116001846141fc565b61397f565b600980547fffffffffffffffffffffffffffffffff00000000000000000000000000000000166001179055505050565b60018111156132a757600980547fffffffffffffffffffffffffffffffff00000000000000000000000000000000166001179055505050565b8060005461398d9190614293565b600090815573ffffffffffffffffffffffffffffffffffffffff83168152600160205260409020546139c0908290614293565b73ffffffffffffffffffffffffffffffffffffffff83166000818152600160205260408082209390935591519091907fddf252ad1be2c89b69c2b068fc378daa952ba7f163c4a11628f55a4df523b3ef90613a1e9085815260200190565b60405180910390a35050565b6000818310613a39578161118e565b5090919050565b73ffffffffffffffffffffffffffffffffffffffff8216600090815260016020526040902054613a719082906141fc565b73ffffffffffffffffffffffffffffffffffffffff831660009081526001602052604081209190915554613aa69082906141fc565b600090815560405182815273ffffffffffffffffffffffffffffffffffffffff8416907fddf252ad1be2c89b69c2b068fc378daa952ba7f163c4a11628f55a4df523b3ef90602001613a1e565b6000613b55826040518060400160405280602081526020017f5361666545524332303a206c6f772d6c6576656c2063616c6c206661696c65648152508573ffffffffffffffffffffffffffffffffffffffff16613c219092919063ffffffff16565b8051909150156132a75780806020019051810190613b73919061464f565b6132a7576040517f08c379a000000000000000000000000000000000000000000000000000000000815260206004820152602a60248201527f5361666545524332303a204552433230206f7065726174696f6e20646964206e60448201527f6f742073756363656564000000000000000000000000000000000000000000006064820152608401610726565b600081831115613c16575060018183031115610f64565b506001919003111590565b6060613c308484600085613c38565b949350505050565b606082471015613cca576040517f08c379a000000000000000000000000000000000000000000000000000000000815260206004820152602660248201527f416464726573733a20696e73756666696369656e742062616c616e636520666f60448201527f722063616c6c00000000000000000000000000000000000000000000000000006064820152608401610726565b73ffffffffffffffffffffffffffffffffffffffff85163b613d48576040517f08c379a000000000000000000000000000000000000000000000000000000000815260206004820152601d60248201527f416464726573733a2063616c6c20746f206e6f6e2d636f6e74726163740000006044820152606401610726565b6000808673ffffffffffffffffffffffffffffffffffffffff168587604051613d719190614671565b60006040518083038185875af1925050503d8060008114613dae576040519150601f19603f3d011682016040523d82523d6000602084013e613db3565b606091505b5091509150613dc3828286613dce565b979650505050505050565b60608315613ddd57508161118e565b825115613ded5782518084602001fd5b816040517f08c379a00000000000000000000000000000000000000000000000000000000081526004016107269190613f0c565b73ffffffffffffffffffffffffffffffffffffffff81168114613e4357600080fd5b50565b600080600080600060808688031215613e5e57600080fd5b85359450602086013593506040860135613e7781613e21565b9250606086013567ffffffffffffffff80821115613e9457600080fd5b818801915088601f830112613ea857600080fd5b813581811115613eb757600080fd5b896020828501011115613ec957600080fd5b9699959850939650602001949392505050565b60005b83811015613ef7578181015183820152602001613edf565b83811115613f06576000848401525b50505050565b6020815260008251806020840152613f2b816040850160208701613edc565b601f017fffffffffffffffffffffffffffffffffffffffffffffffffffffffffffffffe0169190910160400192915050565b60008060408385031215613f7057600080fd5b8235613f7b81613e21565b946020939093013593505050565b600060208284031215613f9b57600080fd5b81356fffffffffffffffffffffffffffffffff8116811461118e57600080fd5b600080600060608486031215613fd057600080fd5b8335613fdb81613e21565b92506020840135613feb81613e21565b929592945050506040919091013590565b6000806040838503121561400f57600080fd5b823561401a81613e21565b9150602083013561402a81613e21565b809150509250929050565b60006020828403121561404757600080fd5b813561118e81613e21565b803563ffffffff8116811461406657600080fd5b919050565b6000806040838503121561407e57600080fd5b61408783614052565b9150602083013564ffffffffff8116811461402a57600080fd5b60ff81168114613e4357600080fd5b600080600080600080600060e0888a0312156140cb57600080fd5b87356140d681613e21565b965060208801356140e681613e21565b955060408801359450606088013593506080880135614104816140a1565b9699959850939692959460a0840135945060c09093013592915050565b60006020828403121561413357600080fd5b61118e82614052565b73ffffffffffffffffffffffffffffffffffffffff8616815284602082015283604082015260806060820152816080820152818360a0830137600081830160a090810191909152601f9092017fffffffffffffffffffffffffffffffffffffffffffffffffffffffffffffffe0160101949350505050565b6000602082840312156141c657600080fd5b5051919050565b7f4e487b7100000000000000000000000000000000000000000000000000000000600052601160045260246000fd5b60008282101561420e5761420e6141cd565b500390565b6000817fffffffffffffffffffffffffffffffffffffffffffffffffffffffffffffffff048311821515161561424b5761424b6141cd565b500290565b7f4e487b7100000000000000000000000000000000000000000000000000000000600052601260045260246000fd5b60008261428e5761428e614250565b500490565b600082198211156142a6576142a66141cd565b500190565b60006fffffffffffffffffffffffffffffffff8083168185168083038211156142d6576142d66141cd565b01949350505050565b6000602082840312156142f157600080fd5b815161118e816140a1565b600060ff821660ff841680821015614316576143166141cd565b90039392505050565b600181815b8085111561436857816fffffffffffffffffffffffffffffffff0482111561434e5761434e6141cd565b8085161561435b57918102915b93841c9390800290614324565b509250929050565b60008261437f57506001610f64565b8161438c57506000610f64565b81600181146143a257600281146143ac576143e9565b6001915050610f64565b60ff8411156143bd576143bd6141cd565b6001841b91506fffffffffffffffffffffffffffffffff8211156143e3576143e36141cd565b50610f64565b5060208310610133831016604e8410600b841016171561442c575081810a6fffffffffffffffffffffffffffffffff811115614427576144276141cd565b610f64565b614436838361431f565b806fffffffffffffffffffffffffffffffff04821115614458576144586141cd565b029392505050565b600061118e60ff84166fffffffffffffffffffffffffffffffff8416614370565b7f4e487b7100000000000000000000000000000000000000000000000000000000600052604160045260246000fd5b6000602082840312156144c257600080fd5b815167ffffffffffffffff808211156144da57600080fd5b818401915084601f8301126144ee57600080fd5b81518181111561450057614500614481565b604051601f82017fffffffffffffffffffffffffffffffffffffffffffffffffffffffffffffffe0908116603f0116810190838211818310171561454657614546614481565b8160405282815287602084870101111561455f57600080fd5b613dc3836020830160208801613edc565b60008451614582818460208901613edc565b80830190507f2d0000000000000000000000000000000000000000000000000000000000000080825285516145be816001850160208a01613edc565b600192019182015283516145d9816002840160208801613edc565b0160020195945050505050565b60007fffffffffffffffffffffffffffffffffffffffffffffffffffffffffffffffff8203614617576146176141cd565b5060010190565b60008261462d5761462d614250565b500690565b60006020828403121561464457600080fd5b815161118e81613e21565b60006020828403121561466157600080fd5b8151801515811461118e57600080fd5b60008251614683818460208701613edc565b919091019291505056fea26469706673582212209fcef6126a895b0fb2e0f35b8ec55c58787f756c43c711a156da1b54b7d94c5a64736f6c634300080f0033a2646970667358221220a0c3eacc9a9e3827189022f0851fca26f78716f364e6a9982c610aa89046989964736f6c634300080f003360a0604052600980546001600160801b031916600117905560076200002a600160701b600362000207565b62000036919062000235565b600980546001600160801b03928316600160801b029216919091179055620000616064605562000207565b600b805463ffffffff191663ffffffff92909216919091179055620000896064605562000207565b600b805463ffffffff60201b63ffffffff60901b01191664010000000063ffffffff939093169290920263ffffffff60901b191691909117601960921b179055348015620000d657600080fd5b50604080518082018252601381527f4e6f6d697377617020737461626c65204c5073000000000000000000000000006020918201528151808301835260018152603160f81b9082015281517f8b73c3c69bb8fe3d512ecc4cf759cc79239f7b179b0ffacaa9a75d522b39400f918101919091527f22155260db1abf6474eb894108f4b66f54f6b4a9c481b6e3e789468ed505cc97918101919091527fc89efdaa54c0f20c7adf612882df0950f5a951637e0307cdcb4c672f298b8bc6606082015246608082018190523060a0830152339160c00160408051808303601f1901815291905280516020909101206003555060016005556001600160a01b0316608052600b805464ffffffffff60681b19166d01000000000000000000000000004264ffffffffff160217905562000258565b60008160001904831182151516156200023057634e487b7160e01b600052601160045260246000fd5b500290565b6000826200025357634e487b7160e01b600052601260045260246000fd5b500490565b6080516146c36200029e600039600081816105fe01528181610f82015281816111ad01528181611bdf015281816127a301528181612f0a015261383401526146c36000f3fe608060405234801561001057600080fd5b506004361061025c5760003560e01c806373c48bb511610145578063c45a0155116100bd578063d46300fd1161008c578063d6d788c311610071578063d6d788c314610678578063dd62ed3e1461068b578063fff6cae9146106b657600080fd5b8063d46300fd1461065d578063d505accf1461066557600080fd5b8063c45a0155146105fc578063c4db7fa014610622578063ca706bcf1461062a578063d21220a71461063d57600080fd5b8063a0be06f911610114578063ba9a7a56116100f9578063ba9a7a56146105c4578063baa8c7cb146105cd578063bc25cf77146105e957600080fd5b8063a0be06f914610595578063a9059cbb146105b157600080fd5b806373c48bb5146105325780637ecebe001461054557806389afcb441461056557806395d89b411461058d57600080fd5b8063313ce567116101d857806354cf2aeb116101a75780636827e7641161018c5780636827e764146104cf5780636a627842146104ff57806370a082311461051257600080fd5b806354cf2aeb14610481578063632db21c146104bc57600080fd5b8063313ce567146103fa5780633644e51514610414578063485cc9551461041d5780634e25dc471461043057600080fd5b80630dfe16811161022f57806318160ddd1161021457806318160ddd146103a957806323b872dd146103c057806330adf81f146103d357600080fd5b80630dfe168114610351578063111f8ef31461039657600080fd5b8063022c0d9f1461026157806306fdde03146102765780630902f1ac146102c8578063095ea7b31461032e575b600080fd5b61027461026f366004613e46565b6106be565b005b6102b26040518060400160405280601381526020017f4e6f6d697377617020737461626c65204c50730000000000000000000000000081525081565b6040516102bf9190613f0c565b60405180910390f35b600854604080516dffffffffffffffffffffffffffff80841682526e01000000000000000000000000000084041660208201527c010000000000000000000000000000000000000000000000000000000090920463ffffffff16908201526060016102bf565b61034161033c366004613f5d565b610f53565b60405190151581526020016102bf565b6006546103719073ffffffffffffffffffffffffffffffffffffffff1681565b60405173ffffffffffffffffffffffffffffffffffffffff90911681526020016102bf565b6102746103a4366004613f89565b610f6a565b6103b260005481565b6040519081526020016102bf565b6103416103ce366004613fbb565b6110ba565b6103b27f6e71edae12b1b97f4d1f60370fef10105fa2faae0126114a169c64845d6126c981565b610402601281565b60405160ff90911681526020016102bf565b6103b260035481565b61027461042b366004613ffc565b611195565b600a546104609070010000000000000000000000000000000090046fffffffffffffffffffffffffffffffff1681565b6040516fffffffffffffffffffffffffffffffff90911681526020016102bf565b600b546104a7907201000000000000000000000000000000000000900463ffffffff1681565b60405163ffffffff90911681526020016102bf565b6103b26104ca366004613f5d565b61153c565b6009546104609070010000000000000000000000000000000090046fffffffffffffffffffffffffffffffff1681565b6103b261050d366004614035565b61177f565b6103b2610520366004614035565b60016020526000908152604090205481565b61027461054036600461406b565b611b56565b6103b2610553366004614035565b60046020526000908152604090205481565b610578610573366004614035565b611f4a565b604080519283526020830191909152016102bf565b6102b2612389565b600954610460906fffffffffffffffffffffffffffffffff1681565b6103416105bf366004613f5d565b61254b565b6103b26103e881565b600a54610460906fffffffffffffffffffffffffffffffff1681565b6102746105f7366004614035565b612558565b7f0000000000000000000000000000000000000000000000000000000000000000610371565b61027461271a565b6103b2610638366004613f5d565b612927565b6007546103719073ffffffffffffffffffffffffffffffffffffffff1681565b6103b2612b2b565b6102746106733660046140b0565b612c07565b610274610686366004614121565b612ef2565b6103b2610699366004613ffc565b600260209081526000928352604080842090915290825290205481565b610274613077565b60026005540361072f576040517f08c379a000000000000000000000000000000000000000000000000000000000815260206004820152601f60248201527f5265656e7472616e637947756172643a207265656e7472616e742063616c6c0060448201526064015b60405180910390fd5b6002600555841515806107425750600084115b6107cd576040517f08c379a0000000000000000000000000000000000000000000000000000000008152602060048201526024808201527f4e6f6d69737761703a20494e53554646494349454e545f4f55545055545f414d60448201527f4f554e54000000000000000000000000000000000000000000000000000000006064820152608401610726565b6000806108296008546dffffffffffffffffffffffffffff808216926e01000000000000000000000000000083049091169163ffffffff7c01000000000000000000000000000000000000000000000000000000009091041690565b506dffffffffffffffffffffffffffff1691506dffffffffffffffffffffffffffff169150818710801561085c57508086105b6108c2576040517f08c379a000000000000000000000000000000000000000000000000000000000815260206004820181905260248201527f4e6f6d69737761703a20494e53554646494349454e545f4c49515549444954596044820152606401610726565b600654600754600091829173ffffffffffffffffffffffffffffffffffffffff91821691908116908916821480159061092757508073ffffffffffffffffffffffffffffffffffffffff168973ffffffffffffffffffffffffffffffffffffffff1614155b61098d576040517f08c379a000000000000000000000000000000000000000000000000000000000815260206004820152601460248201527f4e6f6d69737761703a20494e56414c49445f544f0000000000000000000000006044820152606401610726565b8a1561099e5761099e828a8d61321a565b89156109af576109af818a8c61321a565b8615610a42576040517f2210968200000000000000000000000000000000000000000000000000000000815273ffffffffffffffffffffffffffffffffffffffff8a1690632210968290610a0f9033908f908f908e908e9060040161413c565b600060405180830381600087803b158015610a2957600080fd5b505af1158015610a3d573d6000803e3d6000fd5b505050505b6040517f70a0823100000000000000000000000000000000000000000000000000000000815230600482015273ffffffffffffffffffffffffffffffffffffffff8316906370a0823190602401602060405180830381865afa158015610aac573d6000803e3d6000fd5b505050506040513d601f19601f82011682018060405250810190610ad091906141b4565b6040517f70a0823100000000000000000000000000000000000000000000000000000000815230600482015290945073ffffffffffffffffffffffffffffffffffffffff8216906370a0823190602401602060405180830381865afa158015610b3d573d6000803e3d6000fd5b505050506040513d601f19601f82011682018060405250810190610b6191906141b4565b9250505060008985610b7391906141fc565b8311610b80576000610b94565b610b8a8a866141fc565b610b9490846141fc565b90506000610ba28a866141fc565b8311610baf576000610bc3565b610bb98a866141fc565b610bc390846141fc565b90506000821180610bd45750600081115b610c60576040517f08c379a000000000000000000000000000000000000000000000000000000000815260206004820152602360248201527f4e6f6d69737761703a20494e53554646494349454e545f494e5055545f414d4f60448201527f554e5400000000000000000000000000000000000000000000000000000000006064820152608401610726565b6000610c6a612b2b565b600b54600a549192507201000000000000000000000000000000000000900463ffffffff16906fffffffffffffffffffffffffffffffff808216917001000000000000000000000000000000009004166000620186a083610ccb868a614213565b610cd8620186a08d614213565b610ce291906141fc565b610cec9190614213565b610cf6919061427f565b90506000620186a083610d09878a614213565b610d16620186a08d614213565b610d2091906141fc565b610d2a9190614213565b610d34919061427f565b90506000610d438383896132ac565b90506000610d51868f614213565b90506000610d5f868f614213565b90506000610d6e83838c6132ac565b905080841015610dda576040517f08c379a000000000000000000000000000000000000000000000000000000000815260206004820152600b60248201527f4e6f6d69737761703a20440000000000000000000000000000000000000000006044820152606401610726565b6000610de78f8f8d6133d9565b90506000610df583836141fc565b600054610e029190614213565b60095490915060009084906e01000000000000000000000000000090610e4e9070010000000000000000000000000000000090046fffffffffffffffffffffffffffffffff1686614213565b610e58919061427f565b610e629190614293565b9050610e6e818361427f565b60098054600090610e929084906fffffffffffffffffffffffffffffffff166142ab565b92506101000a8154816fffffffffffffffffffffffffffffffff02191690836fffffffffffffffffffffffffffffffff16021790555050505050505050505050505050610edf8484613422565b60408051838152602081018390529081018c9052606081018b905273ffffffffffffffffffffffffffffffffffffffff8a169033907fd78ad95fa46c994b6551d0da85fc275fe613ce37657fb8d5e3d130840159d8229060800160405180910390a350506001600555505050505050505050565b6000610f603384846135b5565b5060015b92915050565b3373ffffffffffffffffffffffffffffffffffffffff7f00000000000000000000000000000000000000000000000000000000000000001614611009576040517f08c379a000000000000000000000000000000000000000000000000000000000815260206004820152601360248201527f4e6f6d69737761703a20464f5242494444454e000000000000000000000000006044820152606401610726565b806fffffffffffffffffffffffffffffffff16600003611085576040517f08c379a000000000000000000000000000000000000000000000000000000000815260206004820152601d60248201527f4e6f6d6973776170537461626c65506169723a206465762066656520300000006044820152606401610726565b600980546fffffffffffffffffffffffffffffffff928316700100000000000000000000000000000000029216919091179055565b73ffffffffffffffffffffffffffffffffffffffff831660009081526002602090815260408083203384529091528120547fffffffffffffffffffffffffffffffffffffffffffffffffffffffffffffffff1461117f5773ffffffffffffffffffffffffffffffffffffffff8416600090815260026020908152604080832033845290915290205461114d9083906141fc565b73ffffffffffffffffffffffffffffffffffffffff851660009081526002602090815260408083203384529091529020555b61118a848484613624565b5060015b9392505050565b3373ffffffffffffffffffffffffffffffffffffffff7f00000000000000000000000000000000000000000000000000000000000000001614611234576040517f08c379a000000000000000000000000000000000000000000000000000000000815260206004820152601360248201527f4e6f6d69737761703a20464f5242494444454e000000000000000000000000006044820152606401610726565b6006805473ffffffffffffffffffffffffffffffffffffffff8085167fffffffffffffffffffffffff000000000000000000000000000000000000000092831681179093556007805491851691909216179055604080517f313ce56700000000000000000000000000000000000000000000000000000000815290516000929163313ce5679160048083019260209291908290030181865afa1580156112de573d6000803e3d6000fd5b505050506040513d601f19601f8201168201806040525081019061130291906142df565b905060128160ff161115611398576040517f08c379a000000000000000000000000000000000000000000000000000000000815260206004820152602560248201527f4e6f6d6973776170537461626c65506169723a20756e737570706f727465642060448201527f746f6b656e0000000000000000000000000000000000000000000000000000006064820152608401610726565b6113a38160126142fc565b6113ae90600a614460565b600a60006101000a8154816fffffffffffffffffffffffffffffffff02191690836fffffffffffffffffffffffffffffffff16021790555060008273ffffffffffffffffffffffffffffffffffffffff1663313ce5676040518163ffffffff1660e01b8152600401602060405180830381865afa158015611433573d6000803e3d6000fd5b505050506040513d601f19601f8201168201806040525081019061145791906142df565b905060128160ff1611156114ed576040517f08c379a000000000000000000000000000000000000000000000000000000000815260206004820152602560248201527f4e6f6d6973776170537461626c65506169723a20756e737570706f727465642060448201527f746f6b656e0000000000000000000000000000000000000000000000000000006064820152608401610726565b6114f88160126142fc565b61150390600a614460565b600a80546fffffffffffffffffffffffffffffffff92831670010000000000000000000000000000000002921691909117905550505050565b600080600061159a6008546dffffffffffffffffffffffffffff808216926e01000000000000000000000000000083049091169163ffffffff7c01000000000000000000000000000000000000000000000000000000009091041690565b50600a546dffffffffffffffffffffffffffff9283169450911691506fffffffffffffffffffffffffffffffff8082169170010000000000000000000000000000000090041681840281840260006115f0612b2b565b905060006115ff8484846132ac565b60065490915073ffffffffffffffffffffffffffffffffffffffff908116908c160361168b57898502830360006116378284866136f3565b905060006116478783038a61380d565b600b5490915061168190620186a08084029163ffffffff720100000000000000000000000000000000000090910481169091039061380d16565b9b50505050611771565b60075473ffffffffffffffffffffffffffffffffffffffff8c811691161461170f576040517f08c379a000000000000000000000000000000000000000000000000000000000815260206004820152601360248201527f494e56414c49445f494e5055545f544f4b454e000000000000000000000000006044820152606401610726565b898602840360006117218284866136f3565b905060006117318683038961380d565b600b5490915061176b90620186a08084029163ffffffff720100000000000000000000000000000000000090910481169091039061380d16565b9b505050505b505050505050505092915050565b60006002600554036117ed576040517f08c379a000000000000000000000000000000000000000000000000000000000815260206004820152601f60248201527f5265656e7472616e637947756172643a207265656e7472616e742063616c6c006044820152606401610726565b600260055560008061184e6008546dffffffffffffffffffffffffffff808216926e01000000000000000000000000000083049091169163ffffffff7c01000000000000000000000000000000000000000000000000000000009091041690565b506006546040517f70a0823100000000000000000000000000000000000000000000000000000000815230600482015292945090925060009173ffffffffffffffffffffffffffffffffffffffff909116906370a0823190602401602060405180830381865afa1580156118c6573d6000803e3d6000fd5b505050506040513d601f19601f820116820180604052508101906118ea91906141b4565b6007546040517f70a0823100000000000000000000000000000000000000000000000000000000815230600482015291925060009173ffffffffffffffffffffffffffffffffffffffff909116906370a0823190602401602060405180830381865afa15801561195e573d6000803e3d6000fd5b505050506040513d601f19601f8201168201806040525081019061198291906141b4565b905061198c613830565b6000805490611999612b2b565b905060006119a88585846133d9565b905060006119c66dffffffffffffffffffffffffffff8916876141fc565b905060006119e46dffffffffffffffffffffffffffff8916876141fc565b905084600003611a0e576119fa6103e8846141fc565b9950611a0960006103e861397f565b611a63565b611a606dffffffffffffffffffffffffffff8a16611a2c8785614213565b611a36919061427f565b6dffffffffffffffffffffffffffff8a16611a518885614213565b611a5b919061427f565b613a2a565b99505b60008a11611af3576040517f08c379a000000000000000000000000000000000000000000000000000000000815260206004820152602760248201527f4e6f6d69737761703a20494e53554646494349454e545f4c495155494449545960448201527f5f4d494e544544000000000000000000000000000000000000000000000000006064820152608401610726565b611afd8b8b61397f565b611b078787613422565b604080518381526020810183905233917f4c209b5fc8ad50758f13e2e1088ba56a560dff690a1c6fef26394f4c03821c4f910160405180910390a2505060016005555095979650505050505050565b600260055403611bc2576040517f08c379a000000000000000000000000000000000000000000000000000000000815260206004820152601f60248201527f5265656e7472616e637947756172643a207265656e7472616e742063616c6c006044820152606401610726565b60026005553373ffffffffffffffffffffffffffffffffffffffff7f00000000000000000000000000000000000000000000000000000000000000001614611c66576040517f08c379a000000000000000000000000000000000000000000000000000000000815260206004820152601360248201527f4e6f6d69737761703a20464f5242494444454e000000000000000000000000006044820152606401610726565b600b54611c8a90620151809068010000000000000000900464ffffffffff16614293565b421015611cf3576040517f08c379a000000000000000000000000000000000000000000000000000000000815260206004820181905260248201527f4e6f6d6973776170537461626c65506169723a20494e56414c49445f54494d456044820152606401610726565b611d006201518042614293565b8164ffffffffff161015611d96576040517f08c379a000000000000000000000000000000000000000000000000000000000815260206004820152602760248201527f4e6f6d6973776170537461626c65506169723a20494e56414c49445f4655545560448201527f52455f54494d45000000000000000000000000000000000000000000000000006064820152608401610726565b6000611da0612b2b565b90506000611db5606463ffffffff8616614213565b905060008463ffffffff16118015611dd55750620f42408463ffffffff16105b611dde57600080fd5b8163ffffffff168163ffffffff161015611e1c578163ffffffff1660648263ffffffff16611e0c9190614213565b1015611e1757600080fd5b611e3f565b611e2d606463ffffffff8416614213565b8163ffffffff161115611e3f57600080fd5b600b805463ffffffff8481167fffffffffffffffffffffffffffffffffffffffffffffffff00000000000000009092168217640100000000918516918202177fffffffffffffffffffffffffffff00000000000000000000ffffffffffffffff16680100000000000000004264ffffffffff818116929092027fffffffffffffffffffffffffffff0000000000ffffffffffffffffffffffffff16929092176d0100000000000000000000000000918916918202179094556040805193845260208401929092529082015260608101919091527fa2b71ec6df949300b59aab36b55e189697b750119dd349fcfa8c0f779e83c2549060800160405180910390a1505060016005555050565b600080600260055403611fb9576040517f08c379a000000000000000000000000000000000000000000000000000000000815260206004820152601f60248201527f5265656e7472616e637947756172643a207265656e7472616e742063616c6c006044820152606401610726565b60026005556006546007546040517f70a0823100000000000000000000000000000000000000000000000000000000815230600482015273ffffffffffffffffffffffffffffffffffffffff928316929091169060009083906370a0823190602401602060405180830381865afa158015612038573d6000803e3d6000fd5b505050506040513d601f19601f8201168201806040525081019061205c91906141b4565b6040517f70a0823100000000000000000000000000000000000000000000000000000000815230600482015290915060009073ffffffffffffffffffffffffffffffffffffffff8416906370a0823190602401602060405180830381865afa1580156120cc573d6000803e3d6000fd5b505050506040513d601f19601f820116820180604052508101906120f091906141b4565b3060009081526001602052604090205490915061210b613830565b600054806121198584614213565b612123919061427f565b9750806121308484614213565b61213a919061427f565b965060008811801561214c5750600087115b6121d8576040517f08c379a000000000000000000000000000000000000000000000000000000000815260206004820152602760248201527f4e6f6d69737761703a20494e53554646494349454e545f4c495155494449545960448201527f5f4255524e4544000000000000000000000000000000000000000000000000006064820152608401610726565b6121e23083613a40565b6121ed868a8a61321a565b6121f8858a8961321a565b6040517f70a0823100000000000000000000000000000000000000000000000000000000815230600482015273ffffffffffffffffffffffffffffffffffffffff8716906370a0823190602401602060405180830381865afa158015612262573d6000803e3d6000fd5b505050506040513d601f19601f8201168201806040525081019061228691906141b4565b6040517f70a0823100000000000000000000000000000000000000000000000000000000815230600482015290945073ffffffffffffffffffffffffffffffffffffffff8616906370a0823190602401602060405180830381865afa1580156122f3573d6000803e3d6000fd5b505050506040513d601f19601f8201168201806040525081019061231791906141b4565b92506123238484613422565b604080518981526020810189905273ffffffffffffffffffffffffffffffffffffffff8b169133917fdccd412f0b1252819cb1fd330b93224ca42612892bb3f4f789976e6d81936496910160405180910390a35050505050506001600581905550915091565b604080518082018252600781527f4e4d582d534c5000000000000000000000000000000000000000000000000000602082015260065482517f95d89b41000000000000000000000000000000000000000000000000000000008152925160609373ffffffffffffffffffffffffffffffffffffffff909216916395d89b419160048083019260009291908290030181865afa15801561242c573d6000803e3d6000fd5b505050506040513d6000823e601f3d9081017fffffffffffffffffffffffffffffffffffffffffffffffffffffffffffffffe016820160405261247291908101906144b0565b600760009054906101000a900473ffffffffffffffffffffffffffffffffffffffff1673ffffffffffffffffffffffffffffffffffffffff166395d89b416040518163ffffffff1660e01b8152600401600060405180830381865afa1580156124df573d6000803e3d6000fd5b505050506040513d6000823e601f3d9081017fffffffffffffffffffffffffffffffffffffffffffffffffffffffffffffffe016820160405261252591908101906144b0565b60405160200161253793929190614570565b604051602081830303815290604052905090565b6000610f60338484613624565b6002600554036125c4576040517f08c379a000000000000000000000000000000000000000000000000000000000815260206004820152601f60248201527f5265656e7472616e637947756172643a207265656e7472616e742063616c6c006044820152606401610726565b60026005556006546007546008546040517f70a0823100000000000000000000000000000000000000000000000000000000815230600482015273ffffffffffffffffffffffffffffffffffffffff938416939092169161269091849186916dffffffffffffffffffffffffffff169083906370a08231906024015b602060405180830381865afa15801561265d573d6000803e3d6000fd5b505050506040513d601f19601f8201168201806040525081019061268191906141b4565b61268b91906141fc565b61321a565b6008546040517f70a0823100000000000000000000000000000000000000000000000000000000815230600482015261271091839186916e01000000000000000000000000000090046dffffffffffffffffffffffffffff169073ffffffffffffffffffffffffffffffffffffffff8416906370a0823190602401612640565b5050600160055550565b600260055403612786576040517f08c379a000000000000000000000000000000000000000000000000000000000815260206004820152601f60248201527f5265656e7472616e637947756172643a207265656e7472616e742063616c6c006044820152606401610726565b60026005553373ffffffffffffffffffffffffffffffffffffffff7f0000000000000000000000000000000000000000000000000000000000000000161461282a576040517f08c379a000000000000000000000000000000000000000000000000000000000815260206004820152601360248201527f4e6f6d69737761703a20464f5242494444454e000000000000000000000000006044820152606401610726565b6000612834612b2b565b600b80547fffffffffffffffffffffffffffffffffffffffffffffffff00000000000000001663ffffffff83169081176401000000008202177fffffffffffffffffffffffffffff00000000000000000000ffffffffffffffff16680100000000000000004264ffffffffff81169182027fffffffffffffffffffffffffffff0000000000ffffffffffffffffffffffffff16929092176d010000000000000000000000000091909102179092556040805191825260208201929092529192507f46e22fb3709ad289f62ce63d469248536dbc78d82b84a3d7e74ad606dc201938910160405180910390a1506001600555565b60008060006129856008546dffffffffffffffffffffffffffff808216926e01000000000000000000000000000083049091169163ffffffff7c01000000000000000000000000000000000000000000000000000000009091041690565b50600a54600b546dffffffffffffffffffffffffffff93841695509190921692506fffffffffffffffffffffffffffffffff8083169270010000000000000000000000000000000090041690620186a0720100000000000000000000000000000000000090910463ffffffff16870287820203048285028285026000612a09612b2b565b90506000612a188484846132ac565b60065490915073ffffffffffffffffffffffffffffffffffffffff908116908d1603612a6d5784870284016000612a508284866136f3565b90508781860381612a6357612a63614250565b049b505050612b1c565b60075473ffffffffffffffffffffffffffffffffffffffff8d8116911614612af1576040517f08c379a000000000000000000000000000000000000000000000000000000000815260206004820152601360248201527f494e56414c49445f494e5055545f544f4b454e000000000000000000000000006044820152606401610726565b84860283016000612b038284866136f3565b90508881870381612b1657612b16614250565b049b5050505b50505050505050505092915050565b600b546000906d0100000000000000000000000000810464ffffffffff1690640100000000900463ffffffff1642821115610f6457600b5463ffffffff81169068010000000000000000900464ffffffffff1681831115612bcb57612b9081856141fc565b612b9a83856141fc565b612ba483426141fc565b612bae9190614213565b612bb8919061427f565b612bc29083614293565b94505050505090565b612bd581856141fc565b612bdf84846141fc565b612be983426141fc565b612bf39190614213565b612bfd919061427f565b612bc290836141fc565b42841015612c71576040517f08c379a000000000000000000000000000000000000000000000000000000000815260206004820152601160248201527f4e6f6d69737761703a20455850495245440000000000000000000000000000006044820152606401610726565b60035473ffffffffffffffffffffffffffffffffffffffff8816600090815260046020526040812080549192917f6e71edae12b1b97f4d1f60370fef10105fa2faae0126114a169c64845d6126c9918b918b918b919087612cd1836145e6565b9091555060408051602081019690965273ffffffffffffffffffffffffffffffffffffffff94851690860152929091166060840152608083015260a082015260c0810187905260e00160405160208183030381529060405280519060200120604051602001612d729291907f190100000000000000000000000000000000000000000000000000000000000081526002810192909252602282015260420190565b604080517fffffffffffffffffffffffffffffffffffffffffffffffffffffffffffffffe08184030181528282528051602091820120600080855291840180845281905260ff88169284019290925260608301869052608083018590529092509060019060a0016020604051602081039080840390855afa158015612dfb573d6000803e3d6000fd5b50506040517fffffffffffffffffffffffffffffffffffffffffffffffffffffffffffffffe0015191505073ffffffffffffffffffffffffffffffffffffffff811615801590612e7657508873ffffffffffffffffffffffffffffffffffffffff168173ffffffffffffffffffffffffffffffffffffffff16145b612edc576040517f08c379a000000000000000000000000000000000000000000000000000000000815260206004820152601b60248201527f4e6f6d69737761703a20494e56414c49445f5349474e415455524500000000006044820152606401610726565b612ee78989896135b5565b505050505050505050565b3373ffffffffffffffffffffffffffffffffffffffff7f00000000000000000000000000000000000000000000000000000000000000001614612f91576040517f08c379a000000000000000000000000000000000000000000000000000000000815260206004820152601360248201527f4e6f6d69737761703a20464f5242494444454e000000000000000000000000006044820152606401610726565b620186a08163ffffffff16111561302a576040517f08c379a000000000000000000000000000000000000000000000000000000000815260206004820152602160248201527f4e6f6d6973776170537461626c65506169723a20464f5242494444454e5f464560448201527f45000000000000000000000000000000000000000000000000000000000000006064820152608401610726565b600b805463ffffffff9092167201000000000000000000000000000000000000027fffffffffffffffffffff00000000ffffffffffffffffffffffffffffffffffff909216919091179055565b6002600554036130e3576040517f08c379a000000000000000000000000000000000000000000000000000000000815260206004820152601f60248201527f5265656e7472616e637947756172643a207265656e7472616e742063616c6c006044820152606401610726565b60026005556006546040517f70a082310000000000000000000000000000000000000000000000000000000081523060048201526132139173ffffffffffffffffffffffffffffffffffffffff16906370a0823190602401602060405180830381865afa158015613158573d6000803e3d6000fd5b505050506040513d601f19601f8201168201806040525081019061317c91906141b4565b6007546040517f70a0823100000000000000000000000000000000000000000000000000000000815230600482015273ffffffffffffffffffffffffffffffffffffffff909116906370a0823190602401602060405180830381865afa1580156131ea573d6000803e3d6000fd5b505050506040513d601f19601f8201168201806040525081019061320e91906141b4565b613422565b6001600555565b6040805173ffffffffffffffffffffffffffffffffffffffff8416602482015260448082018490528251808303909101815260649091019091526020810180517bffffffffffffffffffffffffffffffffffffffffffffffffffffffff167fa9059cbb000000000000000000000000000000000000000000000000000000001790526132a7908490613af3565b505050565b6000806132b98486614293565b905060006132c8846004614213565b9050816000036132dd5760009250505061118e565b600082815b6101008110156133cd576000600489848c6132fd8280614213565b613307919061427f565b6133119190614213565b61331b919061427f565b613325919061427f565b90508293508060036133379190614213565b83600161334560648961427f565b61334f91906141fc565b6133599190614213565b6133639190614293565b8361336f836002614213565b606461337b8a8a614213565b613385919061427f565b61338f9190614293565b6133999190614213565b6133a3919061427f565b92506133af8385613bff565b156133ba57506133cd565b50806133c5816145e6565b9150506132e2565b50979650505050505050565b600a546000906fffffffffffffffffffffffffffffffff80821686029170010000000000000000000000000000000090041684026134188282866132ac565b9695505050505050565b6dffffffffffffffffffffffffffff821180159061344e57506dffffffffffffffffffffffffffff8111155b6134b4576040517f08c379a000000000000000000000000000000000000000000000000000000000815260206004820152601260248201527f4e6f6d69737761703a204f564552464c4f5700000000000000000000000000006044820152606401610726565b60006134c56401000000004261461e565b6008805463ffffffff83167c0100000000000000000000000000000000000000000000000000000000027bffffffffffffffffffffffffffffffffffffffffffffffffffffffff6dffffffffffffffffffffffffffff8781166e0100000000000000000000000000009081027fffffffff000000000000000000000000000000000000000000000000000000009095168a83161794909417918216831794859055604080519382169282169290921783529290930490911660208201529192507f1c411e9a96e071241c2f21f7726b17ae89e3cab4c78be50e062b03a9fffbbad1910160405180910390a1505050565b73ffffffffffffffffffffffffffffffffffffffff83811660008181526002602090815260408083209487168084529482529182902085905590518481527f8c5be1e5ebec7d5bd14f71427d1e84f3dd0314c0f7b2291e5b200ac8c7c3b92591015b60405180910390a3505050565b73ffffffffffffffffffffffffffffffffffffffff83166000908152600160205260409020546136559082906141fc565b73ffffffffffffffffffffffffffffffffffffffff8085166000908152600160205260408082209390935590841681522054613692908290614293565b73ffffffffffffffffffffffffffffffffffffffff80841660008181526001602052604090819020939093559151908516907fddf252ad1be2c89b69c2b068fc378daa952ba7f163c4a11628f55a4df523b3ef906136179085815260200190565b600080613701836004614213565b90506000613710866002614213565b61371a8680614213565b613724919061427f565b90506064613733836002614213565b61373d919061427f565b6137478683614213565b613751919061427f565b9050600082613761606488614213565b61376b919061427f565b6137759088614293565b9050600086945060005b610100811015613801578591506000846137998480614213565b6137a39190614293565b9050600089856137b48a6002614213565b6137be9190614293565b6137c891906141fc565b90506137d4828261380d565b97506137e08885613bff565b156137ec575050613801565b505080806137f9906145e6565b91505061377f565b50505050509392505050565b600081600161381c8286614293565b61382691906141fc565b61118e919061427f565b60007f000000000000000000000000000000000000000000000000000000000000000073ffffffffffffffffffffffffffffffffffffffff1663017e7e586040518163ffffffff1660e01b8152600401602060405180830381865afa15801561389d573d6000803e3d6000fd5b505050506040513d601f19601f820116820180604052508101906138c19190614632565b60095490915073ffffffffffffffffffffffffffffffffffffffff8216158015916fffffffffffffffffffffffffffffffff16906139465760018111156132a757613916836139116001846141fc565b61397f565b600980547fffffffffffffffffffffffffffffffff00000000000000000000000000000000166001179055505050565b60018111156132a757600980547fffffffffffffffffffffffffffffffff00000000000000000000000000000000166001179055505050565b8060005461398d9190614293565b600090815573ffffffffffffffffffffffffffffffffffffffff83168152600160205260409020546139c0908290614293565b73ffffffffffffffffffffffffffffffffffffffff83166000818152600160205260408082209390935591519091907fddf252ad1be2c89b69c2b068fc378daa952ba7f163c4a11628f55a4df523b3ef90613a1e9085815260200190565b60405180910390a35050565b6000818310613a39578161118e565b5090919050565b73ffffffffffffffffffffffffffffffffffffffff8216600090815260016020526040902054613a719082906141fc565b73ffffffffffffffffffffffffffffffffffffffff831660009081526001602052604081209190915554613aa69082906141fc565b600090815560405182815273ffffffffffffffffffffffffffffffffffffffff8416907fddf252ad1be2c89b69c2b068fc378daa952ba7f163c4a11628f55a4df523b3ef90602001613a1e565b6000613b55826040518060400160405280602081526020017f5361666545524332303a206c6f772d6c6576656c2063616c6c206661696c65648152508573ffffffffffffffffffffffffffffffffffffffff16613c219092919063ffffffff16565b8051909150156132a75780806020019051810190613b73919061464f565b6132a7576040517f08c379a000000000000000000000000000000000000000000000000000000000815260206004820152602a60248201527f5361666545524332303a204552433230206f7065726174696f6e20646964206e60448201527f6f742073756363656564000000000000000000000000000000000000000000006064820152608401610726565b600081831115613c16575060018183031115610f64565b506001919003111590565b6060613c308484600085613c38565b949350505050565b606082471015613cca576040517f08c379a000000000000000000000000000000000000000000000000000000000815260206004820152602660248201527f416464726573733a20696e73756666696369656e742062616c616e636520666f60448201527f722063616c6c00000000000000000000000000000000000000000000000000006064820152608401610726565b73ffffffffffffffffffffffffffffffffffffffff85163b613d48576040517f08c379a000000000000000000000000000000000000000000000000000000000815260206004820152601d60248201527f416464726573733a2063616c6c20746f206e6f6e2d636f6e74726163740000006044820152606401610726565b6000808673ffffffffffffffffffffffffffffffffffffffff168587604051613d719190614671565b60006040518083038185875af1925050503d8060008114613dae576040519150601f19603f3d011682016040523d82523d6000602084013e613db3565b606091505b5091509150613dc3828286613dce565b979650505050505050565b60608315613ddd57508161118e565b825115613ded5782518084602001fd5b816040517f08c379a00000000000000000000000000000000000000000000000000000000081526004016107269190613f0c565b73ffffffffffffffffffffffffffffffffffffffff81168114613e4357600080fd5b50565b600080600080600060808688031215613e5e57600080fd5b85359450602086013593506040860135613e7781613e21565b9250606086013567ffffffffffffffff80821115613e9457600080fd5b818801915088601f830112613ea857600080fd5b813581811115613eb757600080fd5b896020828501011115613ec957600080fd5b9699959850939650602001949392505050565b60005b83811015613ef7578181015183820152602001613edf565b83811115613f06576000848401525b50505050565b6020815260008251806020840152613f2b816040850160208701613edc565b601f017fffffffffffffffffffffffffffffffffffffffffffffffffffffffffffffffe0169190910160400192915050565b60008060408385031215613f7057600080fd5b8235613f7b81613e21565b946020939093013593505050565b600060208284031215613f9b57600080fd5b81356fffffffffffffffffffffffffffffffff8116811461118e57600080fd5b600080600060608486031215613fd057600080fd5b8335613fdb81613e21565b92506020840135613feb81613e21565b929592945050506040919091013590565b6000806040838503121561400f57600080fd5b823561401a81613e21565b9150602083013561402a81613e21565b809150509250929050565b60006020828403121561404757600080fd5b813561118e81613e21565b803563ffffffff8116811461406657600080fd5b919050565b6000806040838503121561407e57600080fd5b61408783614052565b9150602083013564ffffffffff8116811461402a57600080fd5b60ff81168114613e4357600080fd5b600080600080600080600060e0888a0312156140cb57600080fd5b87356140d681613e21565b965060208801356140e681613e21565b955060408801359450606088013593506080880135614104816140a1565b9699959850939692959460a0840135945060c09093013592915050565b60006020828403121561413357600080fd5b61118e82614052565b73ffffffffffffffffffffffffffffffffffffffff8616815284602082015283604082015260806060820152816080820152818360a0830137600081830160a090810191909152601f9092017fffffffffffffffffffffffffffffffffffffffffffffffffffffffffffffffe0160101949350505050565b6000602082840312156141c657600080fd5b5051919050565b7f4e487b7100000000000000000000000000000000000000000000000000000000600052601160045260246000fd5b60008282101561420e5761420e6141cd565b500390565b6000817fffffffffffffffffffffffffffffffffffffffffffffffffffffffffffffffff048311821515161561424b5761424b6141cd565b500290565b7f4e487b7100000000000000000000000000000000000000000000000000000000600052601260045260246000fd5b60008261428e5761428e614250565b500490565b600082198211156142a6576142a66141cd565b500190565b60006fffffffffffffffffffffffffffffffff8083168185168083038211156142d6576142d66141cd565b01949350505050565b6000602082840312156142f157600080fd5b815161118e816140a1565b600060ff821660ff841680821015614316576143166141cd565b90039392505050565b600181815b8085111561436857816fffffffffffffffffffffffffffffffff0482111561434e5761434e6141cd565b8085161561435b57918102915b93841c9390800290614324565b509250929050565b60008261437f57506001610f64565b8161438c57506000610f64565b81600181146143a257600281146143ac576143e9565b6001915050610f64565b60ff8411156143bd576143bd6141cd565b6001841b91506fffffffffffffffffffffffffffffffff8211156143e3576143e36141cd565b50610f64565b5060208310610133831016604e8410600b841016171561442c575081810a6fffffffffffffffffffffffffffffffff811115614427576144276141cd565b610f64565b614436838361431f565b806fffffffffffffffffffffffffffffffff04821115614458576144586141cd565b029392505050565b600061118e60ff84166fffffffffffffffffffffffffffffffff8416614370565b7f4e487b7100000000000000000000000000000000000000000000000000000000600052604160045260246000fd5b6000602082840312156144c257600080fd5b815167ffffffffffffffff808211156144da57600080fd5b818401915084601f8301126144ee57600080fd5b81518181111561450057614500614481565b604051601f82017fffffffffffffffffffffffffffffffffffffffffffffffffffffffffffffffe0908116603f0116810190838211818310171561454657614546614481565b8160405282815287602084870101111561455f57600080fd5b613dc3836020830160208801613edc565b60008451614582818460208901613edc565b80830190507f2d0000000000000000000000000000000000000000000000000000000000000080825285516145be816001850160208a01613edc565b600192019182015283516145d9816002840160208801613edc565b0160020195945050505050565b60007fffffffffffffffffffffffffffffffffffffffffffffffffffffffffffffffff8203614617576146176141cd565b5060010190565b60008261462d5761462d614250565b500690565b60006020828403121561464457600080fd5b815161118e81613e21565b60006020828403121561466157600080fd5b8151801515811461118e57600080fd5b60008251614683818460208701613edc565b919091019291505056fea26469706673582212209fcef6126a895b0fb2e0f35b8ec55c58787f756c43c711a156da1b54b7d94c5a64736f6c634300080f0033",
  "immutableReferences": {},
  "source": "// SPDX-License-Identifier: GPL-3.0-or-later\npragma solidity =0.8.15;\n\nimport './NomiswapStablePair.sol';\nimport './interfaces/INomiswapStableFactory.sol';\n\ncontract NomiswapStableFactory is INomiswapStableFactory {\n\n    address public feeTo;\n    address public feeToSetter;\n    bytes32 public INIT_CODE_HASH = keccak256(abi.encodePacked(type(NomiswapStablePair).creationCode));\n\n    mapping(address => mapping(address => address)) public getPair;\n    address[] public allPairs;\n\n    constructor(address _feeToSetter) {\n        feeToSetter = _feeToSetter;\n    }\n\n    function allPairsLength() external view returns (uint) {\n        return allPairs.length;\n    }\n\n    function createPair(address tokenA, address tokenB) external returns (address pair) {\n        require(msg.sender == feeToSetter, 'Nomiswap: FORBIDDEN');\n        require(tokenA != tokenB, 'Nomiswap: IDENTICAL_ADDRESSES');\n        (address token0, address token1) = tokenA < tokenB ? (tokenA, tokenB) : (tokenB, tokenA);\n        require(token0 != address(0), 'Nomiswap: ZERO_ADDRESS');\n        require(getPair[token0][token1] == address(0), 'Nomiswap: PAIR_EXISTS'); // single check is sufficient\n        bytes memory bytecode = type(NomiswapStablePair).creationCode;\n        bytes32 salt = keccak256(abi.encodePacked(token0, token1));\n        assembly {\n            pair := create2(0, add(bytecode, 32), mload(bytecode), salt)\n        }\n        require(pair != address(0), \"Nomiswap: PAIR_NOT_CREATED\");\n        NomiswapStablePair(pair).initialize(token0, token1);\n        getPair[token0][token1] = pair;\n        getPair[token1][token0] = pair; // populate mapping in the reverse direction\n        allPairs.push(pair);\n        emit PairCreated(token0, token1, pair, allPairs.length);\n    }\n\n    function setFeeTo(address _feeTo) external {\n        require(msg.sender == feeToSetter, 'Nomiswap: FORBIDDEN');\n        feeTo = _feeTo;\n    }\n\n    function setFeeToSetter(address _feeToSetter) external {\n        require(msg.sender == feeToSetter, 'Nomiswap: FORBIDDEN');\n        feeToSetter = _feeToSetter;\n    }\n\n    function setDevFee(address _pair, uint128 _devFee) external {\n        require(msg.sender == feeToSetter, 'Nomiswap: FORBIDDEN');\n        require(_devFee > 0, 'Nomiswap: FORBIDDEN_FEE');\n        INomiswapStablePair(_pair).setDevFee(_devFee);\n    }\n\n    function setSwapFee(address _pair, uint32 _swapFee) external {\n        require(msg.sender == feeToSetter, 'Nomiswap: FORBIDDEN');\n        INomiswapStablePair(_pair).setSwapFee(_swapFee);\n    }\n\n    function rampA(address _pair, uint32 _futureA, uint40 _futureTime) external {\n        require(msg.sender == feeToSetter, 'Nomiswap: FORBIDDEN');\n        NomiswapStablePair(_pair).rampA(_futureA, _futureTime);\n    }\n\n    function stopRampA(address _pair) external {\n        require(msg.sender == feeToSetter, 'Nomiswap: FORBIDDEN');\n        NomiswapStablePair(_pair).stopRampA();\n    }\n\n}\n",
  "sourcePath": "/home/eraserpl/NetBeansProjects/stableswap-contracts/contracts/NomiswapStableFactory.sol",
  "compiler": {
    "name": "solc",
    "version": "0.8.15+commit.e14f2714.Emscripten.clang"
  },
  "schemaVersion": "3.4.9",
  "updatedAt": "2022-08-22T06:18:12.053Z",
  "devdoc": {
    "kind": "dev",
    "methods": {},
    "version": 1
  },
  "userdoc": {
    "kind": "user",
    "methods": {},
    "version": 1
  }
}