{
  "contractName": "NomiswapStablePair",
  "abi": [
    {
      "inputs": [
        {
          "internalType": "address",
          "name": "_token0",
          "type": "address"
        },
        {
          "internalType": "address",
          "name": "_token1",
          "type": "address"
        }
      ],
      "stateMutability": "nonpayable",
      "type": "constructor"
    },
    {
      "anonymous": false,
      "inputs": [
        {
          "indexed": true,
          "internalType": "address",
          "name": "owner",
          "type": "address"
        },
        {
          "indexed": true,
          "internalType": "address",
          "name": "spender",
          "type": "address"
        },
        {
          "indexed": false,
          "internalType": "uint256",
          "name": "value",
          "type": "uint256"
        }
      ],
      "name": "Approval",
      "type": "event"
    },
    {
      "anonymous": false,
      "inputs": [
        {
          "indexed": true,
          "internalType": "address",
          "name": "sender",
          "type": "address"
        },
        {
          "indexed": false,
          "internalType": "uint256",
          "name": "amount0",
          "type": "uint256"
        },
        {
          "indexed": false,
          "internalType": "uint256",
          "name": "amount1",
          "type": "uint256"
        },
        {
          "indexed": true,
          "internalType": "address",
          "name": "to",
          "type": "address"
        }
      ],
      "name": "Burn",
      "type": "event"
    },
    {
      "anonymous": false,
      "inputs": [
        {
          "indexed": true,
          "internalType": "address",
          "name": "sender",
          "type": "address"
        },
        {
          "indexed": false,
          "internalType": "uint256",
          "name": "amount0",
          "type": "uint256"
        },
        {
          "indexed": false,
          "internalType": "uint256",
          "name": "amount1",
          "type": "uint256"
        }
      ],
      "name": "Mint",
      "type": "event"
    },
    {
      "anonymous": false,
      "inputs": [
        {
          "indexed": false,
          "internalType": "uint256",
          "name": "oldA",
          "type": "uint256"
        },
        {
          "indexed": false,
          "internalType": "uint256",
          "name": "newA",
          "type": "uint256"
        },
        {
          "indexed": false,
          "internalType": "uint256",
          "name": "initialTime",
          "type": "uint256"
        },
        {
          "indexed": false,
          "internalType": "uint256",
          "name": "futureTime",
          "type": "uint256"
        }
      ],
      "name": "RampA",
      "type": "event"
    },
    {
      "anonymous": false,
      "inputs": [
        {
          "indexed": false,
          "internalType": "uint256",
          "name": "A",
          "type": "uint256"
        },
        {
          "indexed": false,
          "internalType": "uint256",
          "name": "t",
          "type": "uint256"
        }
      ],
      "name": "StopRampA",
      "type": "event"
    },
    {
      "anonymous": false,
      "inputs": [
        {
          "indexed": true,
          "internalType": "address",
          "name": "sender",
          "type": "address"
        },
        {
          "indexed": false,
          "internalType": "uint256",
          "name": "amount0In",
          "type": "uint256"
        },
        {
          "indexed": false,
          "internalType": "uint256",
          "name": "amount1In",
          "type": "uint256"
        },
        {
          "indexed": false,
          "internalType": "uint256",
          "name": "amount0Out",
          "type": "uint256"
        },
        {
          "indexed": false,
          "internalType": "uint256",
          "name": "amount1Out",
          "type": "uint256"
        },
        {
          "indexed": true,
          "internalType": "address",
          "name": "to",
          "type": "address"
        }
      ],
      "name": "Swap",
      "type": "event"
    },
    {
      "anonymous": false,
      "inputs": [
        {
          "indexed": false,
          "internalType": "uint112",
          "name": "reserve0",
          "type": "uint112"
        },
        {
          "indexed": false,
          "internalType": "uint112",
          "name": "reserve1",
          "type": "uint112"
        }
      ],
      "name": "Sync",
      "type": "event"
    },
    {
      "anonymous": false,
      "inputs": [
        {
          "indexed": true,
          "internalType": "address",
          "name": "from",
          "type": "address"
        },
        {
          "indexed": true,
          "internalType": "address",
          "name": "to",
          "type": "address"
        },
        {
          "indexed": false,
          "internalType": "uint256",
          "name": "value",
          "type": "uint256"
        }
      ],
      "name": "Transfer",
      "type": "event"
    },
    {
      "inputs": [],
      "name": "DOMAIN_SEPARATOR",
      "outputs": [
        {
          "internalType": "bytes32",
          "name": "",
          "type": "bytes32"
        }
      ],
      "stateMutability": "view",
      "type": "function"
    },
    {
      "inputs": [],
      "name": "MINIMUM_LIQUIDITY",
      "outputs": [
        {
          "internalType": "uint256",
          "name": "",
          "type": "uint256"
        }
      ],
      "stateMutability": "view",
      "type": "function"
    },
    {
      "inputs": [],
      "name": "PERMIT_TYPEHASH",
      "outputs": [
        {
          "internalType": "bytes32",
          "name": "",
          "type": "bytes32"
        }
      ],
      "stateMutability": "view",
      "type": "function"
    },
    {
      "inputs": [],
      "name": "adminFee",
      "outputs": [
        {
          "internalType": "uint128",
          "name": "",
          "type": "uint128"
        }
      ],
      "stateMutability": "view",
      "type": "function"
    },
    {
      "inputs": [
        {
          "internalType": "address",
          "name": "",
          "type": "address"
        },
        {
          "internalType": "address",
          "name": "",
          "type": "address"
        }
      ],
      "name": "allowance",
      "outputs": [
        {
          "internalType": "uint256",
          "name": "",
          "type": "uint256"
        }
      ],
      "stateMutability": "view",
      "type": "function"
    },
    {
      "inputs": [
        {
          "internalType": "address",
          "name": "spender",
          "type": "address"
        },
        {
          "internalType": "uint256",
          "name": "value",
          "type": "uint256"
        }
      ],
      "name": "approve",
      "outputs": [
        {
          "internalType": "bool",
          "name": "",
          "type": "bool"
        }
      ],
      "stateMutability": "nonpayable",
      "type": "function"
    },
    {
      "inputs": [
        {
          "internalType": "address",
          "name": "",
          "type": "address"
        }
      ],
      "name": "balanceOf",
      "outputs": [
        {
          "internalType": "uint256",
          "name": "",
          "type": "uint256"
        }
      ],
      "stateMutability": "view",
      "type": "function"
    },
    {
      "inputs": [],
      "name": "decimals",
      "outputs": [
        {
          "internalType": "uint8",
          "name": "",
          "type": "uint8"
        }
      ],
      "stateMutability": "view",
      "type": "function"
    },
    {
      "inputs": [
        {
          "internalType": "address",
          "name": "spender",
          "type": "address"
        },
        {
          "internalType": "uint256",
          "name": "subtractedValue",
          "type": "uint256"
        }
      ],
      "name": "decreaseAllowance",
      "outputs": [
        {
          "internalType": "bool",
          "name": "",
          "type": "bool"
        }
      ],
      "stateMutability": "nonpayable",
      "type": "function"
    },
    {
      "inputs": [],
      "name": "devFee",
      "outputs": [
        {
          "internalType": "uint128",
          "name": "",
          "type": "uint128"
        }
      ],
      "stateMutability": "view",
      "type": "function"
    },
    {
      "inputs": [
        {
          "internalType": "address",
          "name": "spender",
          "type": "address"
        },
        {
          "internalType": "uint256",
          "name": "addedValue",
          "type": "uint256"
        }
      ],
      "name": "increaseAllowance",
      "outputs": [
        {
          "internalType": "bool",
          "name": "",
          "type": "bool"
        }
      ],
      "stateMutability": "nonpayable",
      "type": "function"
    },
    {
      "inputs": [],
      "name": "name",
      "outputs": [
        {
          "internalType": "string",
          "name": "",
          "type": "string"
        }
      ],
      "stateMutability": "view",
      "type": "function"
    },
    {
      "inputs": [
        {
          "internalType": "address",
          "name": "",
          "type": "address"
        }
      ],
      "name": "nonces",
      "outputs": [
        {
          "internalType": "uint256",
          "name": "",
          "type": "uint256"
        }
      ],
      "stateMutability": "view",
      "type": "function"
    },
    {
      "inputs": [
        {
          "internalType": "address",
          "name": "owner",
          "type": "address"
        },
        {
          "internalType": "address",
          "name": "spender",
          "type": "address"
        },
        {
          "internalType": "uint256",
          "name": "value",
          "type": "uint256"
        },
        {
          "internalType": "uint256",
          "name": "deadline",
          "type": "uint256"
        },
        {
          "internalType": "uint8",
          "name": "v",
          "type": "uint8"
        },
        {
          "internalType": "bytes32",
          "name": "r",
          "type": "bytes32"
        },
        {
          "internalType": "bytes32",
          "name": "s",
          "type": "bytes32"
        }
      ],
      "name": "permit",
      "outputs": [],
      "stateMutability": "nonpayable",
      "type": "function"
    },
    {
      "inputs": [],
      "name": "swapFee",
      "outputs": [
        {
          "internalType": "uint32",
          "name": "",
          "type": "uint32"
        }
      ],
      "stateMutability": "view",
      "type": "function"
    },
    {
      "inputs": [],
      "name": "token0",
      "outputs": [
        {
          "internalType": "address",
          "name": "",
          "type": "address"
        }
      ],
      "stateMutability": "view",
      "type": "function"
    },
    {
      "inputs": [],
      "name": "token0PrecisionMultiplier",
      "outputs": [
        {
          "internalType": "uint128",
          "name": "",
          "type": "uint128"
        }
      ],
      "stateMutability": "view",
      "type": "function"
    },
    {
      "inputs": [],
      "name": "token1",
      "outputs": [
        {
          "internalType": "address",
          "name": "",
          "type": "address"
        }
      ],
      "stateMutability": "view",
      "type": "function"
    },
    {
      "inputs": [],
      "name": "token1PrecisionMultiplier",
      "outputs": [
        {
          "internalType": "uint128",
          "name": "",
          "type": "uint128"
        }
      ],
      "stateMutability": "view",
      "type": "function"
    },
    {
      "inputs": [],
      "name": "totalSupply",
      "outputs": [
        {
          "internalType": "uint256",
          "name": "",
          "type": "uint256"
        }
      ],
      "stateMutability": "view",
      "type": "function"
    },
    {
      "inputs": [
        {
          "internalType": "address",
          "name": "to",
          "type": "address"
        },
        {
          "internalType": "uint256",
          "name": "value",
          "type": "uint256"
        }
      ],
      "name": "transfer",
      "outputs": [
        {
          "internalType": "bool",
          "name": "",
          "type": "bool"
        }
      ],
      "stateMutability": "nonpayable",
      "type": "function"
    },
    {
      "inputs": [
        {
          "internalType": "address",
          "name": "from",
          "type": "address"
        },
        {
          "internalType": "address",
          "name": "to",
          "type": "address"
        },
        {
          "internalType": "uint256",
          "name": "value",
          "type": "uint256"
        }
      ],
      "name": "transferFrom",
      "outputs": [
        {
          "internalType": "bool",
          "name": "",
          "type": "bool"
        }
      ],
      "stateMutability": "nonpayable",
      "type": "function"
    },
    {
      "inputs": [],
      "name": "symbol",
      "outputs": [
        {
          "internalType": "string",
          "name": "",
          "type": "string"
        }
      ],
      "stateMutability": "view",
      "type": "function"
    },
    {
      "inputs": [
        {
          "internalType": "uint32",
          "name": "_swapFee",
          "type": "uint32"
        }
      ],
      "name": "setSwapFee",
      "outputs": [],
      "stateMutability": "nonpayable",
      "type": "function"
    },
    {
      "inputs": [
        {
          "internalType": "uint128",
          "name": "_devFee",
          "type": "uint128"
        }
      ],
      "name": "setDevFee",
      "outputs": [],
      "stateMutability": "nonpayable",
      "type": "function"
    },
    {
      "inputs": [
        {
          "internalType": "address",
          "name": "to",
          "type": "address"
        }
      ],
      "name": "mint",
      "outputs": [
        {
          "internalType": "uint256",
          "name": "liquidity",
          "type": "uint256"
        }
      ],
      "stateMutability": "nonpayable",
      "type": "function"
    },
    {
      "inputs": [
        {
          "internalType": "address",
          "name": "to",
          "type": "address"
        }
      ],
      "name": "burn",
      "outputs": [
        {
          "internalType": "uint256",
          "name": "amount0",
          "type": "uint256"
        },
        {
          "internalType": "uint256",
          "name": "amount1",
          "type": "uint256"
        }
      ],
      "stateMutability": "nonpayable",
      "type": "function"
    },
    {
      "inputs": [
        {
          "internalType": "uint256",
          "name": "amount0Out",
          "type": "uint256"
        },
        {
          "internalType": "uint256",
          "name": "amount1Out",
          "type": "uint256"
        },
        {
          "internalType": "address",
          "name": "to",
          "type": "address"
        },
        {
          "internalType": "bytes",
          "name": "data",
          "type": "bytes"
        }
      ],
      "name": "swap",
      "outputs": [],
      "stateMutability": "nonpayable",
      "type": "function"
    },
    {
      "inputs": [
        {
          "internalType": "address",
          "name": "to",
          "type": "address"
        }
      ],
      "name": "skim",
      "outputs": [],
      "stateMutability": "nonpayable",
      "type": "function"
    },
    {
      "inputs": [],
      "name": "sync",
      "outputs": [],
      "stateMutability": "nonpayable",
      "type": "function"
    },
    {
      "inputs": [
        {
          "internalType": "uint32",
          "name": "_futureA",
          "type": "uint32"
        },
        {
          "internalType": "uint40",
          "name": "_futureTime",
          "type": "uint40"
        }
      ],
      "name": "rampA",
      "outputs": [],
      "stateMutability": "nonpayable",
      "type": "function"
    },
    {
      "inputs": [],
      "name": "stopRampA",
      "outputs": [],
      "stateMutability": "nonpayable",
      "type": "function"
    },
    {
      "inputs": [
        {
          "internalType": "address",
          "name": "tokenIn",
          "type": "address"
        },
        {
          "internalType": "uint256",
          "name": "amountOut",
          "type": "uint256"
        }
      ],
      "name": "getAmountIn",
      "outputs": [
        {
          "internalType": "uint256",
          "name": "finalAmountIn",
          "type": "uint256"
        }
      ],
      "stateMutability": "view",
      "type": "function"
    },
    {
      "inputs": [
        {
          "internalType": "address",
          "name": "tokenIn",
          "type": "address"
        },
        {
          "internalType": "uint256",
          "name": "amountIn",
          "type": "uint256"
        }
      ],
      "name": "getAmountOut",
      "outputs": [
        {
          "internalType": "uint256",
          "name": "finalAmountOut",
          "type": "uint256"
        }
      ],
      "stateMutability": "view",
      "type": "function"
    },
    {
      "inputs": [],
      "name": "getReserves",
      "outputs": [
        {
          "internalType": "uint112",
          "name": "_reserve0",
          "type": "uint112"
        },
        {
          "internalType": "uint112",
          "name": "_reserve1",
          "type": "uint112"
        },
        {
          "internalType": "uint32",
          "name": "_blockTimestampLast",
          "type": "uint32"
        }
      ],
      "stateMutability": "view",
      "type": "function"
    },
    {
      "inputs": [],
      "name": "factory",
      "outputs": [
        {
          "internalType": "address",
          "name": "",
          "type": "address"
        }
      ],
      "stateMutability": "view",
      "type": "function"
    },
    {
      "inputs": [],
      "name": "getA",
      "outputs": [
        {
          "internalType": "uint256",
          "name": "",
          "type": "uint256"
        }
      ],
      "stateMutability": "view",
      "type": "function"
    }
  ],
  "bytecode": "0x610140604052600680546001600160801b031916600117905560076200002b600160701b600362000422565b62000037919062000444565b600680546001600160801b03928316600160801b029216919091179055620000626064605562000422565b6007805463ffffffff191663ffffffff929092169190911790556200008a6064605562000422565b6007805463ffffffff60201b63ffffffff60901b01191664010000000063ffffffff939093169290920263ffffffff60901b191691909117601960921b179055348015620000d757600080fd5b5060405162004d3238038062004d32833981016040819052620000fa9162000484565b604080518082018252601381527f4e6f6d697377617020737461626c65204c5073000000000000000000000000006020918201528151808301835260018152603160f81b9082015281517f8b73c3c69bb8fe3d512ecc4cf759cc79239f7b179b0ffacaa9a75d522b39400f918101919091527f22155260db1abf6474eb894108f4b66f54f6b4a9c481b6e3e789468ed505cc97918101919091527fc89efdaa54c0f20c7adf612882df0950f5a951637e0307cdcb4c672f298b8bc6606082015246608082018190523060a0830152339160c00160408051808303601f190181528282528051602091820120608052600160049081556001600160a01b0395861660a0526007805464ffffffffff60681b19166d01000000000000000000000000004264ffffffffff160217905587861660c081905295871660e05263313ce56760e01b84529151600095945063313ce5679383810193908290030181865afa1580156200026b573d6000803e3d6000fd5b505050506040513d601f19601f82011682018060405250810190620002919190620004bc565b905060128160ff161115620002ea5760405162461bcd60e51b8152602060048201526025602482015260008051602062004d128339815191526044820152643a37b5b2b760d91b60648201526084015b60405180910390fd5b620002f7816012620004e8565b6200030490600a6200064e565b6001600160801b0316610100816001600160801b0316815250506000826001600160a01b031663313ce5676040518163ffffffff1660e01b8152600401602060405180830381865afa1580156200035f573d6000803e3d6000fd5b505050506040513d601f19601f82011682018060405250810190620003859190620004bc565b905060128160ff161115620003da5760405162461bcd60e51b8152602060048201526025602482015260008051602062004d128339815191526044820152643a37b5b2b760d91b6064820152608401620002e1565b620003e7816012620004e8565b620003f490600a6200064e565b6001600160801b031661012052506200066892505050565b634e487b7160e01b600052601160045260246000fd5b60008160001904831182151516156200043f576200043f6200040c565b500290565b6000826200046257634e487b7160e01b600052601260045260246000fd5b500490565b80516001600160a01b03811681146200047f57600080fd5b919050565b600080604083850312156200049857600080fd5b620004a38362000467565b9150620004b36020840162000467565b90509250929050565b600060208284031215620004cf57600080fd5b815160ff81168114620004e157600080fd5b9392505050565b600060ff821660ff8416808210156200050557620005056200040c565b90039392505050565b600181815b8085111562000555576001600160801b038290048211156200053957620005396200040c565b808516156200054757918102915b93841c939080029062000513565b509250929050565b6000826200056e5750600162000648565b816200057d5750600062000648565b8160018114620005965760028114620005a157620005dc565b600191505062000648565b60ff841115620005b557620005b56200040c565b6001841b91506001600160801b03821115620005d557620005d56200040c565b5062000648565b5060208310610133831016604e8410600b84101617156200061b575081810a6001600160801b038111156200061557620006156200040c565b62000648565b6200062783836200050e565b6001600160801b038190048211156200064457620006446200040c565b0290505b92915050565b6000620004e160ff84166001600160801b0384166200055d565b60805160a05160c05160e05161010051610120516145886200078a6000396000818161047501528181610d55015281816113460152818161293c015261345b01526000818161061c01528181610d310152818161132201528181612906015261343501526000818161069701528181610944015281816114420152818161173401528181611e2f015281816122cc0152818161254601528181612a2c01526131d501526000818161037101528181610923015281816113890152818161168001528181611e0d0152818161221b01528181612524015281816129aa01526131270152600081816106530152818161103d015281816119fc0152818161270601528181612f1301526138a401526000818161043b0152612c8801526145886000f3fe608060405234801561001057600080fd5b50600436106102775760003560e01c806373c48bb511610160578063bc25cf77116100d8578063d46300fd1161008c578063d6d788c311610071578063d6d788c3146106d4578063dd62ed3e146106e7578063fff6cae91461071257600080fd5b8063d46300fd146106b9578063d505accf146106c157600080fd5b8063c4db7fa0116100bd578063c4db7fa014610677578063ca706bcf1461067f578063d21220a71461069257600080fd5b8063bc25cf771461063e578063c45a01551461065157600080fd5b8063a0be06f91161012f578063a9059cbb11610114578063a9059cbb146105fb578063ba9a7a561461060e578063baa8c7cb1461061757600080fd5b8063a0be06f9146105cc578063a457c2d7146105e857600080fd5b806373c48bb5146105695780637ecebe001461057c57806389afcb441461059c57806395d89b41146105c457600080fd5b8063313ce567116101f357806354cf2aeb116101c25780636827e764116101a75780636827e764146105065780636a6278421461053657806370a082311461054957600080fd5b806354cf2aeb146104b8578063632db21c146104f357600080fd5b8063313ce5671461041c5780633644e51514610436578063395093511461045d5780634e25dc471461047057600080fd5b80630dfe16811161024a57806318160ddd1161022f57806318160ddd146103cb57806323b872dd146103e257806330adf81f146103f557600080fd5b80630dfe16811461036c578063111f8ef3146103b857600080fd5b8063022c0d9f1461027c57806306fdde03146102915780630902f1ac146102e3578063095ea7b314610349575b600080fd5b61028f61028a366004613eb6565b61071a565b005b6102cd6040518060400160405280601381526020017f4e6f6d697377617020737461626c65204c50730000000000000000000000000081525081565b6040516102da9190613f7c565b60405180910390f35b600554604080516dffffffffffffffffffffffffffff80841682526e01000000000000000000000000000084041660208201527c010000000000000000000000000000000000000000000000000000000090920463ffffffff16908201526060016102da565b61035c610357366004613fcd565b61100e565b60405190151581526020016102da565b6103937f000000000000000000000000000000000000000000000000000000000000000081565b60405173ffffffffffffffffffffffffffffffffffffffff90911681526020016102da565b61028f6103c6366004613ff9565b611025565b6103d460005481565b6040519081526020016102da565b61035c6103f036600461402b565b611175565b6103d47f6e71edae12b1b97f4d1f60370fef10105fa2faae0126114a169c64845d6126c981565b610424601281565b60405160ff90911681526020016102da565b6103d47f000000000000000000000000000000000000000000000000000000000000000081565b61035c61046b366004613fcd565b611250565b6104977f000000000000000000000000000000000000000000000000000000000000000081565b6040516fffffffffffffffffffffffffffffffff90911681526020016102da565b6007546104de907201000000000000000000000000000000000000900463ffffffff1681565b60405163ffffffff90911681526020016102da565b6103d4610501366004613fcd565b611299565b6006546104979070010000000000000000000000000000000090046fffffffffffffffffffffffffffffffff1681565b6103d461054436600461406c565b611565565b6103d461055736600461406c565b60016020526000908152604090205481565b61028f6105773660046140a2565b611973565b6103d461058a36600461406c565b60036020526000908152604090205481565b6105af6105aa36600461406c565b611d67565b604080519283526020830191909152016102da565b6102cd6121e1565b600654610497906fffffffffffffffffffffffffffffffff1681565b61035c6105f6366004613fcd565b6123a1565b61035c610609366004613fcd565b612471565b6103d46103e881565b6104977f000000000000000000000000000000000000000000000000000000000000000081565b61028f61064c36600461406c565b61247e565b7f0000000000000000000000000000000000000000000000000000000000000000610393565b61028f61267d565b6103d461068d366004613fcd565b61288a565b6103937f000000000000000000000000000000000000000000000000000000000000000081565b6103d4612b19565b61028f6106cf3660046140e3565b612bf5565b61028f6106e236600461415a565b612efb565b6103d46106f5366004614175565b600260209081526000928352604080842090915290825290205481565b61028f613080565b60026004540361078b576040517f08c379a000000000000000000000000000000000000000000000000000000000815260206004820152601f60248201527f5265656e7472616e637947756172643a207265656e7472616e742063616c6c0060448201526064015b60405180910390fd5b60026004558415158061079e5750600084115b610829576040517f08c379a0000000000000000000000000000000000000000000000000000000008152602060048201526024808201527f4e6f6d69737761703a20494e53554646494349454e545f4f55545055545f414d60448201527f4f554e54000000000000000000000000000000000000000000000000000000006064820152608401610782565b6000806108856005546dffffffffffffffffffffffffffff808216926e01000000000000000000000000000083049091169163ffffffff7c01000000000000000000000000000000000000000000000000000000009091041690565b506dffffffffffffffffffffffffffff1691506dffffffffffffffffffffffffffff16915081871080156108b857508086105b61091e576040517f08c379a000000000000000000000000000000000000000000000000000000000815260206004820181905260248201527f4e6f6d69737761703a20494e53554646494349454e545f4c49515549444954596044820152606401610782565b6000807f00000000000000000000000000000000000000000000000000000000000000007f000000000000000000000000000000000000000000000000000000000000000073ffffffffffffffffffffffffffffffffffffffff898116908316148015906109b857508073ffffffffffffffffffffffffffffffffffffffff168973ffffffffffffffffffffffffffffffffffffffff1614155b610a1e576040517f08c379a000000000000000000000000000000000000000000000000000000000815260206004820152601460248201527f4e6f6d69737761703a20494e56414c49445f544f0000000000000000000000006044820152606401610782565b8a15610a2f57610a2f828a8d613261565b8915610a4057610a40818a8c613261565b8615610ad3576040517f2210968200000000000000000000000000000000000000000000000000000000815273ffffffffffffffffffffffffffffffffffffffff8a1690632210968290610aa09033908f908f908e908e906004016141a3565b600060405180830381600087803b158015610aba57600080fd5b505af1158015610ace573d6000803e3d6000fd5b505050505b6040517f70a0823100000000000000000000000000000000000000000000000000000000815230600482015273ffffffffffffffffffffffffffffffffffffffff8316906370a0823190602401602060405180830381865afa158015610b3d573d6000803e3d6000fd5b505050506040513d601f19601f82011682018060405250810190610b61919061421b565b6040517f70a0823100000000000000000000000000000000000000000000000000000000815230600482015290945073ffffffffffffffffffffffffffffffffffffffff8216906370a0823190602401602060405180830381865afa158015610bce573d6000803e3d6000fd5b505050506040513d601f19601f82011682018060405250810190610bf2919061421b565b9250505060008985610c049190614263565b8311610c11576000610c25565b610c1b8a86614263565b610c259084614263565b90506000610c338a86614263565b8311610c40576000610c54565b610c4a8a86614263565b610c549084614263565b90506000821180610c655750600081115b610cf1576040517f08c379a000000000000000000000000000000000000000000000000000000000815260206004820152602360248201527f4e6f6d69737761703a20494e53554646494349454e545f494e5055545f414d4f60448201527f554e5400000000000000000000000000000000000000000000000000000000006064820152608401610782565b6000610cfb612b19565b60075490915063ffffffff7201000000000000000000000000000000000000909104166fffffffffffffffffffffffffffffffff7f00000000000000000000000000000000000000000000000000000000000000008116907f0000000000000000000000000000000000000000000000000000000000000000166000620186a083610d86868a61427a565b610d93620186a08d61427a565b610d9d9190614263565b610da7919061427a565b610db191906142e6565b90506000620186a083610dc4878a61427a565b610dd1620186a08d61427a565b610ddb9190614263565b610de5919061427a565b610def91906142e6565b90506000610dfe8383896132f3565b90506000610e0c868f61427a565b90506000610e1a868f61427a565b90506000610e2983838c6132f3565b905080841015610e95576040517f08c379a000000000000000000000000000000000000000000000000000000000815260206004820152600b60248201527f4e6f6d69737761703a20440000000000000000000000000000000000000000006044820152606401610782565b6000610ea28f8f8d613420565b90506000610eb08383614263565b600054610ebd919061427a565b60065490915060009084906e01000000000000000000000000000090610f099070010000000000000000000000000000000090046fffffffffffffffffffffffffffffffff168661427a565b610f1391906142e6565b610f1d91906142fa565b9050610f2981836142e6565b60068054600090610f4d9084906fffffffffffffffffffffffffffffffff16614312565b92506101000a8154816fffffffffffffffffffffffffffffffff02191690836fffffffffffffffffffffffffffffffff16021790555050505050505050505050505050610f9a8484613492565b60408051838152602081018390529081018c9052606081018b905273ffffffffffffffffffffffffffffffffffffffff8a169033907fd78ad95fa46c994b6551d0da85fc275fe613ce37657fb8d5e3d130840159d8229060800160405180910390a350506001600455505050505050505050565b600061101b338484613625565b5060015b92915050565b3373ffffffffffffffffffffffffffffffffffffffff7f000000000000000000000000000000000000000000000000000000000000000016146110c4576040517f08c379a000000000000000000000000000000000000000000000000000000000815260206004820152601360248201527f4e6f6d69737761703a20464f5242494444454e000000000000000000000000006044820152606401610782565b806fffffffffffffffffffffffffffffffff16600003611140576040517f08c379a000000000000000000000000000000000000000000000000000000000815260206004820152601d60248201527f4e6f6d6973776170537461626c65506169723a206465762066656520300000006044820152606401610782565b600680546fffffffffffffffffffffffffffffffff928316700100000000000000000000000000000000029216919091179055565b73ffffffffffffffffffffffffffffffffffffffff831660009081526002602090815260408083203384529091528120547fffffffffffffffffffffffffffffffffffffffffffffffffffffffffffffffff1461123a5773ffffffffffffffffffffffffffffffffffffffff84166000908152600260209081526040808320338452909152902054611208908390614263565b73ffffffffffffffffffffffffffffffffffffffff851660009081526002602090815260408083203384529091529020555b611245848484613694565b5060015b9392505050565b33600081815260026020908152604080832073ffffffffffffffffffffffffffffffffffffffff87168452909152812054909161101b9185906112949086906142fa565b613625565b60008060006112f76005546dffffffffffffffffffffffffffff808216926e01000000000000000000000000000083049091169163ffffffff7c01000000000000000000000000000000000000000000000000000000009091041690565b506dffffffffffffffffffffffffffff91821693501690506fffffffffffffffffffffffffffffffff7f00000000000000000000000000000000000000000000000000000000000000008116907f0000000000000000000000000000000000000000000000000000000000000000168184028184026000611376612b19565b905060006113858484846132f3565b90507f000000000000000000000000000000000000000000000000000000000000000073ffffffffffffffffffffffffffffffffffffffff168b73ffffffffffffffffffffffffffffffffffffffff160361144057898502830360006113ec828486613763565b905060006113fc8783038a61387d565b60075490915061143690620186a08084029163ffffffff720100000000000000000000000000000000000090910481169091039061387d16565b9b50505050611557565b7f000000000000000000000000000000000000000000000000000000000000000073ffffffffffffffffffffffffffffffffffffffff168b73ffffffffffffffffffffffffffffffffffffffff16146114f5576040517f08c379a000000000000000000000000000000000000000000000000000000000815260206004820152601360248201527f494e56414c49445f494e5055545f544f4b454e000000000000000000000000006044820152606401610782565b89860284036000611507828486613763565b905060006115178683038961387d565b60075490915061155190620186a08084029163ffffffff720100000000000000000000000000000000000090910481169091039061387d16565b9b505050505b505050505050505092915050565b60006002600454036115d3576040517f08c379a000000000000000000000000000000000000000000000000000000000815260206004820152601f60248201527f5265656e7472616e637947756172643a207265656e7472616e742063616c6c006044820152606401610782565b60026004556000806116346005546dffffffffffffffffffffffffffff808216926e01000000000000000000000000000083049091169163ffffffff7c01000000000000000000000000000000000000000000000000000000009091041690565b506040517f70a08231000000000000000000000000000000000000000000000000000000008152306004820152919350915060009073ffffffffffffffffffffffffffffffffffffffff7f000000000000000000000000000000000000000000000000000000000000000016906370a0823190602401602060405180830381865afa1580156116c7573d6000803e3d6000fd5b505050506040513d601f19601f820116820180604052508101906116eb919061421b565b6040517f70a0823100000000000000000000000000000000000000000000000000000000815230600482015290915060009073ffffffffffffffffffffffffffffffffffffffff7f000000000000000000000000000000000000000000000000000000000000000016906370a0823190602401602060405180830381865afa15801561177b573d6000803e3d6000fd5b505050506040513d601f19601f8201168201806040525081019061179f919061421b565b90506117a96138a0565b60008054906117c86dffffffffffffffffffffffffffff871685614263565b905060006117e66dffffffffffffffffffffffffffff871685614263565b90508260000361182d5760006117fa612b19565b90506000611809878784613420565b90506118176103e882614263565b995061182660006103e86139ef565b5050611882565b61187f6dffffffffffffffffffffffffffff881661184b858561427a565b61185591906142e6565b6dffffffffffffffffffffffffffff8816611870868561427a565b61187a91906142e6565b613a9a565b97505b60008811611912576040517f08c379a000000000000000000000000000000000000000000000000000000000815260206004820152602760248201527f4e6f6d69737761703a20494e53554646494349454e545f4c495155494449545960448201527f5f4d494e544544000000000000000000000000000000000000000000000000006064820152608401610782565b61191c89896139ef565b6119268585613492565b604080518381526020810183905233917f4c209b5fc8ad50758f13e2e1088ba56a560dff690a1c6fef26394f4c03821c4f910160405180910390a250506001600455509395945050505050565b6002600454036119df576040517f08c379a000000000000000000000000000000000000000000000000000000000815260206004820152601f60248201527f5265656e7472616e637947756172643a207265656e7472616e742063616c6c006044820152606401610782565b60026004553373ffffffffffffffffffffffffffffffffffffffff7f00000000000000000000000000000000000000000000000000000000000000001614611a83576040517f08c379a000000000000000000000000000000000000000000000000000000000815260206004820152601360248201527f4e6f6d69737761703a20464f5242494444454e000000000000000000000000006044820152606401610782565b600754611aa790620151809068010000000000000000900464ffffffffff166142fa565b421015611b10576040517f08c379a000000000000000000000000000000000000000000000000000000000815260206004820181905260248201527f4e6f6d6973776170537461626c65506169723a20494e56414c49445f54494d456044820152606401610782565b611b1d62015180426142fa565b8164ffffffffff161015611bb3576040517f08c379a000000000000000000000000000000000000000000000000000000000815260206004820152602760248201527f4e6f6d6973776170537461626c65506169723a20494e56414c49445f4655545560448201527f52455f54494d45000000000000000000000000000000000000000000000000006064820152608401610782565b6000611bbd612b19565b90506000611bd2606463ffffffff861661427a565b905060008463ffffffff16118015611bf25750620f42408463ffffffff16105b611bfb57600080fd5b8163ffffffff168163ffffffff161015611c39578163ffffffff1660648263ffffffff16611c29919061427a565b1015611c3457600080fd5b611c5c565b611c4a606463ffffffff841661427a565b8163ffffffff161115611c5c57600080fd5b6007805463ffffffff8481167fffffffffffffffffffffffffffffffffffffffffffffffff00000000000000009092168217640100000000918516918202177fffffffffffffffffffffffffffff00000000000000000000ffffffffffffffff16680100000000000000004264ffffffffff818116929092027fffffffffffffffffffffffffffff0000000000ffffffffffffffffffffffffff16929092176d0100000000000000000000000000918916918202179094556040805193845260208401929092529082015260608101919091527fa2b71ec6df949300b59aab36b55e189697b750119dd349fcfa8c0f779e83c2549060800160405180910390a1505060016004555050565b600080600260045403611dd6576040517f08c379a000000000000000000000000000000000000000000000000000000000815260206004820152601f60248201527f5265656e7472616e637947756172643a207265656e7472616e742063616c6c006044820152606401610782565b600260049081556040517f70a0823100000000000000000000000000000000000000000000000000000000815230918101919091527f0000000000000000000000000000000000000000000000000000000000000000907f00000000000000000000000000000000000000000000000000000000000000009060009073ffffffffffffffffffffffffffffffffffffffff8416906370a0823190602401602060405180830381865afa158015611e90573d6000803e3d6000fd5b505050506040513d601f19601f82011682018060405250810190611eb4919061421b565b6040517f70a0823100000000000000000000000000000000000000000000000000000000815230600482015290915060009073ffffffffffffffffffffffffffffffffffffffff8416906370a0823190602401602060405180830381865afa158015611f24573d6000803e3d6000fd5b505050506040513d601f19601f82011682018060405250810190611f48919061421b565b30600090815260016020526040902054909150611f636138a0565b60005480611f71858461427a565b611f7b91906142e6565b975080611f88848461427a565b611f9291906142e6565b9650600088118015611fa45750600087115b612030576040517f08c379a000000000000000000000000000000000000000000000000000000000815260206004820152602760248201527f4e6f6d69737761703a20494e53554646494349454e545f4c495155494449545960448201527f5f4255524e4544000000000000000000000000000000000000000000000000006064820152608401610782565b61203a3083613ab0565b612045868a8a613261565b612050858a89613261565b6040517f70a0823100000000000000000000000000000000000000000000000000000000815230600482015273ffffffffffffffffffffffffffffffffffffffff8716906370a0823190602401602060405180830381865afa1580156120ba573d6000803e3d6000fd5b505050506040513d601f19601f820116820180604052508101906120de919061421b565b6040517f70a0823100000000000000000000000000000000000000000000000000000000815230600482015290945073ffffffffffffffffffffffffffffffffffffffff8616906370a0823190602401602060405180830381865afa15801561214b573d6000803e3d6000fd5b505050506040513d601f19601f8201168201806040525081019061216f919061421b565b925061217b8484613492565b604080518981526020810189905273ffffffffffffffffffffffffffffffffffffffff8b169133917fdccd412f0b1252819cb1fd330b93224ca42612892bb3f4f789976e6d81936496910160405180910390a35050505050506001600481905550915091565b60606040518060400160405280600781526020017f4e4d582d534c50000000000000000000000000000000000000000000000000008152507f000000000000000000000000000000000000000000000000000000000000000073ffffffffffffffffffffffffffffffffffffffff166395d89b416040518163ffffffff1660e01b8152600401600060405180830381865afa158015612284573d6000803e3d6000fd5b505050506040513d6000823e601f3d9081017fffffffffffffffffffffffffffffffffffffffffffffffffffffffffffffffe01682016040526122ca9190810190614375565b7f000000000000000000000000000000000000000000000000000000000000000073ffffffffffffffffffffffffffffffffffffffff166395d89b416040518163ffffffff1660e01b8152600401600060405180830381865afa158015612335573d6000803e3d6000fd5b505050506040513d6000823e601f3d9081017fffffffffffffffffffffffffffffffffffffffffffffffffffffffffffffffe016820160405261237b9190810190614375565b60405160200161238d93929190614435565b604051602081830303815290604052905090565b33600090815260026020908152604080832073ffffffffffffffffffffffffffffffffffffffff8616845290915281205482811015612462576040517f08c379a000000000000000000000000000000000000000000000000000000000815260206004820152603360248201527f4e6f6d6973776170537461626c6545524332303a20646563726561736564206160448201527f6c6c6f77616e63652062656c6f77207a65726f000000000000000000000000006064820152608401610782565b61124533856112948685614263565b600061101b338484613694565b6002600454036124ea576040517f08c379a000000000000000000000000000000000000000000000000000000000815260206004820152601f60248201527f5265656e7472616e637947756172643a207265656e7472616e742063616c6c006044820152606401610782565b600260049081556005546040517f70a0823100000000000000000000000000000000000000000000000000000000815230928101929092527f0000000000000000000000000000000000000000000000000000000000000000917f0000000000000000000000000000000000000000000000000000000000000000916125f391849186916dffffffffffffffffffffffffffff9091169073ffffffffffffffffffffffffffffffffffffffff8416906370a08231906024015b602060405180830381865afa1580156125c0573d6000803e3d6000fd5b505050506040513d601f19601f820116820180604052508101906125e4919061421b565b6125ee9190614263565b613261565b6005546040517f70a0823100000000000000000000000000000000000000000000000000000000815230600482015261267391839186916e01000000000000000000000000000090046dffffffffffffffffffffffffffff169073ffffffffffffffffffffffffffffffffffffffff8416906370a08231906024016125a3565b5050600160045550565b6002600454036126e9576040517f08c379a000000000000000000000000000000000000000000000000000000000815260206004820152601f60248201527f5265656e7472616e637947756172643a207265656e7472616e742063616c6c006044820152606401610782565b60026004553373ffffffffffffffffffffffffffffffffffffffff7f0000000000000000000000000000000000000000000000000000000000000000161461278d576040517f08c379a000000000000000000000000000000000000000000000000000000000815260206004820152601360248201527f4e6f6d69737761703a20464f5242494444454e000000000000000000000000006044820152606401610782565b6000612797612b19565b600780547fffffffffffffffffffffffffffffffffffffffffffffffff00000000000000001663ffffffff83169081176401000000008202177fffffffffffffffffffffffffffff00000000000000000000ffffffffffffffff16680100000000000000004264ffffffffff81169182027fffffffffffffffffffffffffffff0000000000ffffffffffffffffffffffffff16929092176d010000000000000000000000000091909102179092556040805191825260208201929092529192507f46e22fb3709ad289f62ce63d469248536dbc78d82b84a3d7e74ad606dc201938910160405180910390a1506001600455565b60008060006128e86005546dffffffffffffffffffffffffffff808216926e01000000000000000000000000000083049091169163ffffffff7c01000000000000000000000000000000000000000000000000000000009091041690565b506007546dffffffffffffffffffffffffffff9283169450911691507f00000000000000000000000000000000000000000000000000000000000000006fffffffffffffffffffffffffffffffff908116917f000000000000000000000000000000000000000000000000000000000000000090911690620186a0720100000000000000000000000000000000000090910463ffffffff16870287820203048285028285026000612997612b19565b905060006129a68484846132f3565b90507f000000000000000000000000000000000000000000000000000000000000000073ffffffffffffffffffffffffffffffffffffffff168c73ffffffffffffffffffffffffffffffffffffffff1603612a2a5784870284016000612a0d828486613763565b90508781860381612a2057612a206142b7565b049b505050612b0a565b7f000000000000000000000000000000000000000000000000000000000000000073ffffffffffffffffffffffffffffffffffffffff168c73ffffffffffffffffffffffffffffffffffffffff1614612adf576040517f08c379a000000000000000000000000000000000000000000000000000000000815260206004820152601360248201527f494e56414c49445f494e5055545f544f4b454e000000000000000000000000006044820152606401610782565b84860283016000612af1828486613763565b90508881870381612b0457612b046142b7565b049b5050505b50505050505050505092915050565b6007546000906d0100000000000000000000000000810464ffffffffff1690640100000000900463ffffffff164282111561101f5760075463ffffffff81169068010000000000000000900464ffffffffff1681831115612bb957612b7e8185614263565b612b888385614263565b612b928342614263565b612b9c919061427a565b612ba691906142e6565b612bb090836142fa565b94505050505090565b612bc38185614263565b612bcd8484614263565b612bd78342614263565b612be1919061427a565b612beb91906142e6565b612bb09083614263565b42841015612c5f576040517f08c379a000000000000000000000000000000000000000000000000000000000815260206004820152601160248201527f4e6f6d69737761703a20455850495245440000000000000000000000000000006044820152606401610782565b73ffffffffffffffffffffffffffffffffffffffff8716600090815260036020526040812080547f0000000000000000000000000000000000000000000000000000000000000000917f6e71edae12b1b97f4d1f60370fef10105fa2faae0126114a169c64845d6126c9918b918b918b9187612cda836144ab565b9091555060408051602081019690965273ffffffffffffffffffffffffffffffffffffffff94851690860152929091166060840152608083015260a082015260c0810187905260e00160405160208183030381529060405280519060200120604051602001612d7b9291907f190100000000000000000000000000000000000000000000000000000000000081526002810192909252602282015260420190565b604080517fffffffffffffffffffffffffffffffffffffffffffffffffffffffffffffffe08184030181528282528051602091820120600080855291840180845281905260ff88169284019290925260608301869052608083018590529092509060019060a0016020604051602081039080840390855afa158015612e04573d6000803e3d6000fd5b50506040517fffffffffffffffffffffffffffffffffffffffffffffffffffffffffffffffe0015191505073ffffffffffffffffffffffffffffffffffffffff811615801590612e7f57508873ffffffffffffffffffffffffffffffffffffffff168173ffffffffffffffffffffffffffffffffffffffff16145b612ee5576040517f08c379a000000000000000000000000000000000000000000000000000000000815260206004820152601b60248201527f4e6f6d69737761703a20494e56414c49445f5349474e415455524500000000006044820152606401610782565b612ef0898989613625565b505050505050505050565b3373ffffffffffffffffffffffffffffffffffffffff7f00000000000000000000000000000000000000000000000000000000000000001614612f9a576040517f08c379a000000000000000000000000000000000000000000000000000000000815260206004820152601360248201527f4e6f6d69737761703a20464f5242494444454e000000000000000000000000006044820152606401610782565b620186a08163ffffffff161115613033576040517f08c379a000000000000000000000000000000000000000000000000000000000815260206004820152602160248201527f4e6f6d6973776170537461626c65506169723a20464f5242494444454e5f464560448201527f45000000000000000000000000000000000000000000000000000000000000006064820152608401610782565b6007805463ffffffff9092167201000000000000000000000000000000000000027fffffffffffffffffffff00000000ffffffffffffffffffffffffffffffffffff909216919091179055565b6002600454036130ec576040517f08c379a000000000000000000000000000000000000000000000000000000000815260206004820152601f60248201527f5265656e7472616e637947756172643a207265656e7472616e742063616c6c006044820152606401610782565b600260049081556040517f70a08231000000000000000000000000000000000000000000000000000000008152309181019190915261325a907f000000000000000000000000000000000000000000000000000000000000000073ffffffffffffffffffffffffffffffffffffffff16906370a0823190602401602060405180830381865afa158015613183573d6000803e3d6000fd5b505050506040513d601f19601f820116820180604052508101906131a7919061421b565b6040517f70a082310000000000000000000000000000000000000000000000000000000081523060048201527f000000000000000000000000000000000000000000000000000000000000000073ffffffffffffffffffffffffffffffffffffffff16906370a0823190602401602060405180830381865afa158015613231573d6000803e3d6000fd5b505050506040513d601f19601f82011682018060405250810190613255919061421b565b613492565b6001600455565b6040805173ffffffffffffffffffffffffffffffffffffffff8416602482015260448082018490528251808303909101815260649091019091526020810180517bffffffffffffffffffffffffffffffffffffffffffffffffffffffff167fa9059cbb000000000000000000000000000000000000000000000000000000001790526132ee908490613b63565b505050565b60008061330084866142fa565b9050600061330f84600461427a565b90508160000361332457600092505050611249565b600082815b610100811015613414576000600489848c613344828061427a565b61334e91906142e6565b613358919061427a565b61336291906142e6565b61336c91906142e6565b905082935080600361337e919061427a565b83600161338c6064896142e6565b6133969190614263565b6133a0919061427a565b6133aa91906142fa565b836133b683600261427a565b60646133c28a8a61427a565b6133cc91906142e6565b6133d691906142fa565b6133e0919061427a565b6133ea91906142e6565b92506133f68385613c6f565b156134015750613414565b508061340c816144ab565b915050613329565b50979650505050505050565b60006fffffffffffffffffffffffffffffffff7f000000000000000000000000000000000000000000000000000000000000000081168502907f00000000000000000000000000000000000000000000000000000000000000001684026134888282866132f3565b9695505050505050565b6dffffffffffffffffffffffffffff82118015906134be57506dffffffffffffffffffffffffffff8111155b613524576040517f08c379a000000000000000000000000000000000000000000000000000000000815260206004820152601260248201527f4e6f6d69737761703a204f564552464c4f5700000000000000000000000000006044820152606401610782565b6000613535640100000000426144e3565b6005805463ffffffff83167c0100000000000000000000000000000000000000000000000000000000027bffffffffffffffffffffffffffffffffffffffffffffffffffffffff6dffffffffffffffffffffffffffff8781166e0100000000000000000000000000009081027fffffffff000000000000000000000000000000000000000000000000000000009095168a83161794909417918216831794859055604080519382169282169290921783529290930490911660208201529192507f1c411e9a96e071241c2f21f7726b17ae89e3cab4c78be50e062b03a9fffbbad1910160405180910390a1505050565b73ffffffffffffffffffffffffffffffffffffffff83811660008181526002602090815260408083209487168084529482529182902085905590518481527f8c5be1e5ebec7d5bd14f71427d1e84f3dd0314c0f7b2291e5b200ac8c7c3b92591015b60405180910390a3505050565b73ffffffffffffffffffffffffffffffffffffffff83166000908152600160205260409020546136c5908290614263565b73ffffffffffffffffffffffffffffffffffffffff80851660009081526001602052604080822093909355908416815220546137029082906142fa565b73ffffffffffffffffffffffffffffffffffffffff80841660008181526001602052604090819020939093559151908516907fddf252ad1be2c89b69c2b068fc378daa952ba7f163c4a11628f55a4df523b3ef906136879085815260200190565b60008061377183600461427a565b9050600061378086600261427a565b61378a868061427a565b61379491906142e6565b905060646137a383600261427a565b6137ad91906142e6565b6137b7868361427a565b6137c191906142e6565b90506000826137d160648861427a565b6137db91906142e6565b6137e590886142fa565b9050600086945060005b61010081101561387157859150600084613809848061427a565b61381391906142fa565b9050600089856138248a600261427a565b61382e91906142fa565b6138389190614263565b9050613844828261387d565b97506138508885613c6f565b1561385c575050613871565b50508080613869906144ab565b9150506137ef565b50505050509392505050565b600081600161388c82866142fa565b6138969190614263565b61124991906142e6565b60007f000000000000000000000000000000000000000000000000000000000000000073ffffffffffffffffffffffffffffffffffffffff1663017e7e586040518163ffffffff1660e01b8152600401602060405180830381865afa15801561390d573d6000803e3d6000fd5b505050506040513d601f19601f8201168201806040525081019061393191906144f7565b60065490915073ffffffffffffffffffffffffffffffffffffffff8216158015916fffffffffffffffffffffffffffffffff16906139b65760018111156132ee5761398683613981600184614263565b6139ef565b600680547fffffffffffffffffffffffffffffffff00000000000000000000000000000000166001179055505050565b60018111156132ee57600680547fffffffffffffffffffffffffffffffff00000000000000000000000000000000166001179055505050565b806000546139fd91906142fa565b600090815573ffffffffffffffffffffffffffffffffffffffff8316815260016020526040902054613a309082906142fa565b73ffffffffffffffffffffffffffffffffffffffff83166000818152600160205260408082209390935591519091907fddf252ad1be2c89b69c2b068fc378daa952ba7f163c4a11628f55a4df523b3ef90613a8e9085815260200190565b60405180910390a35050565b6000818310613aa95781611249565b5090919050565b73ffffffffffffffffffffffffffffffffffffffff8216600090815260016020526040902054613ae1908290614263565b73ffffffffffffffffffffffffffffffffffffffff831660009081526001602052604081209190915554613b16908290614263565b600090815560405182815273ffffffffffffffffffffffffffffffffffffffff8416907fddf252ad1be2c89b69c2b068fc378daa952ba7f163c4a11628f55a4df523b3ef90602001613a8e565b6000613bc5826040518060400160405280602081526020017f5361666545524332303a206c6f772d6c6576656c2063616c6c206661696c65648152508573ffffffffffffffffffffffffffffffffffffffff16613c919092919063ffffffff16565b8051909150156132ee5780806020019051810190613be39190614514565b6132ee576040517f08c379a000000000000000000000000000000000000000000000000000000000815260206004820152602a60248201527f5361666545524332303a204552433230206f7065726174696f6e20646964206e60448201527f6f742073756363656564000000000000000000000000000000000000000000006064820152608401610782565b600081831115613c8657506001818303111561101f565b506001919003111590565b6060613ca08484600085613ca8565b949350505050565b606082471015613d3a576040517f08c379a000000000000000000000000000000000000000000000000000000000815260206004820152602660248201527f416464726573733a20696e73756666696369656e742062616c616e636520666f60448201527f722063616c6c00000000000000000000000000000000000000000000000000006064820152608401610782565b73ffffffffffffffffffffffffffffffffffffffff85163b613db8576040517f08c379a000000000000000000000000000000000000000000000000000000000815260206004820152601d60248201527f416464726573733a2063616c6c20746f206e6f6e2d636f6e74726163740000006044820152606401610782565b6000808673ffffffffffffffffffffffffffffffffffffffff168587604051613de19190614536565b60006040518083038185875af1925050503d8060008114613e1e576040519150601f19603f3d011682016040523d82523d6000602084013e613e23565b606091505b5091509150613e33828286613e3e565b979650505050505050565b60608315613e4d575081611249565b825115613e5d5782518084602001fd5b816040517f08c379a00000000000000000000000000000000000000000000000000000000081526004016107829190613f7c565b73ffffffffffffffffffffffffffffffffffffffff81168114613eb357600080fd5b50565b600080600080600060808688031215613ece57600080fd5b85359450602086013593506040860135613ee781613e91565b9250606086013567ffffffffffffffff80821115613f0457600080fd5b818801915088601f830112613f1857600080fd5b813581811115613f2757600080fd5b896020828501011115613f3957600080fd5b9699959850939650602001949392505050565b60005b83811015613f67578181015183820152602001613f4f565b83811115613f76576000848401525b50505050565b6020815260008251806020840152613f9b816040850160208701613f4c565b601f017fffffffffffffffffffffffffffffffffffffffffffffffffffffffffffffffe0169190910160400192915050565b60008060408385031215613fe057600080fd5b8235613feb81613e91565b946020939093013593505050565b60006020828403121561400b57600080fd5b81356fffffffffffffffffffffffffffffffff8116811461124957600080fd5b60008060006060848603121561404057600080fd5b833561404b81613e91565b9250602084013561405b81613e91565b929592945050506040919091013590565b60006020828403121561407e57600080fd5b813561124981613e91565b803563ffffffff8116811461409d57600080fd5b919050565b600080604083850312156140b557600080fd5b6140be83614089565b9150602083013564ffffffffff811681146140d857600080fd5b809150509250929050565b600080600080600080600060e0888a0312156140fe57600080fd5b873561410981613e91565b9650602088013561411981613e91565b95506040880135945060608801359350608088013560ff8116811461413d57600080fd5b9699959850939692959460a0840135945060c09093013592915050565b60006020828403121561416c57600080fd5b61124982614089565b6000806040838503121561418857600080fd5b823561419381613e91565b915060208301356140d881613e91565b73ffffffffffffffffffffffffffffffffffffffff8616815284602082015283604082015260806060820152816080820152818360a0830137600081830160a090810191909152601f9092017fffffffffffffffffffffffffffffffffffffffffffffffffffffffffffffffe0160101949350505050565b60006020828403121561422d57600080fd5b5051919050565b7f4e487b7100000000000000000000000000000000000000000000000000000000600052601160045260246000fd5b60008282101561427557614275614234565b500390565b6000817fffffffffffffffffffffffffffffffffffffffffffffffffffffffffffffffff04831182151516156142b2576142b2614234565b500290565b7f4e487b7100000000000000000000000000000000000000000000000000000000600052601260045260246000fd5b6000826142f5576142f56142b7565b500490565b6000821982111561430d5761430d614234565b500190565b60006fffffffffffffffffffffffffffffffff80831681851680830382111561433d5761433d614234565b01949350505050565b7f4e487b7100000000000000000000000000000000000000000000000000000000600052604160045260246000fd5b60006020828403121561438757600080fd5b815167ffffffffffffffff8082111561439f57600080fd5b818401915084601f8301126143b357600080fd5b8151818111156143c5576143c5614346565b604051601f82017fffffffffffffffffffffffffffffffffffffffffffffffffffffffffffffffe0908116603f0116810190838211818310171561440b5761440b614346565b8160405282815287602084870101111561442457600080fd5b613e33836020830160208801613f4c565b60008451614447818460208901613f4c565b80830190507f2d000000000000000000000000000000000000000000000000000000000000008082528551614483816001850160208a01613f4c565b6001920191820152835161449e816002840160208801613f4c565b0160020195945050505050565b60007fffffffffffffffffffffffffffffffffffffffffffffffffffffffffffffffff82036144dc576144dc614234565b5060010190565b6000826144f2576144f26142b7565b500690565b60006020828403121561450957600080fd5b815161124981613e91565b60006020828403121561452657600080fd5b8151801515811461124957600080fd5b60008251614548818460208701613f4c565b919091019291505056fea26469706673582212206ed1da25479da87a9386fc3dbd711f06333034ee170829d1c0656c97cde3bf3964736f6c634300080f00334e6f6d6973776170537461626c65506169723a20756e737570706f7274656420",
  "immutableReferences": {
    "789": [
      {
        "length": 32,
        "start": 1083
      },
      {
        "length": 32,
        "start": 11400
      }
    ],
    "1556": [
      {
        "length": 32,
        "start": 881
      },
      {
        "length": 32,
        "start": 2339
      },
      {
        "length": 32,
        "start": 5001
      },
      {
        "length": 32,
        "start": 5760
      },
      {
        "length": 32,
        "start": 7693
      },
      {
        "length": 32,
        "start": 8731
      },
      {
        "length": 32,
        "start": 9508
      },
      {
        "length": 32,
        "start": 10666
      },
      {
        "length": 32,
        "start": 12583
      }
    ],
    "1558": [
      {
        "length": 32,
        "start": 1687
      },
      {
        "length": 32,
        "start": 2372
      },
      {
        "length": 32,
        "start": 5186
      },
      {
        "length": 32,
        "start": 5940
      },
      {
        "length": 32,
        "start": 7727
      },
      {
        "length": 32,
        "start": 8908
      },
      {
        "length": 32,
        "start": 9542
      },
      {
        "length": 32,
        "start": 10796
      },
      {
        "length": 32,
        "start": 12757
      }
    ],
    "1585": [
      {
        "length": 32,
        "start": 1564
      },
      {
        "length": 32,
        "start": 3377
      },
      {
        "length": 32,
        "start": 4898
      },
      {
        "length": 32,
        "start": 10502
      },
      {
        "length": 32,
        "start": 13365
      }
    ],
    "1587": [
      {
        "length": 32,
        "start": 1141
      },
      {
        "length": 32,
        "start": 3413
      },
      {
        "length": 32,
        "start": 4934
      },
      {
        "length": 32,
        "start": 10556
      },
      {
        "length": 32,
        "start": 13403
      }
    ],
    "3803": [
      {
        "length": 32,
        "start": 1619
      },
      {
        "length": 32,
        "start": 4157
      },
      {
        "length": 32,
        "start": 6652
      },
      {
        "length": 32,
        "start": 9990
      },
      {
        "length": 32,
        "start": 12051
      },
      {
        "length": 32,
        "start": 14500
      }
    ]
  },
  "source": "// SPDX-License-Identifier: GPL-3.0-or-later\npragma solidity =0.8.15;\n\nimport \"./interfaces/INomiswapStablePair.sol\";\nimport \"./interfaces/INomiswapCallee.sol\";\nimport \"./interfaces/INomiswapFactory.sol\";\nimport \"./NomiswapStableERC20.sol\";\nimport \"./libraries/MathUtils.sol\";\nimport \"./libraries/UQ112x112.sol\";\nimport \"./util/FactoryGuard.sol\";\nimport \"@openzeppelin/contracts/token/ERC20/extensions/IERC20Metadata.sol\";\nimport \"@openzeppelin/contracts/token/ERC20/utils/SafeERC20.sol\";\nimport \"@openzeppelin/contracts/security/ReentrancyGuard.sol\";\n\ncontract NomiswapStablePair is INomiswapStablePair, NomiswapStableERC20, ReentrancyGuard, FactoryGuard {\n    using MathUtils for uint256;\n\n    uint256 public constant MINIMUM_LIQUIDITY = 10**3;\n\n    uint256 internal constant MAX_FEE = 100000; // @dev 100%.\n    uint256 internal constant A_PRECISION = 100;\n\n    uint256 internal constant MAX_A = 10 ** 6;\n    uint256 internal constant MAX_A_CHANGE = 100;\n    uint256 internal constant MIN_RAMP_TIME = 86400;\n\n    uint256 private constant Q112 = 2**112;\n    uint256 private constant MAX_LOOP_LIMIT = 256;\n\n    address public immutable token0;\n    address public immutable token1;\n\n    uint112 private reserve0;           // uses single storage slot, accessible via getReserves\n    uint112 private reserve1;           // uses single storage slot, accessible via getReserves\n    uint32  private blockTimestampLast; // uses single storage slot, accessible via getReserves\n\n    uint128 public adminFee = 1;\n    uint128 public devFee = uint128(Q112*(10-7)/uint(7)); // 70% (1/0.7-1)\n\n    uint128 public immutable token0PrecisionMultiplier; // uses single storage slot\n    uint128 public immutable token1PrecisionMultiplier; // uses single storage slot\n\n    uint32 initialA = uint32(85 * A_PRECISION); // uses single storage slot\n    uint32 futureA = uint32(85 * A_PRECISION); // uses single storage slot\n    uint40 initialATime; // uses single storage slot\n    uint40 futureATime; // uses single storage slot\n    uint32 public swapFee = 100; // uses 0.1% default\n\n    constructor(address _token0, address _token1) FactoryGuard(msg.sender) {\n        futureATime = uint40(block.timestamp);\n        token0 = _token0;\n        token1 = _token1;\n        uint8 decimals0 = IERC20Metadata(_token0).decimals();\n        require(decimals0 <= 18, 'NomiswapStablePair: unsupported token');\n        token0PrecisionMultiplier = uint128(10)**(18 - decimals0);\n        uint8 decimals1 = IERC20Metadata(_token1).decimals();\n        require(decimals1 <= 18, 'NomiswapStablePair: unsupported token');\n        token1PrecisionMultiplier = uint128(10)**(18 - decimals1);\n    }\n\n    function symbol() external view returns (string memory) {\n        return string.concat(\n            symbolPrefix,\n            \"-\",\n            IERC20Metadata(token0).symbol(),\n            \"-\",\n            IERC20Metadata(token1).symbol()\n        );\n    }\n\n    function setSwapFee(uint32 _swapFee) override external onlyFactory {\n        require(_swapFee <= MAX_FEE, 'NomiswapStablePair: FORBIDDEN_FEE');\n        swapFee = _swapFee;\n    }\n\n    function setDevFee(uint128 _devFee) override external onlyFactory {\n        require(_devFee != 0, \"NomiswapStablePair: dev fee 0\");\n        devFee = _devFee;\n    }\n\n    // this low-level function should be called from a contract which performs important safety checks\n    function mint(address to) override external nonReentrant returns (uint liquidity) {\n        (uint112 _reserve0, uint112 _reserve1,) = getReserves(); // gas savings\n        uint balance0 = IERC20(token0).balanceOf(address(this));\n        uint balance1 = IERC20(token1).balanceOf(address(this));\n\n        _mintFee();\n        uint _totalSupply = totalSupply; // gas savings, must be defined here since totalSupply can update in _mintFee\n        uint amount0 = balance0 - _reserve0;\n        uint amount1 = balance1 - _reserve1;\n\n        if (_totalSupply == 0) {\n            uint A = getA();\n            uint dBalance = _computeLiquidity(balance0, balance1, A);\n            liquidity = dBalance - MINIMUM_LIQUIDITY;\n            _mint(address(0), MINIMUM_LIQUIDITY); // permanently lock the first MINIMUM_LIQUIDITY tokens\n        } else {\n            liquidity = MathUtils.min(amount0 * _totalSupply / _reserve0, amount1 * _totalSupply / _reserve1);\n        }\n\n        require(liquidity > 0, 'Nomiswap: INSUFFICIENT_LIQUIDITY_MINTED');\n        _mint(to, liquidity);\n\n        _update(balance0, balance1);\n        emit Mint(msg.sender, amount0, amount1);\n    }\n\n    // this low-level function should be called from a contract which performs important safety checks\n    function burn(address to) override external nonReentrant returns (uint amount0, uint amount1) {\n        address _token0 = token0;                                // gas savings\n        address _token1 = token1;                                // gas savings\n        uint balance0 = IERC20(_token0).balanceOf(address(this));\n        uint balance1 = IERC20(_token1).balanceOf(address(this));\n        uint liquidity = balanceOf[address(this)];\n\n        _mintFee();\n        uint _totalSupply = totalSupply; // gas savings, must be defined here since totalSupply can update in _mintFee\n        amount0 = liquidity * balance0 / _totalSupply; // using balances ensures pro-rata distribution\n        amount1 = liquidity * balance1 / _totalSupply; // using balances ensures pro-rata distribution\n        require(amount0 > 0 && amount1 > 0, 'Nomiswap: INSUFFICIENT_LIQUIDITY_BURNED');\n        _burn(address(this), liquidity);\n        SafeERC20.safeTransfer(IERC20(_token0), to, amount0);\n        SafeERC20.safeTransfer(IERC20(_token1), to, amount1);\n        balance0 = IERC20(_token0).balanceOf(address(this));\n        balance1 = IERC20(_token1).balanceOf(address(this));\n\n        _update(balance0, balance1);\n        emit Burn(msg.sender, amount0, amount1, to);\n    }\n\n    // this low-level function should be called from a contract which performs important safety checks\n    function swap(uint amount0Out, uint amount1Out, address to, bytes calldata data) override external nonReentrant {\n        require(amount0Out > 0 || amount1Out > 0, 'Nomiswap: INSUFFICIENT_OUTPUT_AMOUNT');\n        (uint _reserve0, uint _reserve1,) = getReserves(); // gas savings\n        require(amount0Out < _reserve0 && amount1Out < _reserve1, 'Nomiswap: INSUFFICIENT_LIQUIDITY');\n\n        uint balance0;\n        uint balance1;\n        { // scope for _token{0,1}, avoids stack too deep errors\n            address _token0 = token0;\n            address _token1 = token1;\n            require(to != _token0 && to != _token1, 'Nomiswap: INVALID_TO');\n            if (amount0Out > 0) SafeERC20.safeTransfer(IERC20(_token0), to, amount0Out); // optimistically transfer tokens\n            if (amount1Out > 0) SafeERC20.safeTransfer(IERC20(_token1), to, amount1Out); // optimistically transfer tokens\n            if (data.length > 0) INomiswapCallee(to).nomiswapCall(msg.sender, amount0Out, amount1Out, data);\n            balance0 = IERC20(_token0).balanceOf(address(this));\n            balance1 = IERC20(_token1).balanceOf(address(this));\n        }\n        uint amount0In = balance0 > _reserve0 - amount0Out ? balance0 - (_reserve0 - amount0Out) : 0;\n        uint amount1In = balance1 > _reserve1 - amount1Out ? balance1 - (_reserve1 - amount1Out) : 0;\n        require(amount0In > 0 || amount1In > 0, 'Nomiswap: INSUFFICIENT_INPUT_AMOUNT');\n        { // scope for reserve{0,1}Adjusted, avoids stack too deep errors\n\n            uint256 A = getA();\n            uint _swapFee = swapFee;\n            uint _token0PrecisionMultiplier = token0PrecisionMultiplier;\n            uint _token1PrecisionMultiplier = token1PrecisionMultiplier;\n            uint balance0Adjusted = (balance0 * MAX_FEE - amount0In * _swapFee) * _token0PrecisionMultiplier / MAX_FEE;\n            uint balance1Adjusted = (balance1 * MAX_FEE - amount1In * _swapFee) * _token1PrecisionMultiplier / MAX_FEE;\n            uint256 dBalance = _computeLiquidityFromAdjustedBalances(balance0Adjusted, balance1Adjusted, A);\n\n            uint256 adjustedReserve0 = _reserve0 * _token0PrecisionMultiplier;\n            uint256 adjustedReserve1 = _reserve1 * _token1PrecisionMultiplier;\n            uint256 dReserves = _computeLiquidityFromAdjustedBalances(adjustedReserve0, adjustedReserve1, A);\n\n            require(dBalance >= dReserves, 'Nomiswap: D');\n\n            uint256 dTotal = _computeLiquidity(balance0, balance1, A);\n            uint numerator = totalSupply * (dTotal - dReserves);\n            uint denominator = (dTotal * devFee/Q112) + dReserves;\n            adminFee += uint128(numerator / denominator);\n        }\n\n        _update(balance0, balance1);\n        emit Swap(msg.sender, amount0In, amount1In, amount0Out, amount1Out, to);\n    }\n\n    // force balances to match reserves\n    function skim(address to) override external nonReentrant {\n        address _token0 = token0; // gas savings\n        address _token1 = token1; // gas savings\n        SafeERC20.safeTransfer(IERC20(_token0), to, IERC20(_token0).balanceOf(address(this)) - reserve0);\n        SafeERC20.safeTransfer(IERC20(_token1), to, IERC20(_token1).balanceOf(address(this)) - reserve1);\n    }\n\n    // force reserves to match balances\n    function sync() override external nonReentrant {\n        _update(IERC20(token0).balanceOf(address(this)), IERC20(token1).balanceOf(address(this)));\n    }\n\n    function rampA(uint32 _futureA, uint40 _futureTime) override external nonReentrant onlyFactory {\n        require(block.timestamp >= initialATime + MIN_RAMP_TIME, 'NomiswapStablePair: INVALID_TIME');\n        require(_futureTime >= block.timestamp + MIN_RAMP_TIME, 'NomiswapStablePair: INVALID_FUTURE_TIME');\n\n        uint32 _initialA = uint32(getA());\n        uint32 _futureAP = uint32(_futureA * A_PRECISION);\n\n        require(_futureA > 0 && _futureA < MAX_A);\n\n        if (_futureAP < _initialA) {\n            require(_futureAP * MAX_A_CHANGE >= _initialA);\n        } else {\n            require(_futureAP <= _initialA * MAX_A_CHANGE);\n        }\n\n        initialA = _initialA;\n        futureA = _futureAP;\n        initialATime = uint40(block.timestamp);\n        futureATime = _futureTime;\n\n        emit RampA(_initialA, _futureAP, block.timestamp, _futureTime);\n    }\n\n    function stopRampA() override external nonReentrant onlyFactory {\n        uint32 currentA = uint32(getA());\n\n        initialA = currentA;\n        futureA = currentA;\n        initialATime = uint40(block.timestamp);\n        futureATime = uint40(block.timestamp);\n\n        emit StopRampA(currentA, block.timestamp);\n    }\n\n    function getAmountIn(address tokenIn, uint256 amountOut) external view override returns (uint256 finalAmountIn) {\n        (uint256 _reserve0, uint256 _reserve1, ) = getReserves();\n\n        unchecked {\n            uint256 _token0PrecisionMultiplier = token0PrecisionMultiplier;\n            uint256 _token1PrecisionMultiplier = token1PrecisionMultiplier;\n            uint256 adjustedReserve0 = _reserve0 * _token0PrecisionMultiplier;\n            uint256 adjustedReserve1 = _reserve1 * _token1PrecisionMultiplier;\n            uint256 A = getA();\n            uint256 d = _computeLiquidityFromAdjustedBalances(adjustedReserve0, adjustedReserve1, A);\n\n            if (tokenIn == token0) {\n                uint256 x = adjustedReserve1 - amountOut * _token1PrecisionMultiplier;\n                uint256 y = _getY(x, d, A);\n                uint256 dy = (y - adjustedReserve0).divRoundUp(_token0PrecisionMultiplier);\n                finalAmountIn = (dy * MAX_FEE).divRoundUp(MAX_FEE - swapFee);\n            } else {\n                require(tokenIn == token1, \"INVALID_INPUT_TOKEN\");\n                uint256 x = adjustedReserve0 - amountOut * _token0PrecisionMultiplier;\n                uint256 y = _getY(x, d, A);\n                uint256 dy = (y - adjustedReserve1).divRoundUp(_token1PrecisionMultiplier);\n                finalAmountIn = (dy * MAX_FEE).divRoundUp(MAX_FEE - swapFee);\n            }\n        }\n    }\n\n    function getAmountOut(address tokenIn, uint256 amountIn) external view override returns (uint256 finalAmountOut) {\n        (uint256 _reserve0, uint256 _reserve1, ) = getReserves();\n\n        unchecked {\n            uint256 _token0PrecisionMultiplier = token0PrecisionMultiplier;\n            uint256 _token1PrecisionMultiplier = token1PrecisionMultiplier;\n            uint256 feeDeductedAmountIn = (amountIn * MAX_FEE - amountIn * swapFee) / MAX_FEE;\n            uint256 adjustedReserve0 = _reserve0 * _token0PrecisionMultiplier;\n            uint256 adjustedReserve1 = _reserve1 * _token1PrecisionMultiplier;\n            uint256 A = getA();\n            uint256 d = _computeLiquidityFromAdjustedBalances(adjustedReserve0, adjustedReserve1, A);\n\n            if (tokenIn == token0) {\n                uint256 x = adjustedReserve0 + feeDeductedAmountIn * _token0PrecisionMultiplier;\n                uint256 y = _getY(x, d, A);\n                finalAmountOut = (adjustedReserve1 - y) / _token1PrecisionMultiplier;\n            } else {\n                require(tokenIn == token1, \"INVALID_INPUT_TOKEN\");\n                uint256 x = adjustedReserve1 + feeDeductedAmountIn * _token1PrecisionMultiplier;\n                uint256 y = _getY(x, d, A);\n                finalAmountOut = (adjustedReserve0 - y) / _token0PrecisionMultiplier;\n            }\n        }\n    }\n\n    function getReserves() override public view returns (uint112 _reserve0, uint112 _reserve1, uint32 _blockTimestampLast) {\n        _reserve0 = reserve0;\n        _reserve1 = reserve1;\n        _blockTimestampLast = blockTimestampLast;\n    }\n\n    function factory() override public view returns (address) {\n        return _factory;\n    }\n\n    function getA() override public view returns (uint256) {\n        uint256 t1  = futureATime;\n        uint256 A1  = futureA;\n\n        if (block.timestamp < t1) {\n            uint256 A0 = initialA;\n            uint256 t0 = initialATime;\n            // Expressions in uint32 cannot have negative numbers, thus \"if\"\n            if (A1 > A0) {\n                return A0 + (block.timestamp - t0) * (A1 - A0) / (t1 - t0);\n            } else {\n                return A0 - (block.timestamp - t0) * (A0 - A1) / (t1 - t0);\n            }\n        } else {\n            // when t1 == 0 or block.timestamp >= t1\n            return A1;\n        }\n    }\n\n    function _computeLiquidity(uint256 _reserve0, uint256 _reserve1, uint256 A) private view returns (uint256 liquidity) {\n        unchecked {\n            uint256 adjustedReserve0 = _reserve0 * token0PrecisionMultiplier;\n            uint256 adjustedReserve1 = _reserve1 * token1PrecisionMultiplier;\n            liquidity = _computeLiquidityFromAdjustedBalances(adjustedReserve0, adjustedReserve1, A);\n        }\n    }\n\n    function _update(uint balance0, uint balance1) private {\n        require(balance0 <= type(uint112).max && balance1 <= type(uint112).max, 'Nomiswap: OVERFLOW');\n        uint32 blockTimestamp = uint32(block.timestamp % 2**32);\n        reserve0 = uint112(balance0);\n        reserve1 = uint112(balance1);\n        blockTimestampLast = blockTimestamp;\n        emit Sync(reserve0, reserve1);\n    }\n\n    // if fee is on, mint liquidity equivalent to 1/6th of the growth in sqrt(k)\n    function _mintFee() private {\n        address feeTo = INomiswapFactory(factory()).feeTo();\n        bool feeOn = feeTo != address(0);\n        uint _adminFee = adminFee; // gas savings\n        if (feeOn) {\n            if (_adminFee > 1) {\n                _mint(feeTo, _adminFee - 1);\n                adminFee = 1;\n            }\n        } else if (_adminFee > 1) {\n            adminFee = 1;\n        }\n    }\n\n    function _computeLiquidityFromAdjustedBalances(uint256 xp0, uint256 xp1, uint256 A) private pure returns (uint256 computed) {\n        uint256 s = xp0 + xp1;\n\n        uint256 N_A = A * 4;\n        if (s == 0) {\n            return 0;\n        }\n        uint256 prevD;\n        uint256 D = s;\n        for (uint256 i = 0; i < MAX_LOOP_LIMIT; i++) {\n            uint256 dP = (((D * D) / xp0) * D) / xp1 / 4;\n            prevD = D;\n            D = (((N_A * s) / A_PRECISION + 2 * dP) * D) / ((N_A / A_PRECISION - 1) * D + 3 * dP);\n            if (D.within1(prevD)) {\n                break;\n            }\n        }\n        computed = D;\n    }\n\n    function _getY(uint256 x, uint256 D, uint256 A) private pure returns (uint256 y) {\n        uint256 N_A = A * 4;\n        uint256 c = (D * D) / (x * 2);\n        c = (c * D) / ((N_A * 2) / A_PRECISION);\n        uint256 b = x + ((D * A_PRECISION) / N_A);\n        uint256 yPrev;\n        y = D;\n        // @dev Iterative approximation.\n        for (uint256 i = 0; i < MAX_LOOP_LIMIT; i++) {\n            yPrev = y;\n            uint numerator = y * y + c;\n            uint denominator = y * 2 + b - D;\n            y = numerator.divRoundUp(denominator);\n            if (y.within1(yPrev)) {\n                break;\n            }\n        }\n    }\n\n}\n",
  "sourcePath": "/home/eraserpl/NetBeansProjects/stableswap-contracts/contracts/NomiswapStablePair.sol",
  "compiler": {
    "name": "solc",
    "version": "0.8.15+commit.e14f2714.Emscripten.clang"
  },
  "schemaVersion": "3.4.9",
  "updatedAt": "2022-09-07T11:56:50.111Z",
  "devdoc": {
    "kind": "dev",
    "methods": {
      "symbol()": {
        "details": "Returns the symbol of the token."
      }
    },
    "version": 1
  },
  "userdoc": {
    "kind": "user",
    "methods": {},
    "version": 1
  }
}