{
  "contractName": "NomiswapStablePair",
  "abi": [
    {
      "inputs": [
        {
          "internalType": "address",
          "name": "_token0",
          "type": "address"
        },
        {
          "internalType": "address",
          "name": "_token1",
          "type": "address"
        }
      ],
      "stateMutability": "nonpayable",
      "type": "constructor"
    },
    {
      "anonymous": false,
      "inputs": [
        {
          "indexed": true,
          "internalType": "address",
          "name": "owner",
          "type": "address"
        },
        {
          "indexed": true,
          "internalType": "address",
          "name": "spender",
          "type": "address"
        },
        {
          "indexed": false,
          "internalType": "uint256",
          "name": "value",
          "type": "uint256"
        }
      ],
      "name": "Approval",
      "type": "event"
    },
    {
      "anonymous": false,
      "inputs": [
        {
          "indexed": true,
          "internalType": "address",
          "name": "sender",
          "type": "address"
        },
        {
          "indexed": false,
          "internalType": "uint256",
          "name": "amount0",
          "type": "uint256"
        },
        {
          "indexed": false,
          "internalType": "uint256",
          "name": "amount1",
          "type": "uint256"
        },
        {
          "indexed": true,
          "internalType": "address",
          "name": "to",
          "type": "address"
        }
      ],
      "name": "Burn",
      "type": "event"
    },
    {
      "anonymous": false,
      "inputs": [
        {
          "indexed": true,
          "internalType": "address",
          "name": "sender",
          "type": "address"
        },
        {
          "indexed": false,
          "internalType": "uint256",
          "name": "amount0",
          "type": "uint256"
        },
        {
          "indexed": false,
          "internalType": "uint256",
          "name": "amount1",
          "type": "uint256"
        }
      ],
      "name": "Mint",
      "type": "event"
    },
    {
      "anonymous": false,
      "inputs": [
        {
          "indexed": false,
          "internalType": "uint256",
          "name": "oldA",
          "type": "uint256"
        },
        {
          "indexed": false,
          "internalType": "uint256",
          "name": "newA",
          "type": "uint256"
        },
        {
          "indexed": false,
          "internalType": "uint256",
          "name": "initialTime",
          "type": "uint256"
        },
        {
          "indexed": false,
          "internalType": "uint256",
          "name": "futureTime",
          "type": "uint256"
        }
      ],
      "name": "RampA",
      "type": "event"
    },
    {
      "anonymous": false,
      "inputs": [
        {
          "indexed": false,
          "internalType": "uint256",
          "name": "A",
          "type": "uint256"
        },
        {
          "indexed": false,
          "internalType": "uint256",
          "name": "t",
          "type": "uint256"
        }
      ],
      "name": "StopRampA",
      "type": "event"
    },
    {
      "anonymous": false,
      "inputs": [
        {
          "indexed": true,
          "internalType": "address",
          "name": "sender",
          "type": "address"
        },
        {
          "indexed": false,
          "internalType": "uint256",
          "name": "amount0In",
          "type": "uint256"
        },
        {
          "indexed": false,
          "internalType": "uint256",
          "name": "amount1In",
          "type": "uint256"
        },
        {
          "indexed": false,
          "internalType": "uint256",
          "name": "amount0Out",
          "type": "uint256"
        },
        {
          "indexed": false,
          "internalType": "uint256",
          "name": "amount1Out",
          "type": "uint256"
        },
        {
          "indexed": true,
          "internalType": "address",
          "name": "to",
          "type": "address"
        }
      ],
      "name": "Swap",
      "type": "event"
    },
    {
      "anonymous": false,
      "inputs": [
        {
          "indexed": false,
          "internalType": "uint112",
          "name": "reserve0",
          "type": "uint112"
        },
        {
          "indexed": false,
          "internalType": "uint112",
          "name": "reserve1",
          "type": "uint112"
        }
      ],
      "name": "Sync",
      "type": "event"
    },
    {
      "anonymous": false,
      "inputs": [
        {
          "indexed": true,
          "internalType": "address",
          "name": "from",
          "type": "address"
        },
        {
          "indexed": true,
          "internalType": "address",
          "name": "to",
          "type": "address"
        },
        {
          "indexed": false,
          "internalType": "uint256",
          "name": "value",
          "type": "uint256"
        }
      ],
      "name": "Transfer",
      "type": "event"
    },
    {
      "inputs": [],
      "name": "DOMAIN_SEPARATOR",
      "outputs": [
        {
          "internalType": "bytes32",
          "name": "",
          "type": "bytes32"
        }
      ],
      "stateMutability": "view",
      "type": "function"
    },
    {
      "inputs": [],
      "name": "MINIMUM_LIQUIDITY",
      "outputs": [
        {
          "internalType": "uint256",
          "name": "",
          "type": "uint256"
        }
      ],
      "stateMutability": "view",
      "type": "function"
    },
    {
      "inputs": [],
      "name": "PERMIT_TYPEHASH",
      "outputs": [
        {
          "internalType": "bytes32",
          "name": "",
          "type": "bytes32"
        }
      ],
      "stateMutability": "view",
      "type": "function"
    },
    {
      "inputs": [],
      "name": "adminFee",
      "outputs": [
        {
          "internalType": "uint128",
          "name": "",
          "type": "uint128"
        }
      ],
      "stateMutability": "view",
      "type": "function"
    },
    {
      "inputs": [
        {
          "internalType": "address",
          "name": "",
          "type": "address"
        },
        {
          "internalType": "address",
          "name": "",
          "type": "address"
        }
      ],
      "name": "allowance",
      "outputs": [
        {
          "internalType": "uint256",
          "name": "",
          "type": "uint256"
        }
      ],
      "stateMutability": "view",
      "type": "function"
    },
    {
      "inputs": [
        {
          "internalType": "address",
          "name": "spender",
          "type": "address"
        },
        {
          "internalType": "uint256",
          "name": "value",
          "type": "uint256"
        }
      ],
      "name": "approve",
      "outputs": [
        {
          "internalType": "bool",
          "name": "",
          "type": "bool"
        }
      ],
      "stateMutability": "nonpayable",
      "type": "function"
    },
    {
      "inputs": [
        {
          "internalType": "address",
          "name": "",
          "type": "address"
        }
      ],
      "name": "balanceOf",
      "outputs": [
        {
          "internalType": "uint256",
          "name": "",
          "type": "uint256"
        }
      ],
      "stateMutability": "view",
      "type": "function"
    },
    {
      "inputs": [],
      "name": "decimals",
      "outputs": [
        {
          "internalType": "uint8",
          "name": "",
          "type": "uint8"
        }
      ],
      "stateMutability": "view",
      "type": "function"
    },
    {
      "inputs": [
        {
          "internalType": "address",
          "name": "spender",
          "type": "address"
        },
        {
          "internalType": "uint256",
          "name": "subtractedValue",
          "type": "uint256"
        }
      ],
      "name": "decreaseAllowance",
      "outputs": [
        {
          "internalType": "bool",
          "name": "",
          "type": "bool"
        }
      ],
      "stateMutability": "nonpayable",
      "type": "function"
    },
    {
      "inputs": [],
      "name": "devFee",
      "outputs": [
        {
          "internalType": "uint128",
          "name": "",
          "type": "uint128"
        }
      ],
      "stateMutability": "view",
      "type": "function"
    },
    {
      "inputs": [
        {
          "internalType": "address",
          "name": "spender",
          "type": "address"
        },
        {
          "internalType": "uint256",
          "name": "addedValue",
          "type": "uint256"
        }
      ],
      "name": "increaseAllowance",
      "outputs": [
        {
          "internalType": "bool",
          "name": "",
          "type": "bool"
        }
      ],
      "stateMutability": "nonpayable",
      "type": "function"
    },
    {
      "inputs": [],
      "name": "name",
      "outputs": [
        {
          "internalType": "string",
          "name": "",
          "type": "string"
        }
      ],
      "stateMutability": "view",
      "type": "function"
    },
    {
      "inputs": [
        {
          "internalType": "address",
          "name": "",
          "type": "address"
        }
      ],
      "name": "nonces",
      "outputs": [
        {
          "internalType": "uint256",
          "name": "",
          "type": "uint256"
        }
      ],
      "stateMutability": "view",
      "type": "function"
    },
    {
      "inputs": [
        {
          "internalType": "address",
          "name": "owner",
          "type": "address"
        },
        {
          "internalType": "address",
          "name": "spender",
          "type": "address"
        },
        {
          "internalType": "uint256",
          "name": "value",
          "type": "uint256"
        },
        {
          "internalType": "uint256",
          "name": "deadline",
          "type": "uint256"
        },
        {
          "internalType": "uint8",
          "name": "v",
          "type": "uint8"
        },
        {
          "internalType": "bytes32",
          "name": "r",
          "type": "bytes32"
        },
        {
          "internalType": "bytes32",
          "name": "s",
          "type": "bytes32"
        }
      ],
      "name": "permit",
      "outputs": [],
      "stateMutability": "nonpayable",
      "type": "function"
    },
    {
      "inputs": [],
      "name": "swapFee",
      "outputs": [
        {
          "internalType": "uint32",
          "name": "",
          "type": "uint32"
        }
      ],
      "stateMutability": "view",
      "type": "function"
    },
    {
      "inputs": [],
      "name": "token0",
      "outputs": [
        {
          "internalType": "address",
          "name": "",
          "type": "address"
        }
      ],
      "stateMutability": "view",
      "type": "function"
    },
    {
      "inputs": [],
      "name": "token0PrecisionMultiplier",
      "outputs": [
        {
          "internalType": "uint128",
          "name": "",
          "type": "uint128"
        }
      ],
      "stateMutability": "view",
      "type": "function"
    },
    {
      "inputs": [],
      "name": "token1",
      "outputs": [
        {
          "internalType": "address",
          "name": "",
          "type": "address"
        }
      ],
      "stateMutability": "view",
      "type": "function"
    },
    {
      "inputs": [],
      "name": "token1PrecisionMultiplier",
      "outputs": [
        {
          "internalType": "uint128",
          "name": "",
          "type": "uint128"
        }
      ],
      "stateMutability": "view",
      "type": "function"
    },
    {
      "inputs": [],
      "name": "totalSupply",
      "outputs": [
        {
          "internalType": "uint256",
          "name": "",
          "type": "uint256"
        }
      ],
      "stateMutability": "view",
      "type": "function"
    },
    {
      "inputs": [
        {
          "internalType": "address",
          "name": "to",
          "type": "address"
        },
        {
          "internalType": "uint256",
          "name": "value",
          "type": "uint256"
        }
      ],
      "name": "transfer",
      "outputs": [
        {
          "internalType": "bool",
          "name": "",
          "type": "bool"
        }
      ],
      "stateMutability": "nonpayable",
      "type": "function"
    },
    {
      "inputs": [
        {
          "internalType": "address",
          "name": "from",
          "type": "address"
        },
        {
          "internalType": "address",
          "name": "to",
          "type": "address"
        },
        {
          "internalType": "uint256",
          "name": "value",
          "type": "uint256"
        }
      ],
      "name": "transferFrom",
      "outputs": [
        {
          "internalType": "bool",
          "name": "",
          "type": "bool"
        }
      ],
      "stateMutability": "nonpayable",
      "type": "function"
    },
    {
      "inputs": [],
      "name": "symbol",
      "outputs": [
        {
          "internalType": "string",
          "name": "",
          "type": "string"
        }
      ],
      "stateMutability": "view",
      "type": "function"
    },
    {
      "inputs": [
        {
          "internalType": "uint32",
          "name": "_swapFee",
          "type": "uint32"
        }
      ],
      "name": "setSwapFee",
      "outputs": [],
      "stateMutability": "nonpayable",
      "type": "function"
    },
    {
      "inputs": [
        {
          "internalType": "uint128",
          "name": "_devFee",
          "type": "uint128"
        }
      ],
      "name": "setDevFee",
      "outputs": [],
      "stateMutability": "nonpayable",
      "type": "function"
    },
    {
      "inputs": [
        {
          "internalType": "address",
          "name": "to",
          "type": "address"
        }
      ],
      "name": "mint",
      "outputs": [
        {
          "internalType": "uint256",
          "name": "liquidity",
          "type": "uint256"
        }
      ],
      "stateMutability": "nonpayable",
      "type": "function"
    },
    {
      "inputs": [
        {
          "internalType": "address",
          "name": "to",
          "type": "address"
        }
      ],
      "name": "burn",
      "outputs": [
        {
          "internalType": "uint256",
          "name": "amount0",
          "type": "uint256"
        },
        {
          "internalType": "uint256",
          "name": "amount1",
          "type": "uint256"
        }
      ],
      "stateMutability": "nonpayable",
      "type": "function"
    },
    {
      "inputs": [
        {
          "internalType": "uint256",
          "name": "amount0Out",
          "type": "uint256"
        },
        {
          "internalType": "uint256",
          "name": "amount1Out",
          "type": "uint256"
        },
        {
          "internalType": "address",
          "name": "to",
          "type": "address"
        },
        {
          "internalType": "bytes",
          "name": "data",
          "type": "bytes"
        }
      ],
      "name": "swap",
      "outputs": [],
      "stateMutability": "nonpayable",
      "type": "function"
    },
    {
      "inputs": [
        {
          "internalType": "address",
          "name": "to",
          "type": "address"
        }
      ],
      "name": "skim",
      "outputs": [],
      "stateMutability": "nonpayable",
      "type": "function"
    },
    {
      "inputs": [],
      "name": "sync",
      "outputs": [],
      "stateMutability": "nonpayable",
      "type": "function"
    },
    {
      "inputs": [
        {
          "internalType": "uint32",
          "name": "_futureA",
          "type": "uint32"
        },
        {
          "internalType": "uint40",
          "name": "_futureTime",
          "type": "uint40"
        }
      ],
      "name": "rampA",
      "outputs": [],
      "stateMutability": "nonpayable",
      "type": "function"
    },
    {
      "inputs": [],
      "name": "stopRampA",
      "outputs": [],
      "stateMutability": "nonpayable",
      "type": "function"
    },
    {
      "inputs": [
        {
          "internalType": "address",
          "name": "tokenIn",
          "type": "address"
        },
        {
          "internalType": "uint256",
          "name": "amountOut",
          "type": "uint256"
        }
      ],
      "name": "getAmountIn",
      "outputs": [
        {
          "internalType": "uint256",
          "name": "finalAmountIn",
          "type": "uint256"
        }
      ],
      "stateMutability": "view",
      "type": "function"
    },
    {
      "inputs": [
        {
          "internalType": "address",
          "name": "tokenIn",
          "type": "address"
        },
        {
          "internalType": "uint256",
          "name": "amountIn",
          "type": "uint256"
        }
      ],
      "name": "getAmountOut",
      "outputs": [
        {
          "internalType": "uint256",
          "name": "finalAmountOut",
          "type": "uint256"
        }
      ],
      "stateMutability": "view",
      "type": "function"
    },
    {
      "inputs": [],
      "name": "getReserves",
      "outputs": [
        {
          "internalType": "uint112",
          "name": "_reserve0",
          "type": "uint112"
        },
        {
          "internalType": "uint112",
          "name": "_reserve1",
          "type": "uint112"
        },
        {
          "internalType": "uint32",
          "name": "_blockTimestampLast",
          "type": "uint32"
        }
      ],
      "stateMutability": "view",
      "type": "function"
    },
    {
      "inputs": [],
      "name": "factory",
      "outputs": [
        {
          "internalType": "address",
          "name": "",
          "type": "address"
        }
      ],
      "stateMutability": "view",
      "type": "function"
    },
    {
      "inputs": [],
      "name": "getA",
      "outputs": [
        {
          "internalType": "uint256",
          "name": "",
          "type": "uint256"
        }
      ],
      "stateMutability": "view",
      "type": "function"
    }
  ],
  "bytecode": "0x60c0604052600880546001600160801b031916600117905560076200002a600160701b600362000459565b6200003691906200047b565b600880546001600160801b03928316600160801b029216919091179055620000616064605562000459565b600a805463ffffffff191663ffffffff92909216919091179055620000896064605562000459565b600a805463ffffffff60201b63ffffffff60901b01191664010000000063ffffffff939093169290920263ffffffff60901b191691909117601960921b179055348015620000d657600080fd5b5060405162004a0e38038062004a0e833981016040819052620000f991620004bb565b604080518082018252601381527f4e6f6d697377617020737461626c65204c5073000000000000000000000000006020918201528151808301835260018152603160f81b9082015281517f8b73c3c69bb8fe3d512ecc4cf759cc79239f7b179b0ffacaa9a75d522b39400f918101919091527f22155260db1abf6474eb894108f4b66f54f6b4a9c481b6e3e789468ed505cc97918101919091527fc89efdaa54c0f20c7adf612882df0950f5a951637e0307cdcb4c672f298b8bc6606082015246608082018190523060a0830152339160c00160408051808303601f190181528282528051602091820120608052600160049081556001600160a01b0395861660a052600a805464ffffffffff60681b19166d01000000000000000000000000004264ffffffffff1602179055600580546001600160a01b03199081168a8916908117909255600680549091169789169790971790965563313ce56760e01b84529151600095945063313ce5679383810193908290030181865afa15801562000286573d6000803e3d6000fd5b505050506040513d601f19601f82011682018060405250810190620002ac9190620004f3565b905060128160ff161115620003055760405162461bcd60e51b81526020600482015260256024820152600080516020620049ee8339815191526044820152643a37b5b2b760d91b60648201526084015b60405180910390fd5b620003128160126200051f565b6200031f90600a62000685565b600960006101000a8154816001600160801b0302191690836001600160801b031602179055506000826001600160a01b031663313ce5676040518163ffffffff1660e01b8152600401602060405180830381865afa15801562000386573d6000803e3d6000fd5b505050506040513d601f19601f82011682018060405250810190620003ac9190620004f3565b905060128160ff161115620004015760405162461bcd60e51b81526020600482015260256024820152600080516020620049ee8339815191526044820152643a37b5b2b760d91b6064820152608401620002fc565b6200040e8160126200051f565b6200041b90600a62000685565b600980546001600160801b03928316600160801b029216919091179055506200069f92505050565b634e487b7160e01b600052601160045260246000fd5b600081600019048311821515161562000476576200047662000443565b500290565b6000826200049957634e487b7160e01b600052601260045260246000fd5b500490565b80516001600160a01b0381168114620004b657600080fd5b919050565b60008060408385031215620004cf57600080fd5b620004da836200049e565b9150620004ea602084016200049e565b90509250929050565b6000602082840312156200050657600080fd5b815160ff811681146200051857600080fd5b9392505050565b600060ff821660ff8416808210156200053c576200053c62000443565b90039392505050565b600181815b808511156200058c576001600160801b0382900482111562000570576200057062000443565b808516156200057e57918102915b93841c93908002906200054a565b509250929050565b600082620005a5575060016200067f565b81620005b4575060006200067f565b8160018114620005cd5760028114620005d85762000613565b60019150506200067f565b60ff841115620005ec57620005ec62000443565b6001841b91506001600160801b038211156200060c576200060c62000443565b506200067f565b5060208310610133831016604e8410600b841016171562000652575081810a6001600160801b038111156200064c576200064c62000443565b6200067f565b6200065e838362000545565b6001600160801b038190048211156200067b576200067b62000443565b0290505b92915050565b60006200051860ff84166001600160801b03841662000594565b60805160a0516142ff620006ef6000396000818161064a01528181610fce015281816118cd0152818161256901528181612ceb015261361b0152600081816104340152612a6001526142ff6000f3fe608060405234801561001057600080fd5b50600436106102775760003560e01c806373c48bb511610160578063bc25cf77116100d8578063d46300fd1161008c578063d6d788c311610071578063d6d788c3146106c4578063dd62ed3e146106d7578063fff6cae91461070257600080fd5b8063d46300fd146106a9578063d505accf146106b157600080fd5b8063c4db7fa0116100bd578063c4db7fa01461066e578063ca706bcf14610676578063d21220a71461068957600080fd5b8063bc25cf7714610635578063c45a01551461064857600080fd5b8063a0be06f91161012f578063a9059cbb11610114578063a9059cbb146105fd578063ba9a7a5614610610578063baa8c7cb1461061957600080fd5b8063a0be06f9146105ce578063a457c2d7146105ea57600080fd5b806373c48bb51461056b5780637ecebe001461057e57806389afcb441461059e57806395d89b41146105c657600080fd5b8063313ce567116101f357806354cf2aeb116101c25780636827e764116101a75780636827e764146105085780636a6278421461053857806370a082311461054b57600080fd5b806354cf2aeb146104ba578063632db21c146104f557600080fd5b8063313ce567146104155780633644e5151461042f57806339509351146104565780634e25dc471461046957600080fd5b80630dfe16811161024a57806318160ddd1161022f57806318160ddd146103c457806323b872dd146103db57806330adf81f146103ee57600080fd5b80630dfe16811461036c578063111f8ef3146103b157600080fd5b8063022c0d9f1461027c57806306fdde03146102915780630902f1ac146102e3578063095ea7b314610349575b600080fd5b61028f61028a366004613c2d565b61070a565b005b6102cd6040518060400160405280601381526020017f4e6f6d697377617020737461626c65204c50730000000000000000000000000081525081565b6040516102da9190613cf3565b60405180910390f35b600754604080516dffffffffffffffffffffffffffff80841682526e01000000000000000000000000000084041660208201527c010000000000000000000000000000000000000000000000000000000090920463ffffffff16908201526060016102da565b61035c610357366004613d44565b610f9f565b60405190151581526020016102da565b60055461038c9073ffffffffffffffffffffffffffffffffffffffff1681565b60405173ffffffffffffffffffffffffffffffffffffffff90911681526020016102da565b61028f6103bf366004613d70565b610fb6565b6103cd60005481565b6040519081526020016102da565b61035c6103e9366004613da2565b611106565b6103cd7f6e71edae12b1b97f4d1f60370fef10105fa2faae0126114a169c64845d6126c981565b61041d601281565b60405160ff90911681526020016102da565b6103cd7f000000000000000000000000000000000000000000000000000000000000000081565b61035c610464366004613d44565b6111e1565b6009546104999070010000000000000000000000000000000090046fffffffffffffffffffffffffffffffff1681565b6040516fffffffffffffffffffffffffffffffff90911681526020016102da565b600a546104e0907201000000000000000000000000000000000000900463ffffffff1681565b60405163ffffffff90911681526020016102da565b6103cd610503366004613d44565b61122a565b6008546104999070010000000000000000000000000000000090046fffffffffffffffffffffffffffffffff1681565b6103cd610546366004613de3565b61146d565b6103cd610559366004613de3565b60016020526000908152604090205481565b61028f610579366004613e19565b611844565b6103cd61058c366004613de3565b60036020526000908152604090205481565b6105b16105ac366004613de3565b611c38565b604080519283526020830191909152016102da565b6102cd61207a565b600854610499906fffffffffffffffffffffffffffffffff1681565b61035c6105f8366004613d44565b61223c565b61035c61060b366004613d44565b61230c565b6103cd6103e881565b600954610499906fffffffffffffffffffffffffffffffff1681565b61028f610643366004613de3565b612319565b7f000000000000000000000000000000000000000000000000000000000000000061038c565b61028f6124e0565b6103cd610684366004613d44565b6126ed565b60065461038c9073ffffffffffffffffffffffffffffffffffffffff1681565b6103cd6128f1565b61028f6106bf366004613e5a565b6129cd565b61028f6106d2366004613ed1565b612cd3565b6103cd6106e5366004613eec565b600260209081526000928352604080842090915290825290205481565b61028f612e58565b60026004540361077b576040517f08c379a000000000000000000000000000000000000000000000000000000000815260206004820152601f60248201527f5265656e7472616e637947756172643a207265656e7472616e742063616c6c0060448201526064015b60405180910390fd5b60026004558415158061078e5750600084115b610819576040517f08c379a0000000000000000000000000000000000000000000000000000000008152602060048201526024808201527f4e6f6d69737761703a20494e53554646494349454e545f4f55545055545f414d60448201527f4f554e54000000000000000000000000000000000000000000000000000000006064820152608401610772565b6000806108756007546dffffffffffffffffffffffffffff808216926e01000000000000000000000000000083049091169163ffffffff7c01000000000000000000000000000000000000000000000000000000009091041690565b506dffffffffffffffffffffffffffff1691506dffffffffffffffffffffffffffff16915081871080156108a857508086105b61090e576040517f08c379a000000000000000000000000000000000000000000000000000000000815260206004820181905260248201527f4e6f6d69737761703a20494e53554646494349454e545f4c49515549444954596044820152606401610772565b600554600654600091829173ffffffffffffffffffffffffffffffffffffffff91821691908116908916821480159061097357508073ffffffffffffffffffffffffffffffffffffffff168973ffffffffffffffffffffffffffffffffffffffff1614155b6109d9576040517f08c379a000000000000000000000000000000000000000000000000000000000815260206004820152601460248201527f4e6f6d69737761703a20494e56414c49445f544f0000000000000000000000006044820152606401610772565b8a156109ea576109ea828a8d613001565b89156109fb576109fb818a8c613001565b8615610a8e576040517f2210968200000000000000000000000000000000000000000000000000000000815273ffffffffffffffffffffffffffffffffffffffff8a1690632210968290610a5b9033908f908f908e908e90600401613f1a565b600060405180830381600087803b158015610a7557600080fd5b505af1158015610a89573d6000803e3d6000fd5b505050505b6040517f70a0823100000000000000000000000000000000000000000000000000000000815230600482015273ffffffffffffffffffffffffffffffffffffffff8316906370a0823190602401602060405180830381865afa158015610af8573d6000803e3d6000fd5b505050506040513d601f19601f82011682018060405250810190610b1c9190613f92565b6040517f70a0823100000000000000000000000000000000000000000000000000000000815230600482015290945073ffffffffffffffffffffffffffffffffffffffff8216906370a0823190602401602060405180830381865afa158015610b89573d6000803e3d6000fd5b505050506040513d601f19601f82011682018060405250810190610bad9190613f92565b9250505060008985610bbf9190613fda565b8311610bcc576000610be0565b610bd68a86613fda565b610be09084613fda565b90506000610bee8a86613fda565b8311610bfb576000610c0f565b610c058a86613fda565b610c0f9084613fda565b90506000821180610c205750600081115b610cac576040517f08c379a000000000000000000000000000000000000000000000000000000000815260206004820152602360248201527f4e6f6d69737761703a20494e53554646494349454e545f494e5055545f414d4f60448201527f554e5400000000000000000000000000000000000000000000000000000000006064820152608401610772565b6000610cb66128f1565b600a546009549192507201000000000000000000000000000000000000900463ffffffff16906fffffffffffffffffffffffffffffffff808216917001000000000000000000000000000000009004166000620186a083610d17868a613ff1565b610d24620186a08d613ff1565b610d2e9190613fda565b610d389190613ff1565b610d42919061405d565b90506000620186a083610d55878a613ff1565b610d62620186a08d613ff1565b610d6c9190613fda565b610d769190613ff1565b610d80919061405d565b90506000610d8f838389613093565b90506000610d9d868f613ff1565b90506000610dab868f613ff1565b90506000610dba83838c613093565b905080841015610e26576040517f08c379a000000000000000000000000000000000000000000000000000000000815260206004820152600b60248201527f4e6f6d69737761703a20440000000000000000000000000000000000000000006044820152606401610772565b6000610e338f8f8d6131c0565b90506000610e418383613fda565b600054610e4e9190613ff1565b60085490915060009084906e01000000000000000000000000000090610e9a9070010000000000000000000000000000000090046fffffffffffffffffffffffffffffffff1686613ff1565b610ea4919061405d565b610eae9190614071565b9050610eba818361405d565b60088054600090610ede9084906fffffffffffffffffffffffffffffffff16614089565b92506101000a8154816fffffffffffffffffffffffffffffffff02191690836fffffffffffffffffffffffffffffffff16021790555050505050505050505050505050610f2b8484613209565b60408051838152602081018390529081018c9052606081018b905273ffffffffffffffffffffffffffffffffffffffff8a169033907fd78ad95fa46c994b6551d0da85fc275fe613ce37657fb8d5e3d130840159d8229060800160405180910390a350506001600455505050505050505050565b6000610fac33848461339c565b5060015b92915050565b3373ffffffffffffffffffffffffffffffffffffffff7f00000000000000000000000000000000000000000000000000000000000000001614611055576040517f08c379a000000000000000000000000000000000000000000000000000000000815260206004820152601360248201527f4e6f6d69737761703a20464f5242494444454e000000000000000000000000006044820152606401610772565b806fffffffffffffffffffffffffffffffff166000036110d1576040517f08c379a000000000000000000000000000000000000000000000000000000000815260206004820152601d60248201527f4e6f6d6973776170537461626c65506169723a206465762066656520300000006044820152606401610772565b600880546fffffffffffffffffffffffffffffffff928316700100000000000000000000000000000000029216919091179055565b73ffffffffffffffffffffffffffffffffffffffff831660009081526002602090815260408083203384529091528120547fffffffffffffffffffffffffffffffffffffffffffffffffffffffffffffffff146111cb5773ffffffffffffffffffffffffffffffffffffffff84166000908152600260209081526040808320338452909152902054611199908390613fda565b73ffffffffffffffffffffffffffffffffffffffff851660009081526002602090815260408083203384529091529020555b6111d684848461340b565b5060015b9392505050565b33600081815260026020908152604080832073ffffffffffffffffffffffffffffffffffffffff871684529091528120549091610fac918590611225908690614071565b61339c565b60008060006112886007546dffffffffffffffffffffffffffff808216926e01000000000000000000000000000083049091169163ffffffff7c01000000000000000000000000000000000000000000000000000000009091041690565b506009546dffffffffffffffffffffffffffff9283169450911691506fffffffffffffffffffffffffffffffff8082169170010000000000000000000000000000000090041681840281840260006112de6128f1565b905060006112ed848484613093565b60055490915073ffffffffffffffffffffffffffffffffffffffff908116908c160361137957898502830360006113258284866134da565b905060006113358783038a6135f4565b600a5490915061136f90620186a08084029163ffffffff72010000000000000000000000000000000000009091048116909103906135f416565b9b5050505061145f565b60065473ffffffffffffffffffffffffffffffffffffffff8c81169116146113fd576040517f08c379a000000000000000000000000000000000000000000000000000000000815260206004820152601360248201527f494e56414c49445f494e5055545f544f4b454e000000000000000000000000006044820152606401610772565b8986028403600061140f8284866134da565b9050600061141f868303896135f4565b600a5490915061145990620186a08084029163ffffffff72010000000000000000000000000000000000009091048116909103906135f416565b9b505050505b505050505050505092915050565b60006002600454036114db576040517f08c379a000000000000000000000000000000000000000000000000000000000815260206004820152601f60248201527f5265656e7472616e637947756172643a207265656e7472616e742063616c6c006044820152606401610772565b600260045560008061153c6007546dffffffffffffffffffffffffffff808216926e01000000000000000000000000000083049091169163ffffffff7c01000000000000000000000000000000000000000000000000000000009091041690565b506005546040517f70a0823100000000000000000000000000000000000000000000000000000000815230600482015292945090925060009173ffffffffffffffffffffffffffffffffffffffff909116906370a0823190602401602060405180830381865afa1580156115b4573d6000803e3d6000fd5b505050506040513d601f19601f820116820180604052508101906115d89190613f92565b6006546040517f70a0823100000000000000000000000000000000000000000000000000000000815230600482015291925060009173ffffffffffffffffffffffffffffffffffffffff909116906370a0823190602401602060405180830381865afa15801561164c573d6000803e3d6000fd5b505050506040513d601f19601f820116820180604052508101906116709190613f92565b905061167a613617565b60008054906116996dffffffffffffffffffffffffffff871685613fda565b905060006116b76dffffffffffffffffffffffffffff871685613fda565b9050826000036116fe5760006116cb6128f1565b905060006116da8787846131c0565b90506116e86103e882613fda565b99506116f760006103e8613766565b5050611753565b6117506dffffffffffffffffffffffffffff881661171c8585613ff1565b611726919061405d565b6dffffffffffffffffffffffffffff88166117418685613ff1565b61174b919061405d565b613811565b97505b600088116117e3576040517f08c379a000000000000000000000000000000000000000000000000000000000815260206004820152602760248201527f4e6f6d69737761703a20494e53554646494349454e545f4c495155494449545960448201527f5f4d494e544544000000000000000000000000000000000000000000000000006064820152608401610772565b6117ed8989613766565b6117f78585613209565b604080518381526020810183905233917f4c209b5fc8ad50758f13e2e1088ba56a560dff690a1c6fef26394f4c03821c4f910160405180910390a250506001600455509395945050505050565b6002600454036118b0576040517f08c379a000000000000000000000000000000000000000000000000000000000815260206004820152601f60248201527f5265656e7472616e637947756172643a207265656e7472616e742063616c6c006044820152606401610772565b60026004553373ffffffffffffffffffffffffffffffffffffffff7f00000000000000000000000000000000000000000000000000000000000000001614611954576040517f08c379a000000000000000000000000000000000000000000000000000000000815260206004820152601360248201527f4e6f6d69737761703a20464f5242494444454e000000000000000000000000006044820152606401610772565b600a5461197890620151809068010000000000000000900464ffffffffff16614071565b4210156119e1576040517f08c379a000000000000000000000000000000000000000000000000000000000815260206004820181905260248201527f4e6f6d6973776170537461626c65506169723a20494e56414c49445f54494d456044820152606401610772565b6119ee6201518042614071565b8164ffffffffff161015611a84576040517f08c379a000000000000000000000000000000000000000000000000000000000815260206004820152602760248201527f4e6f6d6973776170537461626c65506169723a20494e56414c49445f4655545560448201527f52455f54494d45000000000000000000000000000000000000000000000000006064820152608401610772565b6000611a8e6128f1565b90506000611aa3606463ffffffff8616613ff1565b905060008463ffffffff16118015611ac35750620f42408463ffffffff16105b611acc57600080fd5b8163ffffffff168163ffffffff161015611b0a578163ffffffff1660648263ffffffff16611afa9190613ff1565b1015611b0557600080fd5b611b2d565b611b1b606463ffffffff8416613ff1565b8163ffffffff161115611b2d57600080fd5b600a805463ffffffff8481167fffffffffffffffffffffffffffffffffffffffffffffffff00000000000000009092168217640100000000918516918202177fffffffffffffffffffffffffffff00000000000000000000ffffffffffffffff16680100000000000000004264ffffffffff818116929092027fffffffffffffffffffffffffffff0000000000ffffffffffffffffffffffffff16929092176d0100000000000000000000000000918916918202179094556040805193845260208401929092529082015260608101919091527fa2b71ec6df949300b59aab36b55e189697b750119dd349fcfa8c0f779e83c2549060800160405180910390a1505060016004555050565b600080600260045403611ca7576040517f08c379a000000000000000000000000000000000000000000000000000000000815260206004820152601f60248201527f5265656e7472616e637947756172643a207265656e7472616e742063616c6c006044820152606401610772565b600260049081556005546006546040517f70a08231000000000000000000000000000000000000000000000000000000008152309381019390935273ffffffffffffffffffffffffffffffffffffffff9182169291169060009083906370a0823190602401602060405180830381865afa158015611d29573d6000803e3d6000fd5b505050506040513d601f19601f82011682018060405250810190611d4d9190613f92565b6040517f70a0823100000000000000000000000000000000000000000000000000000000815230600482015290915060009073ffffffffffffffffffffffffffffffffffffffff8416906370a0823190602401602060405180830381865afa158015611dbd573d6000803e3d6000fd5b505050506040513d601f19601f82011682018060405250810190611de19190613f92565b30600090815260016020526040902054909150611dfc613617565b60005480611e0a8584613ff1565b611e14919061405d565b975080611e218484613ff1565b611e2b919061405d565b9650600088118015611e3d5750600087115b611ec9576040517f08c379a000000000000000000000000000000000000000000000000000000000815260206004820152602760248201527f4e6f6d69737761703a20494e53554646494349454e545f4c495155494449545960448201527f5f4255524e4544000000000000000000000000000000000000000000000000006064820152608401610772565b611ed33083613827565b611ede868a8a613001565b611ee9858a89613001565b6040517f70a0823100000000000000000000000000000000000000000000000000000000815230600482015273ffffffffffffffffffffffffffffffffffffffff8716906370a0823190602401602060405180830381865afa158015611f53573d6000803e3d6000fd5b505050506040513d601f19601f82011682018060405250810190611f779190613f92565b6040517f70a0823100000000000000000000000000000000000000000000000000000000815230600482015290945073ffffffffffffffffffffffffffffffffffffffff8616906370a0823190602401602060405180830381865afa158015611fe4573d6000803e3d6000fd5b505050506040513d601f19601f820116820180604052508101906120089190613f92565b92506120148484613209565b604080518981526020810189905273ffffffffffffffffffffffffffffffffffffffff8b169133917fdccd412f0b1252819cb1fd330b93224ca42612892bb3f4f789976e6d81936496910160405180910390a35050505050506001600481905550915091565b604080518082018252600781527f4e4d582d534c5000000000000000000000000000000000000000000000000000602082015260055482517f95d89b41000000000000000000000000000000000000000000000000000000008152925160609373ffffffffffffffffffffffffffffffffffffffff909216916395d89b419160048083019260009291908290030181865afa15801561211d573d6000803e3d6000fd5b505050506040513d6000823e601f3d9081017fffffffffffffffffffffffffffffffffffffffffffffffffffffffffffffffe016820160405261216391908101906140ec565b600660009054906101000a900473ffffffffffffffffffffffffffffffffffffffff1673ffffffffffffffffffffffffffffffffffffffff166395d89b416040518163ffffffff1660e01b8152600401600060405180830381865afa1580156121d0573d6000803e3d6000fd5b505050506040513d6000823e601f3d9081017fffffffffffffffffffffffffffffffffffffffffffffffffffffffffffffffe016820160405261221691908101906140ec565b604051602001612228939291906141ac565b604051602081830303815290604052905090565b33600090815260026020908152604080832073ffffffffffffffffffffffffffffffffffffffff86168452909152812054828110156122fd576040517f08c379a000000000000000000000000000000000000000000000000000000000815260206004820152603360248201527f4e6f6d6973776170537461626c6545524332303a20646563726561736564206160448201527f6c6c6f77616e63652062656c6f77207a65726f000000000000000000000000006064820152608401610772565b6111d633856112258685613fda565b6000610fac33848461340b565b600260045403612385576040517f08c379a000000000000000000000000000000000000000000000000000000000815260206004820152601f60248201527f5265656e7472616e637947756172643a207265656e7472616e742063616c6c006044820152606401610772565b600260049081556005546006546007546040517f70a08231000000000000000000000000000000000000000000000000000000008152309481019490945273ffffffffffffffffffffffffffffffffffffffff92831693929091169161245691849186916dffffffffffffffffffffffffffff169083906370a08231906024015b602060405180830381865afa158015612423573d6000803e3d6000fd5b505050506040513d601f19601f820116820180604052508101906124479190613f92565b6124519190613fda565b613001565b6007546040517f70a082310000000000000000000000000000000000000000000000000000000081523060048201526124d691839186916e01000000000000000000000000000090046dffffffffffffffffffffffffffff169073ffffffffffffffffffffffffffffffffffffffff8416906370a0823190602401612406565b5050600160045550565b60026004540361254c576040517f08c379a000000000000000000000000000000000000000000000000000000000815260206004820152601f60248201527f5265656e7472616e637947756172643a207265656e7472616e742063616c6c006044820152606401610772565b60026004553373ffffffffffffffffffffffffffffffffffffffff7f000000000000000000000000000000000000000000000000000000000000000016146125f0576040517f08c379a000000000000000000000000000000000000000000000000000000000815260206004820152601360248201527f4e6f6d69737761703a20464f5242494444454e000000000000000000000000006044820152606401610772565b60006125fa6128f1565b600a80547fffffffffffffffffffffffffffffffffffffffffffffffff00000000000000001663ffffffff83169081176401000000008202177fffffffffffffffffffffffffffff00000000000000000000ffffffffffffffff16680100000000000000004264ffffffffff81169182027fffffffffffffffffffffffffffff0000000000ffffffffffffffffffffffffff16929092176d010000000000000000000000000091909102179092556040805191825260208201929092529192507f46e22fb3709ad289f62ce63d469248536dbc78d82b84a3d7e74ad606dc201938910160405180910390a1506001600455565b600080600061274b6007546dffffffffffffffffffffffffffff808216926e01000000000000000000000000000083049091169163ffffffff7c01000000000000000000000000000000000000000000000000000000009091041690565b50600954600a546dffffffffffffffffffffffffffff93841695509190921692506fffffffffffffffffffffffffffffffff8083169270010000000000000000000000000000000090041690620186a0720100000000000000000000000000000000000090910463ffffffff168702878202030482850282850260006127cf6128f1565b905060006127de848484613093565b60055490915073ffffffffffffffffffffffffffffffffffffffff908116908d160361283357848702840160006128168284866134da565b905087818603816128295761282961402e565b049b5050506128e2565b60065473ffffffffffffffffffffffffffffffffffffffff8d81169116146128b7576040517f08c379a000000000000000000000000000000000000000000000000000000000815260206004820152601360248201527f494e56414c49445f494e5055545f544f4b454e000000000000000000000000006044820152606401610772565b848602830160006128c98284866134da565b905088818703816128dc576128dc61402e565b049b5050505b50505050505050505092915050565b600a546000906d0100000000000000000000000000810464ffffffffff1690640100000000900463ffffffff1642821115610fb057600a5463ffffffff81169068010000000000000000900464ffffffffff1681831115612991576129568185613fda565b6129608385613fda565b61296a8342613fda565b6129749190613ff1565b61297e919061405d565b6129889083614071565b94505050505090565b61299b8185613fda565b6129a58484613fda565b6129af8342613fda565b6129b99190613ff1565b6129c3919061405d565b6129889083613fda565b42841015612a37576040517f08c379a000000000000000000000000000000000000000000000000000000000815260206004820152601160248201527f4e6f6d69737761703a20455850495245440000000000000000000000000000006044820152606401610772565b73ffffffffffffffffffffffffffffffffffffffff8716600090815260036020526040812080547f0000000000000000000000000000000000000000000000000000000000000000917f6e71edae12b1b97f4d1f60370fef10105fa2faae0126114a169c64845d6126c9918b918b918b9187612ab283614222565b9091555060408051602081019690965273ffffffffffffffffffffffffffffffffffffffff94851690860152929091166060840152608083015260a082015260c0810187905260e00160405160208183030381529060405280519060200120604051602001612b539291907f190100000000000000000000000000000000000000000000000000000000000081526002810192909252602282015260420190565b604080517fffffffffffffffffffffffffffffffffffffffffffffffffffffffffffffffe08184030181528282528051602091820120600080855291840180845281905260ff88169284019290925260608301869052608083018590529092509060019060a0016020604051602081039080840390855afa158015612bdc573d6000803e3d6000fd5b50506040517fffffffffffffffffffffffffffffffffffffffffffffffffffffffffffffffe0015191505073ffffffffffffffffffffffffffffffffffffffff811615801590612c5757508873ffffffffffffffffffffffffffffffffffffffff168173ffffffffffffffffffffffffffffffffffffffff16145b612cbd576040517f08c379a000000000000000000000000000000000000000000000000000000000815260206004820152601b60248201527f4e6f6d69737761703a20494e56414c49445f5349474e415455524500000000006044820152606401610772565b612cc889898961339c565b505050505050505050565b3373ffffffffffffffffffffffffffffffffffffffff7f00000000000000000000000000000000000000000000000000000000000000001614612d72576040517f08c379a000000000000000000000000000000000000000000000000000000000815260206004820152601360248201527f4e6f6d69737761703a20464f5242494444454e000000000000000000000000006044820152606401610772565b620186a08163ffffffff161115612e0b576040517f08c379a000000000000000000000000000000000000000000000000000000000815260206004820152602160248201527f4e6f6d6973776170537461626c65506169723a20464f5242494444454e5f464560448201527f45000000000000000000000000000000000000000000000000000000000000006064820152608401610772565b600a805463ffffffff9092167201000000000000000000000000000000000000027fffffffffffffffffffff00000000ffffffffffffffffffffffffffffffffffff909216919091179055565b600260045403612ec4576040517f08c379a000000000000000000000000000000000000000000000000000000000815260206004820152601f60248201527f5265656e7472616e637947756172643a207265656e7472616e742063616c6c006044820152606401610772565b600260049081556005546040517f70a082310000000000000000000000000000000000000000000000000000000081523092810192909252612ffa9173ffffffffffffffffffffffffffffffffffffffff909116906370a0823190602401602060405180830381865afa158015612f3f573d6000803e3d6000fd5b505050506040513d601f19601f82011682018060405250810190612f639190613f92565b6006546040517f70a0823100000000000000000000000000000000000000000000000000000000815230600482015273ffffffffffffffffffffffffffffffffffffffff909116906370a0823190602401602060405180830381865afa158015612fd1573d6000803e3d6000fd5b505050506040513d601f19601f82011682018060405250810190612ff59190613f92565b613209565b6001600455565b6040805173ffffffffffffffffffffffffffffffffffffffff8416602482015260448082018490528251808303909101815260649091019091526020810180517bffffffffffffffffffffffffffffffffffffffffffffffffffffffff167fa9059cbb0000000000000000000000000000000000000000000000000000000017905261308e9084906138da565b505050565b6000806130a08486614071565b905060006130af846004613ff1565b9050816000036130c4576000925050506111da565b600082815b6101008110156131b4576000600489848c6130e48280613ff1565b6130ee919061405d565b6130f89190613ff1565b613102919061405d565b61310c919061405d565b905082935080600361311e9190613ff1565b83600161312c60648961405d565b6131369190613fda565b6131409190613ff1565b61314a9190614071565b83613156836002613ff1565b60646131628a8a613ff1565b61316c919061405d565b6131769190614071565b6131809190613ff1565b61318a919061405d565b925061319683856139e6565b156131a157506131b4565b50806131ac81614222565b9150506130c9565b50979650505050505050565b6009546000906fffffffffffffffffffffffffffffffff80821686029170010000000000000000000000000000000090041684026131ff828286613093565b9695505050505050565b6dffffffffffffffffffffffffffff821180159061323557506dffffffffffffffffffffffffffff8111155b61329b576040517f08c379a000000000000000000000000000000000000000000000000000000000815260206004820152601260248201527f4e6f6d69737761703a204f564552464c4f5700000000000000000000000000006044820152606401610772565b60006132ac6401000000004261425a565b6007805463ffffffff83167c0100000000000000000000000000000000000000000000000000000000027bffffffffffffffffffffffffffffffffffffffffffffffffffffffff6dffffffffffffffffffffffffffff8781166e0100000000000000000000000000009081027fffffffff000000000000000000000000000000000000000000000000000000009095168a83161794909417918216831794859055604080519382169282169290921783529290930490911660208201529192507f1c411e9a96e071241c2f21f7726b17ae89e3cab4c78be50e062b03a9fffbbad1910160405180910390a1505050565b73ffffffffffffffffffffffffffffffffffffffff83811660008181526002602090815260408083209487168084529482529182902085905590518481527f8c5be1e5ebec7d5bd14f71427d1e84f3dd0314c0f7b2291e5b200ac8c7c3b92591015b60405180910390a3505050565b73ffffffffffffffffffffffffffffffffffffffff831660009081526001602052604090205461343c908290613fda565b73ffffffffffffffffffffffffffffffffffffffff8085166000908152600160205260408082209390935590841681522054613479908290614071565b73ffffffffffffffffffffffffffffffffffffffff80841660008181526001602052604090819020939093559151908516907fddf252ad1be2c89b69c2b068fc378daa952ba7f163c4a11628f55a4df523b3ef906133fe9085815260200190565b6000806134e8836004613ff1565b905060006134f7866002613ff1565b6135018680613ff1565b61350b919061405d565b9050606461351a836002613ff1565b613524919061405d565b61352e8683613ff1565b613538919061405d565b9050600082613548606488613ff1565b613552919061405d565b61355c9088614071565b9050600086945060005b6101008110156135e8578591506000846135808480613ff1565b61358a9190614071565b90506000898561359b8a6002613ff1565b6135a59190614071565b6135af9190613fda565b90506135bb82826135f4565b97506135c788856139e6565b156135d35750506135e8565b505080806135e090614222565b915050613566565b50505050509392505050565b60008160016136038286614071565b61360d9190613fda565b6111da919061405d565b60007f000000000000000000000000000000000000000000000000000000000000000073ffffffffffffffffffffffffffffffffffffffff1663017e7e586040518163ffffffff1660e01b8152600401602060405180830381865afa158015613684573d6000803e3d6000fd5b505050506040513d601f19601f820116820180604052508101906136a8919061426e565b60085490915073ffffffffffffffffffffffffffffffffffffffff8216158015916fffffffffffffffffffffffffffffffff169061372d57600181111561308e576136fd836136f8600184613fda565b613766565b600880547fffffffffffffffffffffffffffffffff00000000000000000000000000000000166001179055505050565b600181111561308e57600880547fffffffffffffffffffffffffffffffff00000000000000000000000000000000166001179055505050565b806000546137749190614071565b600090815573ffffffffffffffffffffffffffffffffffffffff83168152600160205260409020546137a7908290614071565b73ffffffffffffffffffffffffffffffffffffffff83166000818152600160205260408082209390935591519091907fddf252ad1be2c89b69c2b068fc378daa952ba7f163c4a11628f55a4df523b3ef906138059085815260200190565b60405180910390a35050565b600081831061382057816111da565b5090919050565b73ffffffffffffffffffffffffffffffffffffffff8216600090815260016020526040902054613858908290613fda565b73ffffffffffffffffffffffffffffffffffffffff83166000908152600160205260408120919091555461388d908290613fda565b600090815560405182815273ffffffffffffffffffffffffffffffffffffffff8416907fddf252ad1be2c89b69c2b068fc378daa952ba7f163c4a11628f55a4df523b3ef90602001613805565b600061393c826040518060400160405280602081526020017f5361666545524332303a206c6f772d6c6576656c2063616c6c206661696c65648152508573ffffffffffffffffffffffffffffffffffffffff16613a089092919063ffffffff16565b80519091501561308e578080602001905181019061395a919061428b565b61308e576040517f08c379a000000000000000000000000000000000000000000000000000000000815260206004820152602a60248201527f5361666545524332303a204552433230206f7065726174696f6e20646964206e60448201527f6f742073756363656564000000000000000000000000000000000000000000006064820152608401610772565b6000818311156139fd575060018183031115610fb0565b506001919003111590565b6060613a178484600085613a1f565b949350505050565b606082471015613ab1576040517f08c379a000000000000000000000000000000000000000000000000000000000815260206004820152602660248201527f416464726573733a20696e73756666696369656e742062616c616e636520666f60448201527f722063616c6c00000000000000000000000000000000000000000000000000006064820152608401610772565b73ffffffffffffffffffffffffffffffffffffffff85163b613b2f576040517f08c379a000000000000000000000000000000000000000000000000000000000815260206004820152601d60248201527f416464726573733a2063616c6c20746f206e6f6e2d636f6e74726163740000006044820152606401610772565b6000808673ffffffffffffffffffffffffffffffffffffffff168587604051613b5891906142ad565b60006040518083038185875af1925050503d8060008114613b95576040519150601f19603f3d011682016040523d82523d6000602084013e613b9a565b606091505b5091509150613baa828286613bb5565b979650505050505050565b60608315613bc45750816111da565b825115613bd45782518084602001fd5b816040517f08c379a00000000000000000000000000000000000000000000000000000000081526004016107729190613cf3565b73ffffffffffffffffffffffffffffffffffffffff81168114613c2a57600080fd5b50565b600080600080600060808688031215613c4557600080fd5b85359450602086013593506040860135613c5e81613c08565b9250606086013567ffffffffffffffff80821115613c7b57600080fd5b818801915088601f830112613c8f57600080fd5b813581811115613c9e57600080fd5b896020828501011115613cb057600080fd5b9699959850939650602001949392505050565b60005b83811015613cde578181015183820152602001613cc6565b83811115613ced576000848401525b50505050565b6020815260008251806020840152613d12816040850160208701613cc3565b601f017fffffffffffffffffffffffffffffffffffffffffffffffffffffffffffffffe0169190910160400192915050565b60008060408385031215613d5757600080fd5b8235613d6281613c08565b946020939093013593505050565b600060208284031215613d8257600080fd5b81356fffffffffffffffffffffffffffffffff811681146111da57600080fd5b600080600060608486031215613db757600080fd5b8335613dc281613c08565b92506020840135613dd281613c08565b929592945050506040919091013590565b600060208284031215613df557600080fd5b81356111da81613c08565b803563ffffffff81168114613e1457600080fd5b919050565b60008060408385031215613e2c57600080fd5b613e3583613e00565b9150602083013564ffffffffff81168114613e4f57600080fd5b809150509250929050565b600080600080600080600060e0888a031215613e7557600080fd5b8735613e8081613c08565b96506020880135613e9081613c08565b95506040880135945060608801359350608088013560ff81168114613eb457600080fd5b9699959850939692959460a0840135945060c09093013592915050565b600060208284031215613ee357600080fd5b6111da82613e00565b60008060408385031215613eff57600080fd5b8235613f0a81613c08565b91506020830135613e4f81613c08565b73ffffffffffffffffffffffffffffffffffffffff8616815284602082015283604082015260806060820152816080820152818360a0830137600081830160a090810191909152601f9092017fffffffffffffffffffffffffffffffffffffffffffffffffffffffffffffffe0160101949350505050565b600060208284031215613fa457600080fd5b5051919050565b7f4e487b7100000000000000000000000000000000000000000000000000000000600052601160045260246000fd5b600082821015613fec57613fec613fab565b500390565b6000817fffffffffffffffffffffffffffffffffffffffffffffffffffffffffffffffff048311821515161561402957614029613fab565b500290565b7f4e487b7100000000000000000000000000000000000000000000000000000000600052601260045260246000fd5b60008261406c5761406c61402e565b500490565b6000821982111561408457614084613fab565b500190565b60006fffffffffffffffffffffffffffffffff8083168185168083038211156140b4576140b4613fab565b01949350505050565b7f4e487b7100000000000000000000000000000000000000000000000000000000600052604160045260246000fd5b6000602082840312156140fe57600080fd5b815167ffffffffffffffff8082111561411657600080fd5b818401915084601f83011261412a57600080fd5b81518181111561413c5761413c6140bd565b604051601f82017fffffffffffffffffffffffffffffffffffffffffffffffffffffffffffffffe0908116603f01168101908382118183101715614182576141826140bd565b8160405282815287602084870101111561419b57600080fd5b613baa836020830160208801613cc3565b600084516141be818460208901613cc3565b80830190507f2d0000000000000000000000000000000000000000000000000000000000000080825285516141fa816001850160208a01613cc3565b60019201918201528351614215816002840160208801613cc3565b0160020195945050505050565b60007fffffffffffffffffffffffffffffffffffffffffffffffffffffffffffffffff820361425357614253613fab565b5060010190565b6000826142695761426961402e565b500690565b60006020828403121561428057600080fd5b81516111da81613c08565b60006020828403121561429d57600080fd5b815180151581146111da57600080fd5b600082516142bf818460208701613cc3565b919091019291505056fea2646970667358221220d2244b5fd2da0217b2d20886c6ebb54c2abb18c30a73b1efc3dc8ba3b279118464736f6c634300080f00334e6f6d6973776170537461626c65506169723a20756e737570706f7274656420",
  "immutableReferences": {
    "789": [
      {
        "length": 32,
        "start": 1076
      },
      {
        "length": 32,
        "start": 10848
      }
    ],
    "3803": [
      {
        "length": 32,
        "start": 1610
      },
      {
        "length": 32,
        "start": 4046
      },
      {
        "length": 32,
        "start": 6349
      },
      {
        "length": 32,
        "start": 9577
      },
      {
        "length": 32,
        "start": 11499
      },
      {
        "length": 32,
        "start": 13851
      }
    ]
  },
  "source": "// SPDX-License-Identifier: GPL-3.0-or-later\npragma solidity =0.8.15;\n\nimport \"./interfaces/INomiswapStablePair.sol\";\nimport \"./interfaces/INomiswapCallee.sol\";\nimport \"./interfaces/INomiswapFactory.sol\";\nimport \"./NomiswapStableERC20.sol\";\nimport \"./libraries/MathUtils.sol\";\nimport \"./libraries/UQ112x112.sol\";\nimport \"./util/FactoryGuard.sol\";\nimport \"@openzeppelin/contracts/token/ERC20/extensions/IERC20Metadata.sol\";\nimport \"@openzeppelin/contracts/token/ERC20/utils/SafeERC20.sol\";\nimport \"@openzeppelin/contracts/security/ReentrancyGuard.sol\";\n\ncontract NomiswapStablePair is INomiswapStablePair, NomiswapStableERC20, ReentrancyGuard, FactoryGuard {\n    using MathUtils for uint256;\n\n    uint256 public constant MINIMUM_LIQUIDITY = 10**3;\n\n    uint256 internal constant MAX_FEE = 100000; // @dev 100%.\n    uint256 internal constant A_PRECISION = 100;\n\n    uint256 internal constant MAX_A = 10 ** 6;\n    uint256 internal constant MAX_A_CHANGE = 100;\n    uint256 internal constant MIN_RAMP_TIME = 86400;\n\n    uint256 private constant Q112 = 2**112;\n    uint256 private constant MAX_LOOP_LIMIT = 256;\n\n    address public token0;\n    address public token1;\n\n    uint112 private reserve0;           // uses single storage slot, accessible via getReserves\n    uint112 private reserve1;           // uses single storage slot, accessible via getReserves\n    uint32  private blockTimestampLast; // uses single storage slot, accessible via getReserves\n\n    uint128 public adminFee = 1;\n    uint128 public devFee = uint128(Q112*(10-7)/uint(7)); // 70% (1/0.7-1)\n\n    uint128 public token0PrecisionMultiplier; // uses single storage slot\n    uint128 public token1PrecisionMultiplier; // uses single storage slot\n\n    uint32 initialA = uint32(85 * A_PRECISION); // uses single storage slot\n    uint32 futureA = uint32(85 * A_PRECISION); // uses single storage slot\n    uint40 initialATime; // uses single storage slot\n    uint40 futureATime; // uses single storage slot\n    uint32 public swapFee = 100; // uses 0.1% default\n\n    constructor(address _token0, address _token1) FactoryGuard(msg.sender) {\n        futureATime = uint40(block.timestamp);\n        token0 = _token0;\n        token1 = _token1;\n        uint8 decimals0 = IERC20Metadata(_token0).decimals();\n        require(decimals0 <= 18, 'NomiswapStablePair: unsupported token');\n        token0PrecisionMultiplier = uint128(10)**(18 - decimals0);\n        uint8 decimals1 = IERC20Metadata(_token1).decimals();\n        require(decimals1 <= 18, 'NomiswapStablePair: unsupported token');\n        token1PrecisionMultiplier = uint128(10)**(18 - decimals1);\n    }\n\n    function symbol() external view returns (string memory) {\n        return string.concat(\n            symbolPrefix,\n            \"-\",\n            IERC20Metadata(token0).symbol(),\n            \"-\",\n            IERC20Metadata(token1).symbol()\n        );\n    }\n\n    function setSwapFee(uint32 _swapFee) override external onlyFactory {\n        require(_swapFee <= MAX_FEE, 'NomiswapStablePair: FORBIDDEN_FEE');\n        swapFee = _swapFee;\n    }\n\n    function setDevFee(uint128 _devFee) override external onlyFactory {\n        require(_devFee != 0, \"NomiswapStablePair: dev fee 0\");\n        devFee = _devFee;\n    }\n\n    // this low-level function should be called from a contract which performs important safety checks\n    function mint(address to) override external nonReentrant returns (uint liquidity) {\n        (uint112 _reserve0, uint112 _reserve1,) = getReserves(); // gas savings\n        uint balance0 = IERC20(token0).balanceOf(address(this));\n        uint balance1 = IERC20(token1).balanceOf(address(this));\n\n        _mintFee();\n        uint _totalSupply = totalSupply; // gas savings, must be defined here since totalSupply can update in _mintFee        \n        uint amount0 = balance0 - _reserve0;\n        uint amount1 = balance1 - _reserve1;\n\n        if (_totalSupply == 0) {\n            uint A = getA();\n            uint dBalance = _computeLiquidity(balance0, balance1, A);\n            liquidity = dBalance - MINIMUM_LIQUIDITY;\n            _mint(address(0), MINIMUM_LIQUIDITY); // permanently lock the first MINIMUM_LIQUIDITY tokens\n        } else {\n            liquidity = MathUtils.min(amount0 * _totalSupply / _reserve0, amount1 * _totalSupply / _reserve1);\n        }\n\n        require(liquidity > 0, 'Nomiswap: INSUFFICIENT_LIQUIDITY_MINTED');\n        _mint(to, liquidity);\n\n        _update(balance0, balance1);\n        emit Mint(msg.sender, amount0, amount1);\n    }\n\n    // this low-level function should be called from a contract which performs important safety checks\n    function burn(address to) override external nonReentrant returns (uint amount0, uint amount1) {\n        address _token0 = token0;                                // gas savings\n        address _token1 = token1;                                // gas savings\n        uint balance0 = IERC20(_token0).balanceOf(address(this));\n        uint balance1 = IERC20(_token1).balanceOf(address(this));\n        uint liquidity = balanceOf[address(this)];\n\n        _mintFee();\n        uint _totalSupply = totalSupply; // gas savings, must be defined here since totalSupply can update in _mintFee\n        amount0 = liquidity * balance0 / _totalSupply; // using balances ensures pro-rata distribution\n        amount1 = liquidity * balance1 / _totalSupply; // using balances ensures pro-rata distribution\n        require(amount0 > 0 && amount1 > 0, 'Nomiswap: INSUFFICIENT_LIQUIDITY_BURNED');\n        _burn(address(this), liquidity);\n        SafeERC20.safeTransfer(IERC20(_token0), to, amount0);\n        SafeERC20.safeTransfer(IERC20(_token1), to, amount1);\n        balance0 = IERC20(_token0).balanceOf(address(this));\n        balance1 = IERC20(_token1).balanceOf(address(this));\n\n        _update(balance0, balance1);\n        emit Burn(msg.sender, amount0, amount1, to);\n    }\n\n    // this low-level function should be called from a contract which performs important safety checks\n    function swap(uint amount0Out, uint amount1Out, address to, bytes calldata data) override external nonReentrant {\n        require(amount0Out > 0 || amount1Out > 0, 'Nomiswap: INSUFFICIENT_OUTPUT_AMOUNT');\n        (uint _reserve0, uint _reserve1,) = getReserves(); // gas savings\n        require(amount0Out < _reserve0 && amount1Out < _reserve1, 'Nomiswap: INSUFFICIENT_LIQUIDITY');\n\n        uint balance0;\n        uint balance1;\n        { // scope for _token{0,1}, avoids stack too deep errors\n            address _token0 = token0;\n            address _token1 = token1;\n            require(to != _token0 && to != _token1, 'Nomiswap: INVALID_TO');\n            if (amount0Out > 0) SafeERC20.safeTransfer(IERC20(_token0), to, amount0Out); // optimistically transfer tokens\n            if (amount1Out > 0) SafeERC20.safeTransfer(IERC20(_token1), to, amount1Out); // optimistically transfer tokens\n            if (data.length > 0) INomiswapCallee(to).nomiswapCall(msg.sender, amount0Out, amount1Out, data);\n            balance0 = IERC20(_token0).balanceOf(address(this));\n            balance1 = IERC20(_token1).balanceOf(address(this));\n        }\n        uint amount0In = balance0 > _reserve0 - amount0Out ? balance0 - (_reserve0 - amount0Out) : 0;\n        uint amount1In = balance1 > _reserve1 - amount1Out ? balance1 - (_reserve1 - amount1Out) : 0;\n        require(amount0In > 0 || amount1In > 0, 'Nomiswap: INSUFFICIENT_INPUT_AMOUNT');\n        { // scope for reserve{0,1}Adjusted, avoids stack too deep errors\n\n            uint256 A = getA();\n            uint _swapFee = swapFee;\n            uint _token0PrecisionMultiplier = token0PrecisionMultiplier;\n            uint _token1PrecisionMultiplier = token1PrecisionMultiplier;\n            uint balance0Adjusted = (balance0 * MAX_FEE - amount0In * _swapFee) * _token0PrecisionMultiplier / MAX_FEE;\n            uint balance1Adjusted = (balance1 * MAX_FEE - amount1In * _swapFee) * _token1PrecisionMultiplier / MAX_FEE;\n            uint256 dBalance = _computeLiquidityFromAdjustedBalances(balance0Adjusted, balance1Adjusted, A);\n\n            uint256 adjustedReserve0 = _reserve0 * _token0PrecisionMultiplier;\n            uint256 adjustedReserve1 = _reserve1 * _token1PrecisionMultiplier;\n            uint256 dReserves = _computeLiquidityFromAdjustedBalances(adjustedReserve0, adjustedReserve1, A);\n\n            require(dBalance >= dReserves, 'Nomiswap: D');\n\n            uint256 dTotal = _computeLiquidity(balance0, balance1, A);\n            uint numerator = totalSupply * (dTotal - dReserves);\n            uint denominator = (dTotal * devFee/Q112) + dReserves;\n            adminFee += uint128(numerator / denominator);\n        }\n\n        _update(balance0, balance1);\n        emit Swap(msg.sender, amount0In, amount1In, amount0Out, amount1Out, to);\n    }\n\n    // force balances to match reserves\n    function skim(address to) override external nonReentrant {\n        address _token0 = token0; // gas savings\n        address _token1 = token1; // gas savings\n        SafeERC20.safeTransfer(IERC20(_token0), to, IERC20(_token0).balanceOf(address(this)) - reserve0);\n        SafeERC20.safeTransfer(IERC20(_token1), to, IERC20(_token1).balanceOf(address(this)) - reserve1);\n    }\n\n    // force reserves to match balances\n    function sync() override external nonReentrant {\n        _update(IERC20(token0).balanceOf(address(this)), IERC20(token1).balanceOf(address(this)));\n    }\n\n    function rampA(uint32 _futureA, uint40 _futureTime) override external nonReentrant onlyFactory {\n        require(block.timestamp >= initialATime + MIN_RAMP_TIME, 'NomiswapStablePair: INVALID_TIME');\n        require(_futureTime >= block.timestamp + MIN_RAMP_TIME, 'NomiswapStablePair: INVALID_FUTURE_TIME');\n\n        uint32 _initialA = uint32(getA());\n        uint32 _futureAP = uint32(_futureA * A_PRECISION);\n\n        require(_futureA > 0 && _futureA < MAX_A);\n\n        if (_futureAP < _initialA) {\n            require(_futureAP * MAX_A_CHANGE >= _initialA);\n        } else {\n            require(_futureAP <= _initialA * MAX_A_CHANGE);\n        }\n\n        initialA = _initialA;\n        futureA = _futureAP;\n        initialATime = uint40(block.timestamp);\n        futureATime = _futureTime;\n\n        emit RampA(_initialA, _futureAP, block.timestamp, _futureTime);\n    }\n\n    function stopRampA() override external nonReentrant onlyFactory {\n        uint32 currentA = uint32(getA());\n\n        initialA = currentA;\n        futureA = currentA;\n        initialATime = uint40(block.timestamp);\n        futureATime = uint40(block.timestamp);\n\n        emit StopRampA(currentA, block.timestamp);\n    }\n\n    function getAmountIn(address tokenIn, uint256 amountOut) external view override returns (uint256 finalAmountIn) {\n        (uint256 _reserve0, uint256 _reserve1, ) = getReserves();\n\n        unchecked {\n            uint256 _token0PrecisionMultiplier = token0PrecisionMultiplier;\n            uint256 _token1PrecisionMultiplier = token1PrecisionMultiplier;\n            uint256 adjustedReserve0 = _reserve0 * _token0PrecisionMultiplier;\n            uint256 adjustedReserve1 = _reserve1 * _token1PrecisionMultiplier;\n            uint256 A = getA();\n            uint256 d = _computeLiquidityFromAdjustedBalances(adjustedReserve0, adjustedReserve1, A);\n\n            if (tokenIn == token0) {\n                uint256 x = adjustedReserve1 - amountOut * _token1PrecisionMultiplier;\n                uint256 y = _getY(x, d, A);\n                uint256 dy = (y - adjustedReserve0).divRoundUp(_token0PrecisionMultiplier);\n                finalAmountIn = (dy * MAX_FEE).divRoundUp(MAX_FEE - swapFee);\n            } else {\n                require(tokenIn == token1, \"INVALID_INPUT_TOKEN\");\n                uint256 x = adjustedReserve0 - amountOut * _token0PrecisionMultiplier;\n                uint256 y = _getY(x, d, A);\n                uint256 dy = (y - adjustedReserve1).divRoundUp(_token1PrecisionMultiplier);\n                finalAmountIn = (dy * MAX_FEE).divRoundUp(MAX_FEE - swapFee);\n            }\n        }\n    }\n\n    function getAmountOut(address tokenIn, uint256 amountIn) external view override returns (uint256 finalAmountOut) {\n        (uint256 _reserve0, uint256 _reserve1, ) = getReserves();\n\n        unchecked {\n            uint256 _token0PrecisionMultiplier = token0PrecisionMultiplier;\n            uint256 _token1PrecisionMultiplier = token1PrecisionMultiplier;\n            uint256 feeDeductedAmountIn = (amountIn * MAX_FEE - amountIn * swapFee) / MAX_FEE;\n            uint256 adjustedReserve0 = _reserve0 * _token0PrecisionMultiplier;\n            uint256 adjustedReserve1 = _reserve1 * _token1PrecisionMultiplier;\n            uint256 A = getA();\n            uint256 d = _computeLiquidityFromAdjustedBalances(adjustedReserve0, adjustedReserve1, A);\n\n            if (tokenIn == token0) {\n                uint256 x = adjustedReserve0 + feeDeductedAmountIn * _token0PrecisionMultiplier;\n                uint256 y = _getY(x, d, A);\n                finalAmountOut = (adjustedReserve1 - y) / _token1PrecisionMultiplier;\n            } else {\n                require(tokenIn == token1, \"INVALID_INPUT_TOKEN\");\n                uint256 x = adjustedReserve1 + feeDeductedAmountIn * _token1PrecisionMultiplier;\n                uint256 y = _getY(x, d, A);\n                finalAmountOut = (adjustedReserve0 - y) / _token0PrecisionMultiplier;\n            }\n        }\n    }\n\n    function getReserves() override public view returns (uint112 _reserve0, uint112 _reserve1, uint32 _blockTimestampLast) {\n        _reserve0 = reserve0;\n        _reserve1 = reserve1;\n        _blockTimestampLast = blockTimestampLast;\n    }\n\n    function factory() override public view returns (address) {\n        return _factory;\n    }\n\n    function getA() override public view returns (uint256) {\n        uint256 t1  = futureATime;\n        uint256 A1  = futureA;\n\n        if (block.timestamp < t1) {\n            uint256 A0 = initialA;\n            uint256 t0 = initialATime;\n            // Expressions in uint32 cannot have negative numbers, thus \"if\"\n            if (A1 > A0) {\n                return A0 + (block.timestamp - t0) * (A1 - A0) / (t1 - t0);\n            } else {\n                return A0 - (block.timestamp - t0) * (A0 - A1) / (t1 - t0);\n            }\n        } else {\n            // when t1 == 0 or block.timestamp >= t1\n            return A1;\n        }\n    }\n\n    function _computeLiquidity(uint256 _reserve0, uint256 _reserve1, uint256 A) private view returns (uint256 liquidity) {\n        unchecked {\n            uint256 adjustedReserve0 = _reserve0 * token0PrecisionMultiplier;\n            uint256 adjustedReserve1 = _reserve1 * token1PrecisionMultiplier;\n            liquidity = _computeLiquidityFromAdjustedBalances(adjustedReserve0, adjustedReserve1, A);\n        }\n    }\n\n    function _update(uint balance0, uint balance1) private {\n        require(balance0 <= type(uint112).max && balance1 <= type(uint112).max, 'Nomiswap: OVERFLOW');\n        uint32 blockTimestamp = uint32(block.timestamp % 2**32);\n        reserve0 = uint112(balance0);\n        reserve1 = uint112(balance1);\n        blockTimestampLast = blockTimestamp;\n        emit Sync(reserve0, reserve1);\n    }\n\n    // if fee is on, mint liquidity equivalent to 1/6th of the growth in sqrt(k)\n    function _mintFee() private {\n        address feeTo = INomiswapFactory(factory()).feeTo();\n        bool feeOn = feeTo != address(0);\n        uint _adminFee = adminFee; // gas savings\n        if (feeOn) {\n            if (_adminFee > 1) {\n                _mint(feeTo, _adminFee - 1);\n                adminFee = 1;\n            }\n        } else if (_adminFee > 1) {\n            adminFee = 1;\n        }\n    }\n\n    function _computeLiquidityFromAdjustedBalances(uint256 xp0, uint256 xp1, uint256 A) private pure returns (uint256 computed) {\n        uint256 s = xp0 + xp1;\n\n        uint256 N_A = A * 4;\n        if (s == 0) {\n            return 0;\n        }\n        uint256 prevD;\n        uint256 D = s;\n        for (uint256 i = 0; i < MAX_LOOP_LIMIT; i++) {\n            uint256 dP = (((D * D) / xp0) * D) / xp1 / 4;\n            prevD = D;\n            D = (((N_A * s) / A_PRECISION + 2 * dP) * D) / ((N_A / A_PRECISION - 1) * D + 3 * dP);\n            if (D.within1(prevD)) {\n                break;\n            }\n        }\n        computed = D;\n    }\n\n    function _getY(uint256 x, uint256 D, uint256 A) private pure returns (uint256 y) {\n        uint256 N_A = A * 4;\n        uint256 c = (D * D) / (x * 2);\n        c = (c * D) / ((N_A * 2) / A_PRECISION);\n        uint256 b = x + ((D * A_PRECISION) / N_A);\n        uint256 yPrev;\n        y = D;\n        // @dev Iterative approximation.\n        for (uint256 i = 0; i < MAX_LOOP_LIMIT; i++) {\n            yPrev = y;\n            uint numerator = y * y + c;\n            uint denominator = y * 2 + b - D;\n            y = numerator.divRoundUp(denominator);\n            if (y.within1(yPrev)) {\n                break;\n            }\n        }\n    }\n\n}\n",
  "sourcePath": "/home/eraserpl/NetBeansProjects/stableswap-contracts/contracts/NomiswapStablePair.sol",
  "compiler": {
    "name": "solc",
    "version": "0.8.15+commit.e14f2714.Emscripten.clang"
  },
  "schemaVersion": "3.4.9",
  "updatedAt": "2022-09-06T08:00:15.089Z",
  "devdoc": {
    "kind": "dev",
    "methods": {
      "symbol()": {
        "details": "Returns the symbol of the token."
      }
    },
    "version": 1
  },
  "userdoc": {
    "kind": "user",
    "methods": {},
    "version": 1
  }
}