{
  "contractName": "NomiswapFactory",
  "abi": [
    {
      "inputs": [
        {
          "internalType": "address",
          "name": "_feeToSetter",
          "type": "address"
        }
      ],
      "payable": false,
      "stateMutability": "nonpayable",
      "type": "constructor"
    },
    {
      "anonymous": false,
      "inputs": [
        {
          "indexed": true,
          "internalType": "address",
          "name": "token0",
          "type": "address"
        },
        {
          "indexed": true,
          "internalType": "address",
          "name": "token1",
          "type": "address"
        },
        {
          "indexed": false,
          "internalType": "address",
          "name": "pair",
          "type": "address"
        },
        {
          "indexed": false,
          "internalType": "uint256",
          "name": "",
          "type": "uint256"
        }
      ],
      "name": "PairCreated",
      "type": "event"
    },
    {
      "constant": true,
      "inputs": [],
      "name": "INIT_CODE_HASH",
      "outputs": [
        {
          "internalType": "bytes32",
          "name": "",
          "type": "bytes32"
        }
      ],
      "payable": false,
      "stateMutability": "view",
      "type": "function"
    },
    {
      "constant": true,
      "inputs": [
        {
          "internalType": "uint256",
          "name": "",
          "type": "uint256"
        }
      ],
      "name": "allPairs",
      "outputs": [
        {
          "internalType": "address",
          "name": "",
          "type": "address"
        }
      ],
      "payable": false,
      "stateMutability": "view",
      "type": "function"
    },
    {
      "constant": true,
      "inputs": [],
      "name": "feeTo",
      "outputs": [
        {
          "internalType": "address",
          "name": "",
          "type": "address"
        }
      ],
      "payable": false,
      "stateMutability": "view",
      "type": "function"
    },
    {
      "constant": true,
      "inputs": [],
      "name": "feeToSetter",
      "outputs": [
        {
          "internalType": "address",
          "name": "",
          "type": "address"
        }
      ],
      "payable": false,
      "stateMutability": "view",
      "type": "function"
    },
    {
      "constant": true,
      "inputs": [
        {
          "internalType": "address",
          "name": "",
          "type": "address"
        },
        {
          "internalType": "address",
          "name": "",
          "type": "address"
        }
      ],
      "name": "getPair",
      "outputs": [
        {
          "internalType": "address",
          "name": "",
          "type": "address"
        }
      ],
      "payable": false,
      "stateMutability": "view",
      "type": "function"
    },
    {
      "constant": true,
      "inputs": [],
      "name": "allPairsLength",
      "outputs": [
        {
          "internalType": "uint256",
          "name": "",
          "type": "uint256"
        }
      ],
      "payable": false,
      "stateMutability": "view",
      "type": "function"
    },
    {
      "constant": false,
      "inputs": [
        {
          "internalType": "address",
          "name": "tokenA",
          "type": "address"
        },
        {
          "internalType": "address",
          "name": "tokenB",
          "type": "address"
        }
      ],
      "name": "createPair",
      "outputs": [
        {
          "internalType": "address",
          "name": "pair",
          "type": "address"
        }
      ],
      "payable": false,
      "stateMutability": "nonpayable",
      "type": "function"
    },
    {
      "constant": false,
      "inputs": [
        {
          "internalType": "address",
          "name": "_feeTo",
          "type": "address"
        }
      ],
      "name": "setFeeTo",
      "outputs": [],
      "payable": false,
      "stateMutability": "nonpayable",
      "type": "function"
    },
    {
      "constant": false,
      "inputs": [
        {
          "internalType": "address",
          "name": "_feeToSetter",
          "type": "address"
        }
      ],
      "name": "setFeeToSetter",
      "outputs": [],
      "payable": false,
      "stateMutability": "nonpayable",
      "type": "function"
    },
    {
      "constant": false,
      "inputs": [
        {
          "internalType": "address",
          "name": "_pair",
          "type": "address"
        },
        {
          "internalType": "uint8",
          "name": "_devFee",
          "type": "uint8"
        }
      ],
      "name": "setDevFee",
      "outputs": [],
      "payable": false,
      "stateMutability": "nonpayable",
      "type": "function"
    },
    {
      "constant": false,
      "inputs": [
        {
          "internalType": "address",
          "name": "_pair",
          "type": "address"
        },
        {
          "internalType": "uint32",
          "name": "_swapFee",
          "type": "uint32"
        }
      ],
      "name": "setSwapFee",
      "outputs": [],
      "payable": false,
      "stateMutability": "nonpayable",
      "type": "function"
    }
  ],
  "bytecode": "0x6080604081905261001060a06100e9565b6020820181038252601f19601f820116604052506040516020018082805190602001908083835b602083106100565780518252601f199092019160209182019101610037565b6001836020036101000a038019825116818451168082178552505050505050905001915050604051602081830303815290604052805190602001206002553480156100a057600080fd5b50604051616ffb380380616ffb833981810160405260208110156100c357600080fd5b5051600180546001600160a01b0319166001600160a01b039092169190911790556100f6565b61318d80613e6e83390190565b613d69806101056000396000f3fe608060405234801561001057600080fd5b50600436106100c95760003560e01c80639e68ceb811610081578063e6a439051161005b578063e6a43905146101f5578063ef0bc99314610230578063f46901ed1461026c576100c9565b80639e68ceb814610146578063a2e74af614610187578063c9c65396146101ba576100c9565b80631e3dd18b116100b25780631e3dd18b14610107578063257671f514610124578063574f2ba31461013e576100c9565b8063017e7e58146100ce578063094b7415146100ff575b600080fd5b6100d661029f565b6040805173ffffffffffffffffffffffffffffffffffffffff9092168252519081900360200190f35b6100d66102bb565b6100d66004803603602081101561011d57600080fd5b50356102d7565b61012c61030b565b60408051918252519081900360200190f35b61012c610311565b6101856004803603604081101561015c57600080fd5b50803573ffffffffffffffffffffffffffffffffffffffff16906020013563ffffffff16610317565b005b6101856004803603602081101561019d57600080fd5b503573ffffffffffffffffffffffffffffffffffffffff1661042c565b6100d6600480360360408110156101d057600080fd5b5073ffffffffffffffffffffffffffffffffffffffff813581169160200135166104f9565b6100d66004803603604081101561020b57600080fd5b5073ffffffffffffffffffffffffffffffffffffffff8135811691602001351661094c565b6101856004803603604081101561024657600080fd5b50803573ffffffffffffffffffffffffffffffffffffffff16906020013560ff1661097f565b6101856004803603602081101561028257600080fd5b503573ffffffffffffffffffffffffffffffffffffffff16610acd565b60005473ffffffffffffffffffffffffffffffffffffffff1681565b60015473ffffffffffffffffffffffffffffffffffffffff1681565b600481815481106102e457fe5b60009182526020909120015473ffffffffffffffffffffffffffffffffffffffff16905081565b60025481565b60045490565b60015473ffffffffffffffffffffffffffffffffffffffff16331461039d57604080517f08c379a000000000000000000000000000000000000000000000000000000000815260206004820152601360248201527f4e6f6d69737761703a20464f5242494444454e00000000000000000000000000604482015290519081900360640190fd5b604080517fd6d788c300000000000000000000000000000000000000000000000000000000815263ffffffff83166004820152905173ffffffffffffffffffffffffffffffffffffffff84169163d6d788c391602480830192600092919082900301818387803b15801561041057600080fd5b505af1158015610424573d6000803e3d6000fd5b505050505050565b60015473ffffffffffffffffffffffffffffffffffffffff1633146104b257604080517f08c379a000000000000000000000000000000000000000000000000000000000815260206004820152601360248201527f4e6f6d69737761703a20464f5242494444454e00000000000000000000000000604482015290519081900360640190fd5b600180547fffffffffffffffffffffffff00000000000000000000000000000000000000001673ffffffffffffffffffffffffffffffffffffffff92909216919091179055565b60008173ffffffffffffffffffffffffffffffffffffffff168373ffffffffffffffffffffffffffffffffffffffff16141561059657604080517f08c379a000000000000000000000000000000000000000000000000000000000815260206004820152601d60248201527f4e6f6d69737761703a204944454e544943414c5f414444524553534553000000604482015290519081900360640190fd5b6000808373ffffffffffffffffffffffffffffffffffffffff168573ffffffffffffffffffffffffffffffffffffffff16106105d35783856105d6565b84845b909250905073ffffffffffffffffffffffffffffffffffffffff821661065d57604080517f08c379a000000000000000000000000000000000000000000000000000000000815260206004820152601660248201527f4e6f6d69737761703a205a45524f5f4144445245535300000000000000000000604482015290519081900360640190fd5b73ffffffffffffffffffffffffffffffffffffffff8281166000908152600360209081526040808320858516845290915290205416156106fe57604080517f08c379a000000000000000000000000000000000000000000000000000000000815260206004820152601560248201527f4e6f6d69737761703a20504149525f4558495354530000000000000000000000604482015290519081900360640190fd5b60606040518060200161071090610b9a565b6020820181038252601f19601f82011660405250905060008383604051602001808373ffffffffffffffffffffffffffffffffffffffff1673ffffffffffffffffffffffffffffffffffffffff1660601b81526014018273ffffffffffffffffffffffffffffffffffffffff1673ffffffffffffffffffffffffffffffffffffffff1660601b815260140192505050604051602081830303815290604052805190602001209050808251602084016000f5604080517f485cc95500000000000000000000000000000000000000000000000000000000815273ffffffffffffffffffffffffffffffffffffffff8781166004830152868116602483015291519297509087169163485cc9559160448082019260009290919082900301818387803b15801561083d57600080fd5b505af1158015610851573d6000803e3d6000fd5b5050505073ffffffffffffffffffffffffffffffffffffffff84811660008181526003602081815260408084208987168086529083528185208054978d167fffffffffffffffffffffffff000000000000000000000000000000000000000098891681179091559383528185208686528352818520805488168517905560048054600181018255958190527f8a35acfbc15ff81a39ae7d344fd709f28e8600b4aa8c65c6b64bfe7fe36bd19b90950180549097168417909655925483519283529082015281517f0d3648bd0f6ba80134a33ba9275ac585d9d315f0ad8355cddefde31afa28d0e9929181900390910190a35050505092915050565b600360209081526000928352604080842090915290825290205473ffffffffffffffffffffffffffffffffffffffff1681565b60015473ffffffffffffffffffffffffffffffffffffffff163314610a0557604080517f08c379a000000000000000000000000000000000000000000000000000000000815260206004820152601360248201527f4e6f6d69737761703a20464f5242494444454e00000000000000000000000000604482015290519081900360640190fd5b60008160ff1611610a7757604080517f08c379a000000000000000000000000000000000000000000000000000000000815260206004820152601760248201527f4e6f6d69737761703a20464f5242494444454e5f464545000000000000000000604482015290519081900360640190fd5b8173ffffffffffffffffffffffffffffffffffffffff16631c75b6b2826040518263ffffffff1660e01b8152600401808260ff168152602001915050600060405180830381600087803b15801561041057600080fd5b60015473ffffffffffffffffffffffffffffffffffffffff163314610b5357604080517f08c379a000000000000000000000000000000000000000000000000000000000815260206004820152601360248201527f4e6f6d69737761703a20464f5242494444454e00000000000000000000000000604482015290519081900360640190fd5b600080547fffffffffffffffffffffffff00000000000000000000000000000000000000001673ffffffffffffffffffffffffffffffffffffffff92909216919091179055565b61318d80610ba88339019056fe6080604052600c805463ffffffff191660011790556007600360701b04600d556001600e5534801561003057600080fd5b50604051469080605261313b8239604080519182900360520182208282018252600c83526b4e6f6d6973776170204c507360a01b6020938401528151808301835260018152603160f81b908401528151808401919091527f41181e8e0e1134e304563ce4f0d2a1743ef2b39102f68b1aaa3b51c14c12b4e0818301527fc89efdaa54c0f20c7adf612882df0950f5a951637e0307cdcb4c672f298b8bc6606082015260808101949094523060a0808601919091528151808603909101815260c09094019052825192019190912060035550600580546001600160a01b03191633179055613019806101226000396000f3fe608060405234801561001057600080fd5b50600436106101e55760003560e01c80636827e7641161010f578063ba9a7a56116100a2578063d505accf11610071578063d505accf14610654578063d6d788c3146106b2578063dd62ed3e146106d5578063fff6cae914610710576101e5565b8063ba9a7a5614610609578063bc25cf7714610611578063c45a015514610644578063d21220a71461064c576101e5565b80637ecebe00116100de5780637ecebe001461054957806389afcb441461057c57806395d89b41146105c8578063a9059cbb146105d0576101e5565b80636827e764146104d35780636a627842146104db57806370a082311461050e5780637464fc3d14610541576101e5565b806323b872dd11610187578063485cc95511610156578063485cc9551461046757806354cf2aeb146104a25780635909c0d5146104c35780635a3d5493146104cb576101e5565b806323b872dd146103f657806330adf81f14610439578063313ce567146104415780633644e5151461045f576101e5565b8063095ea7b3116101c3578063095ea7b3146103415780630dfe16811461038e57806318160ddd146103bf5780631c75b6b2146103d9576101e5565b8063022c0d9f146101ea57806306fdde03146102855780630902f1ac14610302575b600080fd5b6102836004803603608081101561020057600080fd5b81359160208101359173ffffffffffffffffffffffffffffffffffffffff604083013516919081019060808101606082013564010000000081111561024457600080fd5b82018360208201111561025657600080fd5b8035906020019184600183028401116401000000008311171561027857600080fd5b509092509050610718565b005b61028d610e0d565b6040805160208082528351818301528351919283929083019185019080838360005b838110156102c75781810151838201526020016102af565b50505050905090810190601f1680156102f45780820380516001836020036101000a031916815260200191505b509250505060405180910390f35b61030a610e46565b604080516dffffffffffffffffffffffffffff948516815292909316602083015263ffffffff168183015290519081900360600190f35b61037a6004803603604081101561035757600080fd5b5073ffffffffffffffffffffffffffffffffffffffff8135169060200135610e9b565b604080519115158252519081900360200190f35b610396610eb2565b6040805173ffffffffffffffffffffffffffffffffffffffff9092168252519081900360200190f35b6103c7610ece565b60408051918252519081900360200190f35b610283600480360360208110156103ef57600080fd5b5035610ed4565b61037a6004803603606081101561040c57600080fd5b5073ffffffffffffffffffffffffffffffffffffffff81358116916020810135909116906040013561104a565b6103c7611129565b61044961114d565b6040805160ff9092168252519081900360200190f35b6103c7611152565b6102836004803603604081101561047d57600080fd5b5073ffffffffffffffffffffffffffffffffffffffff81358116916020013516611158565b6104aa611231565b6040805163ffffffff9092168252519081900360200190f35b6103c761123d565b6103c7611243565b6103c7611249565b6103c7600480360360208110156104f157600080fd5b503573ffffffffffffffffffffffffffffffffffffffff1661124f565b6103c76004803603602081101561052457600080fd5b503573ffffffffffffffffffffffffffffffffffffffff16611609565b6103c761161b565b6103c76004803603602081101561055f57600080fd5b503573ffffffffffffffffffffffffffffffffffffffff16611621565b6105af6004803603602081101561059257600080fd5b503573ffffffffffffffffffffffffffffffffffffffff16611633565b6040805192835260208301919091528051918290030190f35b61028d611ad0565b61037a600480360360408110156105e657600080fd5b5073ffffffffffffffffffffffffffffffffffffffff8135169060200135611b09565b6103c7611b16565b6102836004803603602081101561062757600080fd5b503573ffffffffffffffffffffffffffffffffffffffff16611b1c565b610396611d12565b610396611d2e565b610283600480360360e081101561066a57600080fd5b5073ffffffffffffffffffffffffffffffffffffffff813581169160208101359091169060408101359060608101359060ff6080820135169060a08101359060c00135611d4a565b610283600480360360208110156106c857600080fd5b503563ffffffff16612016565b6103c7600480360360408110156106eb57600080fd5b5073ffffffffffffffffffffffffffffffffffffffff813581169160200135166121bf565b6102836121dc565b600e5460011461078957604080517f08c379a000000000000000000000000000000000000000000000000000000000815260206004820152601060248201527f4e6f6d69737761703a204c4f434b454400000000000000000000000000000000604482015290519081900360640190fd5b6000600e558415158061079c5750600084115b6107f1576040517f08c379a0000000000000000000000000000000000000000000000000000000008152600401808060200182810382526024815260200180612f506024913960400191505060405180910390fd5b6000806107fc610e46565b5091509150816dffffffffffffffffffffffffffff168710801561082f5750806dffffffffffffffffffffffffffff1686105b61089a57604080517f08c379a000000000000000000000000000000000000000000000000000000000815260206004820181905260248201527f4e6f6d69737761703a20494e53554646494349454e545f4c4951554944495459604482015290519081900360640190fd5b600654600754600091829173ffffffffffffffffffffffffffffffffffffffff9182169190811690891682148015906108ff57508073ffffffffffffffffffffffffffffffffffffffff168973ffffffffffffffffffffffffffffffffffffffff1614155b61096a57604080517f08c379a000000000000000000000000000000000000000000000000000000000815260206004820152601460248201527f4e6f6d69737761703a20494e56414c49445f544f000000000000000000000000604482015290519081900360640190fd5b8a1561097b5761097b828a8d6123c2565b891561098c5761098c818a8c6123c2565b8615610a6e578873ffffffffffffffffffffffffffffffffffffffff166322109682338d8d8c8c6040518663ffffffff1660e01b8152600401808673ffffffffffffffffffffffffffffffffffffffff1673ffffffffffffffffffffffffffffffffffffffff168152602001858152602001848152602001806020018281038252848482818152602001925080828437600081840152601f19601f8201169050808301925050509650505050505050600060405180830381600087803b158015610a5557600080fd5b505af1158015610a69573d6000803e3d6000fd5b505050505b604080517f70a08231000000000000000000000000000000000000000000000000000000008152306004820152905173ffffffffffffffffffffffffffffffffffffffff8416916370a08231916024808301926020929190829003018186803b158015610ada57600080fd5b505afa158015610aee573d6000803e3d6000fd5b505050506040513d6020811015610b0457600080fd5b5051604080517f70a08231000000000000000000000000000000000000000000000000000000008152306004820152905191955073ffffffffffffffffffffffffffffffffffffffff8316916370a0823191602480820192602092909190829003018186803b158015610b7657600080fd5b505afa158015610b8a573d6000803e3d6000fd5b505050506040513d6020811015610ba057600080fd5b5051925060009150506dffffffffffffffffffffffffffff85168a90038311610bca576000610be0565b89856dffffffffffffffffffffffffffff160383035b9050600089856dffffffffffffffffffffffffffff16038311610c04576000610c1a565b89856dffffffffffffffffffffffffffff160383035b90506000821180610c2b5750600081115b610c80576040517f08c379a0000000000000000000000000000000000000000000000000000000008152600401808060200182810382526023815260200180612f9b6023913960400191505060405180910390fd5b600c5463ffffffff90811690600090610cbf90610ca190869085906125cf16565b610cb3886103e863ffffffff6125cf16565b9063ffffffff61265516565b90506000610cd6610ca1858563ffffffff6125cf16565b9050610d0e620f4240610d026dffffffffffffffffffffffffffff8c8116908c1663ffffffff6125cf16565b9063ffffffff6125cf16565b610d1e838363ffffffff6125cf16565b1015610d8b57604080517f08c379a000000000000000000000000000000000000000000000000000000000815260206004820152600b60248201527f4e6f6d69737761703a204b000000000000000000000000000000000000000000604482015290519081900360640190fd5b505050610d9a848488886126c7565b60408051838152602081018390528082018d9052606081018c9052905173ffffffffffffffffffffffffffffffffffffffff8b169133917fd78ad95fa46c994b6551d0da85fc275fe613ce37657fb8d5e3d130840159d8229181900360800190a350506001600e55505050505050505050565b6040518060400160405280600c81526020017f4e6f6d6973776170204c5073000000000000000000000000000000000000000081525081565b6008546dffffffffffffffffffffffffffff808216926e0100000000000000000000000000008304909116917c0100000000000000000000000000000000000000000000000000000000900463ffffffff1690565b6000610ea8338484612983565b5060015b92915050565b60065473ffffffffffffffffffffffffffffffffffffffff1681565b60005481565b80610f4057604080517f08c379a000000000000000000000000000000000000000000000000000000000815260206004820152601760248201527f4e6f6d6973776170506169723a20646576206665652030000000000000000000604482015290519081900360640190fd5b60055473ffffffffffffffffffffffffffffffffffffffff163314610fc657604080517f08c379a000000000000000000000000000000000000000000000000000000000815260206004820152601760248201527f4e6f6d6973776170506169723a20464f5242494444454e000000000000000000604482015290519081900360640190fd5b6f01f4000000000000000000000000000081111561104557604080517f08c379a000000000000000000000000000000000000000000000000000000000815260206004820152601b60248201527f4e6f6d6973776170506169723a20464f5242494444454e5f4645450000000000604482015290519081900360640190fd5b600d55565b73ffffffffffffffffffffffffffffffffffffffff831660009081526002602090815260408083203384529091528120547fffffffffffffffffffffffffffffffffffffffffffffffffffffffffffffffff146111145773ffffffffffffffffffffffffffffffffffffffff841660009081526002602090815260408083203384529091529020546110e2908363ffffffff61265516565b73ffffffffffffffffffffffffffffffffffffffff851660009081526002602090815260408083203384529091529020555b61111f8484846129f2565b5060019392505050565b7f6e71edae12b1b97f4d1f60370fef10105fa2faae0126114a169c64845d6126c981565b601281565b60035481565b60055473ffffffffffffffffffffffffffffffffffffffff1633146111de57604080517f08c379a000000000000000000000000000000000000000000000000000000000815260206004820152601360248201527f4e6f6d69737761703a20464f5242494444454e00000000000000000000000000604482015290519081900360640190fd5b6006805473ffffffffffffffffffffffffffffffffffffffff9384167fffffffffffffffffffffffff00000000000000000000000000000000000000009182161790915560078054929093169116179055565b600c5463ffffffff1681565b60095481565b600a5481565b600d5481565b6000600e546001146112c257604080517f08c379a000000000000000000000000000000000000000000000000000000000815260206004820152601060248201527f4e6f6d69737761703a204c4f434b454400000000000000000000000000000000604482015290519081900360640190fd5b6000600e819055806112d2610e46565b50600654604080517f70a08231000000000000000000000000000000000000000000000000000000008152306004820152905193955091935060009273ffffffffffffffffffffffffffffffffffffffff909116916370a08231916024808301926020929190829003018186803b15801561134c57600080fd5b505afa158015611360573d6000803e3d6000fd5b505050506040513d602081101561137657600080fd5b5051600754604080517f70a08231000000000000000000000000000000000000000000000000000000008152306004820152905192935060009273ffffffffffffffffffffffffffffffffffffffff909216916370a0823191602480820192602092909190829003018186803b1580156113ef57600080fd5b505afa158015611403573d6000803e3d6000fd5b505050506040513d602081101561141957600080fd5b50519050600061143f836dffffffffffffffffffffffffffff871663ffffffff61265516565b90506000611463836dffffffffffffffffffffffffffff871663ffffffff61265516565b905060006114718787612ad3565b600054909150806114ae5761149a6103e8610cb3611495878763ffffffff6125cf16565b612c99565b98506114a960006103e8612ceb565b61150b565b6115086dffffffffffffffffffffffffffff89166114d2868463ffffffff6125cf16565b816114d957fe5b046dffffffffffffffffffffffffffff89166114fb868563ffffffff6125cf16565b8161150257fe5b04612d9b565b98505b60008911611564576040517f08c379a0000000000000000000000000000000000000000000000000000000008152600401808060200182810382526027815260200180612f746027913960400191505060405180910390fd5b61156e8a8a612ceb565b61157a86868a8a6126c7565b81156115bc576008546115b8906dffffffffffffffffffffffffffff808216916e01000000000000000000000000000090041663ffffffff6125cf16565b600b555b6040805185815260208101859052815133927f4c209b5fc8ad50758f13e2e1088ba56a560dff690a1c6fef26394f4c03821c4f928290030190a250506001600e5550949695505050505050565b60016020526000908152604090205481565b600b5481565b60046020526000908152604090205481565b600080600e546001146116a757604080517f08c379a000000000000000000000000000000000000000000000000000000000815260206004820152601060248201527f4e6f6d69737761703a204c4f434b454400000000000000000000000000000000604482015290519081900360640190fd5b6000600e819055806116b7610e46565b50600654600754604080517f70a08231000000000000000000000000000000000000000000000000000000008152306004820152905194965092945073ffffffffffffffffffffffffffffffffffffffff9182169391169160009184916370a08231916024808301926020929190829003018186803b15801561173957600080fd5b505afa15801561174d573d6000803e3d6000fd5b505050506040513d602081101561176357600080fd5b5051604080517f70a08231000000000000000000000000000000000000000000000000000000008152306004820152905191925060009173ffffffffffffffffffffffffffffffffffffffff8516916370a08231916024808301926020929190829003018186803b1580156117d757600080fd5b505afa1580156117eb573d6000803e3d6000fd5b505050506040513d602081101561180157600080fd5b5051306000908152600160205260408120549192506118208888612ad3565b60005490915080611837848763ffffffff6125cf16565b8161183e57fe5b049a5080611852848663ffffffff6125cf16565b8161185957fe5b04995060008b11801561186c575060008a115b6118c1576040517f08c379a0000000000000000000000000000000000000000000000000000000008152600401808060200182810382526027815260200180612fbe6027913960400191505060405180910390fd5b6118cb3084612db3565b6118d6878d8d6123c2565b6118e1868d8c6123c2565b604080517f70a08231000000000000000000000000000000000000000000000000000000008152306004820152905173ffffffffffffffffffffffffffffffffffffffff8916916370a08231916024808301926020929190829003018186803b15801561194d57600080fd5b505afa158015611961573d6000803e3d6000fd5b505050506040513d602081101561197757600080fd5b5051604080517f70a08231000000000000000000000000000000000000000000000000000000008152306004820152905191965073ffffffffffffffffffffffffffffffffffffffff8816916370a0823191602480820192602092909190829003018186803b1580156119e957600080fd5b505afa1580156119fd573d6000803e3d6000fd5b505050506040513d6020811015611a1357600080fd5b50519350611a2385858b8b6126c7565b8115611a6557600854611a61906dffffffffffffffffffffffffffff808216916e01000000000000000000000000000090041663ffffffff6125cf16565b600b555b604080518c8152602081018c9052815173ffffffffffffffffffffffffffffffffffffffff8f169233927fdccd412f0b1252819cb1fd330b93224ca42612892bb3f4f789976e6d81936496929081900390910190a35050505050505050506001600e81905550915091565b6040518060400160405280600781526020017f4e6f6d692d4c500000000000000000000000000000000000000000000000000081525081565b6000610ea83384846129f2565b6103e881565b600e54600114611b8d57604080517f08c379a000000000000000000000000000000000000000000000000000000000815260206004820152601060248201527f4e6f6d69737761703a204c4f434b454400000000000000000000000000000000604482015290519081900360640190fd5b6000600e55600654600754600854604080517f70a08231000000000000000000000000000000000000000000000000000000008152306004820152905173ffffffffffffffffffffffffffffffffffffffff9485169490931692611c699285928792611c64926dffffffffffffffffffffffffffff169185916370a0823191602480820192602092909190829003018186803b158015611c2c57600080fd5b505afa158015611c40573d6000803e3d6000fd5b505050506040513d6020811015611c5657600080fd5b50519063ffffffff61265516565b6123c2565b600854604080517f70a082310000000000000000000000000000000000000000000000000000000081523060048201529051611d089284928792611c64926e01000000000000000000000000000090046dffffffffffffffffffffffffffff169173ffffffffffffffffffffffffffffffffffffffff8616916370a0823191602480820192602092909190829003018186803b158015611c2c57600080fd5b50506001600e5550565b60055473ffffffffffffffffffffffffffffffffffffffff1681565b60075473ffffffffffffffffffffffffffffffffffffffff1681565b42841015611db957604080517f08c379a000000000000000000000000000000000000000000000000000000000815260206004820152601160248201527f4e6f6d69737761703a2045585049524544000000000000000000000000000000604482015290519081900360640190fd5b60035473ffffffffffffffffffffffffffffffffffffffff80891660008181526004602090815260408083208054600180820190925582517f6e71edae12b1b97f4d1f60370fef10105fa2faae0126114a169c64845d6126c98186015280840196909652958d166060860152608085018c905260a085019590955260c08085018b90528151808603909101815260e0850182528051908301207f19010000000000000000000000000000000000000000000000000000000000006101008601526101028501969096526101228085019690965280518085039096018652610142840180825286519683019690962095839052610162840180825286905260ff89166101828501526101a284018890526101c28401879052519193926101e2808201937fffffffffffffffffffffffffffffffffffffffffffffffffffffffffffffffe081019281900390910190855afa158015611f1a573d6000803e3d6000fd5b50506040517fffffffffffffffffffffffffffffffffffffffffffffffffffffffffffffffe0015191505073ffffffffffffffffffffffffffffffffffffffff811615801590611f9557508873ffffffffffffffffffffffffffffffffffffffff168173ffffffffffffffffffffffffffffffffffffffff16145b61200057604080517f08c379a000000000000000000000000000000000000000000000000000000000815260206004820152601b60248201527f4e6f6d69737761703a20494e56414c49445f5349474e41545552450000000000604482015290519081900360640190fd5b61200b898989612983565b505050505050505050565b60008163ffffffff161161208b57604080517f08c379a000000000000000000000000000000000000000000000000000000000815260206004820152601a60248201527f4e6f6d6973776170506169723a206c6f776572207468656e2030000000000000604482015290519081900360640190fd5b60055473ffffffffffffffffffffffffffffffffffffffff16331461211157604080517f08c379a000000000000000000000000000000000000000000000000000000000815260206004820152601760248201527f4e6f6d6973776170506169723a20464f5242494444454e000000000000000000604482015290519081900360640190fd5b6103e88163ffffffff16111561218857604080517f08c379a000000000000000000000000000000000000000000000000000000000815260206004820152601b60248201527f4e6f6d6973776170506169723a20464f5242494444454e5f4645450000000000604482015290519081900360640190fd5b600c80547fffffffffffffffffffffffffffffffffffffffffffffffffffffffff000000001663ffffffff92909216919091179055565b600260209081526000928352604080842090915290825290205481565b600e5460011461224d57604080517f08c379a000000000000000000000000000000000000000000000000000000000815260206004820152601060248201527f4e6f6d69737761703a204c4f434b454400000000000000000000000000000000604482015290519081900360640190fd5b6000600e55600654604080517f70a0823100000000000000000000000000000000000000000000000000000000815230600482015290516123bb9273ffffffffffffffffffffffffffffffffffffffff16916370a08231916024808301926020929190829003018186803b1580156122c457600080fd5b505afa1580156122d8573d6000803e3d6000fd5b505050506040513d60208110156122ee57600080fd5b5051600754604080517f70a08231000000000000000000000000000000000000000000000000000000008152306004820152905173ffffffffffffffffffffffffffffffffffffffff909216916370a0823191602480820192602092909190829003018186803b15801561236157600080fd5b505afa158015612375573d6000803e3d6000fd5b505050506040513d602081101561238b57600080fd5b50516008546dffffffffffffffffffffffffffff808216916e0100000000000000000000000000009004166126c7565b6001600e55565b604080518082018252601981527f7472616e7366657228616464726573732c75696e743235362900000000000000602091820152815173ffffffffffffffffffffffffffffffffffffffff85811660248301526044808301869052845180840390910181526064909201845291810180517bffffffffffffffffffffffffffffffffffffffffffffffffffffffff167fa9059cbb000000000000000000000000000000000000000000000000000000001781529251815160009460609489169392918291908083835b602083106124c857805182527fffffffffffffffffffffffffffffffffffffffffffffffffffffffffffffffe0909201916020918201910161248b565b6001836020036101000a0380198251168184511680821785525050505050509050019150506000604051808303816000865af19150503d806000811461252a576040519150601f19603f3d011682016040523d82523d6000602084013e61252f565b606091505b509150915081801561255d57508051158061255d575080806020019051602081101561255a57600080fd5b50515b6125c857604080517f08c379a000000000000000000000000000000000000000000000000000000000815260206004820152601960248201527f4e6f6d69737761703a205452414e534645525f4641494c454400000000000000604482015290519081900360640190fd5b5050505050565b60008115806125ea575050808202828282816125e757fe5b04145b610eac57604080517f08c379a000000000000000000000000000000000000000000000000000000000815260206004820152601460248201527f64732d6d6174682d6d756c2d6f766572666c6f77000000000000000000000000604482015290519081900360640190fd5b80820382811115610eac57604080517f08c379a000000000000000000000000000000000000000000000000000000000815260206004820152601560248201527f64732d6d6174682d7375622d756e646572666c6f770000000000000000000000604482015290519081900360640190fd5b6dffffffffffffffffffffffffffff84118015906126f357506dffffffffffffffffffffffffffff8311155b61275e57604080517f08c379a000000000000000000000000000000000000000000000000000000000815260206004820152601260248201527f4e6f6d69737761703a204f564552464c4f570000000000000000000000000000604482015290519081900360640190fd5b60085463ffffffff428116917c0100000000000000000000000000000000000000000000000000000000900481168203908116158015906127ae57506dffffffffffffffffffffffffffff841615155b80156127c957506dffffffffffffffffffffffffffff831615155b15612879578063ffffffff1661280c856127e286612e78565b7bffffffffffffffffffffffffffffffffffffffffffffffffffffffff169063ffffffff612e9c16565b600980547bffffffffffffffffffffffffffffffffffffffffffffffffffffffff929092169290920201905563ffffffff811661284c846127e287612e78565b600a80547bffffffffffffffffffffffffffffffffffffffffffffffffffffffff92909216929092020190555b600880547fffffffffffffffffffffffffffffffffffff0000000000000000000000000000166dffffffffffffffffffffffffffff888116919091177fffffffff0000000000000000000000000000ffffffffffffffffffffffffffff166e0100000000000000000000000000008883168102919091177bffffffffffffffffffffffffffffffffffffffffffffffffffffffff167c010000000000000000000000000000000000000000000000000000000063ffffffff871602179283905560408051848416815291909304909116602082015281517f1c411e9a96e071241c2f21f7726b17ae89e3cab4c78be50e062b03a9fffbbad1929181900390910190a1505050505050565b73ffffffffffffffffffffffffffffffffffffffff808416600081815260026020908152604080832094871680845294825291829020859055815185815291517f8c5be1e5ebec7d5bd14f71427d1e84f3dd0314c0f7b2291e5b200ac8c7c3b9259281900390910190a3505050565b73ffffffffffffffffffffffffffffffffffffffff8316600090815260016020526040902054612a28908263ffffffff61265516565b73ffffffffffffffffffffffffffffffffffffffff8085166000908152600160205260408082209390935590841681522054612a6a908263ffffffff612edd16565b73ffffffffffffffffffffffffffffffffffffffff80841660008181526001602090815260409182902094909455805185815290519193928716927fddf252ad1be2c89b69c2b068fc378daa952ba7f163c4a11628f55a4df523b3ef92918290030190a3505050565b600080600560009054906101000a900473ffffffffffffffffffffffffffffffffffffffff1673ffffffffffffffffffffffffffffffffffffffff1663017e7e586040518163ffffffff1660e01b815260040160206040518083038186803b158015612b3e57600080fd5b505afa158015612b52573d6000803e3d6000fd5b505050506040513d6020811015612b6857600080fd5b5051600b5473ffffffffffffffffffffffffffffffffffffffff8216158015945091925090612c85578015612c80576000612bbf6114956dffffffffffffffffffffffffffff88811690881663ffffffff6125cf16565b90506000612bcc83612c99565b905080821115612c7d576000612bfa612beb848463ffffffff61265516565b6000549063ffffffff6125cf16565b90506000612c59836e0100000000000000000000000000007bffffffffffffffffffffffffffffffffffffffffffffffffffffffff16612c45600d54886125cf90919063ffffffff16565b81612c4c57fe5b049063ffffffff612edd16565b90506000818381612c6657fe5b0490508015612c7957612c798782612ceb565b5050505b50505b612c91565b8015612c91576000600b555b505092915050565b60006003821115612cdc575080600160028204015b81811015612cd657809150600281828581612cc557fe5b040181612cce57fe5b049050612cae565b50612ce6565b8115612ce6575060015b919050565b600054612cfe908263ffffffff612edd16565b600090815573ffffffffffffffffffffffffffffffffffffffff8316815260016020526040902054612d36908263ffffffff612edd16565b73ffffffffffffffffffffffffffffffffffffffff831660008181526001602090815260408083209490945583518581529351929391927fddf252ad1be2c89b69c2b068fc378daa952ba7f163c4a11628f55a4df523b3ef9281900390910190a35050565b6000818310612daa5781612dac565b825b9392505050565b73ffffffffffffffffffffffffffffffffffffffff8216600090815260016020526040902054612de9908263ffffffff61265516565b73ffffffffffffffffffffffffffffffffffffffff831660009081526001602052604081209190915554612e23908263ffffffff61265516565b600090815560408051838152905173ffffffffffffffffffffffffffffffffffffffff8516917fddf252ad1be2c89b69c2b068fc378daa952ba7f163c4a11628f55a4df523b3ef919081900360200190a35050565b6dffffffffffffffffffffffffffff166e0100000000000000000000000000000290565b60006dffffffffffffffffffffffffffff82167bffffffffffffffffffffffffffffffffffffffffffffffffffffffff841681612ed557fe5b049392505050565b80820182811015610eac57604080517f08c379a000000000000000000000000000000000000000000000000000000000815260206004820152601460248201527f64732d6d6174682d6164642d6f766572666c6f77000000000000000000000000604482015290519081900360640190fdfe4e6f6d69737761703a20494e53554646494349454e545f4f55545055545f414d4f554e544e6f6d69737761703a20494e53554646494349454e545f4c49515549444954595f4d494e5445444e6f6d69737761703a20494e53554646494349454e545f494e5055545f414d4f554e544e6f6d69737761703a20494e53554646494349454e545f4c49515549444954595f4255524e4544a265627a7a723158202de2b40fad2b73336ed47438a6732b87c8becbd99d82cb287bfb0ae4e956bf2964736f6c63430005100032454950373132446f6d61696e28737472696e67206e616d652c737472696e672076657273696f6e2c75696e7432353620636861696e49642c6164647265737320766572696679696e67436f6e747261637429a265627a7a7231582081d8072afc1f34d996cf9e04d9af6bb1135fc254ded807ad8d0c1ad9d3deeb4f64736f6c634300051000326080604052600c805463ffffffff191660011790556007600360701b04600d556001600e5534801561003057600080fd5b50604051469080605261313b8239604080519182900360520182208282018252600c83526b4e6f6d6973776170204c507360a01b6020938401528151808301835260018152603160f81b908401528151808401919091527f41181e8e0e1134e304563ce4f0d2a1743ef2b39102f68b1aaa3b51c14c12b4e0818301527fc89efdaa54c0f20c7adf612882df0950f5a951637e0307cdcb4c672f298b8bc6606082015260808101949094523060a0808601919091528151808603909101815260c09094019052825192019190912060035550600580546001600160a01b03191633179055613019806101226000396000f3fe608060405234801561001057600080fd5b50600436106101e55760003560e01c80636827e7641161010f578063ba9a7a56116100a2578063d505accf11610071578063d505accf14610654578063d6d788c3146106b2578063dd62ed3e146106d5578063fff6cae914610710576101e5565b8063ba9a7a5614610609578063bc25cf7714610611578063c45a015514610644578063d21220a71461064c576101e5565b80637ecebe00116100de5780637ecebe001461054957806389afcb441461057c57806395d89b41146105c8578063a9059cbb146105d0576101e5565b80636827e764146104d35780636a627842146104db57806370a082311461050e5780637464fc3d14610541576101e5565b806323b872dd11610187578063485cc95511610156578063485cc9551461046757806354cf2aeb146104a25780635909c0d5146104c35780635a3d5493146104cb576101e5565b806323b872dd146103f657806330adf81f14610439578063313ce567146104415780633644e5151461045f576101e5565b8063095ea7b3116101c3578063095ea7b3146103415780630dfe16811461038e57806318160ddd146103bf5780631c75b6b2146103d9576101e5565b8063022c0d9f146101ea57806306fdde03146102855780630902f1ac14610302575b600080fd5b6102836004803603608081101561020057600080fd5b81359160208101359173ffffffffffffffffffffffffffffffffffffffff604083013516919081019060808101606082013564010000000081111561024457600080fd5b82018360208201111561025657600080fd5b8035906020019184600183028401116401000000008311171561027857600080fd5b509092509050610718565b005b61028d610e0d565b6040805160208082528351818301528351919283929083019185019080838360005b838110156102c75781810151838201526020016102af565b50505050905090810190601f1680156102f45780820380516001836020036101000a031916815260200191505b509250505060405180910390f35b61030a610e46565b604080516dffffffffffffffffffffffffffff948516815292909316602083015263ffffffff168183015290519081900360600190f35b61037a6004803603604081101561035757600080fd5b5073ffffffffffffffffffffffffffffffffffffffff8135169060200135610e9b565b604080519115158252519081900360200190f35b610396610eb2565b6040805173ffffffffffffffffffffffffffffffffffffffff9092168252519081900360200190f35b6103c7610ece565b60408051918252519081900360200190f35b610283600480360360208110156103ef57600080fd5b5035610ed4565b61037a6004803603606081101561040c57600080fd5b5073ffffffffffffffffffffffffffffffffffffffff81358116916020810135909116906040013561104a565b6103c7611129565b61044961114d565b6040805160ff9092168252519081900360200190f35b6103c7611152565b6102836004803603604081101561047d57600080fd5b5073ffffffffffffffffffffffffffffffffffffffff81358116916020013516611158565b6104aa611231565b6040805163ffffffff9092168252519081900360200190f35b6103c761123d565b6103c7611243565b6103c7611249565b6103c7600480360360208110156104f157600080fd5b503573ffffffffffffffffffffffffffffffffffffffff1661124f565b6103c76004803603602081101561052457600080fd5b503573ffffffffffffffffffffffffffffffffffffffff16611609565b6103c761161b565b6103c76004803603602081101561055f57600080fd5b503573ffffffffffffffffffffffffffffffffffffffff16611621565b6105af6004803603602081101561059257600080fd5b503573ffffffffffffffffffffffffffffffffffffffff16611633565b6040805192835260208301919091528051918290030190f35b61028d611ad0565b61037a600480360360408110156105e657600080fd5b5073ffffffffffffffffffffffffffffffffffffffff8135169060200135611b09565b6103c7611b16565b6102836004803603602081101561062757600080fd5b503573ffffffffffffffffffffffffffffffffffffffff16611b1c565b610396611d12565b610396611d2e565b610283600480360360e081101561066a57600080fd5b5073ffffffffffffffffffffffffffffffffffffffff813581169160208101359091169060408101359060608101359060ff6080820135169060a08101359060c00135611d4a565b610283600480360360208110156106c857600080fd5b503563ffffffff16612016565b6103c7600480360360408110156106eb57600080fd5b5073ffffffffffffffffffffffffffffffffffffffff813581169160200135166121bf565b6102836121dc565b600e5460011461078957604080517f08c379a000000000000000000000000000000000000000000000000000000000815260206004820152601060248201527f4e6f6d69737761703a204c4f434b454400000000000000000000000000000000604482015290519081900360640190fd5b6000600e558415158061079c5750600084115b6107f1576040517f08c379a0000000000000000000000000000000000000000000000000000000008152600401808060200182810382526024815260200180612f506024913960400191505060405180910390fd5b6000806107fc610e46565b5091509150816dffffffffffffffffffffffffffff168710801561082f5750806dffffffffffffffffffffffffffff1686105b61089a57604080517f08c379a000000000000000000000000000000000000000000000000000000000815260206004820181905260248201527f4e6f6d69737761703a20494e53554646494349454e545f4c4951554944495459604482015290519081900360640190fd5b600654600754600091829173ffffffffffffffffffffffffffffffffffffffff9182169190811690891682148015906108ff57508073ffffffffffffffffffffffffffffffffffffffff168973ffffffffffffffffffffffffffffffffffffffff1614155b61096a57604080517f08c379a000000000000000000000000000000000000000000000000000000000815260206004820152601460248201527f4e6f6d69737761703a20494e56414c49445f544f000000000000000000000000604482015290519081900360640190fd5b8a1561097b5761097b828a8d6123c2565b891561098c5761098c818a8c6123c2565b8615610a6e578873ffffffffffffffffffffffffffffffffffffffff166322109682338d8d8c8c6040518663ffffffff1660e01b8152600401808673ffffffffffffffffffffffffffffffffffffffff1673ffffffffffffffffffffffffffffffffffffffff168152602001858152602001848152602001806020018281038252848482818152602001925080828437600081840152601f19601f8201169050808301925050509650505050505050600060405180830381600087803b158015610a5557600080fd5b505af1158015610a69573d6000803e3d6000fd5b505050505b604080517f70a08231000000000000000000000000000000000000000000000000000000008152306004820152905173ffffffffffffffffffffffffffffffffffffffff8416916370a08231916024808301926020929190829003018186803b158015610ada57600080fd5b505afa158015610aee573d6000803e3d6000fd5b505050506040513d6020811015610b0457600080fd5b5051604080517f70a08231000000000000000000000000000000000000000000000000000000008152306004820152905191955073ffffffffffffffffffffffffffffffffffffffff8316916370a0823191602480820192602092909190829003018186803b158015610b7657600080fd5b505afa158015610b8a573d6000803e3d6000fd5b505050506040513d6020811015610ba057600080fd5b5051925060009150506dffffffffffffffffffffffffffff85168a90038311610bca576000610be0565b89856dffffffffffffffffffffffffffff160383035b9050600089856dffffffffffffffffffffffffffff16038311610c04576000610c1a565b89856dffffffffffffffffffffffffffff160383035b90506000821180610c2b5750600081115b610c80576040517f08c379a0000000000000000000000000000000000000000000000000000000008152600401808060200182810382526023815260200180612f9b6023913960400191505060405180910390fd5b600c5463ffffffff90811690600090610cbf90610ca190869085906125cf16565b610cb3886103e863ffffffff6125cf16565b9063ffffffff61265516565b90506000610cd6610ca1858563ffffffff6125cf16565b9050610d0e620f4240610d026dffffffffffffffffffffffffffff8c8116908c1663ffffffff6125cf16565b9063ffffffff6125cf16565b610d1e838363ffffffff6125cf16565b1015610d8b57604080517f08c379a000000000000000000000000000000000000000000000000000000000815260206004820152600b60248201527f4e6f6d69737761703a204b000000000000000000000000000000000000000000604482015290519081900360640190fd5b505050610d9a848488886126c7565b60408051838152602081018390528082018d9052606081018c9052905173ffffffffffffffffffffffffffffffffffffffff8b169133917fd78ad95fa46c994b6551d0da85fc275fe613ce37657fb8d5e3d130840159d8229181900360800190a350506001600e55505050505050505050565b6040518060400160405280600c81526020017f4e6f6d6973776170204c5073000000000000000000000000000000000000000081525081565b6008546dffffffffffffffffffffffffffff808216926e0100000000000000000000000000008304909116917c0100000000000000000000000000000000000000000000000000000000900463ffffffff1690565b6000610ea8338484612983565b5060015b92915050565b60065473ffffffffffffffffffffffffffffffffffffffff1681565b60005481565b80610f4057604080517f08c379a000000000000000000000000000000000000000000000000000000000815260206004820152601760248201527f4e6f6d6973776170506169723a20646576206665652030000000000000000000604482015290519081900360640190fd5b60055473ffffffffffffffffffffffffffffffffffffffff163314610fc657604080517f08c379a000000000000000000000000000000000000000000000000000000000815260206004820152601760248201527f4e6f6d6973776170506169723a20464f5242494444454e000000000000000000604482015290519081900360640190fd5b6f01f4000000000000000000000000000081111561104557604080517f08c379a000000000000000000000000000000000000000000000000000000000815260206004820152601b60248201527f4e6f6d6973776170506169723a20464f5242494444454e5f4645450000000000604482015290519081900360640190fd5b600d55565b73ffffffffffffffffffffffffffffffffffffffff831660009081526002602090815260408083203384529091528120547fffffffffffffffffffffffffffffffffffffffffffffffffffffffffffffffff146111145773ffffffffffffffffffffffffffffffffffffffff841660009081526002602090815260408083203384529091529020546110e2908363ffffffff61265516565b73ffffffffffffffffffffffffffffffffffffffff851660009081526002602090815260408083203384529091529020555b61111f8484846129f2565b5060019392505050565b7f6e71edae12b1b97f4d1f60370fef10105fa2faae0126114a169c64845d6126c981565b601281565b60035481565b60055473ffffffffffffffffffffffffffffffffffffffff1633146111de57604080517f08c379a000000000000000000000000000000000000000000000000000000000815260206004820152601360248201527f4e6f6d69737761703a20464f5242494444454e00000000000000000000000000604482015290519081900360640190fd5b6006805473ffffffffffffffffffffffffffffffffffffffff9384167fffffffffffffffffffffffff00000000000000000000000000000000000000009182161790915560078054929093169116179055565b600c5463ffffffff1681565b60095481565b600a5481565b600d5481565b6000600e546001146112c257604080517f08c379a000000000000000000000000000000000000000000000000000000000815260206004820152601060248201527f4e6f6d69737761703a204c4f434b454400000000000000000000000000000000604482015290519081900360640190fd5b6000600e819055806112d2610e46565b50600654604080517f70a08231000000000000000000000000000000000000000000000000000000008152306004820152905193955091935060009273ffffffffffffffffffffffffffffffffffffffff909116916370a08231916024808301926020929190829003018186803b15801561134c57600080fd5b505afa158015611360573d6000803e3d6000fd5b505050506040513d602081101561137657600080fd5b5051600754604080517f70a08231000000000000000000000000000000000000000000000000000000008152306004820152905192935060009273ffffffffffffffffffffffffffffffffffffffff909216916370a0823191602480820192602092909190829003018186803b1580156113ef57600080fd5b505afa158015611403573d6000803e3d6000fd5b505050506040513d602081101561141957600080fd5b50519050600061143f836dffffffffffffffffffffffffffff871663ffffffff61265516565b90506000611463836dffffffffffffffffffffffffffff871663ffffffff61265516565b905060006114718787612ad3565b600054909150806114ae5761149a6103e8610cb3611495878763ffffffff6125cf16565b612c99565b98506114a960006103e8612ceb565b61150b565b6115086dffffffffffffffffffffffffffff89166114d2868463ffffffff6125cf16565b816114d957fe5b046dffffffffffffffffffffffffffff89166114fb868563ffffffff6125cf16565b8161150257fe5b04612d9b565b98505b60008911611564576040517f08c379a0000000000000000000000000000000000000000000000000000000008152600401808060200182810382526027815260200180612f746027913960400191505060405180910390fd5b61156e8a8a612ceb565b61157a86868a8a6126c7565b81156115bc576008546115b8906dffffffffffffffffffffffffffff808216916e01000000000000000000000000000090041663ffffffff6125cf16565b600b555b6040805185815260208101859052815133927f4c209b5fc8ad50758f13e2e1088ba56a560dff690a1c6fef26394f4c03821c4f928290030190a250506001600e5550949695505050505050565b60016020526000908152604090205481565b600b5481565b60046020526000908152604090205481565b600080600e546001146116a757604080517f08c379a000000000000000000000000000000000000000000000000000000000815260206004820152601060248201527f4e6f6d69737761703a204c4f434b454400000000000000000000000000000000604482015290519081900360640190fd5b6000600e819055806116b7610e46565b50600654600754604080517f70a08231000000000000000000000000000000000000000000000000000000008152306004820152905194965092945073ffffffffffffffffffffffffffffffffffffffff9182169391169160009184916370a08231916024808301926020929190829003018186803b15801561173957600080fd5b505afa15801561174d573d6000803e3d6000fd5b505050506040513d602081101561176357600080fd5b5051604080517f70a08231000000000000000000000000000000000000000000000000000000008152306004820152905191925060009173ffffffffffffffffffffffffffffffffffffffff8516916370a08231916024808301926020929190829003018186803b1580156117d757600080fd5b505afa1580156117eb573d6000803e3d6000fd5b505050506040513d602081101561180157600080fd5b5051306000908152600160205260408120549192506118208888612ad3565b60005490915080611837848763ffffffff6125cf16565b8161183e57fe5b049a5080611852848663ffffffff6125cf16565b8161185957fe5b04995060008b11801561186c575060008a115b6118c1576040517f08c379a0000000000000000000000000000000000000000000000000000000008152600401808060200182810382526027815260200180612fbe6027913960400191505060405180910390fd5b6118cb3084612db3565b6118d6878d8d6123c2565b6118e1868d8c6123c2565b604080517f70a08231000000000000000000000000000000000000000000000000000000008152306004820152905173ffffffffffffffffffffffffffffffffffffffff8916916370a08231916024808301926020929190829003018186803b15801561194d57600080fd5b505afa158015611961573d6000803e3d6000fd5b505050506040513d602081101561197757600080fd5b5051604080517f70a08231000000000000000000000000000000000000000000000000000000008152306004820152905191965073ffffffffffffffffffffffffffffffffffffffff8816916370a0823191602480820192602092909190829003018186803b1580156119e957600080fd5b505afa1580156119fd573d6000803e3d6000fd5b505050506040513d6020811015611a1357600080fd5b50519350611a2385858b8b6126c7565b8115611a6557600854611a61906dffffffffffffffffffffffffffff808216916e01000000000000000000000000000090041663ffffffff6125cf16565b600b555b604080518c8152602081018c9052815173ffffffffffffffffffffffffffffffffffffffff8f169233927fdccd412f0b1252819cb1fd330b93224ca42612892bb3f4f789976e6d81936496929081900390910190a35050505050505050506001600e81905550915091565b6040518060400160405280600781526020017f4e6f6d692d4c500000000000000000000000000000000000000000000000000081525081565b6000610ea83384846129f2565b6103e881565b600e54600114611b8d57604080517f08c379a000000000000000000000000000000000000000000000000000000000815260206004820152601060248201527f4e6f6d69737761703a204c4f434b454400000000000000000000000000000000604482015290519081900360640190fd5b6000600e55600654600754600854604080517f70a08231000000000000000000000000000000000000000000000000000000008152306004820152905173ffffffffffffffffffffffffffffffffffffffff9485169490931692611c699285928792611c64926dffffffffffffffffffffffffffff169185916370a0823191602480820192602092909190829003018186803b158015611c2c57600080fd5b505afa158015611c40573d6000803e3d6000fd5b505050506040513d6020811015611c5657600080fd5b50519063ffffffff61265516565b6123c2565b600854604080517f70a082310000000000000000000000000000000000000000000000000000000081523060048201529051611d089284928792611c64926e01000000000000000000000000000090046dffffffffffffffffffffffffffff169173ffffffffffffffffffffffffffffffffffffffff8616916370a0823191602480820192602092909190829003018186803b158015611c2c57600080fd5b50506001600e5550565b60055473ffffffffffffffffffffffffffffffffffffffff1681565b60075473ffffffffffffffffffffffffffffffffffffffff1681565b42841015611db957604080517f08c379a000000000000000000000000000000000000000000000000000000000815260206004820152601160248201527f4e6f6d69737761703a2045585049524544000000000000000000000000000000604482015290519081900360640190fd5b60035473ffffffffffffffffffffffffffffffffffffffff80891660008181526004602090815260408083208054600180820190925582517f6e71edae12b1b97f4d1f60370fef10105fa2faae0126114a169c64845d6126c98186015280840196909652958d166060860152608085018c905260a085019590955260c08085018b90528151808603909101815260e0850182528051908301207f19010000000000000000000000000000000000000000000000000000000000006101008601526101028501969096526101228085019690965280518085039096018652610142840180825286519683019690962095839052610162840180825286905260ff89166101828501526101a284018890526101c28401879052519193926101e2808201937fffffffffffffffffffffffffffffffffffffffffffffffffffffffffffffffe081019281900390910190855afa158015611f1a573d6000803e3d6000fd5b50506040517fffffffffffffffffffffffffffffffffffffffffffffffffffffffffffffffe0015191505073ffffffffffffffffffffffffffffffffffffffff811615801590611f9557508873ffffffffffffffffffffffffffffffffffffffff168173ffffffffffffffffffffffffffffffffffffffff16145b61200057604080517f08c379a000000000000000000000000000000000000000000000000000000000815260206004820152601b60248201527f4e6f6d69737761703a20494e56414c49445f5349474e41545552450000000000604482015290519081900360640190fd5b61200b898989612983565b505050505050505050565b60008163ffffffff161161208b57604080517f08c379a000000000000000000000000000000000000000000000000000000000815260206004820152601a60248201527f4e6f6d6973776170506169723a206c6f776572207468656e2030000000000000604482015290519081900360640190fd5b60055473ffffffffffffffffffffffffffffffffffffffff16331461211157604080517f08c379a000000000000000000000000000000000000000000000000000000000815260206004820152601760248201527f4e6f6d6973776170506169723a20464f5242494444454e000000000000000000604482015290519081900360640190fd5b6103e88163ffffffff16111561218857604080517f08c379a000000000000000000000000000000000000000000000000000000000815260206004820152601b60248201527f4e6f6d6973776170506169723a20464f5242494444454e5f4645450000000000604482015290519081900360640190fd5b600c80547fffffffffffffffffffffffffffffffffffffffffffffffffffffffff000000001663ffffffff92909216919091179055565b600260209081526000928352604080842090915290825290205481565b600e5460011461224d57604080517f08c379a000000000000000000000000000000000000000000000000000000000815260206004820152601060248201527f4e6f6d69737761703a204c4f434b454400000000000000000000000000000000604482015290519081900360640190fd5b6000600e55600654604080517f70a0823100000000000000000000000000000000000000000000000000000000815230600482015290516123bb9273ffffffffffffffffffffffffffffffffffffffff16916370a08231916024808301926020929190829003018186803b1580156122c457600080fd5b505afa1580156122d8573d6000803e3d6000fd5b505050506040513d60208110156122ee57600080fd5b5051600754604080517f70a08231000000000000000000000000000000000000000000000000000000008152306004820152905173ffffffffffffffffffffffffffffffffffffffff909216916370a0823191602480820192602092909190829003018186803b15801561236157600080fd5b505afa158015612375573d6000803e3d6000fd5b505050506040513d602081101561238b57600080fd5b50516008546dffffffffffffffffffffffffffff808216916e0100000000000000000000000000009004166126c7565b6001600e55565b604080518082018252601981527f7472616e7366657228616464726573732c75696e743235362900000000000000602091820152815173ffffffffffffffffffffffffffffffffffffffff85811660248301526044808301869052845180840390910181526064909201845291810180517bffffffffffffffffffffffffffffffffffffffffffffffffffffffff167fa9059cbb000000000000000000000000000000000000000000000000000000001781529251815160009460609489169392918291908083835b602083106124c857805182527fffffffffffffffffffffffffffffffffffffffffffffffffffffffffffffffe0909201916020918201910161248b565b6001836020036101000a0380198251168184511680821785525050505050509050019150506000604051808303816000865af19150503d806000811461252a576040519150601f19603f3d011682016040523d82523d6000602084013e61252f565b606091505b509150915081801561255d57508051158061255d575080806020019051602081101561255a57600080fd5b50515b6125c857604080517f08c379a000000000000000000000000000000000000000000000000000000000815260206004820152601960248201527f4e6f6d69737761703a205452414e534645525f4641494c454400000000000000604482015290519081900360640190fd5b5050505050565b60008115806125ea575050808202828282816125e757fe5b04145b610eac57604080517f08c379a000000000000000000000000000000000000000000000000000000000815260206004820152601460248201527f64732d6d6174682d6d756c2d6f766572666c6f77000000000000000000000000604482015290519081900360640190fd5b80820382811115610eac57604080517f08c379a000000000000000000000000000000000000000000000000000000000815260206004820152601560248201527f64732d6d6174682d7375622d756e646572666c6f770000000000000000000000604482015290519081900360640190fd5b6dffffffffffffffffffffffffffff84118015906126f357506dffffffffffffffffffffffffffff8311155b61275e57604080517f08c379a000000000000000000000000000000000000000000000000000000000815260206004820152601260248201527f4e6f6d69737761703a204f564552464c4f570000000000000000000000000000604482015290519081900360640190fd5b60085463ffffffff428116917c0100000000000000000000000000000000000000000000000000000000900481168203908116158015906127ae57506dffffffffffffffffffffffffffff841615155b80156127c957506dffffffffffffffffffffffffffff831615155b15612879578063ffffffff1661280c856127e286612e78565b7bffffffffffffffffffffffffffffffffffffffffffffffffffffffff169063ffffffff612e9c16565b600980547bffffffffffffffffffffffffffffffffffffffffffffffffffffffff929092169290920201905563ffffffff811661284c846127e287612e78565b600a80547bffffffffffffffffffffffffffffffffffffffffffffffffffffffff92909216929092020190555b600880547fffffffffffffffffffffffffffffffffffff0000000000000000000000000000166dffffffffffffffffffffffffffff888116919091177fffffffff0000000000000000000000000000ffffffffffffffffffffffffffff166e0100000000000000000000000000008883168102919091177bffffffffffffffffffffffffffffffffffffffffffffffffffffffff167c010000000000000000000000000000000000000000000000000000000063ffffffff871602179283905560408051848416815291909304909116602082015281517f1c411e9a96e071241c2f21f7726b17ae89e3cab4c78be50e062b03a9fffbbad1929181900390910190a1505050505050565b73ffffffffffffffffffffffffffffffffffffffff808416600081815260026020908152604080832094871680845294825291829020859055815185815291517f8c5be1e5ebec7d5bd14f71427d1e84f3dd0314c0f7b2291e5b200ac8c7c3b9259281900390910190a3505050565b73ffffffffffffffffffffffffffffffffffffffff8316600090815260016020526040902054612a28908263ffffffff61265516565b73ffffffffffffffffffffffffffffffffffffffff8085166000908152600160205260408082209390935590841681522054612a6a908263ffffffff612edd16565b73ffffffffffffffffffffffffffffffffffffffff80841660008181526001602090815260409182902094909455805185815290519193928716927fddf252ad1be2c89b69c2b068fc378daa952ba7f163c4a11628f55a4df523b3ef92918290030190a3505050565b600080600560009054906101000a900473ffffffffffffffffffffffffffffffffffffffff1673ffffffffffffffffffffffffffffffffffffffff1663017e7e586040518163ffffffff1660e01b815260040160206040518083038186803b158015612b3e57600080fd5b505afa158015612b52573d6000803e3d6000fd5b505050506040513d6020811015612b6857600080fd5b5051600b5473ffffffffffffffffffffffffffffffffffffffff8216158015945091925090612c85578015612c80576000612bbf6114956dffffffffffffffffffffffffffff88811690881663ffffffff6125cf16565b90506000612bcc83612c99565b905080821115612c7d576000612bfa612beb848463ffffffff61265516565b6000549063ffffffff6125cf16565b90506000612c59836e0100000000000000000000000000007bffffffffffffffffffffffffffffffffffffffffffffffffffffffff16612c45600d54886125cf90919063ffffffff16565b81612c4c57fe5b049063ffffffff612edd16565b90506000818381612c6657fe5b0490508015612c7957612c798782612ceb565b5050505b50505b612c91565b8015612c91576000600b555b505092915050565b60006003821115612cdc575080600160028204015b81811015612cd657809150600281828581612cc557fe5b040181612cce57fe5b049050612cae565b50612ce6565b8115612ce6575060015b919050565b600054612cfe908263ffffffff612edd16565b600090815573ffffffffffffffffffffffffffffffffffffffff8316815260016020526040902054612d36908263ffffffff612edd16565b73ffffffffffffffffffffffffffffffffffffffff831660008181526001602090815260408083209490945583518581529351929391927fddf252ad1be2c89b69c2b068fc378daa952ba7f163c4a11628f55a4df523b3ef9281900390910190a35050565b6000818310612daa5781612dac565b825b9392505050565b73ffffffffffffffffffffffffffffffffffffffff8216600090815260016020526040902054612de9908263ffffffff61265516565b73ffffffffffffffffffffffffffffffffffffffff831660009081526001602052604081209190915554612e23908263ffffffff61265516565b600090815560408051838152905173ffffffffffffffffffffffffffffffffffffffff8516917fddf252ad1be2c89b69c2b068fc378daa952ba7f163c4a11628f55a4df523b3ef919081900360200190a35050565b6dffffffffffffffffffffffffffff166e0100000000000000000000000000000290565b60006dffffffffffffffffffffffffffff82167bffffffffffffffffffffffffffffffffffffffffffffffffffffffff841681612ed557fe5b049392505050565b80820182811015610eac57604080517f08c379a000000000000000000000000000000000000000000000000000000000815260206004820152601460248201527f64732d6d6174682d6164642d6f766572666c6f77000000000000000000000000604482015290519081900360640190fdfe4e6f6d69737761703a20494e53554646494349454e545f4f55545055545f414d4f554e544e6f6d69737761703a20494e53554646494349454e545f4c49515549444954595f4d494e5445444e6f6d69737761703a20494e53554646494349454e545f494e5055545f414d4f554e544e6f6d69737761703a20494e53554646494349454e545f4c49515549444954595f4255524e4544a265627a7a723158202de2b40fad2b73336ed47438a6732b87c8becbd99d82cb287bfb0ae4e956bf2964736f6c63430005100032454950373132446f6d61696e28737472696e67206e616d652c737472696e672076657273696f6e2c75696e7432353620636861696e49642c6164647265737320766572696679696e67436f6e747261637429",
  "source": "pragma solidity =0.5.16;\n\nimport './interfaces/INomiswapFactory.sol';\nimport './NomiswapPair.sol';\n\ncontract NomiswapFactory is INomiswapFactory {\n\n    address public feeTo;\n    address public feeToSetter;\n    bytes32 public INIT_CODE_HASH = keccak256(abi.encodePacked(type(NomiswapPair).creationCode));\n\n    mapping(address => mapping(address => address)) public getPair;\n    address[] public allPairs;\n\n    event PairCreated(address indexed token0, address indexed token1, address pair, uint);\n\n    constructor(address _feeToSetter) public {\n        feeToSetter = _feeToSetter;\n    }\n\n    function allPairsLength() external view returns (uint) {\n        return allPairs.length;\n    }\n\n    function createPair(address tokenA, address tokenB) external returns (address pair) {\n        require(tokenA != tokenB, 'Nomiswap: IDENTICAL_ADDRESSES');\n        (address token0, address token1) = tokenA < tokenB ? (tokenA, tokenB) : (tokenB, tokenA);\n        require(token0 != address(0), 'Nomiswap: ZERO_ADDRESS');\n        require(getPair[token0][token1] == address(0), 'Nomiswap: PAIR_EXISTS'); // single check is sufficient\n        bytes memory bytecode = type(NomiswapPair).creationCode;\n        bytes32 salt = keccak256(abi.encodePacked(token0, token1));\n        assembly {\n            pair := create2(0, add(bytecode, 32), mload(bytecode), salt)\n        }\n        INomiswapPair(pair).initialize(token0, token1);\n        getPair[token0][token1] = pair;\n        getPair[token1][token0] = pair; // populate mapping in the reverse direction\n        allPairs.push(pair);\n        emit PairCreated(token0, token1, pair, allPairs.length);\n    }\n\n    function setFeeTo(address _feeTo) external {\n        require(msg.sender == feeToSetter, 'Nomiswap: FORBIDDEN');\n        feeTo = _feeTo;\n    }\n\n    function setFeeToSetter(address _feeToSetter) external {\n        require(msg.sender == feeToSetter, 'Nomiswap: FORBIDDEN');\n        feeToSetter = _feeToSetter;\n    }\n\n    function setDevFee(address _pair, uint8 _devFee) external {\n        require(msg.sender == feeToSetter, 'Nomiswap: FORBIDDEN');\n        require(_devFee > 0, 'Nomiswap: FORBIDDEN_FEE');\n        INomiswapPair(_pair).setDevFee(_devFee);\n    }\n\n    function setSwapFee(address _pair, uint32 _swapFee) external {\n        require(msg.sender == feeToSetter, 'Nomiswap: FORBIDDEN');\n        INomiswapPair(_pair).setSwapFee(_swapFee);\n    }\n}\n",
  "sourcePath": "/home/eraserpl/NetBeansProjects/dex-contracts/contracts/NomiswapFactory.sol",
  "compiler": {
    "name": "solc",
    "version": "0.5.16+commit.9c3226ce.Emscripten.clang"
  },
  "schemaVersion": "3.3.3",
  "updatedAt": "2021-12-27T08:11:31.504Z",
  "devdoc": {
    "methods": {}
  },
  "userdoc": {
    "methods": {}
  }
}