{
  "contractName": "NomiswapStablePair",
  "abi": [
    {
      "inputs": [
        {
          "internalType": "address",
          "name": "_token0",
          "type": "address"
        },
        {
          "internalType": "address",
          "name": "_token1",
          "type": "address"
        }
      ],
      "stateMutability": "nonpayable",
      "type": "constructor"
    },
    {
      "anonymous": false,
      "inputs": [
        {
          "indexed": true,
          "internalType": "address",
          "name": "owner",
          "type": "address"
        },
        {
          "indexed": true,
          "internalType": "address",
          "name": "spender",
          "type": "address"
        },
        {
          "indexed": false,
          "internalType": "uint256",
          "name": "value",
          "type": "uint256"
        }
      ],
      "name": "Approval",
      "type": "event"
    },
    {
      "anonymous": false,
      "inputs": [
        {
          "indexed": true,
          "internalType": "address",
          "name": "sender",
          "type": "address"
        },
        {
          "indexed": false,
          "internalType": "uint256",
          "name": "amount0",
          "type": "uint256"
        },
        {
          "indexed": false,
          "internalType": "uint256",
          "name": "amount1",
          "type": "uint256"
        },
        {
          "indexed": true,
          "internalType": "address",
          "name": "to",
          "type": "address"
        }
      ],
      "name": "Burn",
      "type": "event"
    },
    {
      "anonymous": false,
      "inputs": [
        {
          "indexed": true,
          "internalType": "address",
          "name": "sender",
          "type": "address"
        },
        {
          "indexed": false,
          "internalType": "uint256",
          "name": "amount0",
          "type": "uint256"
        },
        {
          "indexed": false,
          "internalType": "uint256",
          "name": "amount1",
          "type": "uint256"
        }
      ],
      "name": "Mint",
      "type": "event"
    },
    {
      "anonymous": false,
      "inputs": [
        {
          "indexed": false,
          "internalType": "uint256",
          "name": "oldA",
          "type": "uint256"
        },
        {
          "indexed": false,
          "internalType": "uint256",
          "name": "newA",
          "type": "uint256"
        },
        {
          "indexed": false,
          "internalType": "uint256",
          "name": "initialTime",
          "type": "uint256"
        },
        {
          "indexed": false,
          "internalType": "uint256",
          "name": "futureTime",
          "type": "uint256"
        }
      ],
      "name": "RampA",
      "type": "event"
    },
    {
      "anonymous": false,
      "inputs": [
        {
          "indexed": false,
          "internalType": "uint256",
          "name": "A",
          "type": "uint256"
        },
        {
          "indexed": false,
          "internalType": "uint256",
          "name": "t",
          "type": "uint256"
        }
      ],
      "name": "StopRampA",
      "type": "event"
    },
    {
      "anonymous": false,
      "inputs": [
        {
          "indexed": true,
          "internalType": "address",
          "name": "sender",
          "type": "address"
        },
        {
          "indexed": false,
          "internalType": "uint256",
          "name": "amount0In",
          "type": "uint256"
        },
        {
          "indexed": false,
          "internalType": "uint256",
          "name": "amount1In",
          "type": "uint256"
        },
        {
          "indexed": false,
          "internalType": "uint256",
          "name": "amount0Out",
          "type": "uint256"
        },
        {
          "indexed": false,
          "internalType": "uint256",
          "name": "amount1Out",
          "type": "uint256"
        },
        {
          "indexed": true,
          "internalType": "address",
          "name": "to",
          "type": "address"
        }
      ],
      "name": "Swap",
      "type": "event"
    },
    {
      "anonymous": false,
      "inputs": [
        {
          "indexed": false,
          "internalType": "uint112",
          "name": "reserve0",
          "type": "uint112"
        },
        {
          "indexed": false,
          "internalType": "uint112",
          "name": "reserve1",
          "type": "uint112"
        }
      ],
      "name": "Sync",
      "type": "event"
    },
    {
      "anonymous": false,
      "inputs": [
        {
          "indexed": true,
          "internalType": "address",
          "name": "from",
          "type": "address"
        },
        {
          "indexed": true,
          "internalType": "address",
          "name": "to",
          "type": "address"
        },
        {
          "indexed": false,
          "internalType": "uint256",
          "name": "value",
          "type": "uint256"
        }
      ],
      "name": "Transfer",
      "type": "event"
    },
    {
      "inputs": [],
      "name": "DOMAIN_SEPARATOR",
      "outputs": [
        {
          "internalType": "bytes32",
          "name": "",
          "type": "bytes32"
        }
      ],
      "stateMutability": "view",
      "type": "function"
    },
    {
      "inputs": [],
      "name": "MAX_FEE",
      "outputs": [
        {
          "internalType": "uint256",
          "name": "",
          "type": "uint256"
        }
      ],
      "stateMutability": "view",
      "type": "function"
    },
    {
      "inputs": [],
      "name": "MINIMUM_LIQUIDITY",
      "outputs": [
        {
          "internalType": "uint256",
          "name": "",
          "type": "uint256"
        }
      ],
      "stateMutability": "view",
      "type": "function"
    },
    {
      "inputs": [],
      "name": "PERMIT_TYPEHASH",
      "outputs": [
        {
          "internalType": "bytes32",
          "name": "",
          "type": "bytes32"
        }
      ],
      "stateMutability": "view",
      "type": "function"
    },
    {
      "inputs": [],
      "name": "adminFee",
      "outputs": [
        {
          "internalType": "uint128",
          "name": "",
          "type": "uint128"
        }
      ],
      "stateMutability": "view",
      "type": "function"
    },
    {
      "inputs": [
        {
          "internalType": "address",
          "name": "",
          "type": "address"
        },
        {
          "internalType": "address",
          "name": "",
          "type": "address"
        }
      ],
      "name": "allowance",
      "outputs": [
        {
          "internalType": "uint256",
          "name": "",
          "type": "uint256"
        }
      ],
      "stateMutability": "view",
      "type": "function"
    },
    {
      "inputs": [
        {
          "internalType": "address",
          "name": "spender",
          "type": "address"
        },
        {
          "internalType": "uint256",
          "name": "value",
          "type": "uint256"
        }
      ],
      "name": "approve",
      "outputs": [
        {
          "internalType": "bool",
          "name": "",
          "type": "bool"
        }
      ],
      "stateMutability": "nonpayable",
      "type": "function"
    },
    {
      "inputs": [
        {
          "internalType": "address",
          "name": "",
          "type": "address"
        }
      ],
      "name": "balanceOf",
      "outputs": [
        {
          "internalType": "uint256",
          "name": "",
          "type": "uint256"
        }
      ],
      "stateMutability": "view",
      "type": "function"
    },
    {
      "inputs": [],
      "name": "decimals",
      "outputs": [
        {
          "internalType": "uint8",
          "name": "",
          "type": "uint8"
        }
      ],
      "stateMutability": "view",
      "type": "function"
    },
    {
      "inputs": [
        {
          "internalType": "address",
          "name": "spender",
          "type": "address"
        },
        {
          "internalType": "uint256",
          "name": "subtractedValue",
          "type": "uint256"
        }
      ],
      "name": "decreaseAllowance",
      "outputs": [
        {
          "internalType": "bool",
          "name": "",
          "type": "bool"
        }
      ],
      "stateMutability": "nonpayable",
      "type": "function"
    },
    {
      "inputs": [],
      "name": "devFee",
      "outputs": [
        {
          "internalType": "uint128",
          "name": "",
          "type": "uint128"
        }
      ],
      "stateMutability": "view",
      "type": "function"
    },
    {
      "inputs": [
        {
          "internalType": "address",
          "name": "spender",
          "type": "address"
        },
        {
          "internalType": "uint256",
          "name": "addedValue",
          "type": "uint256"
        }
      ],
      "name": "increaseAllowance",
      "outputs": [
        {
          "internalType": "bool",
          "name": "",
          "type": "bool"
        }
      ],
      "stateMutability": "nonpayable",
      "type": "function"
    },
    {
      "inputs": [],
      "name": "name",
      "outputs": [
        {
          "internalType": "string",
          "name": "",
          "type": "string"
        }
      ],
      "stateMutability": "view",
      "type": "function"
    },
    {
      "inputs": [
        {
          "internalType": "address",
          "name": "",
          "type": "address"
        }
      ],
      "name": "nonces",
      "outputs": [
        {
          "internalType": "uint256",
          "name": "",
          "type": "uint256"
        }
      ],
      "stateMutability": "view",
      "type": "function"
    },
    {
      "inputs": [
        {
          "internalType": "address",
          "name": "owner",
          "type": "address"
        },
        {
          "internalType": "address",
          "name": "spender",
          "type": "address"
        },
        {
          "internalType": "uint256",
          "name": "value",
          "type": "uint256"
        },
        {
          "internalType": "uint256",
          "name": "deadline",
          "type": "uint256"
        },
        {
          "internalType": "uint8",
          "name": "v",
          "type": "uint8"
        },
        {
          "internalType": "bytes32",
          "name": "r",
          "type": "bytes32"
        },
        {
          "internalType": "bytes32",
          "name": "s",
          "type": "bytes32"
        }
      ],
      "name": "permit",
      "outputs": [],
      "stateMutability": "nonpayable",
      "type": "function"
    },
    {
      "inputs": [],
      "name": "swapFee",
      "outputs": [
        {
          "internalType": "uint32",
          "name": "",
          "type": "uint32"
        }
      ],
      "stateMutability": "view",
      "type": "function"
    },
    {
      "inputs": [],
      "name": "token0",
      "outputs": [
        {
          "internalType": "address",
          "name": "",
          "type": "address"
        }
      ],
      "stateMutability": "view",
      "type": "function"
    },
    {
      "inputs": [],
      "name": "token0PrecisionMultiplier",
      "outputs": [
        {
          "internalType": "uint128",
          "name": "",
          "type": "uint128"
        }
      ],
      "stateMutability": "view",
      "type": "function"
    },
    {
      "inputs": [],
      "name": "token1",
      "outputs": [
        {
          "internalType": "address",
          "name": "",
          "type": "address"
        }
      ],
      "stateMutability": "view",
      "type": "function"
    },
    {
      "inputs": [],
      "name": "token1PrecisionMultiplier",
      "outputs": [
        {
          "internalType": "uint128",
          "name": "",
          "type": "uint128"
        }
      ],
      "stateMutability": "view",
      "type": "function"
    },
    {
      "inputs": [],
      "name": "totalSupply",
      "outputs": [
        {
          "internalType": "uint256",
          "name": "",
          "type": "uint256"
        }
      ],
      "stateMutability": "view",
      "type": "function"
    },
    {
      "inputs": [
        {
          "internalType": "address",
          "name": "to",
          "type": "address"
        },
        {
          "internalType": "uint256",
          "name": "value",
          "type": "uint256"
        }
      ],
      "name": "transfer",
      "outputs": [
        {
          "internalType": "bool",
          "name": "",
          "type": "bool"
        }
      ],
      "stateMutability": "nonpayable",
      "type": "function"
    },
    {
      "inputs": [
        {
          "internalType": "address",
          "name": "from",
          "type": "address"
        },
        {
          "internalType": "address",
          "name": "to",
          "type": "address"
        },
        {
          "internalType": "uint256",
          "name": "value",
          "type": "uint256"
        }
      ],
      "name": "transferFrom",
      "outputs": [
        {
          "internalType": "bool",
          "name": "",
          "type": "bool"
        }
      ],
      "stateMutability": "nonpayable",
      "type": "function"
    },
    {
      "inputs": [],
      "name": "symbol",
      "outputs": [
        {
          "internalType": "string",
          "name": "",
          "type": "string"
        }
      ],
      "stateMutability": "view",
      "type": "function"
    },
    {
      "inputs": [
        {
          "internalType": "uint32",
          "name": "_swapFee",
          "type": "uint32"
        }
      ],
      "name": "setSwapFee",
      "outputs": [],
      "stateMutability": "nonpayable",
      "type": "function"
    },
    {
      "inputs": [
        {
          "internalType": "uint128",
          "name": "_devFee",
          "type": "uint128"
        }
      ],
      "name": "setDevFee",
      "outputs": [],
      "stateMutability": "nonpayable",
      "type": "function"
    },
    {
      "inputs": [
        {
          "internalType": "address",
          "name": "to",
          "type": "address"
        }
      ],
      "name": "mint",
      "outputs": [
        {
          "internalType": "uint256",
          "name": "liquidity",
          "type": "uint256"
        }
      ],
      "stateMutability": "nonpayable",
      "type": "function"
    },
    {
      "inputs": [
        {
          "internalType": "address",
          "name": "to",
          "type": "address"
        }
      ],
      "name": "burn",
      "outputs": [
        {
          "internalType": "uint256",
          "name": "amount0",
          "type": "uint256"
        },
        {
          "internalType": "uint256",
          "name": "amount1",
          "type": "uint256"
        }
      ],
      "stateMutability": "nonpayable",
      "type": "function"
    },
    {
      "inputs": [
        {
          "internalType": "uint256",
          "name": "amount0Out",
          "type": "uint256"
        },
        {
          "internalType": "uint256",
          "name": "amount1Out",
          "type": "uint256"
        },
        {
          "internalType": "address",
          "name": "to",
          "type": "address"
        },
        {
          "internalType": "bytes",
          "name": "data",
          "type": "bytes"
        }
      ],
      "name": "swap",
      "outputs": [],
      "stateMutability": "nonpayable",
      "type": "function"
    },
    {
      "inputs": [
        {
          "internalType": "address",
          "name": "to",
          "type": "address"
        }
      ],
      "name": "skim",
      "outputs": [],
      "stateMutability": "nonpayable",
      "type": "function"
    },
    {
      "inputs": [],
      "name": "sync",
      "outputs": [],
      "stateMutability": "nonpayable",
      "type": "function"
    },
    {
      "inputs": [
        {
          "internalType": "uint32",
          "name": "_futureA",
          "type": "uint32"
        },
        {
          "internalType": "uint40",
          "name": "_futureTime",
          "type": "uint40"
        }
      ],
      "name": "rampA",
      "outputs": [],
      "stateMutability": "nonpayable",
      "type": "function"
    },
    {
      "inputs": [],
      "name": "stopRampA",
      "outputs": [],
      "stateMutability": "nonpayable",
      "type": "function"
    },
    {
      "inputs": [
        {
          "internalType": "address",
          "name": "tokenIn",
          "type": "address"
        },
        {
          "internalType": "uint256",
          "name": "amountOut",
          "type": "uint256"
        }
      ],
      "name": "getAmountIn",
      "outputs": [
        {
          "internalType": "uint256",
          "name": "finalAmountIn",
          "type": "uint256"
        }
      ],
      "stateMutability": "view",
      "type": "function"
    },
    {
      "inputs": [
        {
          "internalType": "address",
          "name": "tokenIn",
          "type": "address"
        },
        {
          "internalType": "uint256",
          "name": "amountIn",
          "type": "uint256"
        }
      ],
      "name": "getAmountOut",
      "outputs": [
        {
          "internalType": "uint256",
          "name": "finalAmountOut",
          "type": "uint256"
        }
      ],
      "stateMutability": "view",
      "type": "function"
    },
    {
      "inputs": [],
      "name": "getReserves",
      "outputs": [
        {
          "internalType": "uint112",
          "name": "_reserve0",
          "type": "uint112"
        },
        {
          "internalType": "uint112",
          "name": "_reserve1",
          "type": "uint112"
        },
        {
          "internalType": "uint32",
          "name": "_blockTimestampLast",
          "type": "uint32"
        }
      ],
      "stateMutability": "view",
      "type": "function"
    },
    {
      "inputs": [],
      "name": "factory",
      "outputs": [
        {
          "internalType": "address",
          "name": "",
          "type": "address"
        }
      ],
      "stateMutability": "view",
      "type": "function"
    },
    {
      "inputs": [],
      "name": "getA",
      "outputs": [
        {
          "internalType": "uint256",
          "name": "",
          "type": "uint256"
        }
      ],
      "stateMutability": "view",
      "type": "function"
    }
  ],
  "bytecode": "0x610140604052600680546001600160801b031916600117905560076200002b600160701b6003620003f6565b62000037919062000418565b600680546001600160801b03928316600160801b0292169190911790556200006260646055620003f6565b600780546001600160401b03191663ffffffff92909216918217640100000000929092029190911763ffffffff60901b19166208312760931b179055348015620000ab57600080fd5b5060405162004d9d38038062004d9d833981016040819052620000ce9162000458565b604080518082018252601381527f4e6f6d697377617020737461626c65204c5073000000000000000000000000006020918201528151808301835260018152603160f81b9082015281517f8b73c3c69bb8fe3d512ecc4cf759cc79239f7b179b0ffacaa9a75d522b39400f918101919091527f22155260db1abf6474eb894108f4b66f54f6b4a9c481b6e3e789468ed505cc97918101919091527fc89efdaa54c0f20c7adf612882df0950f5a951637e0307cdcb4c672f298b8bc6606082015246608082018190523060a0830152339160c00160408051808303601f190181528282528051602091820120608052600160049081556001600160a01b0395861660a0526007805464ffffffffff60681b19166d01000000000000000000000000004264ffffffffff160217905587861660c081905295871660e05263313ce56760e01b84529151600095945063313ce5679383810193908290030181865afa1580156200023f573d6000803e3d6000fd5b505050506040513d601f19601f8201168201806040525081019062000265919062000490565b905060128160ff161115620002be5760405162461bcd60e51b8152602060048201526025602482015260008051602062004d7d8339815191526044820152643a37b5b2b760d91b60648201526084015b60405180910390fd5b620002cb816012620004bc565b620002d890600a62000622565b6001600160801b0316610100816001600160801b0316815250506000826001600160a01b031663313ce5676040518163ffffffff1660e01b8152600401602060405180830381865afa15801562000333573d6000803e3d6000fd5b505050506040513d601f19601f8201168201806040525081019062000359919062000490565b905060128160ff161115620003ae5760405162461bcd60e51b8152602060048201526025602482015260008051602062004d7d8339815191526044820152643a37b5b2b760d91b6064820152608401620002b5565b620003bb816012620004bc565b620003c890600a62000622565b6001600160801b031661012052506200063c92505050565b634e487b7160e01b600052601160045260246000fd5b6000816000190483118215151615620004135762000413620003e0565b500290565b6000826200043657634e487b7160e01b600052601260045260246000fd5b500490565b80516001600160a01b03811681146200045357600080fd5b919050565b600080604083850312156200046c57600080fd5b62000477836200043b565b915062000487602084016200043b565b90509250929050565b600060208284031215620004a357600080fd5b815160ff81168114620004b557600080fd5b9392505050565b600060ff821660ff841680821015620004d957620004d9620003e0565b90039392505050565b600181815b8085111562000529576001600160801b038290048211156200050d576200050d620003e0565b808516156200051b57918102915b93841c9390800290620004e7565b509250929050565b60008262000542575060016200061c565b8162000551575060006200061c565b81600181146200056a57600281146200057557620005b0565b60019150506200061c565b60ff841115620005895762000589620003e0565b6001841b91506001600160801b03821115620005a957620005a9620003e0565b506200061c565b5060208310610133831016604e8410600b8410161715620005ef575081810a6001600160801b03811115620005e957620005e9620003e0565b6200061c565b620005fb8383620004e2565b6001600160801b03819004821115620006185762000618620003e0565b0290505b92915050565b6000620004b560ff84166001600160801b03841662000531565b60805160a05160c05160e051610100516101205161461f6200075e6000396000818161049001528181610d7d015281816113710152818161299e015261355d01526000818161063701528181610d590152818161134d0152818161297a015261351d0152600081816106bd0152818161096a015281816114a4015281816117a301528181611e920152818161232f015281816125a901528181612ae1015261329c01526000818161038c01528181610949015281816113ca015281816116ef01528181611e700152818161227e0152818161258701528181612a4901526131ee0152600081816106790152818161106801528181611a6b0152818161276901528181612fd9015261393b0152600081816104560152612d4e015261461f6000f3fe608060405234801561001057600080fd5b50600436106102925760003560e01c80637ecebe0011610160578063bc25cf77116100d8578063d46300fd1161008c578063d6d788c311610071578063d6d788c3146106fa578063dd62ed3e1461070d578063fff6cae91461073857600080fd5b8063d46300fd146106df578063d505accf146106e757600080fd5b8063c4db7fa0116100bd578063c4db7fa01461069d578063ca706bcf146106a5578063d21220a7146106b857600080fd5b8063bc25cf7714610664578063c45a01551461067757600080fd5b8063a457c2d71161012f578063ba9a7a5611610114578063ba9a7a5614610629578063baa8c7cb14610632578063bc063e1a1461065957600080fd5b8063a457c2d714610603578063a9059cbb1461061657600080fd5b80637ecebe001461059757806389afcb44146105b757806395d89b41146105df578063a0be06f9146105e757600080fd5b8063313ce5671161020e578063632db21c116101c25780636a627842116101a75780636a6278421461055157806370a082311461056457806373c48bb51461058457600080fd5b8063632db21c1461050e5780636827e7641461052157600080fd5b806339509351116101f357806339509351146104785780634e25dc471461048b57806354cf2aeb146104d357600080fd5b8063313ce567146104375780633644e5151461045157600080fd5b80630dfe16811161026557806318160ddd1161024a57806318160ddd146103e657806323b872dd146103fd57806330adf81f1461041057600080fd5b80630dfe168114610387578063111f8ef3146103d357600080fd5b8063022c0d9f1461029757806306fdde03146102ac5780630902f1ac146102fe578063095ea7b314610364575b600080fd5b6102aa6102a5366004613f4d565b610740565b005b6102e86040518060400160405280601381526020017f4e6f6d697377617020737461626c65204c50730000000000000000000000000081525081565b6040516102f59190614013565b60405180910390f35b600554604080516dffffffffffffffffffffffffffff80841682526e01000000000000000000000000000084041660208201527c010000000000000000000000000000000000000000000000000000000090920463ffffffff16908201526060016102f5565b610377610372366004614064565b611039565b60405190151581526020016102f5565b6103ae7f000000000000000000000000000000000000000000000000000000000000000081565b60405173ffffffffffffffffffffffffffffffffffffffff90911681526020016102f5565b6102aa6103e1366004614090565b611050565b6103ef60005481565b6040519081526020016102f5565b61037761040b3660046140c2565b6111a0565b6103ef7f6e71edae12b1b97f4d1f60370fef10105fa2faae0126114a169c64845d6126c981565b61043f601281565b60405160ff90911681526020016102f5565b6103ef7f000000000000000000000000000000000000000000000000000000000000000081565b610377610486366004614064565b61127b565b6104b27f000000000000000000000000000000000000000000000000000000000000000081565b6040516fffffffffffffffffffffffffffffffff90911681526020016102f5565b6007546104f9907201000000000000000000000000000000000000900463ffffffff1681565b60405163ffffffff90911681526020016102f5565b6103ef61051c366004614064565b6112c4565b6006546104b29070010000000000000000000000000000000090046fffffffffffffffffffffffffffffffff1681565b6103ef61055f366004614103565b6115d4565b6103ef610572366004614103565b60016020526000908152604090205481565b6102aa610592366004614139565b6119e2565b6103ef6105a5366004614103565b60036020526000908152604090205481565b6105ca6105c5366004614103565b611dca565b604080519283526020830191909152016102f5565b6102e8612244565b6006546104b2906fffffffffffffffffffffffffffffffff1681565b610377610611366004614064565b612404565b610377610624366004614064565b6124d4565b6103ef6103e881565b6104b27f000000000000000000000000000000000000000000000000000000000000000081565b6103ef63ffffffff81565b6102aa610672366004614103565b6124e1565b7f00000000000000000000000000000000000000000000000000000000000000006103ae565b6102aa6126e0565b6103ef6106b3366004614064565b6128ed565b6103ae7f000000000000000000000000000000000000000000000000000000000000000081565b6103ef612bdf565b6102aa6106f536600461417a565b612cbb565b6102aa6107083660046141f1565b612fc1565b6103ef61071b36600461420c565b600260209081526000928352604080842090915290825290205481565b6102aa613147565b6002600454036107b1576040517f08c379a000000000000000000000000000000000000000000000000000000000815260206004820152601f60248201527f5265656e7472616e637947756172643a207265656e7472616e742063616c6c0060448201526064015b60405180910390fd5b6002600455841515806107c45750600084115b61084f576040517f08c379a0000000000000000000000000000000000000000000000000000000008152602060048201526024808201527f4e6f6d69737761703a20494e53554646494349454e545f4f55545055545f414d60448201527f4f554e540000000000000000000000000000000000000000000000000000000060648201526084016107a8565b6000806108ab6005546dffffffffffffffffffffffffffff808216926e01000000000000000000000000000083049091169163ffffffff7c01000000000000000000000000000000000000000000000000000000009091041690565b506dffffffffffffffffffffffffffff1691506dffffffffffffffffffffffffffff16915081871080156108de57508086105b610944576040517f08c379a000000000000000000000000000000000000000000000000000000000815260206004820181905260248201527f4e6f6d69737761703a20494e53554646494349454e545f4c495155494449545960448201526064016107a8565b6000807f00000000000000000000000000000000000000000000000000000000000000007f000000000000000000000000000000000000000000000000000000000000000073ffffffffffffffffffffffffffffffffffffffff898116908316148015906109de57508073ffffffffffffffffffffffffffffffffffffffff168973ffffffffffffffffffffffffffffffffffffffff1614155b610a44576040517f08c379a000000000000000000000000000000000000000000000000000000000815260206004820152601460248201527f4e6f6d69737761703a20494e56414c49445f544f00000000000000000000000060448201526064016107a8565b8a15610a5557610a55828a8d613328565b8915610a6657610a66818a8c613328565b8615610af9576040517f2210968200000000000000000000000000000000000000000000000000000000815273ffffffffffffffffffffffffffffffffffffffff8a1690632210968290610ac69033908f908f908e908e9060040161423a565b600060405180830381600087803b158015610ae057600080fd5b505af1158015610af4573d6000803e3d6000fd5b505050505b6040517f70a0823100000000000000000000000000000000000000000000000000000000815230600482015273ffffffffffffffffffffffffffffffffffffffff8316906370a0823190602401602060405180830381865afa158015610b63573d6000803e3d6000fd5b505050506040513d601f19601f82011682018060405250810190610b8791906142b2565b6040517f70a0823100000000000000000000000000000000000000000000000000000000815230600482015290945073ffffffffffffffffffffffffffffffffffffffff8216906370a0823190602401602060405180830381865afa158015610bf4573d6000803e3d6000fd5b505050506040513d601f19601f82011682018060405250810190610c1891906142b2565b9250505060008985610c2a91906142fa565b8311610c37576000610c4b565b610c418a866142fa565b610c4b90846142fa565b90506000610c598a866142fa565b8311610c66576000610c7a565b610c708a866142fa565b610c7a90846142fa565b90506000821180610c8b5750600081115b610d17576040517f08c379a000000000000000000000000000000000000000000000000000000000815260206004820152602360248201527f4e6f6d69737761703a20494e53554646494349454e545f494e5055545f414d4f60448201527f554e54000000000000000000000000000000000000000000000000000000000060648201526084016107a8565b6000610d21612bdf565b60075490915063ffffffff72010000000000000000000000000000000000009091048116906fffffffffffffffffffffffffffffffff7f00000000000000000000000000000000000000000000000000000000000000008116917f00000000000000000000000000000000000000000000000000000000000000009091169060009083610dae868a614311565b610dbc63ffffffff8d614311565b610dc691906142fa565b610dd09190614311565b610dda919061437d565b9050600063ffffffff83610dee878a614311565b610dfc63ffffffff8d614311565b610e0691906142fa565b610e109190614311565b610e1a919061437d565b90506000610e298383896133ba565b90506000610e37868f614311565b90506000610e45868f614311565b90506000610e5483838c6133ba565b905080841015610ec0576040517f08c379a000000000000000000000000000000000000000000000000000000000815260206004820152600b60248201527f4e6f6d69737761703a204400000000000000000000000000000000000000000060448201526064016107a8565b6000610ecd8f8f8d613504565b90506000610edb83836142fa565b600054610ee89190614311565b60065490915060009084906e01000000000000000000000000000090610f349070010000000000000000000000000000000090046fffffffffffffffffffffffffffffffff1686614311565b610f3e919061437d565b610f489190614391565b9050610f54818361437d565b60068054600090610f789084906fffffffffffffffffffffffffffffffff166143a9565b92506101000a8154816fffffffffffffffffffffffffffffffff02191690836fffffffffffffffffffffffffffffffff16021790555050505050505050505050505050610fc5848461359a565b60408051838152602081018390529081018c9052606081018b905273ffffffffffffffffffffffffffffffffffffffff8a169033907fd78ad95fa46c994b6551d0da85fc275fe613ce37657fb8d5e3d130840159d8229060800160405180910390a350506001600455505050505050505050565b600061104633848461372d565b5060015b92915050565b3373ffffffffffffffffffffffffffffffffffffffff7f000000000000000000000000000000000000000000000000000000000000000016146110ef576040517f08c379a000000000000000000000000000000000000000000000000000000000815260206004820152601360248201527f4e6f6d69737761703a20464f5242494444454e0000000000000000000000000060448201526064016107a8565b806fffffffffffffffffffffffffffffffff1660000361116b576040517f08c379a000000000000000000000000000000000000000000000000000000000815260206004820152601d60248201527f4e6f6d6973776170537461626c65506169723a2064657620666565203000000060448201526064016107a8565b600680546fffffffffffffffffffffffffffffffff928316700100000000000000000000000000000000029216919091179055565b73ffffffffffffffffffffffffffffffffffffffff831660009081526002602090815260408083203384529091528120547fffffffffffffffffffffffffffffffffffffffffffffffffffffffffffffffff146112655773ffffffffffffffffffffffffffffffffffffffff841660009081526002602090815260408083203384529091529020546112339083906142fa565b73ffffffffffffffffffffffffffffffffffffffff851660009081526002602090815260408083203384529091529020555b61127084848461379c565b5060015b9392505050565b33600081815260026020908152604080832073ffffffffffffffffffffffffffffffffffffffff8716845290915281205490916110469185906112bf908690614391565b61372d565b60008060006113226005546dffffffffffffffffffffffffffff808216926e01000000000000000000000000000083049091169163ffffffff7c01000000000000000000000000000000000000000000000000000000009091041690565b506dffffffffffffffffffffffffffff91821693501690506fffffffffffffffffffffffffffffffff7f00000000000000000000000000000000000000000000000000000000000000008116907f000000000000000000000000000000000000000000000000000000000000000016600061139d8386614311565b905060006113ab8386614311565b905060006113b7612bdf565b905060006113c68484846133ba565b90507f000000000000000000000000000000000000000000000000000000000000000073ffffffffffffffffffffffffffffffffffffffff168b73ffffffffffffffffffffffffffffffffffffffff16036114a2576000611427868c614311565b61143190856142fa565b9050600061144082848661386b565b905060006114588961145289856142fa565b90613914565b6007549091506114989061148a9063ffffffff72010000000000000000000000000000000000009091048116906142fa565b61145263ffffffff84614311565b9b505050506115c6565b7f000000000000000000000000000000000000000000000000000000000000000073ffffffffffffffffffffffffffffffffffffffff168b73ffffffffffffffffffffffffffffffffffffffff1614611557576040517f08c379a000000000000000000000000000000000000000000000000000000000815260206004820152601360248201527f494e56414c49445f494e5055545f544f4b454e0000000000000000000000000060448201526064016107a8565b6000611563878c614311565b61156d90866142fa565b9050600061157c82848661386b565b9050600061158e8861145288856142fa565b6007549091506115c09061148a9063ffffffff72010000000000000000000000000000000000009091048116906142fa565b9b505050505b505050505050505092915050565b6000600260045403611642576040517f08c379a000000000000000000000000000000000000000000000000000000000815260206004820152601f60248201527f5265656e7472616e637947756172643a207265656e7472616e742063616c6c0060448201526064016107a8565b60026004556000806116a36005546dffffffffffffffffffffffffffff808216926e01000000000000000000000000000083049091169163ffffffff7c01000000000000000000000000000000000000000000000000000000009091041690565b506040517f70a08231000000000000000000000000000000000000000000000000000000008152306004820152919350915060009073ffffffffffffffffffffffffffffffffffffffff7f000000000000000000000000000000000000000000000000000000000000000016906370a0823190602401602060405180830381865afa158015611736573d6000803e3d6000fd5b505050506040513d601f19601f8201168201806040525081019061175a91906142b2565b6040517f70a0823100000000000000000000000000000000000000000000000000000000815230600482015290915060009073ffffffffffffffffffffffffffffffffffffffff7f000000000000000000000000000000000000000000000000000000000000000016906370a0823190602401602060405180830381865afa1580156117ea573d6000803e3d6000fd5b505050506040513d601f19601f8201168201806040525081019061180e91906142b2565b9050611818613937565b60008054906118376dffffffffffffffffffffffffffff8716856142fa565b905060006118556dffffffffffffffffffffffffffff8716856142fa565b90508260000361189c576000611869612bdf565b90506000611878878784613504565b90506118866103e8826142fa565b995061189560006103e8613a86565b50506118f1565b6118ee6dffffffffffffffffffffffffffff88166118ba8585614311565b6118c4919061437d565b6dffffffffffffffffffffffffffff88166118df8685614311565b6118e9919061437d565b613b31565b97505b60008811611981576040517f08c379a000000000000000000000000000000000000000000000000000000000815260206004820152602760248201527f4e6f6d69737761703a20494e53554646494349454e545f4c495155494449545960448201527f5f4d494e5445440000000000000000000000000000000000000000000000000060648201526084016107a8565b61198b8989613a86565b611995858561359a565b604080518381526020810183905233917f4c209b5fc8ad50758f13e2e1088ba56a560dff690a1c6fef26394f4c03821c4f910160405180910390a250506001600455509395945050505050565b600260045403611a4e576040517f08c379a000000000000000000000000000000000000000000000000000000000815260206004820152601f60248201527f5265656e7472616e637947756172643a207265656e7472616e742063616c6c0060448201526064016107a8565b60026004553373ffffffffffffffffffffffffffffffffffffffff7f00000000000000000000000000000000000000000000000000000000000000001614611af2576040517f08c379a000000000000000000000000000000000000000000000000000000000815260206004820152601360248201527f4e6f6d69737761703a20464f5242494444454e0000000000000000000000000060448201526064016107a8565b600754611b1690620151809068010000000000000000900464ffffffffff16614391565b421015611b7f576040517f08c379a000000000000000000000000000000000000000000000000000000000815260206004820181905260248201527f4e6f6d6973776170537461626c65506169723a20494e56414c49445f54494d4560448201526064016107a8565b611b8c6201518042614391565b8164ffffffffff161015611c22576040517f08c379a000000000000000000000000000000000000000000000000000000000815260206004820152602760248201527f4e6f6d6973776170537461626c65506169723a20494e56414c49445f4655545560448201527f52455f54494d450000000000000000000000000000000000000000000000000060648201526084016107a8565b6000611c2c612bdf565b905060008363ffffffff16118015611c565750611c4d6064620f4240614311565b8363ffffffff16105b611c5f57600080fd5b8063ffffffff168363ffffffff161015611c9d578063ffffffff1660648463ffffffff16611c8d9190614311565b1015611c9857600080fd5b611cc0565b611cae606463ffffffff8316614311565b8363ffffffff161115611cc057600080fd5b6007805463ffffffff8381167fffffffffffffffffffffffffffffffffffffffffffffffff00000000000000009092168217640100000000918716918202177fffffffffffffffffffffffffffff00000000000000000000ffffffffffffffff16680100000000000000004264ffffffffff818116929092027fffffffffffffffffffffffffffff0000000000ffffffffffffffffffffffffff16929092176d0100000000000000000000000000918816918202179094556040805193845260208401929092529082015260608101919091527fa2b71ec6df949300b59aab36b55e189697b750119dd349fcfa8c0f779e83c2549060800160405180910390a15050600160045550565b600080600260045403611e39576040517f08c379a000000000000000000000000000000000000000000000000000000000815260206004820152601f60248201527f5265656e7472616e637947756172643a207265656e7472616e742063616c6c0060448201526064016107a8565b600260049081556040517f70a0823100000000000000000000000000000000000000000000000000000000815230918101919091527f0000000000000000000000000000000000000000000000000000000000000000907f00000000000000000000000000000000000000000000000000000000000000009060009073ffffffffffffffffffffffffffffffffffffffff8416906370a0823190602401602060405180830381865afa158015611ef3573d6000803e3d6000fd5b505050506040513d601f19601f82011682018060405250810190611f1791906142b2565b6040517f70a0823100000000000000000000000000000000000000000000000000000000815230600482015290915060009073ffffffffffffffffffffffffffffffffffffffff8416906370a0823190602401602060405180830381865afa158015611f87573d6000803e3d6000fd5b505050506040513d601f19601f82011682018060405250810190611fab91906142b2565b30600090815260016020526040902054909150611fc6613937565b60005480611fd48584614311565b611fde919061437d565b975080611feb8484614311565b611ff5919061437d565b96506000881180156120075750600087115b612093576040517f08c379a000000000000000000000000000000000000000000000000000000000815260206004820152602760248201527f4e6f6d69737761703a20494e53554646494349454e545f4c495155494449545960448201527f5f4255524e45440000000000000000000000000000000000000000000000000060648201526084016107a8565b61209d3083613b47565b6120a8868a8a613328565b6120b3858a89613328565b6040517f70a0823100000000000000000000000000000000000000000000000000000000815230600482015273ffffffffffffffffffffffffffffffffffffffff8716906370a0823190602401602060405180830381865afa15801561211d573d6000803e3d6000fd5b505050506040513d601f19601f8201168201806040525081019061214191906142b2565b6040517f70a0823100000000000000000000000000000000000000000000000000000000815230600482015290945073ffffffffffffffffffffffffffffffffffffffff8616906370a0823190602401602060405180830381865afa1580156121ae573d6000803e3d6000fd5b505050506040513d601f19601f820116820180604052508101906121d291906142b2565b92506121de848461359a565b604080518981526020810189905273ffffffffffffffffffffffffffffffffffffffff8b169133917fdccd412f0b1252819cb1fd330b93224ca42612892bb3f4f789976e6d81936496910160405180910390a35050505050506001600481905550915091565b60606040518060400160405280600781526020017f4e4d582d534c50000000000000000000000000000000000000000000000000008152507f000000000000000000000000000000000000000000000000000000000000000073ffffffffffffffffffffffffffffffffffffffff166395d89b416040518163ffffffff1660e01b8152600401600060405180830381865afa1580156122e7573d6000803e3d6000fd5b505050506040513d6000823e601f3d9081017fffffffffffffffffffffffffffffffffffffffffffffffffffffffffffffffe016820160405261232d919081019061440c565b7f000000000000000000000000000000000000000000000000000000000000000073ffffffffffffffffffffffffffffffffffffffff166395d89b416040518163ffffffff1660e01b8152600401600060405180830381865afa158015612398573d6000803e3d6000fd5b505050506040513d6000823e601f3d9081017fffffffffffffffffffffffffffffffffffffffffffffffffffffffffffffffe01682016040526123de919081019061440c565b6040516020016123f0939291906144cc565b604051602081830303815290604052905090565b33600090815260026020908152604080832073ffffffffffffffffffffffffffffffffffffffff86168452909152812054828110156124c5576040517f08c379a000000000000000000000000000000000000000000000000000000000815260206004820152603360248201527f4e6f6d6973776170537461626c6545524332303a20646563726561736564206160448201527f6c6c6f77616e63652062656c6f77207a65726f0000000000000000000000000060648201526084016107a8565b61127033856112bf86856142fa565b600061104633848461379c565b60026004540361254d576040517f08c379a000000000000000000000000000000000000000000000000000000000815260206004820152601f60248201527f5265656e7472616e637947756172643a207265656e7472616e742063616c6c0060448201526064016107a8565b600260049081556005546040517f70a0823100000000000000000000000000000000000000000000000000000000815230928101929092527f0000000000000000000000000000000000000000000000000000000000000000917f00000000000000000000000000000000000000000000000000000000000000009161265691849186916dffffffffffffffffffffffffffff9091169073ffffffffffffffffffffffffffffffffffffffff8416906370a08231906024015b602060405180830381865afa158015612623573d6000803e3d6000fd5b505050506040513d601f19601f8201168201806040525081019061264791906142b2565b61265191906142fa565b613328565b6005546040517f70a082310000000000000000000000000000000000000000000000000000000081523060048201526126d691839186916e01000000000000000000000000000090046dffffffffffffffffffffffffffff169073ffffffffffffffffffffffffffffffffffffffff8416906370a0823190602401612606565b5050600160045550565b60026004540361274c576040517f08c379a000000000000000000000000000000000000000000000000000000000815260206004820152601f60248201527f5265656e7472616e637947756172643a207265656e7472616e742063616c6c0060448201526064016107a8565b60026004553373ffffffffffffffffffffffffffffffffffffffff7f000000000000000000000000000000000000000000000000000000000000000016146127f0576040517f08c379a000000000000000000000000000000000000000000000000000000000815260206004820152601360248201527f4e6f6d69737761703a20464f5242494444454e0000000000000000000000000060448201526064016107a8565b60006127fa612bdf565b600780547fffffffffffffffffffffffffffffffffffffffffffffffff00000000000000001663ffffffff83169081176401000000008202177fffffffffffffffffffffffffffff00000000000000000000ffffffffffffffff16680100000000000000004264ffffffffff81169182027fffffffffffffffffffffffffffff0000000000ffffffffffffffffffffffffff16929092176d010000000000000000000000000091909102179092556040805191825260208201929092529192507f46e22fb3709ad289f62ce63d469248536dbc78d82b84a3d7e74ad606dc201938910160405180910390a1506001600455565b600080600061294b6005546dffffffffffffffffffffffffffff808216926e01000000000000000000000000000083049091169163ffffffff7c01000000000000000000000000000000000000000000000000000000009091041690565b506007546dffffffffffffffffffffffffffff9283169450911691506fffffffffffffffffffffffffffffffff7f00000000000000000000000000000000000000000000000000000000000000008116917f00000000000000000000000000000000000000000000000000000000000000009091169060009063ffffffff906129ec9072010000000000000000000000000000000000009004821689614311565b6129fa63ffffffff8a614311565b612a0491906142fa565b612a0e919061437d565b90506000612a1c8487614311565b90506000612a2a8487614311565b90506000612a36612bdf565b90506000612a458484846133ba565b90507f000000000000000000000000000000000000000000000000000000000000000073ffffffffffffffffffffffffffffffffffffffff168c73ffffffffffffffffffffffffffffffffffffffff1603612adf576000612aa68887614311565b612ab09086614391565b90506000612abf82848661386b565b905087612acc82876142fa565b612ad6919061437d565b9b505050612bd0565b7f000000000000000000000000000000000000000000000000000000000000000073ffffffffffffffffffffffffffffffffffffffff168c73ffffffffffffffffffffffffffffffffffffffff1614612b94576040517f08c379a000000000000000000000000000000000000000000000000000000000815260206004820152601360248201527f494e56414c49445f494e5055545f544f4b454e0000000000000000000000000060448201526064016107a8565b6000612ba08787614311565b612baa9085614391565b90506000612bb982848661386b565b905088612bc682886142fa565b6115c0919061437d565b50505050505050505092915050565b6007546000906d0100000000000000000000000000810464ffffffffff1690640100000000900463ffffffff164282111561104a5760075463ffffffff81169068010000000000000000900464ffffffffff1681831115612c7f57612c4481856142fa565b612c4e83856142fa565b612c5883426142fa565b612c629190614311565b612c6c919061437d565b612c769083614391565b94505050505090565b612c8981856142fa565b612c9384846142fa565b612c9d83426142fa565b612ca79190614311565b612cb1919061437d565b612c7690836142fa565b42841015612d25576040517f08c379a000000000000000000000000000000000000000000000000000000000815260206004820152601160248201527f4e6f6d69737761703a204558504952454400000000000000000000000000000060448201526064016107a8565b73ffffffffffffffffffffffffffffffffffffffff8716600090815260036020526040812080547f0000000000000000000000000000000000000000000000000000000000000000917f6e71edae12b1b97f4d1f60370fef10105fa2faae0126114a169c64845d6126c9918b918b918b9187612da083614542565b9091555060408051602081019690965273ffffffffffffffffffffffffffffffffffffffff94851690860152929091166060840152608083015260a082015260c0810187905260e00160405160208183030381529060405280519060200120604051602001612e419291907f190100000000000000000000000000000000000000000000000000000000000081526002810192909252602282015260420190565b604080517fffffffffffffffffffffffffffffffffffffffffffffffffffffffffffffffe08184030181528282528051602091820120600080855291840180845281905260ff88169284019290925260608301869052608083018590529092509060019060a0016020604051602081039080840390855afa158015612eca573d6000803e3d6000fd5b50506040517fffffffffffffffffffffffffffffffffffffffffffffffffffffffffffffffe0015191505073ffffffffffffffffffffffffffffffffffffffff811615801590612f4557508873ffffffffffffffffffffffffffffffffffffffff168173ffffffffffffffffffffffffffffffffffffffff16145b612fab576040517f08c379a000000000000000000000000000000000000000000000000000000000815260206004820152601b60248201527f4e6f6d69737761703a20494e56414c49445f5349474e4154555245000000000060448201526064016107a8565b612fb689898961372d565b505050505050505050565b3373ffffffffffffffffffffffffffffffffffffffff7f00000000000000000000000000000000000000000000000000000000000000001614613060576040517f08c379a000000000000000000000000000000000000000000000000000000000815260206004820152601360248201527f4e6f6d69737761703a20464f5242494444454e0000000000000000000000000060448201526064016107a8565b63ffffffff8163ffffffff1611156130fa576040517f08c379a000000000000000000000000000000000000000000000000000000000815260206004820152602160248201527f4e6f6d6973776170537461626c65506169723a20464f5242494444454e5f464560448201527f450000000000000000000000000000000000000000000000000000000000000060648201526084016107a8565b6007805463ffffffff9092167201000000000000000000000000000000000000027fffffffffffffffffffff00000000ffffffffffffffffffffffffffffffffffff909216919091179055565b6002600454036131b3576040517f08c379a000000000000000000000000000000000000000000000000000000000815260206004820152601f60248201527f5265656e7472616e637947756172643a207265656e7472616e742063616c6c0060448201526064016107a8565b600260049081556040517f70a082310000000000000000000000000000000000000000000000000000000081523091810191909152613321907f000000000000000000000000000000000000000000000000000000000000000073ffffffffffffffffffffffffffffffffffffffff16906370a0823190602401602060405180830381865afa15801561324a573d6000803e3d6000fd5b505050506040513d601f19601f8201168201806040525081019061326e91906142b2565b6040517f70a082310000000000000000000000000000000000000000000000000000000081523060048201527f000000000000000000000000000000000000000000000000000000000000000073ffffffffffffffffffffffffffffffffffffffff16906370a0823190602401602060405180830381865afa1580156132f8573d6000803e3d6000fd5b505050506040513d601f19601f8201168201806040525081019061331c91906142b2565b61359a565b6001600455565b6040805173ffffffffffffffffffffffffffffffffffffffff8416602482015260448082018490528251808303909101815260649091019091526020810180517bffffffffffffffffffffffffffffffffffffffffffffffffffffffff167fa9059cbb000000000000000000000000000000000000000000000000000000001790526133b5908490613bfa565b505050565b6000808385106133ca57836133cc565b845b905060008486106133dd57856133df565b845b905060006133ed8284614391565b9050806000036134035760009350505050611274565b6000613410866010614311565b905060008361341f8484614311565b6134299190614311565b905060008461343a60646004614311565b61344490856142fa565b61344e9190614311565b9050600084975060005b6101008110156134f55788915060008883613474816064614311565b61347e9190614311565b613488919061437d565b905083613496826003614311565b6134a09190614391565b85826134ad8d6002614311565b6134b79190614311565b6134c19190614391565b6134cb919061437d565b99506134d78a84613d06565b156134e257506134f5565b50806134ed81614542565b915050613458565b50505050505050509392505050565b6000806135436fffffffffffffffffffffffffffffffff7f00000000000000000000000000000000000000000000000000000000000000001686614311565b905060006135836fffffffffffffffffffffffffffffffff7f00000000000000000000000000000000000000000000000000000000000000001686614311565b90506135908282866133ba565b9695505050505050565b6dffffffffffffffffffffffffffff82118015906135c657506dffffffffffffffffffffffffffff8111155b61362c576040517f08c379a000000000000000000000000000000000000000000000000000000000815260206004820152601260248201527f4e6f6d69737761703a204f564552464c4f57000000000000000000000000000060448201526064016107a8565b600061363d6401000000004261457a565b6005805463ffffffff83167c0100000000000000000000000000000000000000000000000000000000027bffffffffffffffffffffffffffffffffffffffffffffffffffffffff6dffffffffffffffffffffffffffff8781166e0100000000000000000000000000009081027fffffffff000000000000000000000000000000000000000000000000000000009095168a83161794909417918216831794859055604080519382169282169290921783529290930490911660208201529192507f1c411e9a96e071241c2f21f7726b17ae89e3cab4c78be50e062b03a9fffbbad1910160405180910390a1505050565b73ffffffffffffffffffffffffffffffffffffffff83811660008181526002602090815260408083209487168084529482529182902085905590518481527f8c5be1e5ebec7d5bd14f71427d1e84f3dd0314c0f7b2291e5b200ac8c7c3b92591015b60405180910390a3505050565b73ffffffffffffffffffffffffffffffffffffffff83166000908152600160205260409020546137cd9082906142fa565b73ffffffffffffffffffffffffffffffffffffffff808516600090815260016020526040808220939093559084168152205461380a908290614391565b73ffffffffffffffffffffffffffffffffffffffff80841660008181526001602052604090819020939093559151908516907fddf252ad1be2c89b69c2b068fc378daa952ba7f163c4a11628f55a4df523b3ef9061378f9085815260200190565b8160008061387a846004614311565b90506000600486888161388e816064614311565b6138989190614311565b6138a2919061437d565b6138ac9190614311565b6138b6919061437d565b90508587038202606487020160005b610100811015613908578594508385026138e88187028501600283028501613914565b96506138f48787613d06565b156138ff5750613908565b506001016138c5565b50505050509392505050565b60008160016139238286614391565b61392d91906142fa565b611274919061437d565b60007f000000000000000000000000000000000000000000000000000000000000000073ffffffffffffffffffffffffffffffffffffffff1663017e7e586040518163ffffffff1660e01b8152600401602060405180830381865afa1580156139a4573d6000803e3d6000fd5b505050506040513d601f19601f820116820180604052508101906139c8919061458e565b60065490915073ffffffffffffffffffffffffffffffffffffffff8216158015916fffffffffffffffffffffffffffffffff1690613a4d5760018111156133b557613a1d83613a186001846142fa565b613a86565b600680547fffffffffffffffffffffffffffffffff00000000000000000000000000000000166001179055505050565b60018111156133b557600680547fffffffffffffffffffffffffffffffff00000000000000000000000000000000166001179055505050565b80600054613a949190614391565b600090815573ffffffffffffffffffffffffffffffffffffffff8316815260016020526040902054613ac7908290614391565b73ffffffffffffffffffffffffffffffffffffffff83166000818152600160205260408082209390935591519091907fddf252ad1be2c89b69c2b068fc378daa952ba7f163c4a11628f55a4df523b3ef90613b259085815260200190565b60405180910390a35050565b6000818310613b405781611274565b5090919050565b73ffffffffffffffffffffffffffffffffffffffff8216600090815260016020526040902054613b789082906142fa565b73ffffffffffffffffffffffffffffffffffffffff831660009081526001602052604081209190915554613bad9082906142fa565b600090815560405182815273ffffffffffffffffffffffffffffffffffffffff8416907fddf252ad1be2c89b69c2b068fc378daa952ba7f163c4a11628f55a4df523b3ef90602001613b25565b6000613c5c826040518060400160405280602081526020017f5361666545524332303a206c6f772d6c6576656c2063616c6c206661696c65648152508573ffffffffffffffffffffffffffffffffffffffff16613d289092919063ffffffff16565b8051909150156133b55780806020019051810190613c7a91906145ab565b6133b5576040517f08c379a000000000000000000000000000000000000000000000000000000000815260206004820152602a60248201527f5361666545524332303a204552433230206f7065726174696f6e20646964206e60448201527f6f7420737563636565640000000000000000000000000000000000000000000060648201526084016107a8565b600081831115613d1d57506001818303111561104a565b506001919003111590565b6060613d378484600085613d3f565b949350505050565b606082471015613dd1576040517f08c379a000000000000000000000000000000000000000000000000000000000815260206004820152602660248201527f416464726573733a20696e73756666696369656e742062616c616e636520666f60448201527f722063616c6c000000000000000000000000000000000000000000000000000060648201526084016107a8565b73ffffffffffffffffffffffffffffffffffffffff85163b613e4f576040517f08c379a000000000000000000000000000000000000000000000000000000000815260206004820152601d60248201527f416464726573733a2063616c6c20746f206e6f6e2d636f6e747261637400000060448201526064016107a8565b6000808673ffffffffffffffffffffffffffffffffffffffff168587604051613e7891906145cd565b60006040518083038185875af1925050503d8060008114613eb5576040519150601f19603f3d011682016040523d82523d6000602084013e613eba565b606091505b5091509150613eca828286613ed5565b979650505050505050565b60608315613ee4575081611274565b825115613ef45782518084602001fd5b816040517f08c379a00000000000000000000000000000000000000000000000000000000081526004016107a89190614013565b73ffffffffffffffffffffffffffffffffffffffff81168114613f4a57600080fd5b50565b600080600080600060808688031215613f6557600080fd5b85359450602086013593506040860135613f7e81613f28565b9250606086013567ffffffffffffffff80821115613f9b57600080fd5b818801915088601f830112613faf57600080fd5b813581811115613fbe57600080fd5b896020828501011115613fd057600080fd5b9699959850939650602001949392505050565b60005b83811015613ffe578181015183820152602001613fe6565b8381111561400d576000848401525b50505050565b6020815260008251806020840152614032816040850160208701613fe3565b601f017fffffffffffffffffffffffffffffffffffffffffffffffffffffffffffffffe0169190910160400192915050565b6000806040838503121561407757600080fd5b823561408281613f28565b946020939093013593505050565b6000602082840312156140a257600080fd5b81356fffffffffffffffffffffffffffffffff8116811461127457600080fd5b6000806000606084860312156140d757600080fd5b83356140e281613f28565b925060208401356140f281613f28565b929592945050506040919091013590565b60006020828403121561411557600080fd5b813561127481613f28565b803563ffffffff8116811461413457600080fd5b919050565b6000806040838503121561414c57600080fd5b61415583614120565b9150602083013564ffffffffff8116811461416f57600080fd5b809150509250929050565b600080600080600080600060e0888a03121561419557600080fd5b87356141a081613f28565b965060208801356141b081613f28565b95506040880135945060608801359350608088013560ff811681146141d457600080fd5b9699959850939692959460a0840135945060c09093013592915050565b60006020828403121561420357600080fd5b61127482614120565b6000806040838503121561421f57600080fd5b823561422a81613f28565b9150602083013561416f81613f28565b73ffffffffffffffffffffffffffffffffffffffff8616815284602082015283604082015260806060820152816080820152818360a0830137600081830160a090810191909152601f9092017fffffffffffffffffffffffffffffffffffffffffffffffffffffffffffffffe0160101949350505050565b6000602082840312156142c457600080fd5b5051919050565b7f4e487b7100000000000000000000000000000000000000000000000000000000600052601160045260246000fd5b60008282101561430c5761430c6142cb565b500390565b6000817fffffffffffffffffffffffffffffffffffffffffffffffffffffffffffffffff0483118215151615614349576143496142cb565b500290565b7f4e487b7100000000000000000000000000000000000000000000000000000000600052601260045260246000fd5b60008261438c5761438c61434e565b500490565b600082198211156143a4576143a46142cb565b500190565b60006fffffffffffffffffffffffffffffffff8083168185168083038211156143d4576143d46142cb565b01949350505050565b7f4e487b7100000000000000000000000000000000000000000000000000000000600052604160045260246000fd5b60006020828403121561441e57600080fd5b815167ffffffffffffffff8082111561443657600080fd5b818401915084601f83011261444a57600080fd5b81518181111561445c5761445c6143dd565b604051601f82017fffffffffffffffffffffffffffffffffffffffffffffffffffffffffffffffe0908116603f011681019083821181831017156144a2576144a26143dd565b816040528281528760208487010111156144bb57600080fd5b613eca836020830160208801613fe3565b600084516144de818460208901613fe3565b80830190507f2d00000000000000000000000000000000000000000000000000000000000000808252855161451a816001850160208a01613fe3565b60019201918201528351614535816002840160208801613fe3565b0160020195945050505050565b60007fffffffffffffffffffffffffffffffffffffffffffffffffffffffffffffffff8203614573576145736142cb565b5060010190565b6000826145895761458961434e565b500690565b6000602082840312156145a057600080fd5b815161127481613f28565b6000602082840312156145bd57600080fd5b8151801515811461127457600080fd5b600082516145df818460208701613fe3565b919091019291505056fea26469706673582212209bbcf82b22f490fb76f1177940afefdf59480b202f5e83a46a3b45ac46c2e1d664736f6c634300080f00334e6f6d6973776170537461626c65506169723a20756e737570706f7274656420",
  "immutableReferences": {
    "789": [
      {
        "length": 32,
        "start": 1110
      },
      {
        "length": 32,
        "start": 11598
      }
    ],
    "1567": [
      {
        "length": 32,
        "start": 908
      },
      {
        "length": 32,
        "start": 2377
      },
      {
        "length": 32,
        "start": 5066
      },
      {
        "length": 32,
        "start": 5871
      },
      {
        "length": 32,
        "start": 7792
      },
      {
        "length": 32,
        "start": 8830
      },
      {
        "length": 32,
        "start": 9607
      },
      {
        "length": 32,
        "start": 10825
      },
      {
        "length": 32,
        "start": 12782
      }
    ],
    "1569": [
      {
        "length": 32,
        "start": 1725
      },
      {
        "length": 32,
        "start": 2410
      },
      {
        "length": 32,
        "start": 5284
      },
      {
        "length": 32,
        "start": 6051
      },
      {
        "length": 32,
        "start": 7826
      },
      {
        "length": 32,
        "start": 9007
      },
      {
        "length": 32,
        "start": 9641
      },
      {
        "length": 32,
        "start": 10977
      },
      {
        "length": 32,
        "start": 12956
      }
    ],
    "1596": [
      {
        "length": 32,
        "start": 1591
      },
      {
        "length": 32,
        "start": 3417
      },
      {
        "length": 32,
        "start": 4941
      },
      {
        "length": 32,
        "start": 10618
      },
      {
        "length": 32,
        "start": 13597
      }
    ],
    "1598": [
      {
        "length": 32,
        "start": 1168
      },
      {
        "length": 32,
        "start": 3453
      },
      {
        "length": 32,
        "start": 4977
      },
      {
        "length": 32,
        "start": 10654
      },
      {
        "length": 32,
        "start": 13661
      }
    ],
    "3799": [
      {
        "length": 32,
        "start": 1657
      },
      {
        "length": 32,
        "start": 4200
      },
      {
        "length": 32,
        "start": 6763
      },
      {
        "length": 32,
        "start": 10089
      },
      {
        "length": 32,
        "start": 12249
      },
      {
        "length": 32,
        "start": 14651
      }
    ]
  },
  "source": "// SPDX-License-Identifier: GPL-3.0-or-later\npragma solidity =0.8.15;\n\nimport \"./interfaces/INomiswapStablePair.sol\";\nimport \"./interfaces/INomiswapCallee.sol\";\nimport \"./interfaces/INomiswapFactory.sol\";\nimport \"./NomiswapStableERC20.sol\";\nimport \"./libraries/MathUtils.sol\";\nimport \"./libraries/UQ112x112.sol\";\nimport \"./util/FactoryGuard.sol\";\nimport \"@openzeppelin/contracts/token/ERC20/extensions/IERC20Metadata.sol\";\nimport \"@openzeppelin/contracts/token/ERC20/utils/SafeERC20.sol\";\nimport \"@openzeppelin/contracts/security/ReentrancyGuard.sol\";\n\ncontract NomiswapStablePair is INomiswapStablePair, NomiswapStableERC20, ReentrancyGuard, FactoryGuard {\n    using MathUtils for uint256;\n\n    uint256 public constant MINIMUM_LIQUIDITY = 10**3;\n\n    uint256 public constant MAX_FEE = 2**32 - 1; // @dev 100% (max of uint32).\n    uint256 private constant A_PRECISION = 100;\n\n    uint256 private constant MAX_A = 10 ** 6;\n    uint256 private constant MAX_A_CHANGE = 100;\n    uint256 private constant MIN_RAMP_TIME = 86400;\n\n    uint256 private constant Q112 = 2**112;\n    uint256 private constant MAX_LOOP_LIMIT = 256;\n\n    address public immutable token0;\n    address public immutable token1;\n\n    uint112 private reserve0;           // uses single storage slot, accessible via getReserves\n    uint112 private reserve1;           // uses single storage slot, accessible via getReserves\n    uint32  private blockTimestampLast; // uses single storage slot, accessible via getReserves\n\n    uint128 public adminFee = 1;\n    uint128 public devFee = uint128(Q112*(10-7)/uint(7)); // 70% (1/0.7-1)\n\n    uint128 public immutable token0PrecisionMultiplier; // uses single storage slot\n    uint128 public immutable token1PrecisionMultiplier; // uses single storage slot\n\n    uint32 initialA = uint32(85 * A_PRECISION); // uses single storage slot\n    uint32 futureA = initialA; // uses single storage slot\n    uint40 initialATime; // uses single storage slot\n    uint40 futureATime; // uses single storage slot\n    uint32 public swapFee = 4294968; // 0.1% default\n\n    constructor(address _token0, address _token1) FactoryGuard(msg.sender) {\n        futureATime = uint40(block.timestamp);\n        token0 = _token0;\n        token1 = _token1;\n        uint8 decimals0 = IERC20Metadata(_token0).decimals();\n        require(decimals0 <= 18, 'NomiswapStablePair: unsupported token');\n        token0PrecisionMultiplier = uint128(10)**(18 - decimals0);\n        uint8 decimals1 = IERC20Metadata(_token1).decimals();\n        require(decimals1 <= 18, 'NomiswapStablePair: unsupported token');\n        token1PrecisionMultiplier = uint128(10)**(18 - decimals1);\n    }\n\n    function symbol() external view returns (string memory) {\n        return string.concat(\n            symbolPrefix,\n            \"-\",\n            IERC20Metadata(token0).symbol(),\n            \"-\",\n            IERC20Metadata(token1).symbol()\n        );\n    }\n\n    function setSwapFee(uint32 _swapFee) override external onlyFactory {\n        require(_swapFee <= MAX_FEE, 'NomiswapStablePair: FORBIDDEN_FEE');\n        swapFee = _swapFee;\n    }\n\n    function setDevFee(uint128 _devFee) override external onlyFactory {\n        require(_devFee != 0, \"NomiswapStablePair: dev fee 0\");\n        devFee = _devFee;\n    }\n\n    // this low-level function should be called from a contract which performs important safety checks\n    function mint(address to) override external nonReentrant returns (uint liquidity) {\n        (uint112 _reserve0, uint112 _reserve1,) = getReserves(); // gas savings\n        uint balance0 = IERC20(token0).balanceOf(address(this));\n        uint balance1 = IERC20(token1).balanceOf(address(this));\n\n        _mintFee();\n        uint _totalSupply = totalSupply; // gas savings, must be defined here since totalSupply can update in _mintFee\n        uint amount0 = balance0 - _reserve0;\n        uint amount1 = balance1 - _reserve1;\n\n        if (_totalSupply == 0) {\n            uint A = getA();\n            uint dBalance = _computeLiquidity(balance0, balance1, A);\n            liquidity = dBalance - MINIMUM_LIQUIDITY;\n            _mint(address(0), MINIMUM_LIQUIDITY); // permanently lock the first MINIMUM_LIQUIDITY tokens\n        } else {\n            liquidity = MathUtils.min(amount0 * _totalSupply / _reserve0, amount1 * _totalSupply / _reserve1);\n        }\n\n        require(liquidity > 0, 'Nomiswap: INSUFFICIENT_LIQUIDITY_MINTED');\n        _mint(to, liquidity);\n\n        _update(balance0, balance1);\n        emit Mint(msg.sender, amount0, amount1);\n    }\n\n    // this low-level function should be called from a contract which performs important safety checks\n    function burn(address to) override external nonReentrant returns (uint amount0, uint amount1) {\n        address _token0 = token0;                                // gas savings\n        address _token1 = token1;                                // gas savings\n        uint balance0 = IERC20(_token0).balanceOf(address(this));\n        uint balance1 = IERC20(_token1).balanceOf(address(this));\n        uint liquidity = balanceOf[address(this)];\n\n        _mintFee();\n        uint _totalSupply = totalSupply; // gas savings, must be defined here since totalSupply can update in _mintFee\n        amount0 = liquidity * balance0 / _totalSupply; // using balances ensures pro-rata distribution\n        amount1 = liquidity * balance1 / _totalSupply; // using balances ensures pro-rata distribution\n        require(amount0 > 0 && amount1 > 0, 'Nomiswap: INSUFFICIENT_LIQUIDITY_BURNED');\n        _burn(address(this), liquidity);\n        SafeERC20.safeTransfer(IERC20(_token0), to, amount0);\n        SafeERC20.safeTransfer(IERC20(_token1), to, amount1);\n        balance0 = IERC20(_token0).balanceOf(address(this));\n        balance1 = IERC20(_token1).balanceOf(address(this));\n\n        _update(balance0, balance1);\n        emit Burn(msg.sender, amount0, amount1, to);\n    }\n\n    // this low-level function should be called from a contract which performs important safety checks\n    function swap(uint amount0Out, uint amount1Out, address to, bytes calldata data) override external nonReentrant {\n        require(amount0Out > 0 || amount1Out > 0, 'Nomiswap: INSUFFICIENT_OUTPUT_AMOUNT');\n        (uint _reserve0, uint _reserve1,) = getReserves(); // gas savings\n        require(amount0Out < _reserve0 && amount1Out < _reserve1, 'Nomiswap: INSUFFICIENT_LIQUIDITY');\n\n        uint balance0;\n        uint balance1;\n        { // scope for _token{0,1}, avoids stack too deep errors\n            address _token0 = token0;\n            address _token1 = token1;\n            require(to != _token0 && to != _token1, 'Nomiswap: INVALID_TO');\n            if (amount0Out > 0) SafeERC20.safeTransfer(IERC20(_token0), to, amount0Out); // optimistically transfer tokens\n            if (amount1Out > 0) SafeERC20.safeTransfer(IERC20(_token1), to, amount1Out); // optimistically transfer tokens\n            if (data.length > 0) INomiswapCallee(to).nomiswapCall(msg.sender, amount0Out, amount1Out, data);\n            balance0 = IERC20(_token0).balanceOf(address(this));\n            balance1 = IERC20(_token1).balanceOf(address(this));\n        }\n        uint amount0In = balance0 > _reserve0 - amount0Out ? balance0 - (_reserve0 - amount0Out) : 0;\n        uint amount1In = balance1 > _reserve1 - amount1Out ? balance1 - (_reserve1 - amount1Out) : 0;\n        require(amount0In > 0 || amount1In > 0, 'Nomiswap: INSUFFICIENT_INPUT_AMOUNT');\n        { // scope for reserve{0,1}Adjusted, avoids stack too deep errors\n\n            uint256 A = getA();\n            uint _swapFee = swapFee;\n            uint _token0PrecisionMultiplier = token0PrecisionMultiplier;\n            uint _token1PrecisionMultiplier = token1PrecisionMultiplier;\n            uint balance0Adjusted = (balance0 * MAX_FEE - amount0In * _swapFee) * _token0PrecisionMultiplier / MAX_FEE;\n            uint balance1Adjusted = (balance1 * MAX_FEE - amount1In * _swapFee) * _token1PrecisionMultiplier / MAX_FEE;\n            uint256 dBalance = _computeLiquidityFromAdjustedBalances(balance0Adjusted, balance1Adjusted, A);\n\n            uint256 adjustedReserve0 = _reserve0 * _token0PrecisionMultiplier;\n            uint256 adjustedReserve1 = _reserve1 * _token1PrecisionMultiplier;\n            uint256 dReserves = _computeLiquidityFromAdjustedBalances(adjustedReserve0, adjustedReserve1, A);\n\n            require(dBalance >= dReserves, 'Nomiswap: D');\n\n            uint256 dTotal = _computeLiquidity(balance0, balance1, A);\n            uint numerator = totalSupply * (dTotal - dReserves);\n            uint denominator = (dTotal * devFee/Q112) + dReserves;\n            adminFee += uint128(numerator / denominator);\n        }\n\n        _update(balance0, balance1);\n        emit Swap(msg.sender, amount0In, amount1In, amount0Out, amount1Out, to);\n    }\n\n    // force balances to match reserves\n    function skim(address to) override external nonReentrant {\n        address _token0 = token0; // gas savings\n        address _token1 = token1; // gas savings\n        SafeERC20.safeTransfer(IERC20(_token0), to, IERC20(_token0).balanceOf(address(this)) - reserve0);\n        SafeERC20.safeTransfer(IERC20(_token1), to, IERC20(_token1).balanceOf(address(this)) - reserve1);\n    }\n\n    // force reserves to match balances\n    function sync() override external nonReentrant {\n        _update(IERC20(token0).balanceOf(address(this)), IERC20(token1).balanceOf(address(this)));\n    }\n\n    function rampA(uint32 _futureA, uint40 _futureTime) override external nonReentrant onlyFactory {\n        require(block.timestamp >= initialATime + MIN_RAMP_TIME, 'NomiswapStablePair: INVALID_TIME');\n        require(_futureTime >= block.timestamp + MIN_RAMP_TIME, 'NomiswapStablePair: INVALID_FUTURE_TIME');\n\n        uint32 _initialA = uint32(getA());\n\n        require(_futureA > 0 && _futureA < MAX_A * A_PRECISION);\n\n        if (_futureA < _initialA) {\n            require(_futureA * MAX_A_CHANGE >= _initialA);\n        } else {\n            require(_futureA <= _initialA * MAX_A_CHANGE);\n        }\n\n        initialA = _initialA;\n        futureA = _futureA;\n        initialATime = uint40(block.timestamp);\n        futureATime = _futureTime;\n\n        emit RampA(_initialA, _futureA, block.timestamp, _futureTime);\n    }\n\n    function stopRampA() override external nonReentrant onlyFactory {\n        uint32 currentA = uint32(getA());\n\n        initialA = currentA;\n        futureA = currentA;\n        initialATime = uint40(block.timestamp);\n        futureATime = uint40(block.timestamp);\n\n        emit StopRampA(currentA, block.timestamp);\n    }\n\n    function getAmountIn(address tokenIn, uint256 amountOut) external view override returns (uint256 finalAmountIn) {\n        (uint256 _reserve0, uint256 _reserve1, ) = getReserves();\n\n        uint256 _token0PrecisionMultiplier = token0PrecisionMultiplier;\n        uint256 _token1PrecisionMultiplier = token1PrecisionMultiplier;\n        uint256 adjustedReserve0 = _reserve0 * _token0PrecisionMultiplier;\n        uint256 adjustedReserve1 = _reserve1 * _token1PrecisionMultiplier;\n        uint256 A = getA();\n        uint256 d = _computeLiquidityFromAdjustedBalances(adjustedReserve0, adjustedReserve1, A);\n\n        if (tokenIn == token0) {\n            uint256 x = adjustedReserve1 - amountOut * _token1PrecisionMultiplier;\n            uint256 y = _getY(x, d, A);\n            uint256 dy = (y - adjustedReserve0).divRoundUp(_token0PrecisionMultiplier);\n            finalAmountIn = (dy * MAX_FEE).divRoundUp(MAX_FEE - swapFee);\n        } else {\n            require(tokenIn == token1, \"INVALID_INPUT_TOKEN\");\n            uint256 x = adjustedReserve0 - amountOut * _token0PrecisionMultiplier;\n            uint256 y = _getY(x, d, A);\n            uint256 dy = (y - adjustedReserve1).divRoundUp(_token1PrecisionMultiplier);\n            finalAmountIn = (dy * MAX_FEE).divRoundUp(MAX_FEE - swapFee);\n        }\n    }\n\n    function getAmountOut(address tokenIn, uint256 amountIn) external view override returns (uint256 finalAmountOut) {\n        (uint256 _reserve0, uint256 _reserve1, ) = getReserves();\n\n        uint256 _token0PrecisionMultiplier = token0PrecisionMultiplier;\n        uint256 _token1PrecisionMultiplier = token1PrecisionMultiplier;\n        uint256 feeDeductedAmountIn = (amountIn * MAX_FEE - amountIn * swapFee) / MAX_FEE;\n        uint256 adjustedReserve0 = _reserve0 * _token0PrecisionMultiplier;\n        uint256 adjustedReserve1 = _reserve1 * _token1PrecisionMultiplier;\n        uint256 A = getA();\n        uint256 d = _computeLiquidityFromAdjustedBalances(adjustedReserve0, adjustedReserve1, A);\n\n        if (tokenIn == token0) {\n            uint256 x = adjustedReserve0 + feeDeductedAmountIn * _token0PrecisionMultiplier;\n            uint256 y = _getY(x, d, A);\n            finalAmountOut = (adjustedReserve1 - y) / _token1PrecisionMultiplier;\n        } else {\n            require(tokenIn == token1, \"INVALID_INPUT_TOKEN\");\n            uint256 x = adjustedReserve1 + feeDeductedAmountIn * _token1PrecisionMultiplier;\n            uint256 y = _getY(x, d, A);\n            finalAmountOut = (adjustedReserve0 - y) / _token0PrecisionMultiplier;\n        }\n    }\n\n    function getReserves() override public view returns (uint112 _reserve0, uint112 _reserve1, uint32 _blockTimestampLast) {\n        _reserve0 = reserve0;\n        _reserve1 = reserve1;\n        _blockTimestampLast = blockTimestampLast;\n    }\n\n    function factory() override public view returns (address) {\n        return _factory;\n    }\n\n    function getA() override public view returns (uint256) {\n        uint256 t1  = futureATime;\n        uint256 A1  = futureA;\n\n        if (block.timestamp < t1) {\n            uint256 A0 = initialA;\n            uint256 t0 = initialATime;\n            // Expressions in uint32 cannot have negative numbers, thus \"if\"\n            if (A1 > A0) {\n                return A0 + (block.timestamp - t0) * (A1 - A0) / (t1 - t0);\n            } else {\n                return A0 - (block.timestamp - t0) * (A0 - A1) / (t1 - t0);\n            }\n        } else {\n            // when t1 == 0 or block.timestamp >= t1\n            return A1;\n        }\n    }\n\n    function _computeLiquidity(uint256 _reserve0, uint256 _reserve1, uint256 A) private view returns (uint256 liquidity) {\n        uint256 adjustedReserve0 = _reserve0 * token0PrecisionMultiplier;\n        uint256 adjustedReserve1 = _reserve1 * token1PrecisionMultiplier;\n        liquidity = _computeLiquidityFromAdjustedBalances(adjustedReserve0, adjustedReserve1, A);\n    }\n\n    function _update(uint balance0, uint balance1) private {\n        require(balance0 <= type(uint112).max && balance1 <= type(uint112).max, 'Nomiswap: OVERFLOW');\n        uint32 blockTimestamp = uint32(block.timestamp % 2**32);\n        reserve0 = uint112(balance0);\n        reserve1 = uint112(balance1);\n        blockTimestampLast = blockTimestamp;\n        emit Sync(reserve0, reserve1);\n    }\n\n    // if fee is on, mint liquidity equivalent to 1/6th of the growth in sqrt(k)\n    function _mintFee() private {\n        address feeTo = INomiswapFactory(factory()).feeTo();\n        bool feeOn = feeTo != address(0);\n        uint _adminFee = adminFee; // gas savings\n        if (feeOn) {\n            if (_adminFee > 1) {\n                _mint(feeTo, _adminFee - 1);\n                adminFee = 1;\n            }\n        } else if (_adminFee > 1) {\n            adminFee = 1;\n        }\n    }\n\n    function _computeLiquidityFromAdjustedBalances(uint256 xp0, uint256 xp1, uint256 A) private pure returns (uint256 d) {\n        uint256 x = xp0 < xp1 ? xp0 : xp1;\n        uint256 y = xp0 < xp1 ? xp1 : xp0;\n        uint256 s = x + y;\n        if (s == 0) {\n            return 0;\n        }\n\n        uint256 N_A = 16 * A;\n        uint256 numeratorP = N_A * s * y;\n        uint256 denominatorP = (N_A - 4 * A_PRECISION) * y;\n\n        uint256 prevD;\n        d = s;\n        for (uint256 i = 0; i < MAX_LOOP_LIMIT; i++) {\n            prevD = d;\n            uint256 N_D = A_PRECISION * d * d / x;\n            d = (2 * d * N_D + numeratorP) / (3 * N_D + denominatorP);\n            if (d.within1(prevD)) {\n                break;\n            }\n        }\n    }\n\n    function _getY(uint256 x, uint256 d, uint256 A) private pure returns (uint256 y) {\n        uint256 yPrev;\n        y = d;\n        uint256 N_A = A * 4;\n        uint256 numeratorP = A_PRECISION * d * d / x * d / 4;\n        unchecked {\n            uint256 denominatorP = N_A * (x - d) + d * A_PRECISION; // underflow is possible and desired\n\n            // @dev Iterative approximation.\n            for (uint256 i = 0; i < MAX_LOOP_LIMIT; i++) {\n                yPrev = y;\n                uint256 N_Y = N_A * y;\n                y = (N_Y * y + numeratorP).divRoundUp((2 * N_Y + denominatorP));\n                if (y.within1(yPrev)) {\n                    break;\n                }\n            }\n        }\n    }\n\n}\n",
  "sourcePath": "/Users/plyuriy/projects/dex/stableswap-contracts/contracts/NomiswapStablePair.sol",
  "compiler": {
    "name": "solc",
    "version": "0.8.15+commit.e14f2714.Emscripten.clang"
  },
  "schemaVersion": "3.4.9",
  "updatedAt": "2022-12-12T10:22:13.062Z",
  "devdoc": {
    "kind": "dev",
    "methods": {
      "symbol()": {
        "details": "Returns the symbol of the token."
      }
    },
    "version": 1
  },
  "userdoc": {
    "kind": "user",
    "methods": {},
    "version": 1
  }
}