{
  "contractName": "StableSwapPair",
  "abi": [
    {
      "inputs": [],
      "stateMutability": "nonpayable",
      "type": "constructor"
    },
    {
      "anonymous": false,
      "inputs": [
        {
          "indexed": true,
          "internalType": "address",
          "name": "owner",
          "type": "address"
        },
        {
          "indexed": true,
          "internalType": "address",
          "name": "spender",
          "type": "address"
        },
        {
          "indexed": false,
          "internalType": "uint256",
          "name": "value",
          "type": "uint256"
        }
      ],
      "name": "Approval",
      "type": "event"
    },
    {
      "anonymous": false,
      "inputs": [
        {
          "indexed": true,
          "internalType": "address",
          "name": "sender",
          "type": "address"
        },
        {
          "indexed": false,
          "internalType": "uint256",
          "name": "amount0",
          "type": "uint256"
        },
        {
          "indexed": false,
          "internalType": "uint256",
          "name": "amount1",
          "type": "uint256"
        },
        {
          "indexed": true,
          "internalType": "address",
          "name": "to",
          "type": "address"
        }
      ],
      "name": "Burn",
      "type": "event"
    },
    {
      "anonymous": false,
      "inputs": [
        {
          "indexed": true,
          "internalType": "address",
          "name": "sender",
          "type": "address"
        },
        {
          "indexed": false,
          "internalType": "uint256",
          "name": "amount0",
          "type": "uint256"
        },
        {
          "indexed": false,
          "internalType": "uint256",
          "name": "amount1",
          "type": "uint256"
        }
      ],
      "name": "Mint",
      "type": "event"
    },
    {
      "anonymous": false,
      "inputs": [
        {
          "indexed": false,
          "internalType": "uint256",
          "name": "oldA",
          "type": "uint256"
        },
        {
          "indexed": false,
          "internalType": "uint256",
          "name": "newA",
          "type": "uint256"
        },
        {
          "indexed": false,
          "internalType": "uint256",
          "name": "initialTime",
          "type": "uint256"
        },
        {
          "indexed": false,
          "internalType": "uint256",
          "name": "futureTime",
          "type": "uint256"
        }
      ],
      "name": "RampA",
      "type": "event"
    },
    {
      "anonymous": false,
      "inputs": [
        {
          "indexed": false,
          "internalType": "uint256",
          "name": "A",
          "type": "uint256"
        },
        {
          "indexed": false,
          "internalType": "uint256",
          "name": "t",
          "type": "uint256"
        }
      ],
      "name": "StopRampA",
      "type": "event"
    },
    {
      "anonymous": false,
      "inputs": [
        {
          "indexed": true,
          "internalType": "address",
          "name": "sender",
          "type": "address"
        },
        {
          "indexed": false,
          "internalType": "uint256",
          "name": "amount0In",
          "type": "uint256"
        },
        {
          "indexed": false,
          "internalType": "uint256",
          "name": "amount1In",
          "type": "uint256"
        },
        {
          "indexed": false,
          "internalType": "uint256",
          "name": "amount0Out",
          "type": "uint256"
        },
        {
          "indexed": false,
          "internalType": "uint256",
          "name": "amount1Out",
          "type": "uint256"
        },
        {
          "indexed": true,
          "internalType": "address",
          "name": "to",
          "type": "address"
        }
      ],
      "name": "Swap",
      "type": "event"
    },
    {
      "anonymous": false,
      "inputs": [
        {
          "indexed": false,
          "internalType": "uint112",
          "name": "reserve0",
          "type": "uint112"
        },
        {
          "indexed": false,
          "internalType": "uint112",
          "name": "reserve1",
          "type": "uint112"
        }
      ],
      "name": "Sync",
      "type": "event"
    },
    {
      "anonymous": false,
      "inputs": [
        {
          "indexed": true,
          "internalType": "address",
          "name": "from",
          "type": "address"
        },
        {
          "indexed": true,
          "internalType": "address",
          "name": "to",
          "type": "address"
        },
        {
          "indexed": false,
          "internalType": "uint256",
          "name": "value",
          "type": "uint256"
        }
      ],
      "name": "Transfer",
      "type": "event"
    },
    {
      "inputs": [],
      "name": "DOMAIN_SEPARATOR",
      "outputs": [
        {
          "internalType": "bytes32",
          "name": "",
          "type": "bytes32"
        }
      ],
      "stateMutability": "view",
      "type": "function"
    },
    {
      "inputs": [],
      "name": "MINIMUM_LIQUIDITY",
      "outputs": [
        {
          "internalType": "uint256",
          "name": "",
          "type": "uint256"
        }
      ],
      "stateMutability": "view",
      "type": "function"
    },
    {
      "inputs": [],
      "name": "PERMIT_TYPEHASH",
      "outputs": [
        {
          "internalType": "bytes32",
          "name": "",
          "type": "bytes32"
        }
      ],
      "stateMutability": "view",
      "type": "function"
    },
    {
      "inputs": [
        {
          "internalType": "address",
          "name": "",
          "type": "address"
        },
        {
          "internalType": "address",
          "name": "",
          "type": "address"
        }
      ],
      "name": "allowance",
      "outputs": [
        {
          "internalType": "uint256",
          "name": "",
          "type": "uint256"
        }
      ],
      "stateMutability": "view",
      "type": "function"
    },
    {
      "inputs": [
        {
          "internalType": "address",
          "name": "spender",
          "type": "address"
        },
        {
          "internalType": "uint256",
          "name": "value",
          "type": "uint256"
        }
      ],
      "name": "approve",
      "outputs": [
        {
          "internalType": "bool",
          "name": "",
          "type": "bool"
        }
      ],
      "stateMutability": "nonpayable",
      "type": "function"
    },
    {
      "inputs": [
        {
          "internalType": "address",
          "name": "",
          "type": "address"
        }
      ],
      "name": "balanceOf",
      "outputs": [
        {
          "internalType": "uint256",
          "name": "",
          "type": "uint256"
        }
      ],
      "stateMutability": "view",
      "type": "function"
    },
    {
      "inputs": [],
      "name": "dLast",
      "outputs": [
        {
          "internalType": "uint256",
          "name": "",
          "type": "uint256"
        }
      ],
      "stateMutability": "view",
      "type": "function"
    },
    {
      "inputs": [],
      "name": "decimals",
      "outputs": [
        {
          "internalType": "uint8",
          "name": "",
          "type": "uint8"
        }
      ],
      "stateMutability": "view",
      "type": "function"
    },
    {
      "inputs": [],
      "name": "devFee",
      "outputs": [
        {
          "internalType": "uint256",
          "name": "",
          "type": "uint256"
        }
      ],
      "stateMutability": "view",
      "type": "function"
    },
    {
      "inputs": [],
      "name": "name",
      "outputs": [
        {
          "internalType": "string",
          "name": "",
          "type": "string"
        }
      ],
      "stateMutability": "view",
      "type": "function"
    },
    {
      "inputs": [
        {
          "internalType": "address",
          "name": "",
          "type": "address"
        }
      ],
      "name": "nonces",
      "outputs": [
        {
          "internalType": "uint256",
          "name": "",
          "type": "uint256"
        }
      ],
      "stateMutability": "view",
      "type": "function"
    },
    {
      "inputs": [
        {
          "internalType": "address",
          "name": "owner",
          "type": "address"
        },
        {
          "internalType": "address",
          "name": "spender",
          "type": "address"
        },
        {
          "internalType": "uint256",
          "name": "value",
          "type": "uint256"
        },
        {
          "internalType": "uint256",
          "name": "deadline",
          "type": "uint256"
        },
        {
          "internalType": "uint8",
          "name": "v",
          "type": "uint8"
        },
        {
          "internalType": "bytes32",
          "name": "r",
          "type": "bytes32"
        },
        {
          "internalType": "bytes32",
          "name": "s",
          "type": "bytes32"
        }
      ],
      "name": "permit",
      "outputs": [],
      "stateMutability": "nonpayable",
      "type": "function"
    },
    {
      "inputs": [],
      "name": "swapFee",
      "outputs": [
        {
          "internalType": "uint32",
          "name": "",
          "type": "uint32"
        }
      ],
      "stateMutability": "view",
      "type": "function"
    },
    {
      "inputs": [],
      "name": "symbol",
      "outputs": [
        {
          "internalType": "string",
          "name": "",
          "type": "string"
        }
      ],
      "stateMutability": "view",
      "type": "function"
    },
    {
      "inputs": [],
      "name": "token0",
      "outputs": [
        {
          "internalType": "address",
          "name": "",
          "type": "address"
        }
      ],
      "stateMutability": "view",
      "type": "function"
    },
    {
      "inputs": [],
      "name": "token0PrecisionMultiplier",
      "outputs": [
        {
          "internalType": "uint256",
          "name": "",
          "type": "uint256"
        }
      ],
      "stateMutability": "view",
      "type": "function"
    },
    {
      "inputs": [],
      "name": "token1",
      "outputs": [
        {
          "internalType": "address",
          "name": "",
          "type": "address"
        }
      ],
      "stateMutability": "view",
      "type": "function"
    },
    {
      "inputs": [],
      "name": "token1PrecisionMultiplier",
      "outputs": [
        {
          "internalType": "uint256",
          "name": "",
          "type": "uint256"
        }
      ],
      "stateMutability": "view",
      "type": "function"
    },
    {
      "inputs": [],
      "name": "totalSupply",
      "outputs": [
        {
          "internalType": "uint256",
          "name": "",
          "type": "uint256"
        }
      ],
      "stateMutability": "view",
      "type": "function"
    },
    {
      "inputs": [
        {
          "internalType": "address",
          "name": "to",
          "type": "address"
        },
        {
          "internalType": "uint256",
          "name": "value",
          "type": "uint256"
        }
      ],
      "name": "transfer",
      "outputs": [
        {
          "internalType": "bool",
          "name": "",
          "type": "bool"
        }
      ],
      "stateMutability": "nonpayable",
      "type": "function"
    },
    {
      "inputs": [
        {
          "internalType": "address",
          "name": "from",
          "type": "address"
        },
        {
          "internalType": "address",
          "name": "to",
          "type": "address"
        },
        {
          "internalType": "uint256",
          "name": "value",
          "type": "uint256"
        }
      ],
      "name": "transferFrom",
      "outputs": [
        {
          "internalType": "bool",
          "name": "",
          "type": "bool"
        }
      ],
      "stateMutability": "nonpayable",
      "type": "function"
    },
    {
      "inputs": [
        {
          "internalType": "address",
          "name": "_token0",
          "type": "address"
        },
        {
          "internalType": "address",
          "name": "_token1",
          "type": "address"
        }
      ],
      "name": "initialize",
      "outputs": [],
      "stateMutability": "nonpayable",
      "type": "function"
    },
    {
      "inputs": [
        {
          "internalType": "uint32",
          "name": "_swapFee",
          "type": "uint32"
        }
      ],
      "name": "setSwapFee",
      "outputs": [],
      "stateMutability": "nonpayable",
      "type": "function"
    },
    {
      "inputs": [
        {
          "internalType": "uint256",
          "name": "_devFee",
          "type": "uint256"
        }
      ],
      "name": "setDevFee",
      "outputs": [],
      "stateMutability": "nonpayable",
      "type": "function"
    },
    {
      "inputs": [
        {
          "internalType": "address",
          "name": "to",
          "type": "address"
        }
      ],
      "name": "mint",
      "outputs": [
        {
          "internalType": "uint256",
          "name": "liquidity",
          "type": "uint256"
        }
      ],
      "stateMutability": "nonpayable",
      "type": "function"
    },
    {
      "inputs": [
        {
          "internalType": "address",
          "name": "to",
          "type": "address"
        }
      ],
      "name": "burn",
      "outputs": [
        {
          "internalType": "uint256",
          "name": "amount0",
          "type": "uint256"
        },
        {
          "internalType": "uint256",
          "name": "amount1",
          "type": "uint256"
        }
      ],
      "stateMutability": "nonpayable",
      "type": "function"
    },
    {
      "inputs": [
        {
          "internalType": "uint256",
          "name": "amount0Out",
          "type": "uint256"
        },
        {
          "internalType": "uint256",
          "name": "amount1Out",
          "type": "uint256"
        },
        {
          "internalType": "address",
          "name": "to",
          "type": "address"
        },
        {
          "internalType": "bytes",
          "name": "data",
          "type": "bytes"
        }
      ],
      "name": "swap",
      "outputs": [],
      "stateMutability": "nonpayable",
      "type": "function"
    },
    {
      "inputs": [
        {
          "internalType": "address",
          "name": "to",
          "type": "address"
        }
      ],
      "name": "skim",
      "outputs": [],
      "stateMutability": "nonpayable",
      "type": "function"
    },
    {
      "inputs": [],
      "name": "sync",
      "outputs": [],
      "stateMutability": "nonpayable",
      "type": "function"
    },
    {
      "inputs": [
        {
          "internalType": "uint256",
          "name": "_futureA",
          "type": "uint256"
        },
        {
          "internalType": "uint256",
          "name": "_futureTime",
          "type": "uint256"
        }
      ],
      "name": "rampA",
      "outputs": [],
      "stateMutability": "nonpayable",
      "type": "function"
    },
    {
      "inputs": [],
      "name": "stopRampA",
      "outputs": [],
      "stateMutability": "nonpayable",
      "type": "function"
    },
    {
      "inputs": [
        {
          "internalType": "address",
          "name": "tokenIn",
          "type": "address"
        },
        {
          "internalType": "uint256",
          "name": "amountOut",
          "type": "uint256"
        }
      ],
      "name": "getAmountIn",
      "outputs": [
        {
          "internalType": "uint256",
          "name": "finalAmountIn",
          "type": "uint256"
        }
      ],
      "stateMutability": "view",
      "type": "function"
    },
    {
      "inputs": [
        {
          "internalType": "address",
          "name": "tokenIn",
          "type": "address"
        },
        {
          "internalType": "uint256",
          "name": "amountIn",
          "type": "uint256"
        }
      ],
      "name": "getAmountOut",
      "outputs": [
        {
          "internalType": "uint256",
          "name": "finalAmountOut",
          "type": "uint256"
        }
      ],
      "stateMutability": "view",
      "type": "function"
    },
    {
      "inputs": [],
      "name": "getReserves",
      "outputs": [
        {
          "internalType": "uint112",
          "name": "_reserve0",
          "type": "uint112"
        },
        {
          "internalType": "uint112",
          "name": "_reserve1",
          "type": "uint112"
        },
        {
          "internalType": "uint32",
          "name": "_blockTimestampLast",
          "type": "uint32"
        }
      ],
      "stateMutability": "view",
      "type": "function"
    },
    {
      "inputs": [],
      "name": "factory",
      "outputs": [
        {
          "internalType": "address",
          "name": "",
          "type": "address"
        }
      ],
      "stateMutability": "view",
      "type": "function"
    },
    {
      "inputs": [],
      "name": "getA",
      "outputs": [
        {
          "internalType": "uint256",
          "name": "",
          "type": "uint256"
        }
      ],
      "stateMutability": "view",
      "type": "function"
    }
  ],
  "bytecode": "0x60a0604052600a805463ffffffff191681179055600762000026600160701b60036200017d565b6001600160e01b03166200003b9190620001af565b600b556200004c60646055620001d2565b600e556200005d60646055620001d2565b600f553480156200006d57600080fd5b50604080518082018252600c81526b4e6f6d6973776170204c507360a01b6020918201528151808301835260018152603160f81b9082015281517f8b73c3c69bb8fe3d512ecc4cf759cc79239f7b179b0ffacaa9a75d522b39400f918101919091527f41181e8e0e1134e304563ce4f0d2a1743ef2b39102f68b1aaa3b51c14c12b4e0918101919091527fc89efdaa54c0f20c7adf612882df0950f5a951637e0307cdcb4c672f298b8bc6606082015246608082018190523060a0830152339160c00160408051601f1981840301815291905280516020909101206003555060016005556001600160a01b031660805242601155620001f4565b634e487b7160e01b600052601160045260246000fd5b60006001600160e01b0382811684821681151582840482111615620001a657620001a662000167565b02949350505050565b600082620001cd57634e487b7160e01b600052601260045260246000fd5b500490565b6000816000190483118215151615620001ef57620001ef62000167565b500290565b608051613ddd6200023a6000396000818161058701528181610de101528181610fca0152818161124d0152818161221e0152818161287c01526130eb0152613ddd6000f3fe608060405234801561001057600080fd5b506004361061025c5760003560e01c806370a0823111610145578063c45a0155116100bd578063d46300fd1161008c578063d6d788c311610071578063d6d788c314610601578063dd62ed3e14610614578063fff6cae91461063f57600080fd5b8063d46300fd146105e6578063d505accf146105ee57600080fd5b8063c45a015514610585578063c4db7fa0146105ab578063ca706bcf146105b3578063d21220a7146105c657600080fd5b806395d89b4111610114578063ba9a7a56116100f9578063ba9a7a5614610560578063baa8c7cb14610569578063bc25cf771461057257600080fd5b806395d89b4114610511578063a9059cbb1461054d57600080fd5b806370a08231146104a05780637ecebe00146104c057806389afcb44146104e057806392e9a8ac1461050857600080fd5b8063313ce567116101d857806354cf2aeb116101a7578063632db21c1161018c578063632db21c146104715780636827e764146104845780636a6278421461048d57600080fd5b806354cf2aeb14610439578063593d132c1461045e57600080fd5b8063313ce567146103fa5780633644e51514610414578063485cc9551461041d5780634e25dc471461043057600080fd5b80630dfe16811161022f5780631c75b6b2116102145780631c75b6b2146103ad57806323b872dd146103c057806330adf81f146103d357600080fd5b80630dfe16811461035157806318160ddd1461039657600080fd5b8063022c0d9f1461026157806306fdde03146102765780630902f1ac146102c8578063095ea7b31461032e575b600080fd5b61027461026f366004613767565b610647565b005b6102b26040518060400160405280600c81526020017f4e6f6d6973776170204c5073000000000000000000000000000000000000000081525081565b6040516102bf919061382d565b60405180910390f35b600854604080516dffffffffffffffffffffffffffff80841682526e01000000000000000000000000000084041660208201527c010000000000000000000000000000000000000000000000000000000090920463ffffffff16908201526060016102bf565b61034161033c36600461387e565b610db2565b60405190151581526020016102bf565b6006546103719073ffffffffffffffffffffffffffffffffffffffff1681565b60405173ffffffffffffffffffffffffffffffffffffffff90911681526020016102bf565b61039f60005481565b6040519081526020016102bf565b6102746103bb3660046138aa565b610dc9565b6103416103ce3660046138c3565b610ed7565b61039f7f6e71edae12b1b97f4d1f60370fef10105fa2faae0126114a169c64845d6126c981565b610402601281565b60405160ff90911681526020016102bf565b61039f60035481565b61027461042b366004613904565b610fb2565b61039f600d5481565b600a546104499063ffffffff1681565b60405163ffffffff90911681526020016102bf565b61027461046c36600461393d565b6111c4565b61039f61047f36600461387e565b6114c2565b61039f600b5481565b61039f61049b36600461395f565b6116dc565b61039f6104ae36600461395f565b60016020526000908152604090205481565b61039f6104ce36600461395f565b60046020526000908152604090205481565b6104f36104ee36600461395f565b611ad9565b604080519283526020830191909152016102bf565b61039f60095481565b6102b26040518060400160405280600681526020017f4e4d582d4c50000000000000000000000000000000000000000000000000000081525081565b61034161055b36600461387e565b611fc6565b61039f6103e881565b61039f600c5481565b61027461058036600461395f565b611fd3565b7f0000000000000000000000000000000000000000000000000000000000000000610371565b610274612195565b61039f6105c136600461387e565b61230e565b6007546103719073ffffffffffffffffffffffffffffffffffffffff1681565b61039f6124d8565b6102746105fc36600461398b565b612579565b61027461060f3660046139fc565b612864565b61039f610622366004613904565b600260209081526000928352604080842090915290825290205481565b6102746129ac565b6002600554036106b8576040517f08c379a000000000000000000000000000000000000000000000000000000000815260206004820152601f60248201527f5265656e7472616e637947756172643a207265656e7472616e742063616c6c0060448201526064015b60405180910390fd5b6002600555841515806106cb5750600084115b610756576040517f08c379a0000000000000000000000000000000000000000000000000000000008152602060048201526024808201527f4e6f6d69737761703a20494e53554646494349454e545f4f55545055545f414d60448201527f4f554e540000000000000000000000000000000000000000000000000000000060648201526084016106af565b6000806107b26008546dffffffffffffffffffffffffffff808216926e01000000000000000000000000000083049091169163ffffffff7c01000000000000000000000000000000000000000000000000000000009091041690565b506dffffffffffffffffffffffffffff1691506dffffffffffffffffffffffffffff16915081871080156107e557508086105b61084b576040517f08c379a000000000000000000000000000000000000000000000000000000000815260206004820181905260248201527f4e6f6d69737761703a20494e53554646494349454e545f4c495155494449545960448201526064016106af565b600654600754600091829173ffffffffffffffffffffffffffffffffffffffff9182169190811690891682148015906108b057508073ffffffffffffffffffffffffffffffffffffffff168973ffffffffffffffffffffffffffffffffffffffff1614155b610916576040517f08c379a000000000000000000000000000000000000000000000000000000000815260206004820152601460248201527f4e6f6d69737761703a20494e56414c49445f544f00000000000000000000000060448201526064016106af565b8a1561092757610927828a8d612b4f565b891561093857610938818a8c612b4f565b86156109cb576040517f2210968200000000000000000000000000000000000000000000000000000000815273ffffffffffffffffffffffffffffffffffffffff8a16906322109682906109989033908f908f908e908e90600401613a22565b600060405180830381600087803b1580156109b257600080fd5b505af11580156109c6573d6000803e3d6000fd5b505050505b6040517f70a0823100000000000000000000000000000000000000000000000000000000815230600482015273ffffffffffffffffffffffffffffffffffffffff8316906370a0823190602401602060405180830381865afa158015610a35573d6000803e3d6000fd5b505050506040513d601f19601f82011682018060405250810190610a599190613a9a565b6040517f70a0823100000000000000000000000000000000000000000000000000000000815230600482015290945073ffffffffffffffffffffffffffffffffffffffff8216906370a0823190602401602060405180830381865afa158015610ac6573d6000803e3d6000fd5b505050506040513d601f19601f82011682018060405250810190610aea9190613a9a565b9250505060008985610afc9190613ae2565b8311610b09576000610b1d565b610b138a86613ae2565b610b1d9084613ae2565b90506000610b2b8a86613ae2565b8311610b38576000610b4c565b610b428a86613ae2565b610b4c9084613ae2565b90506000821180610b5d5750600081115b610be9576040517f08c379a000000000000000000000000000000000000000000000000000000000815260206004820152602360248201527f4e6f6d69737761703a20494e53554646494349454e545f494e5055545f414d4f60448201527f554e54000000000000000000000000000000000000000000000000000000000060648201526084016106af565b6000610bf36124d8565b600a54600c5491925063ffffffff169060009061271090610c148488613af9565b610c206127108b613af9565b610c2a9190613ae2565b610c349190613af9565b610c3e9190613b65565b90506000612710600d548487610c549190613af9565b610c606127108b613af9565b610c6a9190613ae2565b610c749190613af9565b610c7e9190613b65565b90506000610c8d838387612be1565b90506000600c548c610c9f9190613af9565b90506000600d548c610cb19190613af9565b90506000610cc083838a612be1565b905080841015610d2c576040517f08c379a000000000000000000000000000000000000000000000000000000000815260206004820152600b60248201527f4e6f6d69737761703a204400000000000000000000000000000000000000000060448201526064016106af565b5050505050505050610d3e8484612d0e565b60408051838152602081018390529081018c9052606081018b905273ffffffffffffffffffffffffffffffffffffffff8a169033907fd78ad95fa46c994b6551d0da85fc275fe613ce37657fb8d5e3d130840159d8229060800160405180910390a350506001600555505050505050505050565b6000610dbf338484612ea1565b5060015b92915050565b3373ffffffffffffffffffffffffffffffffffffffff7f00000000000000000000000000000000000000000000000000000000000000001614610e68576040517f08c379a000000000000000000000000000000000000000000000000000000000815260206004820152601360248201527f4e6f6d69737761703a20464f5242494444454e0000000000000000000000000060448201526064016106af565b80600003610ed2576040517f08c379a000000000000000000000000000000000000000000000000000000000815260206004820152601760248201527f4e6f6d6973776170506169723a2064657620666565203000000000000000000060448201526064016106af565b600b55565b73ffffffffffffffffffffffffffffffffffffffff831660009081526002602090815260408083203384529091528120547fffffffffffffffffffffffffffffffffffffffffffffffffffffffffffffffff14610f9c5773ffffffffffffffffffffffffffffffffffffffff84166000908152600260209081526040808320338452909152902054610f6a908390613ae2565b73ffffffffffffffffffffffffffffffffffffffff851660009081526002602090815260408083203384529091529020555b610fa7848484612f10565b5060015b9392505050565b3373ffffffffffffffffffffffffffffffffffffffff7f00000000000000000000000000000000000000000000000000000000000000001614611051576040517f08c379a000000000000000000000000000000000000000000000000000000000815260206004820152601360248201527f4e6f6d69737761703a20464f5242494444454e0000000000000000000000000060448201526064016106af565b6006805473ffffffffffffffffffffffffffffffffffffffff8085167fffffffffffffffffffffffff000000000000000000000000000000000000000092831681179093556007805491851691909216179055604080517f313ce567000000000000000000000000000000000000000000000000000000008152905163313ce567916004808201926020929091908290030181865afa1580156110f8573d6000803e3d6000fd5b505050506040513d601f19601f8201168201806040525081019061111c9190613b79565b611127906012613b96565b61113290600a613cd9565b600c819055508073ffffffffffffffffffffffffffffffffffffffff1663313ce5676040518163ffffffff1660e01b8152600401602060405180830381865afa158015611183573d6000803e3d6000fd5b505050506040513d601f19601f820116820180604052508101906111a79190613b79565b6111b2906012613b96565b6111bd90600a613cd9565b600d555050565b600260055403611230576040517f08c379a000000000000000000000000000000000000000000000000000000000815260206004820152601f60248201527f5265656e7472616e637947756172643a207265656e7472616e742063616c6c0060448201526064016106af565b60026005553373ffffffffffffffffffffffffffffffffffffffff7f000000000000000000000000000000000000000000000000000000000000000016146112d4576040517f08c379a000000000000000000000000000000000000000000000000000000000815260206004820152601360248201527f4e6f6d69737761703a20464f5242494444454e0000000000000000000000000060448201526064016106af565b620151806010546112e59190613ce8565b42101561134e576040517f08c379a000000000000000000000000000000000000000000000000000000000815260206004820152601a60248201527f4e6f6d6973776170506169723a20494e56414c49445f54494d4500000000000060448201526064016106af565b61135b6201518042613ce8565b8110156113ea576040517f08c379a000000000000000000000000000000000000000000000000000000000815260206004820152602160248201527f4e6f6d6973776170506169723a20494e56414c49445f4655545552455f54494d60448201527f450000000000000000000000000000000000000000000000000000000000000060648201526084016106af565b60006113f46124d8565b90506000611403606485613af9565b90506000841180156114175750620f424084105b61142057600080fd5b818110156114445781611434600a83613af9565b101561143f57600080fd5b61145b565b61144f600a83613af9565b81111561145b57600080fd5b600e829055600f819055426010819055601184905560408051848152602081018490528082019290925260608201859052517fa2b71ec6df949300b59aab36b55e189697b750119dd349fcfa8c0f779e83c2549181900360800190a1505060016005555050565b60008060006115206008546dffffffffffffffffffffffffffff808216926e01000000000000000000000000000083049091169163ffffffff7c01000000000000000000000000000000000000000000000000000000009091041690565b506dffffffffffffffffffffffffffff1691506dffffffffffffffffffffffffffff1691506000600c54830290506000600d548302905060006115616124d8565b90506000611570848484612be1565b60065490915073ffffffffffffffffffffffffffffffffffffffff908116908a16036115f357600d548802830360006115aa828486612fdf565b90506000600c54878360010103816115c4576115c4613b36565b600a54919004915063ffffffff16612710908103908202816115e8576115e8613b36565b0499505050506116d0565b60075473ffffffffffffffffffffffffffffffffffffffff8a8116911614611677576040517f08c379a000000000000000000000000000000000000000000000000000000000815260206004820152601360248201527f494e56414c49445f494e5055545f544f4b454e0000000000000000000000000060448201526064016106af565b600c5488028403600061168b828486612fdf565b90506000600d54868360010103816116a5576116a5613b36565b600a54919004915063ffffffff16612710908103908202816116c9576116c9613b36565b0499505050505b50505050505092915050565b600060026005540361174a576040517f08c379a000000000000000000000000000000000000000000000000000000000815260206004820152601f60248201527f5265656e7472616e637947756172643a207265656e7472616e742063616c6c0060448201526064016106af565b60026005556000806117ab6008546dffffffffffffffffffffffffffff808216926e01000000000000000000000000000083049091169163ffffffff7c01000000000000000000000000000000000000000000000000000000009091041690565b506006546040517f70a0823100000000000000000000000000000000000000000000000000000000815230600482015292945090925060009173ffffffffffffffffffffffffffffffffffffffff909116906370a0823190602401602060405180830381865afa158015611823573d6000803e3d6000fd5b505050506040513d601f19601f820116820180604052508101906118479190613a9a565b6007546040517f70a0823100000000000000000000000000000000000000000000000000000000815230600482015291925060009173ffffffffffffffffffffffffffffffffffffffff909116906370a0823190602401602060405180830381865afa1580156118bb573d6000803e3d6000fd5b505050506040513d601f19601f820116820180604052508101906118df9190613a9a565b905060006118ed85856130e6565b600080549192506118fc6124d8565b9050600061190b868684613293565b905060006119296dffffffffffffffffffffffffffff8a1688613ae2565b905060006119476dffffffffffffffffffffffffffff8a1688613ae2565b90508460000361197d576103e861195f838387613293565b6119699190613ae2565b9a5061197860006103e86132b6565b6119d9565b6008546000906119b3906dffffffffffffffffffffffffffff808216916e01000000000000000000000000000090041687613293565b905080866119c18287613ae2565b6119cb9190613af9565b6119d59190613b65565b9b50505b60008b11611a69576040517f08c379a000000000000000000000000000000000000000000000000000000000815260206004820152602760248201527f4e6f6d69737761703a20494e53554646494349454e545f4c495155494449545960448201527f5f4d494e5445440000000000000000000000000000000000000000000000000060648201526084016106af565b611a738c8c6132b6565b611a7d8888612d0e565b8515611a895760098390555b604080518381526020810183905233917f4c209b5fc8ad50758f13e2e1088ba56a560dff690a1c6fef26394f4c03821c4f910160405180910390a250506001600555509698975050505050505050565b600080600260055403611b48576040517f08c379a000000000000000000000000000000000000000000000000000000000815260206004820152601f60248201527f5265656e7472616e637947756172643a207265656e7472616e742063616c6c0060448201526064016106af565b6002600555600080611ba96008546dffffffffffffffffffffffffffff808216926e01000000000000000000000000000083049091169163ffffffff7c01000000000000000000000000000000000000000000000000000000009091041690565b506006546007546040517f70a0823100000000000000000000000000000000000000000000000000000000815230600482015293955091935073ffffffffffffffffffffffffffffffffffffffff9081169291169060009083906370a0823190602401602060405180830381865afa158015611c29573d6000803e3d6000fd5b505050506040513d601f19601f82011682018060405250810190611c4d9190613a9a565b6040517f70a0823100000000000000000000000000000000000000000000000000000000815230600482015290915060009073ffffffffffffffffffffffffffffffffffffffff8416906370a0823190602401602060405180830381865afa158015611cbd573d6000803e3d6000fd5b505050506040513d601f19601f82011682018060405250810190611ce19190613a9a565b30600090815260016020526040812054919250611cfe88886130e6565b60005490915080611d0f8685613af9565b611d199190613b65565b9a5080611d268585613af9565b611d309190613b65565b995060008b118015611d42575060008a115b611dce576040517f08c379a000000000000000000000000000000000000000000000000000000000815260206004820152602760248201527f4e6f6d69737761703a20494e53554646494349454e545f4c495155494449545960448201527f5f4255524e45440000000000000000000000000000000000000000000000000060648201526084016106af565b611dd83084613361565b611de3878d8d612b4f565b611dee868d8c612b4f565b6040517f70a0823100000000000000000000000000000000000000000000000000000000815230600482015273ffffffffffffffffffffffffffffffffffffffff8816906370a0823190602401602060405180830381865afa158015611e58573d6000803e3d6000fd5b505050506040513d601f19601f82011682018060405250810190611e7c9190613a9a565b6040517f70a0823100000000000000000000000000000000000000000000000000000000815230600482015290955073ffffffffffffffffffffffffffffffffffffffff8716906370a0823190602401602060405180830381865afa158015611ee9573d6000803e3d6000fd5b505050506040513d601f19601f82011682018060405250810190611f0d9190613a9a565b9350611f198585612d0e565b8115611f5d57600854611f59906dffffffffffffffffffffffffffff808216916e010000000000000000000000000000900416611f546124d8565b613293565b6009555b604080518c8152602081018c905273ffffffffffffffffffffffffffffffffffffffff8e169133917fdccd412f0b1252819cb1fd330b93224ca42612892bb3f4f789976e6d81936496910160405180910390a35050505050505050506001600581905550915091565b6000610dbf338484612f10565b60026005540361203f576040517f08c379a000000000000000000000000000000000000000000000000000000000815260206004820152601f60248201527f5265656e7472616e637947756172643a207265656e7472616e742063616c6c0060448201526064016106af565b60026005556006546007546008546040517f70a0823100000000000000000000000000000000000000000000000000000000815230600482015273ffffffffffffffffffffffffffffffffffffffff938416939092169161210b91849186916dffffffffffffffffffffffffffff169083906370a08231906024015b602060405180830381865afa1580156120d8573d6000803e3d6000fd5b505050506040513d601f19601f820116820180604052508101906120fc9190613a9a565b6121069190613ae2565b612b4f565b6008546040517f70a0823100000000000000000000000000000000000000000000000000000000815230600482015261218b91839186916e01000000000000000000000000000090046dffffffffffffffffffffffffffff169073ffffffffffffffffffffffffffffffffffffffff8416906370a08231906024016120bb565b5050600160055550565b600260055403612201576040517f08c379a000000000000000000000000000000000000000000000000000000000815260206004820152601f60248201527f5265656e7472616e637947756172643a207265656e7472616e742063616c6c0060448201526064016106af565b60026005553373ffffffffffffffffffffffffffffffffffffffff7f000000000000000000000000000000000000000000000000000000000000000016146122a5576040517f08c379a000000000000000000000000000000000000000000000000000000000815260206004820152601360248201527f4e6f6d69737761703a20464f5242494444454e0000000000000000000000000060448201526064016106af565b60006122af6124d8565b600e819055600f81905542601081905560118190556040519192507f46e22fb3709ad289f62ce63d469248536dbc78d82b84a3d7e74ad606dc201938916122fe91848252602082015260400190565b60405180910390a1506001600555565b600080600061236c6008546dffffffffffffffffffffffffffff808216926e01000000000000000000000000000083049091169163ffffffff7c01000000000000000000000000000000000000000000000000000000009091041690565b50600a54600c54600d546dffffffffffffffffffffffffffff948516965092909316935061271063ffffffff909116870204860391840290830260006123b06124d8565b905060006123bf848484612be1565b60065490915073ffffffffffffffffffffffffffffffffffffffff908116908b160361241b57600c548502840160006123f9828486612fdf565b9050600d546001828703038161241157612411613b36565b04995050506124cb565b60075473ffffffffffffffffffffffffffffffffffffffff8b811691161461249f576040517f08c379a000000000000000000000000000000000000000000000000000000000815260206004820152601360248201527f494e56414c49445f494e5055545f544f4b454e0000000000000000000000000060448201526064016106af565b600d548502830160006124b3828486612fdf565b9050600c54600182880303816116c9576116c9613b36565b5050505050505092915050565b601154600f546000919042821115610dc357600e546010548183111561253d576125028185613ae2565b61250c8242613ae2565b6125168486613ae2565b6125209190613af9565b61252a9190613b65565b6125349083613ce8565b94505050505090565b6125478185613ae2565b6125518242613ae2565b61255b8585613ae2565b6125659190613af9565b61256f9190613b65565b6125349083613ae2565b428410156125e3576040517f08c379a000000000000000000000000000000000000000000000000000000000815260206004820152601160248201527f4e6f6d69737761703a204558504952454400000000000000000000000000000060448201526064016106af565b60035473ffffffffffffffffffffffffffffffffffffffff8816600090815260046020526040812080549192917f6e71edae12b1b97f4d1f60370fef10105fa2faae0126114a169c64845d6126c9918b918b918b91908761264383613d00565b9091555060408051602081019690965273ffffffffffffffffffffffffffffffffffffffff94851690860152929091166060840152608083015260a082015260c0810187905260e001604051602081830303815290604052805190602001206040516020016126e49291907f190100000000000000000000000000000000000000000000000000000000000081526002810192909252602282015260420190565b604080517fffffffffffffffffffffffffffffffffffffffffffffffffffffffffffffffe08184030181528282528051602091820120600080855291840180845281905260ff88169284019290925260608301869052608083018590529092509060019060a0016020604051602081039080840390855afa15801561276d573d6000803e3d6000fd5b50506040517fffffffffffffffffffffffffffffffffffffffffffffffffffffffffffffffe0015191505073ffffffffffffffffffffffffffffffffffffffff8116158015906127e857508873ffffffffffffffffffffffffffffffffffffffff168173ffffffffffffffffffffffffffffffffffffffff16145b61284e576040517f08c379a000000000000000000000000000000000000000000000000000000000815260206004820152601b60248201527f4e6f6d69737761703a20494e56414c49445f5349474e4154555245000000000060448201526064016106af565b612859898989612ea1565b505050505050505050565b3373ffffffffffffffffffffffffffffffffffffffff7f00000000000000000000000000000000000000000000000000000000000000001614612903576040517f08c379a000000000000000000000000000000000000000000000000000000000815260206004820152601360248201527f4e6f6d69737761703a20464f5242494444454e0000000000000000000000000060448201526064016106af565b6127108163ffffffff161115612975576040517f08c379a000000000000000000000000000000000000000000000000000000000815260206004820152601b60248201527f4e6f6d6973776170506169723a20464f5242494444454e5f464545000000000060448201526064016106af565b600a80547fffffffffffffffffffffffffffffffffffffffffffffffffffffffff000000001663ffffffff92909216919091179055565b600260055403612a18576040517f08c379a000000000000000000000000000000000000000000000000000000000815260206004820152601f60248201527f5265656e7472616e637947756172643a207265656e7472616e742063616c6c0060448201526064016106af565b60026005556006546040517f70a08231000000000000000000000000000000000000000000000000000000008152306004820152612b489173ffffffffffffffffffffffffffffffffffffffff16906370a0823190602401602060405180830381865afa158015612a8d573d6000803e3d6000fd5b505050506040513d601f19601f82011682018060405250810190612ab19190613a9a565b6007546040517f70a0823100000000000000000000000000000000000000000000000000000000815230600482015273ffffffffffffffffffffffffffffffffffffffff909116906370a0823190602401602060405180830381865afa158015612b1f573d6000803e3d6000fd5b505050506040513d601f19601f82011682018060405250810190612b439190613a9a565b612d0e565b6001600555565b6040805173ffffffffffffffffffffffffffffffffffffffff8416602482015260448082018490528251808303909101815260649091019091526020810180517bffffffffffffffffffffffffffffffffffffffffffffffffffffffff167fa9059cbb00000000000000000000000000000000000000000000000000000000179052612bdc908490613414565b505050565b600080612bee8486613ce8565b90506000612bfd846002613af9565b905081600003612c1257600092505050610fab565b600082815b610100811015612d02576000600489848c612c328280613af9565b612c3c9190613b65565b612c469190613af9565b612c509190613b65565b612c5a9190613b65565b9050829350806003612c6c9190613af9565b836001612c7a606489613b65565b612c849190613ae2565b612c8e9190613af9565b612c989190613ce8565b83612ca4836002613af9565b6064612cb08a8a613af9565b612cba9190613b65565b612cc49190613ce8565b612cce9190613af9565b612cd89190613b65565b9250612ce48385613520565b15612cef5750612d02565b5080612cfa81613d00565b915050612c17565b50979650505050505050565b6dffffffffffffffffffffffffffff8211801590612d3a57506dffffffffffffffffffffffffffff8111155b612da0576040517f08c379a000000000000000000000000000000000000000000000000000000000815260206004820152601260248201527f4e6f6d69737761703a204f564552464c4f57000000000000000000000000000060448201526064016106af565b6000612db164010000000042613d38565b6008805463ffffffff83167c0100000000000000000000000000000000000000000000000000000000027bffffffffffffffffffffffffffffffffffffffffffffffffffffffff6dffffffffffffffffffffffffffff8781166e0100000000000000000000000000009081027fffffffff000000000000000000000000000000000000000000000000000000009095168a83161794909417918216831794859055604080519382169282169290921783529290930490911660208201529192507f1c411e9a96e071241c2f21f7726b17ae89e3cab4c78be50e062b03a9fffbbad1910160405180910390a1505050565b73ffffffffffffffffffffffffffffffffffffffff83811660008181526002602090815260408083209487168084529482529182902085905590518481527f8c5be1e5ebec7d5bd14f71427d1e84f3dd0314c0f7b2291e5b200ac8c7c3b92591015b60405180910390a3505050565b73ffffffffffffffffffffffffffffffffffffffff8316600090815260016020526040902054612f41908290613ae2565b73ffffffffffffffffffffffffffffffffffffffff8085166000908152600160205260408082209390935590841681522054612f7e908290613ce8565b73ffffffffffffffffffffffffffffffffffffffff80841660008181526001602052604090819020939093559151908516907fddf252ad1be2c89b69c2b068fc378daa952ba7f163c4a11628f55a4df523b3ef90612f039085815260200190565b600080612fed836002613af9565b90506000612ffc866002613af9565b6130068680613af9565b6130109190613b65565b9050606461301f836002613af9565b6130299190613b65565b6130338683613af9565b61303d9190613b65565b905060008261304d606488613af9565b6130579190613b65565b6130619088613ce8565b9050600086945060005b6101008110156130da578591508783613085846002613af9565b61308f9190613ce8565b6130999190613ae2565b846130a48880613af9565b6130ae9190613ce8565b6130b89190613b65565b95506130c48683613520565b6130da57806130d281613d00565b91505061306b565b50505050509392505050565b6000807f000000000000000000000000000000000000000000000000000000000000000073ffffffffffffffffffffffffffffffffffffffff1663017e7e586040518163ffffffff1660e01b8152600401602060405180830381865afa158015613154573d6000803e3d6000fd5b505050506040513d601f19601f820116820180604052508101906131789190613d4c565b60095473ffffffffffffffffffffffffffffffffffffffff821615801594509192509061327f57801561327a5760006131d4866dffffffffffffffffffffffffffff16866dffffffffffffffffffffffffffff16611f546124d8565b9050600954811115613278576000600954826131f09190613ae2565b6000546131fd9190613af9565b905060006009546e0100000000000000000000000000007bffffffffffffffffffffffffffffffffffffffffffffffffffffffff16600b54856132409190613af9565b61324a9190613b65565b6132549190613ce8565b905060006132628284613b65565b905080156132745761327486826132b6565b5050505b505b61328b565b801561328b5760006009555b505092915050565b600c54600d5460009185029084026132ac828286612be1565b9695505050505050565b806000546132c49190613ce8565b600090815573ffffffffffffffffffffffffffffffffffffffff83168152600160205260409020546132f7908290613ce8565b73ffffffffffffffffffffffffffffffffffffffff83166000818152600160205260408082209390935591519091907fddf252ad1be2c89b69c2b068fc378daa952ba7f163c4a11628f55a4df523b3ef906133559085815260200190565b60405180910390a35050565b73ffffffffffffffffffffffffffffffffffffffff8216600090815260016020526040902054613392908290613ae2565b73ffffffffffffffffffffffffffffffffffffffff8316600090815260016020526040812091909155546133c7908290613ae2565b600090815560405182815273ffffffffffffffffffffffffffffffffffffffff8416907fddf252ad1be2c89b69c2b068fc378daa952ba7f163c4a11628f55a4df523b3ef90602001613355565b6000613476826040518060400160405280602081526020017f5361666545524332303a206c6f772d6c6576656c2063616c6c206661696c65648152508573ffffffffffffffffffffffffffffffffffffffff166135429092919063ffffffff16565b805190915015612bdc57808060200190518101906134949190613d69565b612bdc576040517f08c379a000000000000000000000000000000000000000000000000000000000815260206004820152602a60248201527f5361666545524332303a204552433230206f7065726174696f6e20646964206e60448201527f6f7420737563636565640000000000000000000000000000000000000000000060648201526084016106af565b600081831115613537575060018183031115610dc3565b506001919003111590565b60606135518484600085613559565b949350505050565b6060824710156135eb576040517f08c379a000000000000000000000000000000000000000000000000000000000815260206004820152602660248201527f416464726573733a20696e73756666696369656e742062616c616e636520666f60448201527f722063616c6c000000000000000000000000000000000000000000000000000060648201526084016106af565b73ffffffffffffffffffffffffffffffffffffffff85163b613669576040517f08c379a000000000000000000000000000000000000000000000000000000000815260206004820152601d60248201527f416464726573733a2063616c6c20746f206e6f6e2d636f6e747261637400000060448201526064016106af565b6000808673ffffffffffffffffffffffffffffffffffffffff1685876040516136929190613d8b565b60006040518083038185875af1925050503d80600081146136cf576040519150601f19603f3d011682016040523d82523d6000602084013e6136d4565b606091505b50915091506136e48282866136ef565b979650505050505050565b606083156136fe575081610fab565b82511561370e5782518084602001fd5b816040517f08c379a00000000000000000000000000000000000000000000000000000000081526004016106af919061382d565b73ffffffffffffffffffffffffffffffffffffffff8116811461376457600080fd5b50565b60008060008060006080868803121561377f57600080fd5b8535945060208601359350604086013561379881613742565b9250606086013567ffffffffffffffff808211156137b557600080fd5b818801915088601f8301126137c957600080fd5b8135818111156137d857600080fd5b8960208285010111156137ea57600080fd5b9699959850939650602001949392505050565b60005b83811015613818578181015183820152602001613800565b83811115613827576000848401525b50505050565b602081526000825180602084015261384c8160408501602087016137fd565b601f017fffffffffffffffffffffffffffffffffffffffffffffffffffffffffffffffe0169190910160400192915050565b6000806040838503121561389157600080fd5b823561389c81613742565b946020939093013593505050565b6000602082840312156138bc57600080fd5b5035919050565b6000806000606084860312156138d857600080fd5b83356138e381613742565b925060208401356138f381613742565b929592945050506040919091013590565b6000806040838503121561391757600080fd5b823561392281613742565b9150602083013561393281613742565b809150509250929050565b6000806040838503121561395057600080fd5b50508035926020909101359150565b60006020828403121561397157600080fd5b8135610fab81613742565b60ff8116811461376457600080fd5b600080600080600080600060e0888a0312156139a657600080fd5b87356139b181613742565b965060208801356139c181613742565b9550604088013594506060880135935060808801356139df8161397c565b9699959850939692959460a0840135945060c09093013592915050565b600060208284031215613a0e57600080fd5b813563ffffffff81168114610fab57600080fd5b73ffffffffffffffffffffffffffffffffffffffff8616815284602082015283604082015260806060820152816080820152818360a0830137600081830160a090810191909152601f9092017fffffffffffffffffffffffffffffffffffffffffffffffffffffffffffffffe0160101949350505050565b600060208284031215613aac57600080fd5b5051919050565b7f4e487b7100000000000000000000000000000000000000000000000000000000600052601160045260246000fd5b600082821015613af457613af4613ab3565b500390565b6000817fffffffffffffffffffffffffffffffffffffffffffffffffffffffffffffffff0483118215151615613b3157613b31613ab3565b500290565b7f4e487b7100000000000000000000000000000000000000000000000000000000600052601260045260246000fd5b600082613b7457613b74613b36565b500490565b600060208284031215613b8b57600080fd5b8151610fab8161397c565b600060ff821660ff841680821015613bb057613bb0613ab3565b90039392505050565b600181815b80851115613c1257817fffffffffffffffffffffffffffffffffffffffffffffffffffffffffffffffff04821115613bf857613bf8613ab3565b80851615613c0557918102915b93841c9390800290613bbe565b509250929050565b600082613c2957506001610dc3565b81613c3657506000610dc3565b8160018114613c4c5760028114613c5657613c72565b6001915050610dc3565b60ff841115613c6757613c67613ab3565b50506001821b610dc3565b5060208310610133831016604e8410600b8410161715613c95575081810a610dc3565b613c9f8383613bb9565b807fffffffffffffffffffffffffffffffffffffffffffffffffffffffffffffffff04821115613cd157613cd1613ab3565b029392505050565b6000610fab60ff841683613c1a565b60008219821115613cfb57613cfb613ab3565b500190565b60007fffffffffffffffffffffffffffffffffffffffffffffffffffffffffffffffff8203613d3157613d31613ab3565b5060010190565b600082613d4757613d47613b36565b500690565b600060208284031215613d5e57600080fd5b8151610fab81613742565b600060208284031215613d7b57600080fd5b81518015158114610fab57600080fd5b60008251613d9d8184602087016137fd565b919091019291505056fea264697066735822122090d064cac5ef57e5755e1cdd412ed6e1d5fc437d79ecf111fdb774841e1ac57664736f6c634300080f0033",
  "immutableReferences": {
    "3711": [
      {
        "length": 32,
        "start": 1415
      },
      {
        "length": 32,
        "start": 3553
      },
      {
        "length": 32,
        "start": 4042
      },
      {
        "length": 32,
        "start": 4685
      },
      {
        "length": 32,
        "start": 8734
      },
      {
        "length": 32,
        "start": 10364
      },
      {
        "length": 32,
        "start": 12523
      }
    ]
  },
  "source": "// SPDX-License-Identifier: GPL-3.0-or-later\npragma solidity =0.8.15;\n\nimport \"./interfaces/INomiswapStablePair.sol\";\nimport \"./interfaces/INomiswapCallee.sol\";\nimport \"./interfaces/INomiswapFactory.sol\";\nimport \"./StableSwapERC20.sol\";\nimport \"./libraries/MathUtils.sol\";\nimport \"./libraries/UQ112x112.sol\";\nimport \"./libraries/Math.sol\";\nimport \"./util/FactoryGuard.sol\";\nimport \"@openzeppelin/contracts/token/ERC20/extensions/IERC20Metadata.sol\";\nimport \"@openzeppelin/contracts/token/ERC20/utils/SafeERC20.sol\";\nimport \"@openzeppelin/contracts/security/ReentrancyGuard.sol\";\n\ncontract StableSwapPair is INomiswapStablePair, StableSwapERC20, ReentrancyGuard, FactoryGuard {\n    using MathUtils for uint256;\n\n    uint224 constant Q112 = 2**112;\n\n    using UQ112x112 for uint224;\n\n    uint public constant MINIMUM_LIQUIDITY = 10**3;\n\n    address public token0;\n    address public token1;\n\n    uint112 private reserve0;           // uses single storage slot, accessible via getReserves\n    uint112 private reserve1;           // uses single storage slot, accessible via getReserves\n    uint32  private blockTimestampLast; // uses single storage slot, accessible via getReserves\n\n    uint public dLast; // invariant\n    uint256 internal constant MAX_FEE = 10000; // @dev 100%.\n    uint32 public swapFee = 10; // uses 0.1% default\n    uint public devFee = uint(Q112*(10-7))/uint(7); // 70% (1/0.7-1)\n\n    uint256 internal constant A_PRECISION = 100;\n\n    uint256 private constant MAX_LOOP_LIMIT = 256;\n\n    uint256 internal constant MAX_A = 10 ** 6;\n    uint256 internal constant MAX_A_CHANGE = 10;\n    uint256 internal constant MIN_RAMP_TIME = 86400;\n\n\n    uint256 public token0PrecisionMultiplier;\n    uint256 public token1PrecisionMultiplier;\n\n    uint256 initialA = 85 * A_PRECISION;\n    uint256 futureA = 85 * A_PRECISION;\n    uint256 initialATime;\n    uint256 futureATime;\n\n    constructor() FactoryGuard(msg.sender) {\n        futureATime = block.timestamp;\n    }\n\n    function initialize(address _token0, address _token1) external onlyFactory {\n        token0 = _token0;\n        token1 = _token1;\n        token0PrecisionMultiplier = uint256(10)**(18 - IERC20Metadata(_token0).decimals());\n        token1PrecisionMultiplier = uint256(10)**(18 - IERC20Metadata(_token1).decimals());\n    }\n\n    function setSwapFee(uint32 _swapFee) override external onlyFactory {\n        require(_swapFee <= MAX_FEE, 'NomiswapPair: FORBIDDEN_FEE');\n        swapFee = _swapFee;\n    }\n\n    function setDevFee(uint _devFee) override external onlyFactory {\n        require(_devFee != 0, \"NomiswapPair: dev fee 0\");\n        devFee = _devFee;\n    }\n\n    // this low-level function should be called from a contract which performs important safety checks\n    function mint(address to) override external nonReentrant returns (uint liquidity) {\n        (uint112 _reserve0, uint112 _reserve1,) = getReserves(); // gas savings\n        uint balance0 = IERC20(token0).balanceOf(address(this));\n        uint balance1 = IERC20(token1).balanceOf(address(this));\n\n        bool feeOn = _mintFee(_reserve0, _reserve1);\n        uint _totalSupply = totalSupply; // gas savings, must be defined here since totalSupply can update in _mintFee\n        uint A = getA();\n        uint dBalance = _computeLiquidity(balance0, balance1, A);\n        uint amount0 = balance0 - _reserve0;\n        uint amount1 = balance1 - _reserve1;\n        if (_totalSupply == 0) {\n            liquidity = _computeLiquidity(amount0, amount1, A) - MINIMUM_LIQUIDITY;\n            _mint(address(0), MINIMUM_LIQUIDITY); // permanently lock the first MINIMUM_LIQUIDITY tokens\n        } else {\n            uint256 dReserve = _computeLiquidity(reserve0, reserve1, A);\n            liquidity = (dBalance - dReserve) * _totalSupply/dReserve;\n        }\n        require(liquidity > 0, 'Nomiswap: INSUFFICIENT_LIQUIDITY_MINTED');\n        _mint(to, liquidity);\n\n        _update(balance0, balance1);\n        if (feeOn) dLast = dBalance; // reserve0 and reserve1 are up-to-date\n        emit Mint(msg.sender, amount0, amount1);\n    }\n\n    // this low-level function should be called from a contract which performs important safety checks\n    function burn(address to) override external nonReentrant returns (uint amount0, uint amount1) {\n        (uint112 _reserve0, uint112 _reserve1,) = getReserves(); // gas savings\n        address _token0 = token0;                                // gas savings\n        address _token1 = token1;                                // gas savings\n        uint balance0 = IERC20(_token0).balanceOf(address(this));\n        uint balance1 = IERC20(_token1).balanceOf(address(this));\n        uint liquidity = balanceOf[address(this)];\n\n        bool feeOn = _mintFee(_reserve0, _reserve1);\n        uint _totalSupply = totalSupply; // gas savings, must be defined here since totalSupply can update in _mintFee\n        amount0 = liquidity * balance0 / _totalSupply; // using balances ensures pro-rata distribution\n        amount1 = liquidity * balance1 / _totalSupply; // using balances ensures pro-rata distribution\n        require(amount0 > 0 && amount1 > 0, 'Nomiswap: INSUFFICIENT_LIQUIDITY_BURNED');\n        _burn(address(this), liquidity);\n        SafeERC20.safeTransfer(IERC20(_token0), to, amount0);\n        SafeERC20.safeTransfer(IERC20(_token1), to, amount1);\n        balance0 = IERC20(_token0).balanceOf(address(this));\n        balance1 = IERC20(_token1).balanceOf(address(this));\n\n        _update(balance0, balance1);\n        if (feeOn) dLast = _computeLiquidity(reserve0, reserve1, getA()); // reserve0 and reserve1 are up-to-date\n        emit Burn(msg.sender, amount0, amount1, to);\n    }\n\n    // this low-level function should be called from a contract which performs important safety checks\n    function swap(uint amount0Out, uint amount1Out, address to, bytes calldata data) override external nonReentrant {\n        require(amount0Out > 0 || amount1Out > 0, 'Nomiswap: INSUFFICIENT_OUTPUT_AMOUNT');\n        (uint _reserve0, uint _reserve1,) = getReserves(); // gas savings\n        require(amount0Out < _reserve0 && amount1Out < _reserve1, 'Nomiswap: INSUFFICIENT_LIQUIDITY');\n\n        uint balance0;\n        uint balance1;\n        { // scope for _token{0,1}, avoids stack too deep errors\n            address _token0 = token0;\n            address _token1 = token1;\n            require(to != _token0 && to != _token1, 'Nomiswap: INVALID_TO');\n            if (amount0Out > 0) SafeERC20.safeTransfer(IERC20(_token0), to, amount0Out); // optimistically transfer tokens\n            if (amount1Out > 0) SafeERC20.safeTransfer(IERC20(_token1), to, amount1Out); // optimistically transfer tokens\n            if (data.length > 0) INomiswapCallee(to).nomiswapCall(msg.sender, amount0Out, amount1Out, data);\n            balance0 = IERC20(_token0).balanceOf(address(this));\n            balance1 = IERC20(_token1).balanceOf(address(this));\n        }\n        uint amount0In = balance0 > _reserve0 - amount0Out ? balance0 - (_reserve0 - amount0Out) : 0;\n        uint amount1In = balance1 > _reserve1 - amount1Out ? balance1 - (_reserve1 - amount1Out) : 0;\n        require(amount0In > 0 || amount1In > 0, 'Nomiswap: INSUFFICIENT_INPUT_AMOUNT');\n        { // scope for reserve{0,1}Adjusted, avoids stack too deep errors\n\n            uint256 A = getA();\n            uint _swapFee = swapFee;\n\n            uint balance0Adjusted = (balance0 * MAX_FEE - amount0In * _swapFee) * token0PrecisionMultiplier / MAX_FEE;\n            uint balance1Adjusted = (balance1 * MAX_FEE - amount1In * _swapFee) * token1PrecisionMultiplier / MAX_FEE;\n            uint256 dBalance = _computeLiquidityFromAdjustedBalances(balance0Adjusted, balance1Adjusted, A);\n\n            uint256 adjustedReserve0 = _reserve0 * token0PrecisionMultiplier;\n            uint256 adjustedReserve1 = _reserve1 * token1PrecisionMultiplier;\n            uint256 dReserves = _computeLiquidityFromAdjustedBalances(adjustedReserve0, adjustedReserve1, A);\n\n            require(dBalance >= dReserves, 'Nomiswap: D');\n        }\n\n        _update(balance0, balance1);\n        emit Swap(msg.sender, amount0In, amount1In, amount0Out, amount1Out, to);\n    }\n\n    // force balances to match reserves\n    function skim(address to) override external nonReentrant {\n        address _token0 = token0; // gas savings\n        address _token1 = token1; // gas savings\n        SafeERC20.safeTransfer(IERC20(_token0), to, IERC20(_token0).balanceOf(address(this)) - reserve0);\n        SafeERC20.safeTransfer(IERC20(_token1), to, IERC20(_token1).balanceOf(address(this)) - reserve1);\n    }\n\n    // force reserves to match balances\n    function sync() override external nonReentrant {\n        _update(IERC20(token0).balanceOf(address(this)), IERC20(token1).balanceOf(address(this)));\n    }\n\n    function rampA(uint256 _futureA, uint256 _futureTime) override external nonReentrant onlyFactory {\n\n        require(block.timestamp >= initialATime + MIN_RAMP_TIME, 'NomiswapPair: INVALID_TIME');\n        require(_futureTime >= block.timestamp + MIN_RAMP_TIME, 'NomiswapPair: INVALID_FUTURE_TIME');\n\n        uint256 _initialA = getA();\n        uint256 _futureAP = _futureA * A_PRECISION;\n\n        require(_futureA > 0 && _futureA < MAX_A);\n\n        if (_futureAP < _initialA) {\n            require(_futureAP * MAX_A_CHANGE >= _initialA);\n        } else {\n            require(_futureAP <= _initialA * MAX_A_CHANGE);\n        }\n\n        initialA = _initialA;\n        futureA = _futureAP;\n        initialATime = block.timestamp;\n        futureATime = _futureTime;\n\n        emit RampA(_initialA, _futureAP, block.timestamp, _futureTime);\n    }\n\n    function stopRampA() override external nonReentrant onlyFactory {\n        uint256 currentA = getA();\n        initialA = currentA;\n        futureA = currentA;\n        initialATime = block.timestamp;\n        futureATime = block.timestamp;\n\n        emit StopRampA(currentA, block.timestamp);\n    }\n\n    function getAmountIn(address tokenIn, uint256 amountOut) external view override returns (uint256 finalAmountIn) {\n        (uint256 _reserve0, uint256 _reserve1, ) = getReserves();\n\n        unchecked {\n            uint256 adjustedReserve0 = _reserve0 * token0PrecisionMultiplier;\n            uint256 adjustedReserve1 = _reserve1 * token1PrecisionMultiplier;\n            uint256 A = getA();\n            uint256 d = _computeLiquidityFromAdjustedBalances(adjustedReserve0, adjustedReserve1, A);\n\n            if (tokenIn == token0) {\n                uint256 x = adjustedReserve1 - amountOut * token1PrecisionMultiplier;\n                uint256 y = _getY(x, d, A);\n                uint256 dy = (y + 1 - adjustedReserve0) / token0PrecisionMultiplier;\n                finalAmountIn = dy * MAX_FEE / (MAX_FEE - swapFee);\n            } else {\n                require(tokenIn == token1, \"INVALID_INPUT_TOKEN\");\n                uint256 x = adjustedReserve0 - amountOut * token0PrecisionMultiplier;\n                uint256 y = _getY(x, d, A);\n                uint256 dy = (y + 1 - adjustedReserve1) / token1PrecisionMultiplier;\n                finalAmountIn = dy * MAX_FEE / (MAX_FEE - swapFee);\n            }\n        }\n    }\n\n    function getAmountOut(address tokenIn, uint256 amountIn) external view override returns (uint256 finalAmountOut) {\n        (uint256 _reserve0, uint256 _reserve1, ) = getReserves();\n\n\n        unchecked {\n            uint256 feeDeductedAmountIn = amountIn - (amountIn * swapFee) / MAX_FEE;\n            uint256 adjustedReserve0 = _reserve0 * token0PrecisionMultiplier;\n            uint256 adjustedReserve1 = _reserve1 * token1PrecisionMultiplier;\n            uint256 A = getA();\n            uint256 d = _computeLiquidityFromAdjustedBalances(adjustedReserve0, adjustedReserve1, A);\n\n            if (tokenIn == token0) {\n                uint256 x = adjustedReserve0 + feeDeductedAmountIn * token0PrecisionMultiplier;\n                uint256 y = _getY(x, d, A);\n                finalAmountOut = (adjustedReserve1 - y - 1) / token1PrecisionMultiplier;\n            } else {\n                require(tokenIn == token1, \"INVALID_INPUT_TOKEN\");\n                uint256 x = adjustedReserve1 + feeDeductedAmountIn * token1PrecisionMultiplier;\n                uint256 y = _getY(x, d, A);\n                finalAmountOut = (adjustedReserve0 - y - 1) / token0PrecisionMultiplier;\n            }\n        }\n    }\n\n    function getReserves() override public view returns (uint112 _reserve0, uint112 _reserve1, uint32 _blockTimestampLast) {\n        _reserve0 = reserve0;\n        _reserve1 = reserve1;\n        _blockTimestampLast = blockTimestampLast;\n    }\n\n    function factory() override public view returns (address) {\n        return _factory;\n    }\n\n    function getA() override public view returns (uint256) {\n        uint256 t1  = futureATime;\n        uint256 A1  = futureA;\n\n        if (block.timestamp < t1) {\n            uint256 A0 = initialA;\n            uint256 t0 = initialATime;\n            // Expressions in uint256 cannot have negative numbers, thus \"if\"\n            if (A1 > A0) {\n                return A0 + (A1 - A0) * (block.timestamp - t0) / (t1 - t0);\n            } else {\n                return A0 - (A0 - A1) * (block.timestamp - t0) / (t1 - t0);\n            }\n        } else {\n            // when t1 == 0 or block.timestamp >= t1\n            return A1;\n        }\n    }\n\n    function _computeLiquidity(uint256 _reserve0, uint256 _reserve1, uint256 A) private view returns (uint256 liquidity) {\n        unchecked {\n            uint256 adjustedReserve0 = _reserve0 * token0PrecisionMultiplier;\n            uint256 adjustedReserve1 = _reserve1 * token1PrecisionMultiplier;\n            liquidity = _computeLiquidityFromAdjustedBalances(adjustedReserve0, adjustedReserve1, A);\n        }\n    }\n\n    function _update(uint balance0, uint balance1) private {\n        require(balance0 <= type(uint112).max && balance1 <= type(uint112).max, 'Nomiswap: OVERFLOW');\n        uint32 blockTimestamp = uint32(block.timestamp % 2**32);\n        reserve0 = uint112(balance0);\n        reserve1 = uint112(balance1);\n        blockTimestampLast = blockTimestamp;\n        emit Sync(reserve0, reserve1);\n    }\n\n    // if fee is on, mint liquidity equivalent to 1/6th of the growth in sqrt(k)\n    function _mintFee(uint112 _reserve0, uint112 _reserve1) private returns (bool feeOn) {\n        address feeTo = INomiswapFactory(factory()).feeTo();\n        feeOn = feeTo != address(0);\n        uint _dLast = dLast; // gas savings\n        if (feeOn) {\n            if (_dLast != 0) {\n                uint d = _computeLiquidity(_reserve0, _reserve1, getA());\n                if (d > dLast) {\n                    uint numerator = totalSupply * (d - dLast);\n                    uint denominator = (d * devFee/Q112) + dLast;\n                    uint liquidity = numerator / denominator;\n                    if (liquidity > 0) _mint(feeTo, liquidity);\n                }\n            }\n        } else if (_dLast != 0) {\n            dLast = 0;\n        }\n    }\n\n    function _computeLiquidityFromAdjustedBalances(uint256 xp0, uint256 xp1, uint256 A) private pure returns (uint256 computed) {\n        uint256 s = xp0 + xp1;\n\n        uint256 N_A = A * 2;\n        if (s == 0) {\n            return 0;\n        }\n        uint256 prevD;\n        uint256 D = s;\n        for (uint256 i = 0; i < MAX_LOOP_LIMIT; i++) {\n            uint256 dP = (((D * D) / xp0) * D) / xp1 / 4;\n            prevD = D;\n            D = (((N_A * s) / A_PRECISION + 2 * dP) * D) / ((N_A / A_PRECISION - 1) * D + 3 * dP);\n            if (D.within1(prevD)) {\n                break;\n            }\n        }\n        computed = D;\n    }\n\n    function _getY(uint256 x, uint256 D, uint256 A) private pure returns (uint256 y) {\n        uint256 N_A = A * 2;\n        uint256 c = (D * D) / (x * 2);\n        c = (c * D) / ((N_A * 2) / A_PRECISION);\n        uint256 b = x + ((D * A_PRECISION) / N_A);\n        uint256 yPrev;\n        y = D;\n        // @dev Iterative approximation.\n        for (uint256 i = 0; i < MAX_LOOP_LIMIT; i++) {\n            yPrev = y;\n            y = (y * y + c) / (y * 2 + b - D);\n            if (y.within1(yPrev)) {\n                break;\n            }\n        }\n    }\n\n}\n",
  "sourcePath": "/home/eraserpl/NetBeansProjects/stableswap-contracts/contracts/StableSwapPair.sol",
  "compiler": {
    "name": "solc",
    "version": "0.8.15+commit.e14f2714.Emscripten.clang"
  },
  "schemaVersion": "3.4.9",
  "updatedAt": "2022-08-12T11:46:12.880Z",
  "devdoc": {
    "kind": "dev",
    "methods": {},
    "version": 1
  },
  "userdoc": {
    "kind": "user",
    "methods": {},
    "version": 1
  }
}