{
  "contractName": "StableSwapPair",
  "abi": [
    {
      "inputs": [],
      "stateMutability": "nonpayable",
      "type": "constructor"
    },
    {
      "anonymous": false,
      "inputs": [
        {
          "indexed": true,
          "internalType": "address",
          "name": "owner",
          "type": "address"
        },
        {
          "indexed": true,
          "internalType": "address",
          "name": "spender",
          "type": "address"
        },
        {
          "indexed": false,
          "internalType": "uint256",
          "name": "value",
          "type": "uint256"
        }
      ],
      "name": "Approval",
      "type": "event"
    },
    {
      "anonymous": false,
      "inputs": [
        {
          "indexed": true,
          "internalType": "address",
          "name": "sender",
          "type": "address"
        },
        {
          "indexed": false,
          "internalType": "uint256",
          "name": "amount0",
          "type": "uint256"
        },
        {
          "indexed": false,
          "internalType": "uint256",
          "name": "amount1",
          "type": "uint256"
        },
        {
          "indexed": true,
          "internalType": "address",
          "name": "to",
          "type": "address"
        }
      ],
      "name": "Burn",
      "type": "event"
    },
    {
      "anonymous": false,
      "inputs": [
        {
          "indexed": true,
          "internalType": "address",
          "name": "sender",
          "type": "address"
        },
        {
          "indexed": false,
          "internalType": "uint256",
          "name": "amount0",
          "type": "uint256"
        },
        {
          "indexed": false,
          "internalType": "uint256",
          "name": "amount1",
          "type": "uint256"
        }
      ],
      "name": "Mint",
      "type": "event"
    },
    {
      "anonymous": false,
      "inputs": [
        {
          "indexed": false,
          "internalType": "uint256",
          "name": "oldA",
          "type": "uint256"
        },
        {
          "indexed": false,
          "internalType": "uint256",
          "name": "newA",
          "type": "uint256"
        },
        {
          "indexed": false,
          "internalType": "uint256",
          "name": "initialTime",
          "type": "uint256"
        },
        {
          "indexed": false,
          "internalType": "uint256",
          "name": "futureTime",
          "type": "uint256"
        }
      ],
      "name": "RampA",
      "type": "event"
    },
    {
      "anonymous": false,
      "inputs": [
        {
          "indexed": false,
          "internalType": "uint256",
          "name": "A",
          "type": "uint256"
        },
        {
          "indexed": false,
          "internalType": "uint256",
          "name": "t",
          "type": "uint256"
        }
      ],
      "name": "StopRampA",
      "type": "event"
    },
    {
      "anonymous": false,
      "inputs": [
        {
          "indexed": true,
          "internalType": "address",
          "name": "sender",
          "type": "address"
        },
        {
          "indexed": false,
          "internalType": "uint256",
          "name": "amount0In",
          "type": "uint256"
        },
        {
          "indexed": false,
          "internalType": "uint256",
          "name": "amount1In",
          "type": "uint256"
        },
        {
          "indexed": false,
          "internalType": "uint256",
          "name": "amount0Out",
          "type": "uint256"
        },
        {
          "indexed": false,
          "internalType": "uint256",
          "name": "amount1Out",
          "type": "uint256"
        },
        {
          "indexed": true,
          "internalType": "address",
          "name": "to",
          "type": "address"
        }
      ],
      "name": "Swap",
      "type": "event"
    },
    {
      "anonymous": false,
      "inputs": [
        {
          "indexed": false,
          "internalType": "uint112",
          "name": "reserve0",
          "type": "uint112"
        },
        {
          "indexed": false,
          "internalType": "uint112",
          "name": "reserve1",
          "type": "uint112"
        }
      ],
      "name": "Sync",
      "type": "event"
    },
    {
      "anonymous": false,
      "inputs": [
        {
          "indexed": true,
          "internalType": "address",
          "name": "from",
          "type": "address"
        },
        {
          "indexed": true,
          "internalType": "address",
          "name": "to",
          "type": "address"
        },
        {
          "indexed": false,
          "internalType": "uint256",
          "name": "value",
          "type": "uint256"
        }
      ],
      "name": "Transfer",
      "type": "event"
    },
    {
      "inputs": [],
      "name": "DOMAIN_SEPARATOR",
      "outputs": [
        {
          "internalType": "bytes32",
          "name": "",
          "type": "bytes32"
        }
      ],
      "stateMutability": "view",
      "type": "function"
    },
    {
      "inputs": [],
      "name": "MINIMUM_LIQUIDITY",
      "outputs": [
        {
          "internalType": "uint256",
          "name": "",
          "type": "uint256"
        }
      ],
      "stateMutability": "view",
      "type": "function"
    },
    {
      "inputs": [],
      "name": "PERMIT_TYPEHASH",
      "outputs": [
        {
          "internalType": "bytes32",
          "name": "",
          "type": "bytes32"
        }
      ],
      "stateMutability": "view",
      "type": "function"
    },
    {
      "inputs": [
        {
          "internalType": "address",
          "name": "",
          "type": "address"
        },
        {
          "internalType": "address",
          "name": "",
          "type": "address"
        }
      ],
      "name": "allowance",
      "outputs": [
        {
          "internalType": "uint256",
          "name": "",
          "type": "uint256"
        }
      ],
      "stateMutability": "view",
      "type": "function"
    },
    {
      "inputs": [
        {
          "internalType": "address",
          "name": "spender",
          "type": "address"
        },
        {
          "internalType": "uint256",
          "name": "value",
          "type": "uint256"
        }
      ],
      "name": "approve",
      "outputs": [
        {
          "internalType": "bool",
          "name": "",
          "type": "bool"
        }
      ],
      "stateMutability": "nonpayable",
      "type": "function"
    },
    {
      "inputs": [
        {
          "internalType": "address",
          "name": "",
          "type": "address"
        }
      ],
      "name": "balanceOf",
      "outputs": [
        {
          "internalType": "uint256",
          "name": "",
          "type": "uint256"
        }
      ],
      "stateMutability": "view",
      "type": "function"
    },
    {
      "inputs": [],
      "name": "dLast",
      "outputs": [
        {
          "internalType": "uint256",
          "name": "",
          "type": "uint256"
        }
      ],
      "stateMutability": "view",
      "type": "function"
    },
    {
      "inputs": [],
      "name": "decimals",
      "outputs": [
        {
          "internalType": "uint8",
          "name": "",
          "type": "uint8"
        }
      ],
      "stateMutability": "view",
      "type": "function"
    },
    {
      "inputs": [],
      "name": "devFee",
      "outputs": [
        {
          "internalType": "uint256",
          "name": "",
          "type": "uint256"
        }
      ],
      "stateMutability": "view",
      "type": "function"
    },
    {
      "inputs": [],
      "name": "name",
      "outputs": [
        {
          "internalType": "string",
          "name": "",
          "type": "string"
        }
      ],
      "stateMutability": "view",
      "type": "function"
    },
    {
      "inputs": [
        {
          "internalType": "address",
          "name": "",
          "type": "address"
        }
      ],
      "name": "nonces",
      "outputs": [
        {
          "internalType": "uint256",
          "name": "",
          "type": "uint256"
        }
      ],
      "stateMutability": "view",
      "type": "function"
    },
    {
      "inputs": [
        {
          "internalType": "address",
          "name": "owner",
          "type": "address"
        },
        {
          "internalType": "address",
          "name": "spender",
          "type": "address"
        },
        {
          "internalType": "uint256",
          "name": "value",
          "type": "uint256"
        },
        {
          "internalType": "uint256",
          "name": "deadline",
          "type": "uint256"
        },
        {
          "internalType": "uint8",
          "name": "v",
          "type": "uint8"
        },
        {
          "internalType": "bytes32",
          "name": "r",
          "type": "bytes32"
        },
        {
          "internalType": "bytes32",
          "name": "s",
          "type": "bytes32"
        }
      ],
      "name": "permit",
      "outputs": [],
      "stateMutability": "nonpayable",
      "type": "function"
    },
    {
      "inputs": [],
      "name": "swapFee",
      "outputs": [
        {
          "internalType": "uint32",
          "name": "",
          "type": "uint32"
        }
      ],
      "stateMutability": "view",
      "type": "function"
    },
    {
      "inputs": [],
      "name": "symbol",
      "outputs": [
        {
          "internalType": "string",
          "name": "",
          "type": "string"
        }
      ],
      "stateMutability": "view",
      "type": "function"
    },
    {
      "inputs": [],
      "name": "token0",
      "outputs": [
        {
          "internalType": "address",
          "name": "",
          "type": "address"
        }
      ],
      "stateMutability": "view",
      "type": "function"
    },
    {
      "inputs": [],
      "name": "token0PrecisionMultiplier",
      "outputs": [
        {
          "internalType": "uint128",
          "name": "",
          "type": "uint128"
        }
      ],
      "stateMutability": "view",
      "type": "function"
    },
    {
      "inputs": [],
      "name": "token1",
      "outputs": [
        {
          "internalType": "address",
          "name": "",
          "type": "address"
        }
      ],
      "stateMutability": "view",
      "type": "function"
    },
    {
      "inputs": [],
      "name": "token1PrecisionMultiplier",
      "outputs": [
        {
          "internalType": "uint128",
          "name": "",
          "type": "uint128"
        }
      ],
      "stateMutability": "view",
      "type": "function"
    },
    {
      "inputs": [],
      "name": "totalSupply",
      "outputs": [
        {
          "internalType": "uint256",
          "name": "",
          "type": "uint256"
        }
      ],
      "stateMutability": "view",
      "type": "function"
    },
    {
      "inputs": [
        {
          "internalType": "address",
          "name": "to",
          "type": "address"
        },
        {
          "internalType": "uint256",
          "name": "value",
          "type": "uint256"
        }
      ],
      "name": "transfer",
      "outputs": [
        {
          "internalType": "bool",
          "name": "",
          "type": "bool"
        }
      ],
      "stateMutability": "nonpayable",
      "type": "function"
    },
    {
      "inputs": [
        {
          "internalType": "address",
          "name": "from",
          "type": "address"
        },
        {
          "internalType": "address",
          "name": "to",
          "type": "address"
        },
        {
          "internalType": "uint256",
          "name": "value",
          "type": "uint256"
        }
      ],
      "name": "transferFrom",
      "outputs": [
        {
          "internalType": "bool",
          "name": "",
          "type": "bool"
        }
      ],
      "stateMutability": "nonpayable",
      "type": "function"
    },
    {
      "inputs": [
        {
          "internalType": "address",
          "name": "_token0",
          "type": "address"
        },
        {
          "internalType": "address",
          "name": "_token1",
          "type": "address"
        }
      ],
      "name": "initialize",
      "outputs": [],
      "stateMutability": "nonpayable",
      "type": "function"
    },
    {
      "inputs": [
        {
          "internalType": "uint32",
          "name": "_swapFee",
          "type": "uint32"
        }
      ],
      "name": "setSwapFee",
      "outputs": [],
      "stateMutability": "nonpayable",
      "type": "function"
    },
    {
      "inputs": [
        {
          "internalType": "uint256",
          "name": "_devFee",
          "type": "uint256"
        }
      ],
      "name": "setDevFee",
      "outputs": [],
      "stateMutability": "nonpayable",
      "type": "function"
    },
    {
      "inputs": [
        {
          "internalType": "address",
          "name": "to",
          "type": "address"
        }
      ],
      "name": "mint",
      "outputs": [
        {
          "internalType": "uint256",
          "name": "liquidity",
          "type": "uint256"
        }
      ],
      "stateMutability": "nonpayable",
      "type": "function"
    },
    {
      "inputs": [
        {
          "internalType": "address",
          "name": "to",
          "type": "address"
        }
      ],
      "name": "burn",
      "outputs": [
        {
          "internalType": "uint256",
          "name": "amount0",
          "type": "uint256"
        },
        {
          "internalType": "uint256",
          "name": "amount1",
          "type": "uint256"
        }
      ],
      "stateMutability": "nonpayable",
      "type": "function"
    },
    {
      "inputs": [
        {
          "internalType": "uint256",
          "name": "amount0Out",
          "type": "uint256"
        },
        {
          "internalType": "uint256",
          "name": "amount1Out",
          "type": "uint256"
        },
        {
          "internalType": "address",
          "name": "to",
          "type": "address"
        },
        {
          "internalType": "bytes",
          "name": "data",
          "type": "bytes"
        }
      ],
      "name": "swap",
      "outputs": [],
      "stateMutability": "nonpayable",
      "type": "function"
    },
    {
      "inputs": [
        {
          "internalType": "address",
          "name": "to",
          "type": "address"
        }
      ],
      "name": "skim",
      "outputs": [],
      "stateMutability": "nonpayable",
      "type": "function"
    },
    {
      "inputs": [],
      "name": "sync",
      "outputs": [],
      "stateMutability": "nonpayable",
      "type": "function"
    },
    {
      "inputs": [
        {
          "internalType": "uint256",
          "name": "_futureA",
          "type": "uint256"
        },
        {
          "internalType": "uint256",
          "name": "_futureTime",
          "type": "uint256"
        }
      ],
      "name": "rampA",
      "outputs": [],
      "stateMutability": "nonpayable",
      "type": "function"
    },
    {
      "inputs": [],
      "name": "stopRampA",
      "outputs": [],
      "stateMutability": "nonpayable",
      "type": "function"
    },
    {
      "inputs": [
        {
          "internalType": "address",
          "name": "tokenIn",
          "type": "address"
        },
        {
          "internalType": "uint256",
          "name": "amountOut",
          "type": "uint256"
        }
      ],
      "name": "getAmountIn",
      "outputs": [
        {
          "internalType": "uint256",
          "name": "finalAmountIn",
          "type": "uint256"
        }
      ],
      "stateMutability": "view",
      "type": "function"
    },
    {
      "inputs": [
        {
          "internalType": "address",
          "name": "tokenIn",
          "type": "address"
        },
        {
          "internalType": "uint256",
          "name": "amountIn",
          "type": "uint256"
        }
      ],
      "name": "getAmountOut",
      "outputs": [
        {
          "internalType": "uint256",
          "name": "finalAmountOut",
          "type": "uint256"
        }
      ],
      "stateMutability": "view",
      "type": "function"
    },
    {
      "inputs": [],
      "name": "getReserves",
      "outputs": [
        {
          "internalType": "uint112",
          "name": "_reserve0",
          "type": "uint112"
        },
        {
          "internalType": "uint112",
          "name": "_reserve1",
          "type": "uint112"
        },
        {
          "internalType": "uint32",
          "name": "_blockTimestampLast",
          "type": "uint32"
        }
      ],
      "stateMutability": "view",
      "type": "function"
    },
    {
      "inputs": [],
      "name": "factory",
      "outputs": [
        {
          "internalType": "address",
          "name": "",
          "type": "address"
        }
      ],
      "stateMutability": "view",
      "type": "function"
    },
    {
      "inputs": [],
      "name": "getA",
      "outputs": [
        {
          "internalType": "uint256",
          "name": "",
          "type": "uint256"
        }
      ],
      "stateMutability": "view",
      "type": "function"
    }
  ],
  "bytecode": "0x60a0604052600a805463ffffffff191681179055600762000026600160701b60036200017d565b6001600160e01b03166200003b9190620001af565b600b556200004c60646055620001d2565b600d556200005d60646055620001d2565b600e553480156200006d57600080fd5b50604080518082018252600c81526b4e6f6d6973776170204c507360a01b6020918201528151808301835260018152603160f81b9082015281517f8b73c3c69bb8fe3d512ecc4cf759cc79239f7b179b0ffacaa9a75d522b39400f918101919091527f41181e8e0e1134e304563ce4f0d2a1743ef2b39102f68b1aaa3b51c14c12b4e0918101919091527fc89efdaa54c0f20c7adf612882df0950f5a951637e0307cdcb4c672f298b8bc6606082015246608082018190523060a0830152339160c00160408051601f1981840301815291905280516020909101206003555060016005556001600160a01b031660805242601055620001f4565b634e487b7160e01b600052601160045260246000fd5b60006001600160e01b0382811684821681151582840482111615620001a657620001a662000167565b02949350505050565b600082620001cd57634e487b7160e01b600052601260045260246000fd5b500490565b6000816000190483118215151615620001ef57620001ef62000167565b500290565b6080516140c66200023a600039600081816105e201528181610eaf015281816110980152818161137d015281816123d501528181612b0c015261337b01526140c66000f3fe608060405234801561001057600080fd5b506004361061025c5760003560e01c806370a0823111610145578063c45a0155116100bd578063d46300fd1161008c578063d6d788c311610071578063d6d788c31461065c578063dd62ed3e1461066f578063fff6cae91461069a57600080fd5b8063d46300fd14610641578063d505accf1461064957600080fd5b8063c45a0155146105e0578063c4db7fa014610606578063ca706bcf1461060e578063d21220a71461062157600080fd5b806395d89b4111610114578063ba9a7a56116100f9578063ba9a7a56146105a8578063baa8c7cb146105b1578063bc25cf77146105cd57600080fd5b806395d89b4114610559578063a9059cbb1461059557600080fd5b806370a08231146104e85780637ecebe001461050857806389afcb441461052857806392e9a8ac1461055057600080fd5b8063313ce567116101d857806354cf2aeb116101a7578063632db21c1161018c578063632db21c146104b95780636827e764146104cc5780636a627842146104d557600080fd5b806354cf2aeb14610481578063593d132c146104a657600080fd5b8063313ce567146103fa5780633644e51514610414578063485cc9551461041d5780634e25dc471461043057600080fd5b80630dfe16811161022f5780631c75b6b2116102145780631c75b6b2146103ad57806323b872dd146103c057806330adf81f146103d357600080fd5b80630dfe16811461035157806318160ddd1461039657600080fd5b8063022c0d9f1461026157806306fdde03146102765780630902f1ac146102c8578063095ea7b31461032e575b600080fd5b61027461026f366004613a1d565b6106a2565b005b6102b26040518060400160405280600c81526020017f4e6f6d6973776170204c5073000000000000000000000000000000000000000081525081565b6040516102bf9190613ae3565b60405180910390f35b600854604080516dffffffffffffffffffffffffffff80841682526e01000000000000000000000000000084041660208201527c010000000000000000000000000000000000000000000000000000000090920463ffffffff16908201526060016102bf565b61034161033c366004613b34565b610e80565b60405190151581526020016102bf565b6006546103719073ffffffffffffffffffffffffffffffffffffffff1681565b60405173ffffffffffffffffffffffffffffffffffffffff90911681526020016102bf565b61039f60005481565b6040519081526020016102bf565b6102746103bb366004613b60565b610e97565b6103416103ce366004613b79565b610fa5565b61039f7f6e71edae12b1b97f4d1f60370fef10105fa2faae0126114a169c64845d6126c981565b610402601281565b60405160ff90911681526020016102bf565b61039f60035481565b61027461042b366004613bba565b611080565b600c546104609070010000000000000000000000000000000090046fffffffffffffffffffffffffffffffff1681565b6040516fffffffffffffffffffffffffffffffff90911681526020016102bf565b600a546104919063ffffffff1681565b60405163ffffffff90911681526020016102bf565b6102746104b4366004613bf3565b6112f4565b61039f6104c7366004613b34565b6115f2565b61039f600b5481565b61039f6104e3366004613c15565b611893565b61039f6104f6366004613c15565b60016020526000908152604090205481565b61039f610516366004613c15565b60046020526000908152604090205481565b61053b610536366004613c15565b611c90565b604080519283526020830191909152016102bf565b61039f60095481565b6102b26040518060400160405280600681526020017f4e4d582d4c50000000000000000000000000000000000000000000000000000081525081565b6103416105a3366004613b34565b61217d565b61039f6103e881565b600c54610460906fffffffffffffffffffffffffffffffff1681565b6102746105db366004613c15565b61218a565b7f0000000000000000000000000000000000000000000000000000000000000000610371565b61027461234c565b61039f61061c366004613b34565b6124c5565b6007546103719073ffffffffffffffffffffffffffffffffffffffff1681565b61039f612768565b610274610657366004613c41565b612809565b61027461066a366004613cb2565b612af4565b61039f61067d366004613bba565b600260209081526000928352604080842090915290825290205481565b610274612c3c565b600260055403610713576040517f08c379a000000000000000000000000000000000000000000000000000000000815260206004820152601f60248201527f5265656e7472616e637947756172643a207265656e7472616e742063616c6c0060448201526064015b60405180910390fd5b6002600555841515806107265750600084115b6107b1576040517f08c379a0000000000000000000000000000000000000000000000000000000008152602060048201526024808201527f4e6f6d69737761703a20494e53554646494349454e545f4f55545055545f414d60448201527f4f554e5400000000000000000000000000000000000000000000000000000000606482015260840161070a565b60008061080d6008546dffffffffffffffffffffffffffff808216926e01000000000000000000000000000083049091169163ffffffff7c01000000000000000000000000000000000000000000000000000000009091041690565b506dffffffffffffffffffffffffffff1691506dffffffffffffffffffffffffffff169150818710801561084057508086105b6108a6576040517f08c379a000000000000000000000000000000000000000000000000000000000815260206004820181905260248201527f4e6f6d69737761703a20494e53554646494349454e545f4c4951554944495459604482015260640161070a565b600654600754600091829173ffffffffffffffffffffffffffffffffffffffff91821691908116908916821480159061090b57508073ffffffffffffffffffffffffffffffffffffffff168973ffffffffffffffffffffffffffffffffffffffff1614155b610971576040517f08c379a000000000000000000000000000000000000000000000000000000000815260206004820152601460248201527f4e6f6d69737761703a20494e56414c49445f544f000000000000000000000000604482015260640161070a565b8a1561098257610982828a8d612ddf565b891561099357610993818a8c612ddf565b8615610a26576040517f2210968200000000000000000000000000000000000000000000000000000000815273ffffffffffffffffffffffffffffffffffffffff8a16906322109682906109f39033908f908f908e908e90600401613cd8565b600060405180830381600087803b158015610a0d57600080fd5b505af1158015610a21573d6000803e3d6000fd5b505050505b6040517f70a0823100000000000000000000000000000000000000000000000000000000815230600482015273ffffffffffffffffffffffffffffffffffffffff8316906370a0823190602401602060405180830381865afa158015610a90573d6000803e3d6000fd5b505050506040513d601f19601f82011682018060405250810190610ab49190613d50565b6040517f70a0823100000000000000000000000000000000000000000000000000000000815230600482015290945073ffffffffffffffffffffffffffffffffffffffff8216906370a0823190602401602060405180830381865afa158015610b21573d6000803e3d6000fd5b505050506040513d601f19601f82011682018060405250810190610b459190613d50565b9250505060008985610b579190613d98565b8311610b64576000610b78565b610b6e8a86613d98565b610b789084613d98565b90506000610b868a86613d98565b8311610b93576000610ba7565b610b9d8a86613d98565b610ba79084613d98565b90506000821180610bb85750600081115b610c44576040517f08c379a000000000000000000000000000000000000000000000000000000000815260206004820152602360248201527f4e6f6d69737761703a20494e53554646494349454e545f494e5055545f414d4f60448201527f554e540000000000000000000000000000000000000000000000000000000000606482015260840161070a565b6000610c4e612768565b600a54600c5491925063ffffffff1690600090612710906fffffffffffffffffffffffffffffffff16610c818488613daf565b610c8d6127108b613daf565b610c979190613d98565b610ca19190613daf565b610cab9190613e1b565b600c549091506000906127109070010000000000000000000000000000000090046fffffffffffffffffffffffffffffffff16610ce88588613daf565b610cf46127108b613daf565b610cfe9190613d98565b610d089190613daf565b610d129190613e1b565b90506000610d21838387612e71565b600c54909150600090610d46906fffffffffffffffffffffffffffffffff168d613daf565b600c54909150600090610d7f9070010000000000000000000000000000000090046fffffffffffffffffffffffffffffffff168d613daf565b90506000610d8e83838a612e71565b905080841015610dfa576040517f08c379a000000000000000000000000000000000000000000000000000000000815260206004820152600b60248201527f4e6f6d69737761703a2044000000000000000000000000000000000000000000604482015260640161070a565b5050505050505050610e0c8484612f9e565b60408051838152602081018390529081018c9052606081018b905273ffffffffffffffffffffffffffffffffffffffff8a169033907fd78ad95fa46c994b6551d0da85fc275fe613ce37657fb8d5e3d130840159d8229060800160405180910390a350506001600555505050505050505050565b6000610e8d338484613131565b5060015b92915050565b3373ffffffffffffffffffffffffffffffffffffffff7f00000000000000000000000000000000000000000000000000000000000000001614610f36576040517f08c379a000000000000000000000000000000000000000000000000000000000815260206004820152601360248201527f4e6f6d69737761703a20464f5242494444454e00000000000000000000000000604482015260640161070a565b80600003610fa0576040517f08c379a000000000000000000000000000000000000000000000000000000000815260206004820152601760248201527f4e6f6d6973776170506169723a20646576206665652030000000000000000000604482015260640161070a565b600b55565b73ffffffffffffffffffffffffffffffffffffffff831660009081526002602090815260408083203384529091528120547fffffffffffffffffffffffffffffffffffffffffffffffffffffffffffffffff1461106a5773ffffffffffffffffffffffffffffffffffffffff84166000908152600260209081526040808320338452909152902054611038908390613d98565b73ffffffffffffffffffffffffffffffffffffffff851660009081526002602090815260408083203384529091529020555b6110758484846131a0565b5060015b9392505050565b3373ffffffffffffffffffffffffffffffffffffffff7f0000000000000000000000000000000000000000000000000000000000000000161461111f576040517f08c379a000000000000000000000000000000000000000000000000000000000815260206004820152601360248201527f4e6f6d69737761703a20464f5242494444454e00000000000000000000000000604482015260640161070a565b6006805473ffffffffffffffffffffffffffffffffffffffff8085167fffffffffffffffffffffffff000000000000000000000000000000000000000092831681179093556007805491851691909216179055604080517f313ce567000000000000000000000000000000000000000000000000000000008152905163313ce567916004808201926020929091908290030181865afa1580156111c6573d6000803e3d6000fd5b505050506040513d601f19601f820116820180604052508101906111ea9190613e2f565b6111f5906012613e4c565b61120090600a613fb0565b600c60006101000a8154816fffffffffffffffffffffffffffffffff02191690836fffffffffffffffffffffffffffffffff1602179055508073ffffffffffffffffffffffffffffffffffffffff1663313ce5676040518163ffffffff1660e01b8152600401602060405180830381865afa158015611283573d6000803e3d6000fd5b505050506040513d601f19601f820116820180604052508101906112a79190613e2f565b6112b2906012613e4c565b6112bd90600a613fb0565b600c80546fffffffffffffffffffffffffffffffff9283167001000000000000000000000000000000000292169190911790555050565b600260055403611360576040517f08c379a000000000000000000000000000000000000000000000000000000000815260206004820152601f60248201527f5265656e7472616e637947756172643a207265656e7472616e742063616c6c00604482015260640161070a565b60026005553373ffffffffffffffffffffffffffffffffffffffff7f00000000000000000000000000000000000000000000000000000000000000001614611404576040517f08c379a000000000000000000000000000000000000000000000000000000000815260206004820152601360248201527f4e6f6d69737761703a20464f5242494444454e00000000000000000000000000604482015260640161070a565b62015180600f546114159190613fd1565b42101561147e576040517f08c379a000000000000000000000000000000000000000000000000000000000815260206004820152601a60248201527f4e6f6d6973776170506169723a20494e56414c49445f54494d45000000000000604482015260640161070a565b61148b6201518042613fd1565b81101561151a576040517f08c379a000000000000000000000000000000000000000000000000000000000815260206004820152602160248201527f4e6f6d6973776170506169723a20494e56414c49445f4655545552455f54494d60448201527f4500000000000000000000000000000000000000000000000000000000000000606482015260840161070a565b6000611524612768565b90506000611533606485613daf565b90506000841180156115475750620f424084105b61155057600080fd5b818110156115745781611564600a83613daf565b101561156f57600080fd5b61158b565b61157f600a83613daf565b81111561158b57600080fd5b600d829055600e81905542600f819055601084905560408051848152602081018490528082019290925260608201859052517fa2b71ec6df949300b59aab36b55e189697b750119dd349fcfa8c0f779e83c2549181900360800190a1505060016005555050565b60008060006116506008546dffffffffffffffffffffffffffff808216926e01000000000000000000000000000083049091169163ffffffff7c01000000000000000000000000000000000000000000000000000000009091041690565b50600c546dffffffffffffffffffffffffffff9283169450911691506fffffffffffffffffffffffffffffffff808216840291700100000000000000000000000000000000900416820260006116a4612768565b905060006116b3848484612e71565b60065490915073ffffffffffffffffffffffffffffffffffffffff908116908a160361177057600c5470010000000000000000000000000000000090046fffffffffffffffffffffffffffffffff1688028303600061171382848661326f565b600c549091506000906fffffffffffffffffffffffffffffffff168783036001018161174157611741613dec565b600a54919004915063ffffffff166127109081039082028161176557611765613dec565b049950505050611887565b60075473ffffffffffffffffffffffffffffffffffffffff8a81169116146117f4576040517f08c379a000000000000000000000000000000000000000000000000000000000815260206004820152601360248201527f494e56414c49445f494e5055545f544f4b454e00000000000000000000000000604482015260640161070a565b600c546fffffffffffffffffffffffffffffffff1688028403600061181a82848661326f565b600c5490915060009070010000000000000000000000000000000090046fffffffffffffffffffffffffffffffff166001878403018161185c5761185c613dec565b600a54919004915063ffffffff166127109081039082028161188057611880613dec565b0499505050505b50505050505092915050565b6000600260055403611901576040517f08c379a000000000000000000000000000000000000000000000000000000000815260206004820152601f60248201527f5265656e7472616e637947756172643a207265656e7472616e742063616c6c00604482015260640161070a565b60026005556000806119626008546dffffffffffffffffffffffffffff808216926e01000000000000000000000000000083049091169163ffffffff7c01000000000000000000000000000000000000000000000000000000009091041690565b506006546040517f70a0823100000000000000000000000000000000000000000000000000000000815230600482015292945090925060009173ffffffffffffffffffffffffffffffffffffffff909116906370a0823190602401602060405180830381865afa1580156119da573d6000803e3d6000fd5b505050506040513d601f19601f820116820180604052508101906119fe9190613d50565b6007546040517f70a0823100000000000000000000000000000000000000000000000000000000815230600482015291925060009173ffffffffffffffffffffffffffffffffffffffff909116906370a0823190602401602060405180830381865afa158015611a72573d6000803e3d6000fd5b505050506040513d601f19601f82011682018060405250810190611a969190613d50565b90506000611aa48585613376565b60008054919250611ab3612768565b90506000611ac2868684613523565b90506000611ae06dffffffffffffffffffffffffffff8a1688613d98565b90506000611afe6dffffffffffffffffffffffffffff8a1688613d98565b905084600003611b34576103e8611b16838387613523565b611b209190613d98565b9a50611b2f60006103e861356c565b611b90565b600854600090611b6a906dffffffffffffffffffffffffffff808216916e01000000000000000000000000000090041687613523565b90508086611b788287613d98565b611b829190613daf565b611b8c9190613e1b565b9b50505b60008b11611c20576040517f08c379a000000000000000000000000000000000000000000000000000000000815260206004820152602760248201527f4e6f6d69737761703a20494e53554646494349454e545f4c495155494449545960448201527f5f4d494e54454400000000000000000000000000000000000000000000000000606482015260840161070a565b611c2a8c8c61356c565b611c348888612f9e565b8515611c405760098390555b604080518381526020810183905233917f4c209b5fc8ad50758f13e2e1088ba56a560dff690a1c6fef26394f4c03821c4f910160405180910390a250506001600555509698975050505050505050565b600080600260055403611cff576040517f08c379a000000000000000000000000000000000000000000000000000000000815260206004820152601f60248201527f5265656e7472616e637947756172643a207265656e7472616e742063616c6c00604482015260640161070a565b6002600555600080611d606008546dffffffffffffffffffffffffffff808216926e01000000000000000000000000000083049091169163ffffffff7c01000000000000000000000000000000000000000000000000000000009091041690565b506006546007546040517f70a0823100000000000000000000000000000000000000000000000000000000815230600482015293955091935073ffffffffffffffffffffffffffffffffffffffff9081169291169060009083906370a0823190602401602060405180830381865afa158015611de0573d6000803e3d6000fd5b505050506040513d601f19601f82011682018060405250810190611e049190613d50565b6040517f70a0823100000000000000000000000000000000000000000000000000000000815230600482015290915060009073ffffffffffffffffffffffffffffffffffffffff8416906370a0823190602401602060405180830381865afa158015611e74573d6000803e3d6000fd5b505050506040513d601f19601f82011682018060405250810190611e989190613d50565b30600090815260016020526040812054919250611eb58888613376565b60005490915080611ec68685613daf565b611ed09190613e1b565b9a5080611edd8585613daf565b611ee79190613e1b565b995060008b118015611ef9575060008a115b611f85576040517f08c379a000000000000000000000000000000000000000000000000000000000815260206004820152602760248201527f4e6f6d69737761703a20494e53554646494349454e545f4c495155494449545960448201527f5f4255524e454400000000000000000000000000000000000000000000000000606482015260840161070a565b611f8f3084613617565b611f9a878d8d612ddf565b611fa5868d8c612ddf565b6040517f70a0823100000000000000000000000000000000000000000000000000000000815230600482015273ffffffffffffffffffffffffffffffffffffffff8816906370a0823190602401602060405180830381865afa15801561200f573d6000803e3d6000fd5b505050506040513d601f19601f820116820180604052508101906120339190613d50565b6040517f70a0823100000000000000000000000000000000000000000000000000000000815230600482015290955073ffffffffffffffffffffffffffffffffffffffff8716906370a0823190602401602060405180830381865afa1580156120a0573d6000803e3d6000fd5b505050506040513d601f19601f820116820180604052508101906120c49190613d50565b93506120d08585612f9e565b811561211457600854612110906dffffffffffffffffffffffffffff808216916e01000000000000000000000000000090041661210b612768565b613523565b6009555b604080518c8152602081018c905273ffffffffffffffffffffffffffffffffffffffff8e169133917fdccd412f0b1252819cb1fd330b93224ca42612892bb3f4f789976e6d81936496910160405180910390a35050505050505050506001600581905550915091565b6000610e8d3384846131a0565b6002600554036121f6576040517f08c379a000000000000000000000000000000000000000000000000000000000815260206004820152601f60248201527f5265656e7472616e637947756172643a207265656e7472616e742063616c6c00604482015260640161070a565b60026005556006546007546008546040517f70a0823100000000000000000000000000000000000000000000000000000000815230600482015273ffffffffffffffffffffffffffffffffffffffff93841693909216916122c291849186916dffffffffffffffffffffffffffff169083906370a08231906024015b602060405180830381865afa15801561228f573d6000803e3d6000fd5b505050506040513d601f19601f820116820180604052508101906122b39190613d50565b6122bd9190613d98565b612ddf565b6008546040517f70a0823100000000000000000000000000000000000000000000000000000000815230600482015261234291839186916e01000000000000000000000000000090046dffffffffffffffffffffffffffff169073ffffffffffffffffffffffffffffffffffffffff8416906370a0823190602401612272565b5050600160055550565b6002600554036123b8576040517f08c379a000000000000000000000000000000000000000000000000000000000815260206004820152601f60248201527f5265656e7472616e637947756172643a207265656e7472616e742063616c6c00604482015260640161070a565b60026005553373ffffffffffffffffffffffffffffffffffffffff7f0000000000000000000000000000000000000000000000000000000000000000161461245c576040517f08c379a000000000000000000000000000000000000000000000000000000000815260206004820152601360248201527f4e6f6d69737761703a20464f5242494444454e00000000000000000000000000604482015260640161070a565b6000612466612768565b600d819055600e81905542600f81905560108190556040519192507f46e22fb3709ad289f62ce63d469248536dbc78d82b84a3d7e74ad606dc201938916124b591848252602082015260400190565b60405180910390a1506001600555565b60008060006125236008546dffffffffffffffffffffffffffff808216926e01000000000000000000000000000083049091169163ffffffff7c01000000000000000000000000000000000000000000000000000000009091041690565b50600a546dffffffffffffffffffffffffffff9283169450911691506000906127109063ffffffff168602600c54919004860391506fffffffffffffffffffffffffffffffff80821685029170010000000000000000000000000000000090041683026000612590612768565b9050600061259f848484612e71565b60065490915073ffffffffffffffffffffffffffffffffffffffff908116908b160361265357600c546fffffffffffffffffffffffffffffffff168502840160006125eb82848661326f565b600c5490915070010000000000000000000000000000000090046fffffffffffffffffffffffffffffffff168186037fffffffffffffffffffffffffffffffffffffffffffffffffffffffffffffffff018161264957612649613dec565b049950505061275b565b60075473ffffffffffffffffffffffffffffffffffffffff8b81169116146126d7576040517f08c379a000000000000000000000000000000000000000000000000000000000815260206004820152601360248201527f494e56414c49445f494e5055545f544f4b454e00000000000000000000000000604482015260640161070a565b600c5470010000000000000000000000000000000090046fffffffffffffffffffffffffffffffff1685028301600061271182848661326f565b600c549091506fffffffffffffffffffffffffffffffff167fffffffffffffffffffffffffffffffffffffffffffffffffffffffffffffffff828803018161188057611880613dec565b5050505050505092915050565b601054600e546000919042821115610e9157600d54600f54818311156127cd576127928185613d98565b61279c8242613d98565b6127a68486613d98565b6127b09190613daf565b6127ba9190613e1b565b6127c49083613fd1565b94505050505090565b6127d78185613d98565b6127e18242613d98565b6127eb8585613d98565b6127f59190613daf565b6127ff9190613e1b565b6127c49083613d98565b42841015612873576040517f08c379a000000000000000000000000000000000000000000000000000000000815260206004820152601160248201527f4e6f6d69737761703a2045585049524544000000000000000000000000000000604482015260640161070a565b60035473ffffffffffffffffffffffffffffffffffffffff8816600090815260046020526040812080549192917f6e71edae12b1b97f4d1f60370fef10105fa2faae0126114a169c64845d6126c9918b918b918b9190876128d383613fe9565b9091555060408051602081019690965273ffffffffffffffffffffffffffffffffffffffff94851690860152929091166060840152608083015260a082015260c0810187905260e001604051602081830303815290604052805190602001206040516020016129749291907f190100000000000000000000000000000000000000000000000000000000000081526002810192909252602282015260420190565b604080517fffffffffffffffffffffffffffffffffffffffffffffffffffffffffffffffe08184030181528282528051602091820120600080855291840180845281905260ff88169284019290925260608301869052608083018590529092509060019060a0016020604051602081039080840390855afa1580156129fd573d6000803e3d6000fd5b50506040517fffffffffffffffffffffffffffffffffffffffffffffffffffffffffffffffe0015191505073ffffffffffffffffffffffffffffffffffffffff811615801590612a7857508873ffffffffffffffffffffffffffffffffffffffff168173ffffffffffffffffffffffffffffffffffffffff16145b612ade576040517f08c379a000000000000000000000000000000000000000000000000000000000815260206004820152601b60248201527f4e6f6d69737761703a20494e56414c49445f5349474e41545552450000000000604482015260640161070a565b612ae9898989613131565b505050505050505050565b3373ffffffffffffffffffffffffffffffffffffffff7f00000000000000000000000000000000000000000000000000000000000000001614612b93576040517f08c379a000000000000000000000000000000000000000000000000000000000815260206004820152601360248201527f4e6f6d69737761703a20464f5242494444454e00000000000000000000000000604482015260640161070a565b6127108163ffffffff161115612c05576040517f08c379a000000000000000000000000000000000000000000000000000000000815260206004820152601b60248201527f4e6f6d6973776170506169723a20464f5242494444454e5f4645450000000000604482015260640161070a565b600a80547fffffffffffffffffffffffffffffffffffffffffffffffffffffffff000000001663ffffffff92909216919091179055565b600260055403612ca8576040517f08c379a000000000000000000000000000000000000000000000000000000000815260206004820152601f60248201527f5265656e7472616e637947756172643a207265656e7472616e742063616c6c00604482015260640161070a565b60026005556006546040517f70a08231000000000000000000000000000000000000000000000000000000008152306004820152612dd89173ffffffffffffffffffffffffffffffffffffffff16906370a0823190602401602060405180830381865afa158015612d1d573d6000803e3d6000fd5b505050506040513d601f19601f82011682018060405250810190612d419190613d50565b6007546040517f70a0823100000000000000000000000000000000000000000000000000000000815230600482015273ffffffffffffffffffffffffffffffffffffffff909116906370a0823190602401602060405180830381865afa158015612daf573d6000803e3d6000fd5b505050506040513d601f19601f82011682018060405250810190612dd39190613d50565b612f9e565b6001600555565b6040805173ffffffffffffffffffffffffffffffffffffffff8416602482015260448082018490528251808303909101815260649091019091526020810180517bffffffffffffffffffffffffffffffffffffffffffffffffffffffff167fa9059cbb00000000000000000000000000000000000000000000000000000000179052612e6c9084906136ca565b505050565b600080612e7e8486613fd1565b90506000612e8d846004613daf565b905081600003612ea257600092505050611079565b600082815b610100811015612f92576000600489848c612ec28280613daf565b612ecc9190613e1b565b612ed69190613daf565b612ee09190613e1b565b612eea9190613e1b565b9050829350806003612efc9190613daf565b836001612f0a606489613e1b565b612f149190613d98565b612f1e9190613daf565b612f289190613fd1565b83612f34836002613daf565b6064612f408a8a613daf565b612f4a9190613e1b565b612f549190613fd1565b612f5e9190613daf565b612f689190613e1b565b9250612f7483856137d6565b15612f7f5750612f92565b5080612f8a81613fe9565b915050612ea7565b50979650505050505050565b6dffffffffffffffffffffffffffff8211801590612fca57506dffffffffffffffffffffffffffff8111155b613030576040517f08c379a000000000000000000000000000000000000000000000000000000000815260206004820152601260248201527f4e6f6d69737761703a204f564552464c4f570000000000000000000000000000604482015260640161070a565b600061304164010000000042614021565b6008805463ffffffff83167c0100000000000000000000000000000000000000000000000000000000027bffffffffffffffffffffffffffffffffffffffffffffffffffffffff6dffffffffffffffffffffffffffff8781166e0100000000000000000000000000009081027fffffffff000000000000000000000000000000000000000000000000000000009095168a83161794909417918216831794859055604080519382169282169290921783529290930490911660208201529192507f1c411e9a96e071241c2f21f7726b17ae89e3cab4c78be50e062b03a9fffbbad1910160405180910390a1505050565b73ffffffffffffffffffffffffffffffffffffffff83811660008181526002602090815260408083209487168084529482529182902085905590518481527f8c5be1e5ebec7d5bd14f71427d1e84f3dd0314c0f7b2291e5b200ac8c7c3b92591015b60405180910390a3505050565b73ffffffffffffffffffffffffffffffffffffffff83166000908152600160205260409020546131d1908290613d98565b73ffffffffffffffffffffffffffffffffffffffff808516600090815260016020526040808220939093559084168152205461320e908290613fd1565b73ffffffffffffffffffffffffffffffffffffffff80841660008181526001602052604090819020939093559151908516907fddf252ad1be2c89b69c2b068fc378daa952ba7f163c4a11628f55a4df523b3ef906131939085815260200190565b60008061327d836004613daf565b9050600061328c866002613daf565b6132968680613daf565b6132a09190613e1b565b905060646132af836002613daf565b6132b99190613e1b565b6132c38683613daf565b6132cd9190613e1b565b90506000826132dd606488613daf565b6132e79190613e1b565b6132f19088613fd1565b9050600086945060005b61010081101561336a578591508783613315846002613daf565b61331f9190613fd1565b6133299190613d98565b846133348880613daf565b61333e9190613fd1565b6133489190613e1b565b955061335486836137d6565b61336a578061336281613fe9565b9150506132fb565b50505050509392505050565b6000807f000000000000000000000000000000000000000000000000000000000000000073ffffffffffffffffffffffffffffffffffffffff1663017e7e586040518163ffffffff1660e01b8152600401602060405180830381865afa1580156133e4573d6000803e3d6000fd5b505050506040513d601f19601f820116820180604052508101906134089190614035565b60095473ffffffffffffffffffffffffffffffffffffffff821615801594509192509061350f57801561350a576000613464866dffffffffffffffffffffffffffff16866dffffffffffffffffffffffffffff1661210b612768565b9050600954811115613508576000600954826134809190613d98565b60005461348d9190613daf565b905060006009546e0100000000000000000000000000007bffffffffffffffffffffffffffffffffffffffffffffffffffffffff16600b54856134d09190613daf565b6134da9190613e1b565b6134e49190613fd1565b905060006134f28284613e1b565b9050801561350457613504868261356c565b5050505b505b61351b565b801561351b5760006009555b505092915050565b600c546000906fffffffffffffffffffffffffffffffff8082168602917001000000000000000000000000000000009004168402613562828286612e71565b9695505050505050565b8060005461357a9190613fd1565b600090815573ffffffffffffffffffffffffffffffffffffffff83168152600160205260409020546135ad908290613fd1565b73ffffffffffffffffffffffffffffffffffffffff83166000818152600160205260408082209390935591519091907fddf252ad1be2c89b69c2b068fc378daa952ba7f163c4a11628f55a4df523b3ef9061360b9085815260200190565b60405180910390a35050565b73ffffffffffffffffffffffffffffffffffffffff8216600090815260016020526040902054613648908290613d98565b73ffffffffffffffffffffffffffffffffffffffff83166000908152600160205260408120919091555461367d908290613d98565b600090815560405182815273ffffffffffffffffffffffffffffffffffffffff8416907fddf252ad1be2c89b69c2b068fc378daa952ba7f163c4a11628f55a4df523b3ef9060200161360b565b600061372c826040518060400160405280602081526020017f5361666545524332303a206c6f772d6c6576656c2063616c6c206661696c65648152508573ffffffffffffffffffffffffffffffffffffffff166137f89092919063ffffffff16565b805190915015612e6c578080602001905181019061374a9190614052565b612e6c576040517f08c379a000000000000000000000000000000000000000000000000000000000815260206004820152602a60248201527f5361666545524332303a204552433230206f7065726174696f6e20646964206e60448201527f6f74207375636365656400000000000000000000000000000000000000000000606482015260840161070a565b6000818311156137ed575060018183031115610e91565b506001919003111590565b6060613807848460008561380f565b949350505050565b6060824710156138a1576040517f08c379a000000000000000000000000000000000000000000000000000000000815260206004820152602660248201527f416464726573733a20696e73756666696369656e742062616c616e636520666f60448201527f722063616c6c0000000000000000000000000000000000000000000000000000606482015260840161070a565b73ffffffffffffffffffffffffffffffffffffffff85163b61391f576040517f08c379a000000000000000000000000000000000000000000000000000000000815260206004820152601d60248201527f416464726573733a2063616c6c20746f206e6f6e2d636f6e7472616374000000604482015260640161070a565b6000808673ffffffffffffffffffffffffffffffffffffffff1685876040516139489190614074565b60006040518083038185875af1925050503d8060008114613985576040519150601f19603f3d011682016040523d82523d6000602084013e61398a565b606091505b509150915061399a8282866139a5565b979650505050505050565b606083156139b4575081611079565b8251156139c45782518084602001fd5b816040517f08c379a000000000000000000000000000000000000000000000000000000000815260040161070a9190613ae3565b73ffffffffffffffffffffffffffffffffffffffff81168114613a1a57600080fd5b50565b600080600080600060808688031215613a3557600080fd5b85359450602086013593506040860135613a4e816139f8565b9250606086013567ffffffffffffffff80821115613a6b57600080fd5b818801915088601f830112613a7f57600080fd5b813581811115613a8e57600080fd5b896020828501011115613aa057600080fd5b9699959850939650602001949392505050565b60005b83811015613ace578181015183820152602001613ab6565b83811115613add576000848401525b50505050565b6020815260008251806020840152613b02816040850160208701613ab3565b601f017fffffffffffffffffffffffffffffffffffffffffffffffffffffffffffffffe0169190910160400192915050565b60008060408385031215613b4757600080fd5b8235613b52816139f8565b946020939093013593505050565b600060208284031215613b7257600080fd5b5035919050565b600080600060608486031215613b8e57600080fd5b8335613b99816139f8565b92506020840135613ba9816139f8565b929592945050506040919091013590565b60008060408385031215613bcd57600080fd5b8235613bd8816139f8565b91506020830135613be8816139f8565b809150509250929050565b60008060408385031215613c0657600080fd5b50508035926020909101359150565b600060208284031215613c2757600080fd5b8135611079816139f8565b60ff81168114613a1a57600080fd5b600080600080600080600060e0888a031215613c5c57600080fd5b8735613c67816139f8565b96506020880135613c77816139f8565b955060408801359450606088013593506080880135613c9581613c32565b9699959850939692959460a0840135945060c09093013592915050565b600060208284031215613cc457600080fd5b813563ffffffff8116811461107957600080fd5b73ffffffffffffffffffffffffffffffffffffffff8616815284602082015283604082015260806060820152816080820152818360a0830137600081830160a090810191909152601f9092017fffffffffffffffffffffffffffffffffffffffffffffffffffffffffffffffe0160101949350505050565b600060208284031215613d6257600080fd5b5051919050565b7f4e487b7100000000000000000000000000000000000000000000000000000000600052601160045260246000fd5b600082821015613daa57613daa613d69565b500390565b6000817fffffffffffffffffffffffffffffffffffffffffffffffffffffffffffffffff0483118215151615613de757613de7613d69565b500290565b7f4e487b7100000000000000000000000000000000000000000000000000000000600052601260045260246000fd5b600082613e2a57613e2a613dec565b500490565b600060208284031215613e4157600080fd5b815161107981613c32565b600060ff821660ff841680821015613e6657613e66613d69565b90039392505050565b600181815b80851115613eb857816fffffffffffffffffffffffffffffffff04821115613e9e57613e9e613d69565b80851615613eab57918102915b93841c9390800290613e74565b509250929050565b600082613ecf57506001610e91565b81613edc57506000610e91565b8160018114613ef25760028114613efc57613f39565b6001915050610e91565b60ff841115613f0d57613f0d613d69565b6001841b91506fffffffffffffffffffffffffffffffff821115613f3357613f33613d69565b50610e91565b5060208310610133831016604e8410600b8410161715613f7c575081810a6fffffffffffffffffffffffffffffffff811115613f7757613f77613d69565b610e91565b613f868383613e6f565b806fffffffffffffffffffffffffffffffff04821115613fa857613fa8613d69565b029392505050565b600061107960ff84166fffffffffffffffffffffffffffffffff8416613ec0565b60008219821115613fe457613fe4613d69565b500190565b60007fffffffffffffffffffffffffffffffffffffffffffffffffffffffffffffffff820361401a5761401a613d69565b5060010190565b60008261403057614030613dec565b500690565b60006020828403121561404757600080fd5b8151611079816139f8565b60006020828403121561406457600080fd5b8151801515811461107957600080fd5b60008251614086818460208701613ab3565b919091019291505056fea26469706673582212203e44df173bf8b96b4a1374366096588fcbf1bcf6ea660ff03b8dcc920b20b76364736f6c634300080f0033",
  "immutableReferences": {
    "3711": [
      {
        "length": 32,
        "start": 1506
      },
      {
        "length": 32,
        "start": 3759
      },
      {
        "length": 32,
        "start": 4248
      },
      {
        "length": 32,
        "start": 4989
      },
      {
        "length": 32,
        "start": 9173
      },
      {
        "length": 32,
        "start": 11020
      },
      {
        "length": 32,
        "start": 13179
      }
    ]
  },
  "source": "// SPDX-License-Identifier: GPL-3.0-or-later\npragma solidity =0.8.15;\n\nimport \"./interfaces/INomiswapStablePair.sol\";\nimport \"./interfaces/INomiswapCallee.sol\";\nimport \"./interfaces/INomiswapFactory.sol\";\nimport \"./StableSwapERC20.sol\";\nimport \"./libraries/MathUtils.sol\";\nimport \"./libraries/UQ112x112.sol\";\nimport \"./libraries/Math.sol\";\nimport \"./util/FactoryGuard.sol\";\nimport \"@openzeppelin/contracts/token/ERC20/extensions/IERC20Metadata.sol\";\nimport \"@openzeppelin/contracts/token/ERC20/utils/SafeERC20.sol\";\nimport \"@openzeppelin/contracts/security/ReentrancyGuard.sol\";\n\ncontract StableSwapPair is INomiswapStablePair, StableSwapERC20, ReentrancyGuard, FactoryGuard {\n    using MathUtils for uint256;\n\n    uint224 constant Q112 = 2**112;\n\n    using UQ112x112 for uint224;\n\n    uint public constant MINIMUM_LIQUIDITY = 10**3;\n\n    address public token0;\n    address public token1;\n\n    uint112 private reserve0;           // uses single storage slot, accessible via getReserves\n    uint112 private reserve1;           // uses single storage slot, accessible via getReserves\n    uint32  private blockTimestampLast; // uses single storage slot, accessible via getReserves\n\n    uint public dLast; // invariant\n    uint256 internal constant MAX_FEE = 10000; // @dev 100%.\n    uint32 public swapFee = 10; // uses 0.1% default\n    uint public devFee = uint(Q112*(10-7))/uint(7); // 70% (1/0.7-1)\n\n    uint256 internal constant A_PRECISION = 100;\n\n    uint256 private constant MAX_LOOP_LIMIT = 256;\n\n    uint256 internal constant MAX_A = 10 ** 6;\n    uint256 internal constant MAX_A_CHANGE = 10;\n    uint256 internal constant MIN_RAMP_TIME = 86400;\n\n\n    uint128 public token0PrecisionMultiplier; // uses single storage slot, accessible via getReserves\n    uint128 public token1PrecisionMultiplier; // uses single storage slot, accessible via getReserves\n\n    uint256 initialA = 85 * A_PRECISION;\n    uint256 futureA = 85 * A_PRECISION;\n    uint256 initialATime;\n    uint256 futureATime;\n\n    constructor() FactoryGuard(msg.sender) {\n        futureATime = block.timestamp;\n    }\n\n    function initialize(address _token0, address _token1) external onlyFactory {\n        token0 = _token0;\n        token1 = _token1;\n        token0PrecisionMultiplier = uint128(10)**(18 - IERC20Metadata(_token0).decimals());\n        token1PrecisionMultiplier = uint128(10)**(18 - IERC20Metadata(_token1).decimals());\n    }\n\n    function setSwapFee(uint32 _swapFee) override external onlyFactory {\n        require(_swapFee <= MAX_FEE, 'NomiswapPair: FORBIDDEN_FEE');\n        swapFee = _swapFee;\n    }\n\n    function setDevFee(uint _devFee) override external onlyFactory {\n        require(_devFee != 0, \"NomiswapPair: dev fee 0\");\n        devFee = _devFee;\n    }\n\n    // this low-level function should be called from a contract which performs important safety checks\n    function mint(address to) override external nonReentrant returns (uint liquidity) {\n        (uint112 _reserve0, uint112 _reserve1,) = getReserves(); // gas savings\n        uint balance0 = IERC20(token0).balanceOf(address(this));\n        uint balance1 = IERC20(token1).balanceOf(address(this));\n\n        bool feeOn = _mintFee(_reserve0, _reserve1);\n        uint _totalSupply = totalSupply; // gas savings, must be defined here since totalSupply can update in _mintFee\n        uint A = getA();\n        uint dBalance = _computeLiquidity(balance0, balance1, A);\n        uint amount0 = balance0 - _reserve0;\n        uint amount1 = balance1 - _reserve1;\n        if (_totalSupply == 0) {\n            liquidity = _computeLiquidity(amount0, amount1, A) - MINIMUM_LIQUIDITY;\n            _mint(address(0), MINIMUM_LIQUIDITY); // permanently lock the first MINIMUM_LIQUIDITY tokens\n        } else {\n            uint256 dReserve = _computeLiquidity(reserve0, reserve1, A);\n            liquidity = (dBalance - dReserve) * _totalSupply/dReserve;\n        }\n        require(liquidity > 0, 'Nomiswap: INSUFFICIENT_LIQUIDITY_MINTED');\n        _mint(to, liquidity);\n\n        _update(balance0, balance1);\n        if (feeOn) dLast = dBalance; // reserve0 and reserve1 are up-to-date\n        emit Mint(msg.sender, amount0, amount1);\n    }\n\n    // this low-level function should be called from a contract which performs important safety checks\n    function burn(address to) override external nonReentrant returns (uint amount0, uint amount1) {\n        (uint112 _reserve0, uint112 _reserve1,) = getReserves(); // gas savings\n        address _token0 = token0;                                // gas savings\n        address _token1 = token1;                                // gas savings\n        uint balance0 = IERC20(_token0).balanceOf(address(this));\n        uint balance1 = IERC20(_token1).balanceOf(address(this));\n        uint liquidity = balanceOf[address(this)];\n\n        bool feeOn = _mintFee(_reserve0, _reserve1);\n        uint _totalSupply = totalSupply; // gas savings, must be defined here since totalSupply can update in _mintFee\n        amount0 = liquidity * balance0 / _totalSupply; // using balances ensures pro-rata distribution\n        amount1 = liquidity * balance1 / _totalSupply; // using balances ensures pro-rata distribution\n        require(amount0 > 0 && amount1 > 0, 'Nomiswap: INSUFFICIENT_LIQUIDITY_BURNED');\n        _burn(address(this), liquidity);\n        SafeERC20.safeTransfer(IERC20(_token0), to, amount0);\n        SafeERC20.safeTransfer(IERC20(_token1), to, amount1);\n        balance0 = IERC20(_token0).balanceOf(address(this));\n        balance1 = IERC20(_token1).balanceOf(address(this));\n\n        _update(balance0, balance1);\n        if (feeOn) dLast = _computeLiquidity(reserve0, reserve1, getA()); // reserve0 and reserve1 are up-to-date\n        emit Burn(msg.sender, amount0, amount1, to);\n    }\n\n    // this low-level function should be called from a contract which performs important safety checks\n    function swap(uint amount0Out, uint amount1Out, address to, bytes calldata data) override external nonReentrant {\n        require(amount0Out > 0 || amount1Out > 0, 'Nomiswap: INSUFFICIENT_OUTPUT_AMOUNT');\n        (uint _reserve0, uint _reserve1,) = getReserves(); // gas savings\n        require(amount0Out < _reserve0 && amount1Out < _reserve1, 'Nomiswap: INSUFFICIENT_LIQUIDITY');\n\n        uint balance0;\n        uint balance1;\n        { // scope for _token{0,1}, avoids stack too deep errors\n            address _token0 = token0;\n            address _token1 = token1;\n            require(to != _token0 && to != _token1, 'Nomiswap: INVALID_TO');\n            if (amount0Out > 0) SafeERC20.safeTransfer(IERC20(_token0), to, amount0Out); // optimistically transfer tokens\n            if (amount1Out > 0) SafeERC20.safeTransfer(IERC20(_token1), to, amount1Out); // optimistically transfer tokens\n            if (data.length > 0) INomiswapCallee(to).nomiswapCall(msg.sender, amount0Out, amount1Out, data);\n            balance0 = IERC20(_token0).balanceOf(address(this));\n            balance1 = IERC20(_token1).balanceOf(address(this));\n        }\n        uint amount0In = balance0 > _reserve0 - amount0Out ? balance0 - (_reserve0 - amount0Out) : 0;\n        uint amount1In = balance1 > _reserve1 - amount1Out ? balance1 - (_reserve1 - amount1Out) : 0;\n        require(amount0In > 0 || amount1In > 0, 'Nomiswap: INSUFFICIENT_INPUT_AMOUNT');\n        { // scope for reserve{0,1}Adjusted, avoids stack too deep errors\n\n            uint256 A = getA();\n            uint _swapFee = swapFee;\n\n            uint balance0Adjusted = (balance0 * MAX_FEE - amount0In * _swapFee) * token0PrecisionMultiplier / MAX_FEE;\n            uint balance1Adjusted = (balance1 * MAX_FEE - amount1In * _swapFee) * token1PrecisionMultiplier / MAX_FEE;\n            uint256 dBalance = _computeLiquidityFromAdjustedBalances(balance0Adjusted, balance1Adjusted, A);\n\n            uint256 adjustedReserve0 = _reserve0 * token0PrecisionMultiplier;\n            uint256 adjustedReserve1 = _reserve1 * token1PrecisionMultiplier;\n            uint256 dReserves = _computeLiquidityFromAdjustedBalances(adjustedReserve0, adjustedReserve1, A);\n\n            require(dBalance >= dReserves, 'Nomiswap: D');\n        }\n\n        _update(balance0, balance1);\n        emit Swap(msg.sender, amount0In, amount1In, amount0Out, amount1Out, to);\n    }\n\n    // force balances to match reserves\n    function skim(address to) override external nonReentrant {\n        address _token0 = token0; // gas savings\n        address _token1 = token1; // gas savings\n        SafeERC20.safeTransfer(IERC20(_token0), to, IERC20(_token0).balanceOf(address(this)) - reserve0);\n        SafeERC20.safeTransfer(IERC20(_token1), to, IERC20(_token1).balanceOf(address(this)) - reserve1);\n    }\n\n    // force reserves to match balances\n    function sync() override external nonReentrant {\n        _update(IERC20(token0).balanceOf(address(this)), IERC20(token1).balanceOf(address(this)));\n    }\n\n    function rampA(uint256 _futureA, uint256 _futureTime) override external nonReentrant onlyFactory {\n\n        require(block.timestamp >= initialATime + MIN_RAMP_TIME, 'NomiswapPair: INVALID_TIME');\n        require(_futureTime >= block.timestamp + MIN_RAMP_TIME, 'NomiswapPair: INVALID_FUTURE_TIME');\n\n        uint256 _initialA = getA();\n        uint256 _futureAP = _futureA * A_PRECISION;\n\n        require(_futureA > 0 && _futureA < MAX_A);\n\n        if (_futureAP < _initialA) {\n            require(_futureAP * MAX_A_CHANGE >= _initialA);\n        } else {\n            require(_futureAP <= _initialA * MAX_A_CHANGE);\n        }\n\n        initialA = _initialA;\n        futureA = _futureAP;\n        initialATime = block.timestamp;\n        futureATime = _futureTime;\n\n        emit RampA(_initialA, _futureAP, block.timestamp, _futureTime);\n    }\n\n    function stopRampA() override external nonReentrant onlyFactory {\n        uint256 currentA = getA();\n        initialA = currentA;\n        futureA = currentA;\n        initialATime = block.timestamp;\n        futureATime = block.timestamp;\n\n        emit StopRampA(currentA, block.timestamp);\n    }\n\n    function getAmountIn(address tokenIn, uint256 amountOut) external view override returns (uint256 finalAmountIn) {\n        (uint256 _reserve0, uint256 _reserve1, ) = getReserves();\n\n        unchecked {\n            uint256 adjustedReserve0 = _reserve0 * token0PrecisionMultiplier;\n            uint256 adjustedReserve1 = _reserve1 * token1PrecisionMultiplier;\n            uint256 A = getA();\n            uint256 d = _computeLiquidityFromAdjustedBalances(adjustedReserve0, adjustedReserve1, A);\n\n            if (tokenIn == token0) {\n                uint256 x = adjustedReserve1 - amountOut * token1PrecisionMultiplier;\n                uint256 y = _getY(x, d, A);\n                uint256 dy = (y + 1 - adjustedReserve0) / token0PrecisionMultiplier;\n                finalAmountIn = dy * MAX_FEE / (MAX_FEE - swapFee);\n            } else {\n                require(tokenIn == token1, \"INVALID_INPUT_TOKEN\");\n                uint256 x = adjustedReserve0 - amountOut * token0PrecisionMultiplier;\n                uint256 y = _getY(x, d, A);\n                uint256 dy = (y + 1 - adjustedReserve1) / token1PrecisionMultiplier;\n                finalAmountIn = dy * MAX_FEE / (MAX_FEE - swapFee);\n            }\n        }\n    }\n\n    function getAmountOut(address tokenIn, uint256 amountIn) external view override returns (uint256 finalAmountOut) {\n        (uint256 _reserve0, uint256 _reserve1, ) = getReserves();\n\n\n        unchecked {\n            uint256 feeDeductedAmountIn = amountIn - (amountIn * swapFee) / MAX_FEE;\n            uint256 adjustedReserve0 = _reserve0 * token0PrecisionMultiplier;\n            uint256 adjustedReserve1 = _reserve1 * token1PrecisionMultiplier;\n            uint256 A = getA();\n            uint256 d = _computeLiquidityFromAdjustedBalances(adjustedReserve0, adjustedReserve1, A);\n\n            if (tokenIn == token0) {\n                uint256 x = adjustedReserve0 + feeDeductedAmountIn * token0PrecisionMultiplier;\n                uint256 y = _getY(x, d, A);\n                finalAmountOut = (adjustedReserve1 - y - 1) / token1PrecisionMultiplier;\n            } else {\n                require(tokenIn == token1, \"INVALID_INPUT_TOKEN\");\n                uint256 x = adjustedReserve1 + feeDeductedAmountIn * token1PrecisionMultiplier;\n                uint256 y = _getY(x, d, A);\n                finalAmountOut = (adjustedReserve0 - y - 1) / token0PrecisionMultiplier;\n            }\n        }\n    }\n\n    function getReserves() override public view returns (uint112 _reserve0, uint112 _reserve1, uint32 _blockTimestampLast) {\n        _reserve0 = reserve0;\n        _reserve1 = reserve1;\n        _blockTimestampLast = blockTimestampLast;\n    }\n\n    function factory() override public view returns (address) {\n        return _factory;\n    }\n\n    function getA() override public view returns (uint256) {\n        uint256 t1  = futureATime;\n        uint256 A1  = futureA;\n\n        if (block.timestamp < t1) {\n            uint256 A0 = initialA;\n            uint256 t0 = initialATime;\n            // Expressions in uint256 cannot have negative numbers, thus \"if\"\n            if (A1 > A0) {\n                return A0 + (A1 - A0) * (block.timestamp - t0) / (t1 - t0);\n            } else {\n                return A0 - (A0 - A1) * (block.timestamp - t0) / (t1 - t0);\n            }\n        } else {\n            // when t1 == 0 or block.timestamp >= t1\n            return A1;\n        }\n    }\n\n    function _computeLiquidity(uint256 _reserve0, uint256 _reserve1, uint256 A) private view returns (uint256 liquidity) {\n        unchecked {\n            uint256 adjustedReserve0 = _reserve0 * token0PrecisionMultiplier;\n            uint256 adjustedReserve1 = _reserve1 * token1PrecisionMultiplier;\n            liquidity = _computeLiquidityFromAdjustedBalances(adjustedReserve0, adjustedReserve1, A);\n        }\n    }\n\n    function _update(uint balance0, uint balance1) private {\n        require(balance0 <= type(uint112).max && balance1 <= type(uint112).max, 'Nomiswap: OVERFLOW');\n        uint32 blockTimestamp = uint32(block.timestamp % 2**32);\n        reserve0 = uint112(balance0);\n        reserve1 = uint112(balance1);\n        blockTimestampLast = blockTimestamp;\n        emit Sync(reserve0, reserve1);\n    }\n\n    // if fee is on, mint liquidity equivalent to 1/6th of the growth in sqrt(k)\n    function _mintFee(uint112 _reserve0, uint112 _reserve1) private returns (bool feeOn) {\n        address feeTo = INomiswapFactory(factory()).feeTo();\n        feeOn = feeTo != address(0);\n        uint _dLast = dLast; // gas savings\n        if (feeOn) {\n            if (_dLast != 0) {\n                uint d = _computeLiquidity(_reserve0, _reserve1, getA());\n                if (d > dLast) {\n                    uint numerator = totalSupply * (d - dLast);\n                    uint denominator = (d * devFee/Q112) + dLast;\n                    uint liquidity = numerator / denominator;\n                    if (liquidity > 0) _mint(feeTo, liquidity);\n                }\n            }\n        } else if (_dLast != 0) {\n            dLast = 0;\n        }\n    }\n\n    function _computeLiquidityFromAdjustedBalances(uint256 xp0, uint256 xp1, uint256 A) private pure returns (uint256 computed) {\n        uint256 s = xp0 + xp1;\n\n        uint256 N_A = A * 4;\n        if (s == 0) {\n            return 0;\n        }\n        uint256 prevD;\n        uint256 D = s;\n        for (uint256 i = 0; i < MAX_LOOP_LIMIT; i++) {\n            uint256 dP = (((D * D) / xp0) * D) / xp1 / 4;\n            prevD = D;\n            D = (((N_A * s) / A_PRECISION + 2 * dP) * D) / ((N_A / A_PRECISION - 1) * D + 3 * dP);\n            if (D.within1(prevD)) {\n                break;\n            }\n        }\n        computed = D;\n    }\n\n    function _getY(uint256 x, uint256 D, uint256 A) private pure returns (uint256 y) {\n        uint256 N_A = A * 4;\n        uint256 c = (D * D) / (x * 2);\n        c = (c * D) / ((N_A * 2) / A_PRECISION);\n        uint256 b = x + ((D * A_PRECISION) / N_A);\n        uint256 yPrev;\n        y = D;\n        // @dev Iterative approximation.\n        for (uint256 i = 0; i < MAX_LOOP_LIMIT; i++) {\n            yPrev = y;\n            y = (y * y + c) / (y * 2 + b - D);\n            if (y.within1(yPrev)) {\n                break;\n            }\n        }\n    }\n\n}\n",
  "sourcePath": "/home/eraserpl/NetBeansProjects/stableswap-contracts/contracts/StableSwapPair.sol",
  "compiler": {
    "name": "solc",
    "version": "0.8.15+commit.e14f2714.Emscripten.clang"
  },
  "schemaVersion": "3.4.9",
  "updatedAt": "2022-08-12T12:41:41.450Z",
  "devdoc": {
    "kind": "dev",
    "methods": {},
    "version": 1
  },
  "userdoc": {
    "kind": "user",
    "methods": {},
    "version": 1
  }
}